{
	"src\\BaseRegistrarImplementation.sol": {
		"BaseRegistrarImplementation": {
			"abi": [
				{
					"constant": true,
					"inputs": [
						{
							"name": "interfaceID",
							"type": "bytes4"
						}
					],
					"name": "supportsInterface",
					"outputs": [
						{
							"name": "",
							"type": "bool"
						}
					],
					"payable": false,
					"stateMutability": "view",
					"type": "function"
				},
				{
					"constant": true,
					"inputs": [
						{
							"name": "tokenId",
							"type": "uint256"
						}
					],
					"name": "getApproved",
					"outputs": [
						{
							"name": "",
							"type": "address"
						}
					],
					"payable": false,
					"stateMutability": "view",
					"type": "function"
				},
				{
					"constant": false,
					"inputs": [
						{
							"name": "to",
							"type": "address"
						},
						{
							"name": "tokenId",
							"type": "uint256"
						}
					],
					"name": "approve",
					"outputs": [],
					"payable": false,
					"stateMutability": "nonpayable",
					"type": "function"
				},
				{
					"constant": false,
					"inputs": [
						{
							"name": "id",
							"type": "uint256"
						},
						{
							"name": "owner",
							"type": "address"
						},
						{
							"name": "duration",
							"type": "uint256"
						}
					],
					"name": "registerOnly",
					"outputs": [
						{
							"name": "",
							"type": "uint256"
						}
					],
					"payable": false,
					"stateMutability": "nonpayable",
					"type": "function"
				},
				{
					"constant": false,
					"inputs": [
						{
							"name": "from",
							"type": "address"
						},
						{
							"name": "to",
							"type": "address"
						},
						{
							"name": "tokenId",
							"type": "uint256"
						}
					],
					"name": "transferFrom",
					"outputs": [],
					"payable": false,
					"stateMutability": "nonpayable",
					"type": "function"
				},
				{
					"constant": false,
					"inputs": [
						{
							"name": "id",
							"type": "uint256"
						},
						{
							"name": "owner",
							"type": "address"
						}
					],
					"name": "reclaim",
					"outputs": [],
					"payable": false,
					"stateMutability": "nonpayable",
					"type": "function"
				},
				{
					"constant": true,
					"inputs": [],
					"name": "ens",
					"outputs": [
						{
							"name": "",
							"type": "address"
						}
					],
					"payable": false,
					"stateMutability": "view",
					"type": "function"
				},
				{
					"constant": false,
					"inputs": [
						{
							"name": "from",
							"type": "address"
						},
						{
							"name": "to",
							"type": "address"
						},
						{
							"name": "tokenId",
							"type": "uint256"
						}
					],
					"name": "safeTransferFrom",
					"outputs": [],
					"payable": false,
					"stateMutability": "nonpayable",
					"type": "function"
				},
				{
					"constant": false,
					"inputs": [
						{
							"name": "resolver",
							"type": "address"
						}
					],
					"name": "setResolver",
					"outputs": [],
					"payable": false,
					"stateMutability": "nonpayable",
					"type": "function"
				},
				{
					"constant": true,
					"inputs": [
						{
							"name": "tokenId",
							"type": "uint256"
						}
					],
					"name": "ownerOf",
					"outputs": [
						{
							"name": "",
							"type": "address"
						}
					],
					"payable": false,
					"stateMutability": "view",
					"type": "function"
				},
				{
					"constant": true,
					"inputs": [
						{
							"name": "owner",
							"type": "address"
						}
					],
					"name": "balanceOf",
					"outputs": [
						{
							"name": "",
							"type": "uint256"
						}
					],
					"payable": false,
					"stateMutability": "view",
					"type": "function"
				},
				{
					"constant": false,
					"inputs": [],
					"name": "renounceOwnership",
					"outputs": [],
					"payable": false,
					"stateMutability": "nonpayable",
					"type": "function"
				},
				{
					"constant": true,
					"inputs": [],
					"name": "owner",
					"outputs": [
						{
							"name": "",
							"type": "address"
						}
					],
					"payable": false,
					"stateMutability": "view",
					"type": "function"
				},
				{
					"constant": true,
					"inputs": [],
					"name": "isOwner",
					"outputs": [
						{
							"name": "",
							"type": "bool"
						}
					],
					"payable": false,
					"stateMutability": "view",
					"type": "function"
				},
				{
					"constant": true,
					"inputs": [
						{
							"name": "id",
							"type": "uint256"
						}
					],
					"name": "available",
					"outputs": [
						{
							"name": "",
							"type": "bool"
						}
					],
					"payable": false,
					"stateMutability": "view",
					"type": "function"
				},
				{
					"constant": false,
					"inputs": [
						{
							"name": "to",
							"type": "address"
						},
						{
							"name": "approved",
							"type": "bool"
						}
					],
					"name": "setApprovalForAll",
					"outputs": [],
					"payable": false,
					"stateMutability": "nonpayable",
					"type": "function"
				},
				{
					"constant": false,
					"inputs": [
						{
							"name": "controller",
							"type": "address"
						}
					],
					"name": "addController",
					"outputs": [],
					"payable": false,
					"stateMutability": "nonpayable",
					"type": "function"
				},
				{
					"constant": false,
					"inputs": [
						{
							"name": "from",
							"type": "address"
						},
						{
							"name": "to",
							"type": "address"
						},
						{
							"name": "tokenId",
							"type": "uint256"
						},
						{
							"name": "_data",
							"type": "bytes"
						}
					],
					"name": "safeTransferFrom",
					"outputs": [],
					"payable": false,
					"stateMutability": "nonpayable",
					"type": "function"
				},
				{
					"constant": true,
					"inputs": [],
					"name": "GRACE_PERIOD",
					"outputs": [
						{
							"name": "",
							"type": "uint256"
						}
					],
					"payable": false,
					"stateMutability": "view",
					"type": "function"
				},
				{
					"constant": false,
					"inputs": [
						{
							"name": "id",
							"type": "uint256"
						},
						{
							"name": "duration",
							"type": "uint256"
						}
					],
					"name": "renew",
					"outputs": [
						{
							"name": "",
							"type": "uint256"
						}
					],
					"payable": false,
					"stateMutability": "nonpayable",
					"type": "function"
				},
				{
					"constant": true,
					"inputs": [
						{
							"name": "id",
							"type": "uint256"
						}
					],
					"name": "nameExpires",
					"outputs": [
						{
							"name": "",
							"type": "uint256"
						}
					],
					"payable": false,
					"stateMutability": "view",
					"type": "function"
				},
				{
					"constant": true,
					"inputs": [
						{
							"name": "",
							"type": "address"
						}
					],
					"name": "controllers",
					"outputs": [
						{
							"name": "",
							"type": "bool"
						}
					],
					"payable": false,
					"stateMutability": "view",
					"type": "function"
				},
				{
					"constant": true,
					"inputs": [],
					"name": "baseNode",
					"outputs": [
						{
							"name": "",
							"type": "bytes32"
						}
					],
					"payable": false,
					"stateMutability": "view",
					"type": "function"
				},
				{
					"constant": true,
					"inputs": [
						{
							"name": "owner",
							"type": "address"
						},
						{
							"name": "operator",
							"type": "address"
						}
					],
					"name": "isApprovedForAll",
					"outputs": [
						{
							"name": "",
							"type": "bool"
						}
					],
					"payable": false,
					"stateMutability": "view",
					"type": "function"
				},
				{
					"constant": false,
					"inputs": [
						{
							"name": "newOwner",
							"type": "address"
						}
					],
					"name": "transferOwnership",
					"outputs": [],
					"payable": false,
					"stateMutability": "nonpayable",
					"type": "function"
				},
				{
					"constant": false,
					"inputs": [
						{
							"name": "controller",
							"type": "address"
						}
					],
					"name": "removeController",
					"outputs": [],
					"payable": false,
					"stateMutability": "nonpayable",
					"type": "function"
				},
				{
					"constant": false,
					"inputs": [
						{
							"name": "id",
							"type": "uint256"
						},
						{
							"name": "owner",
							"type": "address"
						},
						{
							"name": "duration",
							"type": "uint256"
						}
					],
					"name": "register",
					"outputs": [
						{
							"name": "",
							"type": "uint256"
						}
					],
					"payable": false,
					"stateMutability": "nonpayable",
					"type": "function"
				},
				{
					"inputs": [
						{
							"name": "_ens",
							"type": "address"
						},
						{
							"name": "_baseNode",
							"type": "bytes32"
						}
					],
					"payable": false,
					"stateMutability": "nonpayable",
					"type": "constructor"
				},
				{
					"anonymous": false,
					"inputs": [
						{
							"indexed": true,
							"name": "controller",
							"type": "address"
						}
					],
					"name": "ControllerAdded",
					"type": "event"
				},
				{
					"anonymous": false,
					"inputs": [
						{
							"indexed": true,
							"name": "controller",
							"type": "address"
						}
					],
					"name": "ControllerRemoved",
					"type": "event"
				},
				{
					"anonymous": false,
					"inputs": [
						{
							"indexed": true,
							"name": "id",
							"type": "uint256"
						},
						{
							"indexed": true,
							"name": "owner",
							"type": "address"
						},
						{
							"indexed": false,
							"name": "expires",
							"type": "uint256"
						}
					],
					"name": "NameMigrated",
					"type": "event"
				},
				{
					"anonymous": false,
					"inputs": [
						{
							"indexed": true,
							"name": "id",
							"type": "uint256"
						},
						{
							"indexed": true,
							"name": "owner",
							"type": "address"
						},
						{
							"indexed": false,
							"name": "expires",
							"type": "uint256"
						}
					],
					"name": "NameRegistered",
					"type": "event"
				},
				{
					"anonymous": false,
					"inputs": [
						{
							"indexed": true,
							"name": "id",
							"type": "uint256"
						},
						{
							"indexed": false,
							"name": "expires",
							"type": "uint256"
						}
					],
					"name": "NameRenewed",
					"type": "event"
				},
				{
					"anonymous": false,
					"inputs": [
						{
							"indexed": true,
							"name": "previousOwner",
							"type": "address"
						},
						{
							"indexed": true,
							"name": "newOwner",
							"type": "address"
						}
					],
					"name": "OwnershipTransferred",
					"type": "event"
				},
				{
					"anonymous": false,
					"inputs": [
						{
							"indexed": true,
							"name": "from",
							"type": "address"
						},
						{
							"indexed": true,
							"name": "to",
							"type": "address"
						},
						{
							"indexed": true,
							"name": "tokenId",
							"type": "uint256"
						}
					],
					"name": "Transfer",
					"type": "event"
				},
				{
					"anonymous": false,
					"inputs": [
						{
							"indexed": true,
							"name": "owner",
							"type": "address"
						},
						{
							"indexed": true,
							"name": "approved",
							"type": "address"
						},
						{
							"indexed": true,
							"name": "tokenId",
							"type": "uint256"
						}
					],
					"name": "Approval",
					"type": "event"
				},
				{
					"anonymous": false,
					"inputs": [
						{
							"indexed": true,
							"name": "owner",
							"type": "address"
						},
						{
							"indexed": true,
							"name": "operator",
							"type": "address"
						},
						{
							"indexed": false,
							"name": "approved",
							"type": "bool"
						}
					],
					"name": "ApprovalForAll",
					"type": "event"
				}
			],
			"devdoc": {
				"methods": {
					"approve(address,uint256)": {
						"details": "Approves another address to transfer the given token ID\r The zero address indicates there is no approved address.\r There can only be one approved address per token at a given time.\r Can only be called by the token owner or an approved operator.\r",
						"params": {
							"to": "address to be approved for the given token ID\r",
							"tokenId": "uint256 ID of the token to be approved\r"
						}
					},
					"balanceOf(address)": {
						"details": "Gets the balance of the specified address\r",
						"params": {
							"owner": "address to query the balance of\r"
						},
						"return": "uint256 representing the amount owned by the passed address\r"
					},
					"getApproved(uint256)": {
						"details": "Gets the approved address for a token ID, or zero if no address set\r Reverts if the token ID does not exist.\r",
						"params": {
							"tokenId": "uint256 ID of the token to query the approval of\r"
						},
						"return": "address currently approved for the given token ID\r"
					},
					"isApprovedForAll(address,address)": {
						"details": "Tells whether an operator is approved by a given owner\r",
						"params": {
							"operator": "operator address which you want to query the approval of\r",
							"owner": "owner address which you want to query the approval of\r"
						},
						"return": "bool whether the given operator is approved by the given owner\r"
					},
					"isOwner()": {
						"return": "true if `msg.sender` is the owner of the contract.\r"
					},
					"owner()": {
						"return": "the address of the owner.\r"
					},
					"ownerOf(uint256)": {
						"details": "Gets the owner of the specified token ID. Names become unowned\r     when their registration expires.\r",
						"params": {
							"tokenId": "uint256 ID of the token to query the owner of\r"
						},
						"return": "address currently marked as the owner of the given token ID\r"
					},
					"reclaim(uint256,address)": {
						"details": "Reclaim ownership of a name in ENS, if you own it in the registrar.\r"
					},
					"register(uint256,address,uint256)": {
						"details": "Register a name.\r",
						"params": {
							"duration": "Duration in seconds for the registration.\r",
							"id": "The token ID (keccak256 of the label).\r",
							"owner": "The address that should own the registration.\r"
						}
					},
					"registerOnly(uint256,address,uint256)": {
						"details": "Register a name, without modifying the registry.\r",
						"params": {
							"duration": "Duration in seconds for the registration.\r",
							"id": "The token ID (keccak256 of the label).\r",
							"owner": "The address that should own the registration.\r"
						}
					},
					"renounceOwnership()": {
						"details": "Allows the current owner to relinquish control of the contract.\r"
					},
					"safeTransferFrom(address,address,uint256)": {
						"details": "Safely transfers the ownership of a given token ID to another address\r If the target address is a contract, it must implement `onERC721Received`,\r which is called upon a safe transfer, and return the magic value\r `bytes4(keccak256(\"onERC721Received(address,address,uint256,bytes)\"))`; otherwise,\r the transfer is reverted.\r      * Requires the msg sender to be the owner, approved, or operator\r",
						"params": {
							"from": "current owner of the token\r",
							"to": "address to receive the ownership of the given token ID\r",
							"tokenId": "uint256 ID of the token to be transferred\r"
						}
					},
					"safeTransferFrom(address,address,uint256,bytes)": {
						"details": "Safely transfers the ownership of a given token ID to another address\r If the target address is a contract, it must implement `onERC721Received`,\r which is called upon a safe transfer, and return the magic value\r `bytes4(keccak256(\"onERC721Received(address,address,uint256,bytes)\"))`; otherwise,\r the transfer is reverted.\r Requires the msg sender to be the owner, approved, or operator\r",
						"params": {
							"_data": "bytes data to send along with a safe transfer check\r",
							"from": "current owner of the token\r",
							"to": "address to receive the ownership of the given token ID\r",
							"tokenId": "uint256 ID of the token to be transferred\r"
						}
					},
					"setApprovalForAll(address,bool)": {
						"details": "Sets or unsets the approval of a given operator\r An operator is allowed to transfer all tokens of the sender on their behalf\r",
						"params": {
							"approved": "representing the status of the approval to be set\r",
							"to": "operator address to set the approval\r"
						}
					},
					"transferFrom(address,address,uint256)": {
						"details": "Transfers the ownership of a given token ID to another address\r Usage of this method is discouraged, use `safeTransferFrom` whenever possible\r Requires the msg sender to be the owner, approved, or operator\r",
						"params": {
							"from": "current owner of the token\r",
							"to": "address to receive the ownership of the given token ID\r",
							"tokenId": "uint256 ID of the token to be transferred\r"
						}
					},
					"transferOwnership(address)": {
						"details": "Allows the current owner to transfer control of the contract to a newOwner.\r",
						"params": {
							"newOwner": "The address to transfer ownership to.\r"
						}
					}
				}
			},
			"evm": {
				"assembly": "    /* \"src\\BaseRegistrarImplementation.sol\":25095:30213  contract BaseRegistrarImplementation is BaseRegistrar, ERC721 {\r... */\n  mstore(0x40, 0x80)\n    /* \"src\\BaseRegistrarImplementation.sol\":25969:26077  constructor(ENS _ens, bytes32 _baseNode) public {\r... */\n  callvalue\n    /* \"--CODEGEN--\":8:17   */\n  dup1\n    /* \"--CODEGEN--\":5:7   */\n  iszero\n  tag_1\n  jumpi\n    /* \"--CODEGEN--\":30:31   */\n  0x0\n    /* \"--CODEGEN--\":27:28   */\n  dup1\n    /* \"--CODEGEN--\":20:32   */\n  revert\n    /* \"--CODEGEN--\":5:7   */\ntag_1:\n    /* \"src\\BaseRegistrarImplementation.sol\":25969:26077  constructor(ENS _ens, bytes32 _baseNode) public {\r... */\n  pop\n  mload(0x40)\n  0x40\n  dup1\n  bytecodeSize\n  dup4\n  codecopy\n  dup2\n  add\n  dup1\n  0x40\n  mstore\n    /* \"--CODEGEN--\":13:15   */\n  0x40\n    /* \"--CODEGEN--\":8:11   */\n  dup2\n    /* \"--CODEGEN--\":5:16   */\n  lt\n    /* \"--CODEGEN--\":2:4   */\n  iszero\n  tag_2\n  jumpi\n    /* \"--CODEGEN--\":29:30   */\n  0x0\n    /* \"--CODEGEN--\":26:27   */\n  dup1\n    /* \"--CODEGEN--\":19:31   */\n  revert\n    /* \"--CODEGEN--\":2:4   */\ntag_2:\n    /* \"src\\BaseRegistrarImplementation.sol\":25969:26077  constructor(ENS _ens, bytes32 _baseNode) public {\r... */\n  dup2\n  add\n  swap1\n  dup1\n  dup1\n  mload\n  swap1\n  0x20\n  add\n  swap1\n  swap3\n  swap2\n  swap1\n  dup1\n  mload\n  swap1\n  0x20\n  add\n  swap1\n  swap3\n  swap2\n  swap1\n  pop\n  pop\n  pop\n    /* \"src\\BaseRegistrarImplementation.sol\":8778:8818  _registerInterface(_INTERFACE_ID_ERC165) */\n  tag_8\n    /* \"src\\BaseRegistrarImplementation.sol\":8358:8368  0x01ffc9a7 */\n  0x1ffc9a7\n    /* \"src\\BaseRegistrarImplementation.sol\":8797:8817  _INTERFACE_ID_ERC165 */\n  0x100000000000000000000000000000000000000000000000000000000\n  mul\n    /* \"src\\BaseRegistrarImplementation.sol\":8778:8796  _registerInterface */\n  mul(0x100000000, tag_9)\n    /* \"src\\BaseRegistrarImplementation.sol\":8778:8818  _registerInterface(_INTERFACE_ID_ERC165) */\n  0x100000000\n  swap1\n  div\n  jump\t// in\ntag_8:\n    /* \"src\\BaseRegistrarImplementation.sol\":21535:21545  msg.sender */\n  caller\n    /* \"src\\BaseRegistrarImplementation.sol\":21526:21532  _owner */\n  0x1\n  0x0\n    /* \"src\\BaseRegistrarImplementation.sol\":21526:21545  _owner = msg.sender */\n  0x100\n  exp\n  dup2\n  sload\n  dup2\n  0xffffffffffffffffffffffffffffffffffffffff\n  mul\n  not\n  and\n  swap1\n  dup4\n  0xffffffffffffffffffffffffffffffffffffffff\n  and\n  mul\n  or\n  swap1\n  sstore\n  pop\n    /* \"src\\BaseRegistrarImplementation.sol\":21594:21600  _owner */\n  0x1\n  0x0\n  swap1\n  sload\n  swap1\n  0x100\n  exp\n  swap1\n  div\n  0xffffffffffffffffffffffffffffffffffffffff\n  and\n    /* \"src\\BaseRegistrarImplementation.sol\":21561:21601  OwnershipTransferred(address(0), _owner) */\n  0xffffffffffffffffffffffffffffffffffffffff\n  and\n    /* \"src\\BaseRegistrarImplementation.sol\":21590:21591  0 */\n  0x0\n    /* \"src\\BaseRegistrarImplementation.sol\":21561:21601  OwnershipTransferred(address(0), _owner) */\n  0xffffffffffffffffffffffffffffffffffffffff\n  and\n  0x8be0079c531659141344cd1fd0a4f28419497f9722a3daafe3b4186f6b6457e0\n  mload(0x40)\n  mload(0x40)\n  dup1\n  swap2\n  sub\n  swap1\n  log3\n    /* \"src\\BaseRegistrarImplementation.sol\":11169:11209  _registerInterface(_INTERFACE_ID_ERC721) */\n  tag_12\n    /* \"src\\BaseRegistrarImplementation.sol\":10410:10420  0x80ac58cd */\n  0x80ac58cd\n    /* \"src\\BaseRegistrarImplementation.sol\":11188:11208  _INTERFACE_ID_ERC721 */\n  0x100000000000000000000000000000000000000000000000000000000\n  mul\n    /* \"src\\BaseRegistrarImplementation.sol\":11169:11187  _registerInterface */\n  mul(0x100000000, tag_9)\n    /* \"src\\BaseRegistrarImplementation.sol\":11169:11209  _registerInterface(_INTERFACE_ID_ERC721) */\n  0x100000000\n  swap1\n  div\n  jump\t// in\ntag_12:\n    /* \"src\\BaseRegistrarImplementation.sol\":26034:26038  _ens */\n  dup2\n    /* \"src\\BaseRegistrarImplementation.sol\":26028:26031  ens */\n  0x2\n  0x0\n    /* \"src\\BaseRegistrarImplementation.sol\":26028:26038  ens = _ens */\n  0x100\n  exp\n  dup2\n  sload\n  dup2\n  0xffffffffffffffffffffffffffffffffffffffff\n  mul\n  not\n  and\n  swap1\n  dup4\n  0xffffffffffffffffffffffffffffffffffffffff\n  and\n  mul\n  or\n  swap1\n  sstore\n  pop\n    /* \"src\\BaseRegistrarImplementation.sol\":26060:26069  _baseNode */\n  dup1\n    /* \"src\\BaseRegistrarImplementation.sol\":26049:26057  baseNode */\n  0x3\n    /* \"src\\BaseRegistrarImplementation.sol\":26049:26069  baseNode = _baseNode */\n  dup2\n  swap1\n  sstore\n  pop\n    /* \"src\\BaseRegistrarImplementation.sol\":25969:26077  constructor(ENS _ens, bytes32 _baseNode) public {\r... */\n  pop\n  pop\n    /* \"src\\BaseRegistrarImplementation.sol\":25095:30213  contract BaseRegistrarImplementation is BaseRegistrar, ERC721 {\r... */\n  jump(tag_14)\n    /* \"src\\BaseRegistrarImplementation.sol\":9141:9302  function _registerInterface(bytes4 interfaceId) internal {\r... */\ntag_9:\n    /* \"src\\BaseRegistrarImplementation.sol\":9232:9242  0xffffffff */\n  0xffffffff\n    /* \"src\\BaseRegistrarImplementation.sol\":9217:9242  interfaceId != 0xffffffff */\n  0x100000000000000000000000000000000000000000000000000000000\n  mul\n    /* \"src\\BaseRegistrarImplementation.sol\":9217:9228  interfaceId */\n  dup2\n    /* \"src\\BaseRegistrarImplementation.sol\":9217:9242  interfaceId != 0xffffffff */\n  not(0xffffffffffffffffffffffffffffffffffffffffffffffffffffffff)\n  and\n  eq\n  iszero\n    /* \"src\\BaseRegistrarImplementation.sol\":9209:9243  require(interfaceId != 0xffffffff) */\n  iszero\n  iszero\n  tag_16\n  jumpi\n  0x0\n  dup1\n  revert\ntag_16:\n    /* \"src\\BaseRegistrarImplementation.sol\":9290:9294  true */\n  0x1\n    /* \"src\\BaseRegistrarImplementation.sol\":9254:9274  _supportedInterfaces */\n  0x0\n    /* \"src\\BaseRegistrarImplementation.sol\":9254:9287  _supportedInterfaces[interfaceId] */\n  dup1\n    /* \"src\\BaseRegistrarImplementation.sol\":9275:9286  interfaceId */\n  dup4\n    /* \"src\\BaseRegistrarImplementation.sol\":9254:9287  _supportedInterfaces[interfaceId] */\n  not(0xffffffffffffffffffffffffffffffffffffffffffffffffffffffff)\n  and\n  not(0xffffffffffffffffffffffffffffffffffffffffffffffffffffffff)\n  and\n  dup2\n  mstore\n  0x20\n  add\n  swap1\n  dup2\n  mstore\n  0x20\n  add\n  0x0\n  keccak256\n  0x0\n    /* \"src\\BaseRegistrarImplementation.sol\":9254:9294  _supportedInterfaces[interfaceId] = true */\n  0x100\n  exp\n  dup2\n  sload\n  dup2\n  0xff\n  mul\n  not\n  and\n  swap1\n  dup4\n  iszero\n  iszero\n  mul\n  or\n  swap1\n  sstore\n  pop\n    /* \"src\\BaseRegistrarImplementation.sol\":9141:9302  function _registerInterface(bytes4 interfaceId) internal {\r... */\n  pop\n  jump\t// out\n    /* \"src\\BaseRegistrarImplementation.sol\":25095:30213  contract BaseRegistrarImplementation is BaseRegistrar, ERC721 {\r... */\ntag_14:\n  dataSize(sub_0)\n  dup1\n  dataOffset(sub_0)\n  0x0\n  codecopy\n  0x0\n  return\nstop\n\nsub_0: assembly {\n        /* \"src\\BaseRegistrarImplementation.sol\":25095:30213  contract BaseRegistrarImplementation is BaseRegistrar, ERC721 {\r... */\n      mstore(0x40, 0x80)\n      jumpi(tag_1, lt(calldatasize, 0x4))\n      calldataload(0x0)\n      0x100000000000000000000000000000000000000000000000000000000\n      swap1\n      div\n      0xffffffff\n      and\n      dup1\n      0x1ffc9a7\n      eq\n      tag_2\n      jumpi\n      dup1\n      0x81812fc\n      eq\n      tag_3\n      jumpi\n      dup1\n      0x95ea7b3\n      eq\n      tag_4\n      jumpi\n      dup1\n      0xe297b45\n      eq\n      tag_5\n      jumpi\n      dup1\n      0x23b872dd\n      eq\n      tag_6\n      jumpi\n      dup1\n      0x28ed4f6c\n      eq\n      tag_7\n      jumpi\n      dup1\n      0x3f15457f\n      eq\n      tag_8\n      jumpi\n      dup1\n      0x42842e0e\n      eq\n      tag_9\n      jumpi\n      dup1\n      0x4e543b26\n      eq\n      tag_10\n      jumpi\n      dup1\n      0x6352211e\n      eq\n      tag_11\n      jumpi\n      dup1\n      0x70a08231\n      eq\n      tag_12\n      jumpi\n      dup1\n      0x715018a6\n      eq\n      tag_13\n      jumpi\n      dup1\n      0x8da5cb5b\n      eq\n      tag_14\n      jumpi\n      dup1\n      0x8f32d59b\n      eq\n      tag_15\n      jumpi\n      dup1\n      0x96e494e8\n      eq\n      tag_16\n      jumpi\n      dup1\n      0xa22cb465\n      eq\n      tag_17\n      jumpi\n      dup1\n      0xa7fc7a07\n      eq\n      tag_18\n      jumpi\n      dup1\n      0xb88d4fde\n      eq\n      tag_19\n      jumpi\n      dup1\n      0xc1a287e2\n      eq\n      tag_20\n      jumpi\n      dup1\n      0xc475abff\n      eq\n      tag_21\n      jumpi\n      dup1\n      0xd6e4fa86\n      eq\n      tag_22\n      jumpi\n      dup1\n      0xda8c229e\n      eq\n      tag_23\n      jumpi\n      dup1\n      0xddf7fcb0\n      eq\n      tag_24\n      jumpi\n      dup1\n      0xe985e9c5\n      eq\n      tag_25\n      jumpi\n      dup1\n      0xf2fde38b\n      eq\n      tag_26\n      jumpi\n      dup1\n      0xf6a74ed7\n      eq\n      tag_27\n      jumpi\n      dup1\n      0xfca247ac\n      eq\n      tag_28\n      jumpi\n    tag_1:\n      0x0\n      dup1\n      revert\n        /* \"src\\BaseRegistrarImplementation.sol\":29987:30210  function supportsInterface(bytes4 interfaceID) external view returns (bool) {\r... */\n    tag_2:\n      callvalue\n        /* \"--CODEGEN--\":8:17   */\n      dup1\n        /* \"--CODEGEN--\":5:7   */\n      iszero\n      tag_29\n      jumpi\n        /* \"--CODEGEN--\":30:31   */\n      0x0\n        /* \"--CODEGEN--\":27:28   */\n      dup1\n        /* \"--CODEGEN--\":20:32   */\n      revert\n        /* \"--CODEGEN--\":5:7   */\n    tag_29:\n        /* \"src\\BaseRegistrarImplementation.sol\":29987:30210  function supportsInterface(bytes4 interfaceID) external view returns (bool) {\r... */\n      pop\n      tag_30\n      0x4\n      dup1\n      calldatasize\n      sub\n        /* \"--CODEGEN--\":13:15   */\n      0x20\n        /* \"--CODEGEN--\":8:11   */\n      dup2\n        /* \"--CODEGEN--\":5:16   */\n      lt\n        /* \"--CODEGEN--\":2:4   */\n      iszero\n      tag_31\n      jumpi\n        /* \"--CODEGEN--\":29:30   */\n      0x0\n        /* \"--CODEGEN--\":26:27   */\n      dup1\n        /* \"--CODEGEN--\":19:31   */\n      revert\n        /* \"--CODEGEN--\":2:4   */\n    tag_31:\n        /* \"src\\BaseRegistrarImplementation.sol\":29987:30210  function supportsInterface(bytes4 interfaceID) external view returns (bool) {\r... */\n      dup2\n      add\n      swap1\n      dup1\n      dup1\n      calldataload\n      not(0xffffffffffffffffffffffffffffffffffffffffffffffffffffffff)\n      and\n      swap1\n      0x20\n      add\n      swap1\n      swap3\n      swap2\n      swap1\n      pop\n      pop\n      pop\n      jump(tag_32)\n    tag_30:\n      mload(0x40)\n      dup1\n      dup3\n      iszero\n      iszero\n      iszero\n      iszero\n      dup2\n      mstore\n      0x20\n      add\n      swap2\n      pop\n      pop\n      mload(0x40)\n      dup1\n      swap2\n      sub\n      swap1\n      return\n        /* \"src\\BaseRegistrarImplementation.sol\":13015:13169  function getApproved(uint256 tokenId) public view returns (address) {\r... */\n    tag_3:\n      callvalue\n        /* \"--CODEGEN--\":8:17   */\n      dup1\n        /* \"--CODEGEN--\":5:7   */\n      iszero\n      tag_33\n      jumpi\n        /* \"--CODEGEN--\":30:31   */\n      0x0\n        /* \"--CODEGEN--\":27:28   */\n      dup1\n        /* \"--CODEGEN--\":20:32   */\n      revert\n        /* \"--CODEGEN--\":5:7   */\n    tag_33:\n        /* \"src\\BaseRegistrarImplementation.sol\":13015:13169  function getApproved(uint256 tokenId) public view returns (address) {\r... */\n      pop\n      tag_34\n      0x4\n      dup1\n      calldatasize\n      sub\n        /* \"--CODEGEN--\":13:15   */\n      0x20\n        /* \"--CODEGEN--\":8:11   */\n      dup2\n        /* \"--CODEGEN--\":5:16   */\n      lt\n        /* \"--CODEGEN--\":2:4   */\n      iszero\n      tag_35\n      jumpi\n        /* \"--CODEGEN--\":29:30   */\n      0x0\n        /* \"--CODEGEN--\":26:27   */\n      dup1\n        /* \"--CODEGEN--\":19:31   */\n      revert\n        /* \"--CODEGEN--\":2:4   */\n    tag_35:\n        /* \"src\\BaseRegistrarImplementation.sol\":13015:13169  function getApproved(uint256 tokenId) public view returns (address) {\r... */\n      dup2\n      add\n      swap1\n      dup1\n      dup1\n      calldataload\n      swap1\n      0x20\n      add\n      swap1\n      swap3\n      swap2\n      swap1\n      pop\n      pop\n      pop\n      jump(tag_36)\n    tag_34:\n      mload(0x40)\n      dup1\n      dup3\n      0xffffffffffffffffffffffffffffffffffffffff\n      and\n      0xffffffffffffffffffffffffffffffffffffffff\n      and\n      dup2\n      mstore\n      0x20\n      add\n      swap2\n      pop\n      pop\n      mload(0x40)\n      dup1\n      swap2\n      sub\n      swap1\n      return\n        /* \"src\\BaseRegistrarImplementation.sol\":12423:12722  function approve(address to, uint256 tokenId) public {\r... */\n    tag_4:\n      callvalue\n        /* \"--CODEGEN--\":8:17   */\n      dup1\n        /* \"--CODEGEN--\":5:7   */\n      iszero\n      tag_37\n      jumpi\n        /* \"--CODEGEN--\":30:31   */\n      0x0\n        /* \"--CODEGEN--\":27:28   */\n      dup1\n        /* \"--CODEGEN--\":20:32   */\n      revert\n        /* \"--CODEGEN--\":5:7   */\n    tag_37:\n        /* \"src\\BaseRegistrarImplementation.sol\":12423:12722  function approve(address to, uint256 tokenId) public {\r... */\n      pop\n      tag_38\n      0x4\n      dup1\n      calldatasize\n      sub\n        /* \"--CODEGEN--\":13:15   */\n      0x40\n        /* \"--CODEGEN--\":8:11   */\n      dup2\n        /* \"--CODEGEN--\":5:16   */\n      lt\n        /* \"--CODEGEN--\":2:4   */\n      iszero\n      tag_39\n      jumpi\n        /* \"--CODEGEN--\":29:30   */\n      0x0\n        /* \"--CODEGEN--\":26:27   */\n      dup1\n        /* \"--CODEGEN--\":19:31   */\n      revert\n        /* \"--CODEGEN--\":2:4   */\n    tag_39:\n        /* \"src\\BaseRegistrarImplementation.sol\":12423:12722  function approve(address to, uint256 tokenId) public {\r... */\n      dup2\n      add\n      swap1\n      dup1\n      dup1\n      calldataload\n      0xffffffffffffffffffffffffffffffffffffffff\n      and\n      swap1\n      0x20\n      add\n      swap1\n      swap3\n      swap2\n      swap1\n      dup1\n      calldataload\n      swap1\n      0x20\n      add\n      swap1\n      swap3\n      swap2\n      swap1\n      pop\n      pop\n      pop\n      jump(tag_40)\n    tag_38:\n      stop\n        /* \"src\\BaseRegistrarImplementation.sol\":28460:28608  function registerOnly(uint256 id, address owner, uint duration) external returns(uint) {\r... */\n    tag_5:\n      callvalue\n        /* \"--CODEGEN--\":8:17   */\n      dup1\n        /* \"--CODEGEN--\":5:7   */\n      iszero\n      tag_41\n      jumpi\n        /* \"--CODEGEN--\":30:31   */\n      0x0\n        /* \"--CODEGEN--\":27:28   */\n      dup1\n        /* \"--CODEGEN--\":20:32   */\n      revert\n        /* \"--CODEGEN--\":5:7   */\n    tag_41:\n        /* \"src\\BaseRegistrarImplementation.sol\":28460:28608  function registerOnly(uint256 id, address owner, uint duration) external returns(uint) {\r... */\n      pop\n      tag_42\n      0x4\n      dup1\n      calldatasize\n      sub\n        /* \"--CODEGEN--\":13:15   */\n      0x60\n        /* \"--CODEGEN--\":8:11   */\n      dup2\n        /* \"--CODEGEN--\":5:16   */\n      lt\n        /* \"--CODEGEN--\":2:4   */\n      iszero\n      tag_43\n      jumpi\n        /* \"--CODEGEN--\":29:30   */\n      0x0\n        /* \"--CODEGEN--\":26:27   */\n      dup1\n        /* \"--CODEGEN--\":19:31   */\n      revert\n        /* \"--CODEGEN--\":2:4   */\n    tag_43:\n        /* \"src\\BaseRegistrarImplementation.sol\":28460:28608  function registerOnly(uint256 id, address owner, uint duration) external returns(uint) {\r... */\n      dup2\n      add\n      swap1\n      dup1\n      dup1\n      calldataload\n      swap1\n      0x20\n      add\n      swap1\n      swap3\n      swap2\n      swap1\n      dup1\n      calldataload\n      0xffffffffffffffffffffffffffffffffffffffff\n      and\n      swap1\n      0x20\n      add\n      swap1\n      swap3\n      swap2\n      swap1\n      dup1\n      calldataload\n      swap1\n      0x20\n      add\n      swap1\n      swap3\n      swap2\n      swap1\n      pop\n      pop\n      pop\n      jump(tag_44)\n    tag_42:\n      mload(0x40)\n      dup1\n      dup3\n      dup2\n      mstore\n      0x20\n      add\n      swap2\n      pop\n      pop\n      mload(0x40)\n      dup1\n      swap2\n      sub\n      swap1\n      return\n        /* \"src\\BaseRegistrarImplementation.sol\":14605:14789  function transferFrom(address from, address to, uint256 tokenId) public {\r... */\n    tag_6:\n      callvalue\n        /* \"--CODEGEN--\":8:17   */\n      dup1\n        /* \"--CODEGEN--\":5:7   */\n      iszero\n      tag_45\n      jumpi\n        /* \"--CODEGEN--\":30:31   */\n      0x0\n        /* \"--CODEGEN--\":27:28   */\n      dup1\n        /* \"--CODEGEN--\":20:32   */\n      revert\n        /* \"--CODEGEN--\":5:7   */\n    tag_45:\n        /* \"src\\BaseRegistrarImplementation.sol\":14605:14789  function transferFrom(address from, address to, uint256 tokenId) public {\r... */\n      pop\n      tag_46\n      0x4\n      dup1\n      calldatasize\n      sub\n        /* \"--CODEGEN--\":13:15   */\n      0x60\n        /* \"--CODEGEN--\":8:11   */\n      dup2\n        /* \"--CODEGEN--\":5:16   */\n      lt\n        /* \"--CODEGEN--\":2:4   */\n      iszero\n      tag_47\n      jumpi\n        /* \"--CODEGEN--\":29:30   */\n      0x0\n        /* \"--CODEGEN--\":26:27   */\n      dup1\n        /* \"--CODEGEN--\":19:31   */\n      revert\n        /* \"--CODEGEN--\":2:4   */\n    tag_47:\n        /* \"src\\BaseRegistrarImplementation.sol\":14605:14789  function transferFrom(address from, address to, uint256 tokenId) public {\r... */\n      dup2\n      add\n      swap1\n      dup1\n      dup1\n      calldataload\n      0xffffffffffffffffffffffffffffffffffffffff\n      and\n      swap1\n      0x20\n      add\n      swap1\n      swap3\n      swap2\n      swap1\n      dup1\n      calldataload\n      0xffffffffffffffffffffffffffffffffffffffff\n      and\n      swap1\n      0x20\n      add\n      swap1\n      swap3\n      swap2\n      swap1\n      dup1\n      calldataload\n      swap1\n      0x20\n      add\n      swap1\n      swap3\n      swap2\n      swap1\n      pop\n      pop\n      pop\n      jump(tag_48)\n    tag_46:\n      stop\n        /* \"src\\BaseRegistrarImplementation.sol\":29799:29979  function reclaim(uint256 id, address owner) external live {\r... */\n    tag_7:\n      callvalue\n        /* \"--CODEGEN--\":8:17   */\n      dup1\n        /* \"--CODEGEN--\":5:7   */\n      iszero\n      tag_49\n      jumpi\n        /* \"--CODEGEN--\":30:31   */\n      0x0\n        /* \"--CODEGEN--\":27:28   */\n      dup1\n        /* \"--CODEGEN--\":20:32   */\n      revert\n        /* \"--CODEGEN--\":5:7   */\n    tag_49:\n        /* \"src\\BaseRegistrarImplementation.sol\":29799:29979  function reclaim(uint256 id, address owner) external live {\r... */\n      pop\n      tag_50\n      0x4\n      dup1\n      calldatasize\n      sub\n        /* \"--CODEGEN--\":13:15   */\n      0x40\n        /* \"--CODEGEN--\":8:11   */\n      dup2\n        /* \"--CODEGEN--\":5:16   */\n      lt\n        /* \"--CODEGEN--\":2:4   */\n      iszero\n      tag_51\n      jumpi\n        /* \"--CODEGEN--\":29:30   */\n      0x0\n        /* \"--CODEGEN--\":26:27   */\n      dup1\n        /* \"--CODEGEN--\":19:31   */\n      revert\n        /* \"--CODEGEN--\":2:4   */\n    tag_51:\n        /* \"src\\BaseRegistrarImplementation.sol\":29799:29979  function reclaim(uint256 id, address owner) external live {\r... */\n      dup2\n      add\n      swap1\n      dup1\n      dup1\n      calldataload\n      swap1\n      0x20\n      add\n      swap1\n      swap3\n      swap2\n      swap1\n      dup1\n      calldataload\n      0xffffffffffffffffffffffffffffffffffffffff\n      and\n      swap1\n      0x20\n      add\n      swap1\n      swap3\n      swap2\n      swap1\n      pop\n      pop\n      pop\n      jump(tag_52)\n    tag_50:\n      stop\n        /* \"src\\BaseRegistrarImplementation.sol\":23727:23741  ENS public ens */\n    tag_8:\n      callvalue\n        /* \"--CODEGEN--\":8:17   */\n      dup1\n        /* \"--CODEGEN--\":5:7   */\n      iszero\n      tag_53\n      jumpi\n        /* \"--CODEGEN--\":30:31   */\n      0x0\n        /* \"--CODEGEN--\":27:28   */\n      dup1\n        /* \"--CODEGEN--\":20:32   */\n      revert\n        /* \"--CODEGEN--\":5:7   */\n    tag_53:\n        /* \"src\\BaseRegistrarImplementation.sol\":23727:23741  ENS public ens */\n      pop\n      tag_54\n      jump(tag_55)\n    tag_54:\n      mload(0x40)\n      dup1\n      dup3\n      0xffffffffffffffffffffffffffffffffffffffff\n      and\n      0xffffffffffffffffffffffffffffffffffffffff\n      and\n      dup2\n      mstore\n      0x20\n      add\n      swap2\n      pop\n      pop\n      mload(0x40)\n      dup1\n      swap2\n      sub\n      swap1\n      return\n        /* \"src\\BaseRegistrarImplementation.sol\":15442:15576  function safeTransferFrom(address from, address to, uint256 tokenId) public {\r... */\n    tag_9:\n      callvalue\n        /* \"--CODEGEN--\":8:17   */\n      dup1\n        /* \"--CODEGEN--\":5:7   */\n      iszero\n      tag_56\n      jumpi\n        /* \"--CODEGEN--\":30:31   */\n      0x0\n        /* \"--CODEGEN--\":27:28   */\n      dup1\n        /* \"--CODEGEN--\":20:32   */\n      revert\n        /* \"--CODEGEN--\":5:7   */\n    tag_56:\n        /* \"src\\BaseRegistrarImplementation.sol\":15442:15576  function safeTransferFrom(address from, address to, uint256 tokenId) public {\r... */\n      pop\n      tag_57\n      0x4\n      dup1\n      calldatasize\n      sub\n        /* \"--CODEGEN--\":13:15   */\n      0x60\n        /* \"--CODEGEN--\":8:11   */\n      dup2\n        /* \"--CODEGEN--\":5:16   */\n      lt\n        /* \"--CODEGEN--\":2:4   */\n      iszero\n      tag_58\n      jumpi\n        /* \"--CODEGEN--\":29:30   */\n      0x0\n        /* \"--CODEGEN--\":26:27   */\n      dup1\n        /* \"--CODEGEN--\":19:31   */\n      revert\n        /* \"--CODEGEN--\":2:4   */\n    tag_58:\n        /* \"src\\BaseRegistrarImplementation.sol\":15442:15576  function safeTransferFrom(address from, address to, uint256 tokenId) public {\r... */\n      dup2\n      add\n      swap1\n      dup1\n      dup1\n      calldataload\n      0xffffffffffffffffffffffffffffffffffffffff\n      and\n      swap1\n      0x20\n      add\n      swap1\n      swap3\n      swap2\n      swap1\n      dup1\n      calldataload\n      0xffffffffffffffffffffffffffffffffffffffff\n      and\n      swap1\n      0x20\n      add\n      swap1\n      swap3\n      swap2\n      swap1\n      dup1\n      calldataload\n      swap1\n      0x20\n      add\n      swap1\n      swap3\n      swap2\n      swap1\n      pop\n      pop\n      pop\n      jump(tag_59)\n    tag_57:\n      stop\n        /* \"src\\BaseRegistrarImplementation.sol\":27239:27351  function setResolver(address resolver) external onlyOwner {\r... */\n    tag_10:\n      callvalue\n        /* \"--CODEGEN--\":8:17   */\n      dup1\n        /* \"--CODEGEN--\":5:7   */\n      iszero\n      tag_60\n      jumpi\n        /* \"--CODEGEN--\":30:31   */\n      0x0\n        /* \"--CODEGEN--\":27:28   */\n      dup1\n        /* \"--CODEGEN--\":20:32   */\n      revert\n        /* \"--CODEGEN--\":5:7   */\n    tag_60:\n        /* \"src\\BaseRegistrarImplementation.sol\":27239:27351  function setResolver(address resolver) external onlyOwner {\r... */\n      pop\n      tag_61\n      0x4\n      dup1\n      calldatasize\n      sub\n        /* \"--CODEGEN--\":13:15   */\n      0x20\n        /* \"--CODEGEN--\":8:11   */\n      dup2\n        /* \"--CODEGEN--\":5:16   */\n      lt\n        /* \"--CODEGEN--\":2:4   */\n      iszero\n      tag_62\n      jumpi\n        /* \"--CODEGEN--\":29:30   */\n      0x0\n        /* \"--CODEGEN--\":26:27   */\n      dup1\n        /* \"--CODEGEN--\":19:31   */\n      revert\n        /* \"--CODEGEN--\":2:4   */\n    tag_62:\n        /* \"src\\BaseRegistrarImplementation.sol\":27239:27351  function setResolver(address resolver) external onlyOwner {\r... */\n      dup2\n      add\n      swap1\n      dup1\n      dup1\n      calldataload\n      0xffffffffffffffffffffffffffffffffffffffff\n      and\n      swap1\n      0x20\n      add\n      swap1\n      swap3\n      swap2\n      swap1\n      pop\n      pop\n      pop\n      jump(tag_63)\n    tag_61:\n      stop\n        /* \"src\\BaseRegistrarImplementation.sol\":26563:26718  function ownerOf(uint256 tokenId) public view returns (address) {\r... */\n    tag_11:\n      callvalue\n        /* \"--CODEGEN--\":8:17   */\n      dup1\n        /* \"--CODEGEN--\":5:7   */\n      iszero\n      tag_64\n      jumpi\n        /* \"--CODEGEN--\":30:31   */\n      0x0\n        /* \"--CODEGEN--\":27:28   */\n      dup1\n        /* \"--CODEGEN--\":20:32   */\n      revert\n        /* \"--CODEGEN--\":5:7   */\n    tag_64:\n        /* \"src\\BaseRegistrarImplementation.sol\":26563:26718  function ownerOf(uint256 tokenId) public view returns (address) {\r... */\n      pop\n      tag_65\n      0x4\n      dup1\n      calldatasize\n      sub\n        /* \"--CODEGEN--\":13:15   */\n      0x20\n        /* \"--CODEGEN--\":8:11   */\n      dup2\n        /* \"--CODEGEN--\":5:16   */\n      lt\n        /* \"--CODEGEN--\":2:4   */\n      iszero\n      tag_66\n      jumpi\n        /* \"--CODEGEN--\":29:30   */\n      0x0\n        /* \"--CODEGEN--\":26:27   */\n      dup1\n        /* \"--CODEGEN--\":19:31   */\n      revert\n        /* \"--CODEGEN--\":2:4   */\n    tag_66:\n        /* \"src\\BaseRegistrarImplementation.sol\":26563:26718  function ownerOf(uint256 tokenId) public view returns (address) {\r... */\n      dup2\n      add\n      swap1\n      dup1\n      dup1\n      calldataload\n      swap1\n      0x20\n      add\n      swap1\n      swap3\n      swap2\n      swap1\n      pop\n      pop\n      pop\n      jump(tag_67)\n    tag_65:\n      mload(0x40)\n      dup1\n      dup3\n      0xffffffffffffffffffffffffffffffffffffffff\n      and\n      0xffffffffffffffffffffffffffffffffffffffff\n      and\n      dup2\n      mstore\n      0x20\n      add\n      swap2\n      pop\n      pop\n      mload(0x40)\n      dup1\n      swap2\n      sub\n      swap1\n      return\n        /* \"src\\BaseRegistrarImplementation.sol\":11427:11580  function balanceOf(address owner) public view returns (uint256) {\r... */\n    tag_12:\n      callvalue\n        /* \"--CODEGEN--\":8:17   */\n      dup1\n        /* \"--CODEGEN--\":5:7   */\n      iszero\n      tag_68\n      jumpi\n        /* \"--CODEGEN--\":30:31   */\n      0x0\n        /* \"--CODEGEN--\":27:28   */\n      dup1\n        /* \"--CODEGEN--\":20:32   */\n      revert\n        /* \"--CODEGEN--\":5:7   */\n    tag_68:\n        /* \"src\\BaseRegistrarImplementation.sol\":11427:11580  function balanceOf(address owner) public view returns (uint256) {\r... */\n      pop\n      tag_69\n      0x4\n      dup1\n      calldatasize\n      sub\n        /* \"--CODEGEN--\":13:15   */\n      0x20\n        /* \"--CODEGEN--\":8:11   */\n      dup2\n        /* \"--CODEGEN--\":5:16   */\n      lt\n        /* \"--CODEGEN--\":2:4   */\n      iszero\n      tag_70\n      jumpi\n        /* \"--CODEGEN--\":29:30   */\n      0x0\n        /* \"--CODEGEN--\":26:27   */\n      dup1\n        /* \"--CODEGEN--\":19:31   */\n      revert\n        /* \"--CODEGEN--\":2:4   */\n    tag_70:\n        /* \"src\\BaseRegistrarImplementation.sol\":11427:11580  function balanceOf(address owner) public view returns (uint256) {\r... */\n      dup2\n      add\n      swap1\n      dup1\n      dup1\n      calldataload\n      0xffffffffffffffffffffffffffffffffffffffff\n      and\n      swap1\n      0x20\n      add\n      swap1\n      swap3\n      swap2\n      swap1\n      pop\n      pop\n      pop\n      jump(tag_71)\n    tag_69:\n      mload(0x40)\n      dup1\n      dup3\n      dup2\n      mstore\n      0x20\n      add\n      swap2\n      pop\n      pop\n      mload(0x40)\n      dup1\n      swap2\n      sub\n      swap1\n      return\n        /* \"src\\BaseRegistrarImplementation.sol\":22390:22530  function renounceOwnership() public onlyOwner {\r... */\n    tag_13:\n      callvalue\n        /* \"--CODEGEN--\":8:17   */\n      dup1\n        /* \"--CODEGEN--\":5:7   */\n      iszero\n      tag_72\n      jumpi\n        /* \"--CODEGEN--\":30:31   */\n      0x0\n        /* \"--CODEGEN--\":27:28   */\n      dup1\n        /* \"--CODEGEN--\":20:32   */\n      revert\n        /* \"--CODEGEN--\":5:7   */\n    tag_72:\n        /* \"src\\BaseRegistrarImplementation.sol\":22390:22530  function renounceOwnership() public onlyOwner {\r... */\n      pop\n      tag_73\n      jump(tag_74)\n    tag_73:\n      stop\n        /* \"src\\BaseRegistrarImplementation.sol\":21677:21756  function owner() public view returns (address) {\r... */\n    tag_14:\n      callvalue\n        /* \"--CODEGEN--\":8:17   */\n      dup1\n        /* \"--CODEGEN--\":5:7   */\n      iszero\n      tag_75\n      jumpi\n        /* \"--CODEGEN--\":30:31   */\n      0x0\n        /* \"--CODEGEN--\":27:28   */\n      dup1\n        /* \"--CODEGEN--\":20:32   */\n      revert\n        /* \"--CODEGEN--\":5:7   */\n    tag_75:\n        /* \"src\\BaseRegistrarImplementation.sol\":21677:21756  function owner() public view returns (address) {\r... */\n      pop\n      tag_76\n      jump(tag_77)\n    tag_76:\n      mload(0x40)\n      dup1\n      dup3\n      0xffffffffffffffffffffffffffffffffffffffff\n      and\n      0xffffffffffffffffffffffffffffffffffffffff\n      and\n      dup2\n      mstore\n      0x20\n      add\n      swap2\n      pop\n      pop\n      mload(0x40)\n      dup1\n      swap2\n      sub\n      swap1\n      return\n        /* \"src\\BaseRegistrarImplementation.sol\":22012:22104  function isOwner() public view returns (bool) {\r... */\n    tag_15:\n      callvalue\n        /* \"--CODEGEN--\":8:17   */\n      dup1\n        /* \"--CODEGEN--\":5:7   */\n      iszero\n      tag_78\n      jumpi\n        /* \"--CODEGEN--\":30:31   */\n      0x0\n        /* \"--CODEGEN--\":27:28   */\n      dup1\n        /* \"--CODEGEN--\":20:32   */\n      revert\n        /* \"--CODEGEN--\":5:7   */\n    tag_78:\n        /* \"src\\BaseRegistrarImplementation.sol\":22012:22104  function isOwner() public view returns (bool) {\r... */\n      pop\n      tag_79\n      jump(tag_80)\n    tag_79:\n      mload(0x40)\n      dup1\n      dup3\n      iszero\n      iszero\n      iszero\n      iszero\n      dup2\n      mstore\n      0x20\n      add\n      swap2\n      pop\n      pop\n      mload(0x40)\n      dup1\n      swap2\n      sub\n      swap1\n      return\n        /* \"src\\BaseRegistrarImplementation.sol\":27603:27793  function available(uint256 id) public view returns(bool) {\r... */\n    tag_16:\n      callvalue\n        /* \"--CODEGEN--\":8:17   */\n      dup1\n        /* \"--CODEGEN--\":5:7   */\n      iszero\n      tag_81\n      jumpi\n        /* \"--CODEGEN--\":30:31   */\n      0x0\n        /* \"--CODEGEN--\":27:28   */\n      dup1\n        /* \"--CODEGEN--\":20:32   */\n      revert\n        /* \"--CODEGEN--\":5:7   */\n    tag_81:\n        /* \"src\\BaseRegistrarImplementation.sol\":27603:27793  function available(uint256 id) public view returns(bool) {\r... */\n      pop\n      tag_82\n      0x4\n      dup1\n      calldatasize\n      sub\n        /* \"--CODEGEN--\":13:15   */\n      0x20\n        /* \"--CODEGEN--\":8:11   */\n      dup2\n        /* \"--CODEGEN--\":5:16   */\n      lt\n        /* \"--CODEGEN--\":2:4   */\n      iszero\n      tag_83\n      jumpi\n        /* \"--CODEGEN--\":29:30   */\n      0x0\n        /* \"--CODEGEN--\":26:27   */\n      dup1\n        /* \"--CODEGEN--\":19:31   */\n      revert\n        /* \"--CODEGEN--\":2:4   */\n    tag_83:\n        /* \"src\\BaseRegistrarImplementation.sol\":27603:27793  function available(uint256 id) public view returns(bool) {\r... */\n      dup2\n      add\n      swap1\n      dup1\n      dup1\n      calldataload\n      swap1\n      0x20\n      add\n      swap1\n      swap3\n      swap2\n      swap1\n      pop\n      pop\n      pop\n      jump(tag_84)\n    tag_82:\n      mload(0x40)\n      dup1\n      dup3\n      iszero\n      iszero\n      iszero\n      iszero\n      dup2\n      mstore\n      0x20\n      add\n      swap2\n      pop\n      pop\n      mload(0x40)\n      dup1\n      swap2\n      sub\n      swap1\n      return\n        /* \"src\\BaseRegistrarImplementation.sol\":13469:13686  function setApprovalForAll(address to, bool approved) public {\r... */\n    tag_17:\n      callvalue\n        /* \"--CODEGEN--\":8:17   */\n      dup1\n        /* \"--CODEGEN--\":5:7   */\n      iszero\n      tag_85\n      jumpi\n        /* \"--CODEGEN--\":30:31   */\n      0x0\n        /* \"--CODEGEN--\":27:28   */\n      dup1\n        /* \"--CODEGEN--\":20:32   */\n      revert\n        /* \"--CODEGEN--\":5:7   */\n    tag_85:\n        /* \"src\\BaseRegistrarImplementation.sol\":13469:13686  function setApprovalForAll(address to, bool approved) public {\r... */\n      pop\n      tag_86\n      0x4\n      dup1\n      calldatasize\n      sub\n        /* \"--CODEGEN--\":13:15   */\n      0x40\n        /* \"--CODEGEN--\":8:11   */\n      dup2\n        /* \"--CODEGEN--\":5:16   */\n      lt\n        /* \"--CODEGEN--\":2:4   */\n      iszero\n      tag_87\n      jumpi\n        /* \"--CODEGEN--\":29:30   */\n      0x0\n        /* \"--CODEGEN--\":26:27   */\n      dup1\n        /* \"--CODEGEN--\":19:31   */\n      revert\n        /* \"--CODEGEN--\":2:4   */\n    tag_87:\n        /* \"src\\BaseRegistrarImplementation.sol\":13469:13686  function setApprovalForAll(address to, bool approved) public {\r... */\n      dup2\n      add\n      swap1\n      dup1\n      dup1\n      calldataload\n      0xffffffffffffffffffffffffffffffffffffffff\n      and\n      swap1\n      0x20\n      add\n      swap1\n      swap3\n      swap2\n      swap1\n      dup1\n      calldataload\n      iszero\n      iszero\n      swap1\n      0x20\n      add\n      swap1\n      swap3\n      swap2\n      swap1\n      pop\n      pop\n      pop\n      jump(tag_88)\n    tag_86:\n      stop\n        /* \"src\\BaseRegistrarImplementation.sol\":26795:26949  function addController(address controller) external onlyOwner {\r... */\n    tag_18:\n      callvalue\n        /* \"--CODEGEN--\":8:17   */\n      dup1\n        /* \"--CODEGEN--\":5:7   */\n      iszero\n      tag_89\n      jumpi\n        /* \"--CODEGEN--\":30:31   */\n      0x0\n        /* \"--CODEGEN--\":27:28   */\n      dup1\n        /* \"--CODEGEN--\":20:32   */\n      revert\n        /* \"--CODEGEN--\":5:7   */\n    tag_89:\n        /* \"src\\BaseRegistrarImplementation.sol\":26795:26949  function addController(address controller) external onlyOwner {\r... */\n      pop\n      tag_90\n      0x4\n      dup1\n      calldatasize\n      sub\n        /* \"--CODEGEN--\":13:15   */\n      0x20\n        /* \"--CODEGEN--\":8:11   */\n      dup2\n        /* \"--CODEGEN--\":5:16   */\n      lt\n        /* \"--CODEGEN--\":2:4   */\n      iszero\n      tag_91\n      jumpi\n        /* \"--CODEGEN--\":29:30   */\n      0x0\n        /* \"--CODEGEN--\":26:27   */\n      dup1\n        /* \"--CODEGEN--\":19:31   */\n      revert\n        /* \"--CODEGEN--\":2:4   */\n    tag_91:\n        /* \"src\\BaseRegistrarImplementation.sol\":26795:26949  function addController(address controller) external onlyOwner {\r... */\n      dup2\n      add\n      swap1\n      dup1\n      dup1\n      calldataload\n      0xffffffffffffffffffffffffffffffffffffffff\n      and\n      swap1\n      0x20\n      add\n      swap1\n      swap3\n      swap2\n      swap1\n      pop\n      pop\n      pop\n      jump(tag_92)\n    tag_90:\n      stop\n        /* \"src\\BaseRegistrarImplementation.sol\":16295:16509  function safeTransferFrom(address from, address to, uint256 tokenId, bytes memory _data) public {\r... */\n    tag_19:\n      callvalue\n        /* \"--CODEGEN--\":8:17   */\n      dup1\n        /* \"--CODEGEN--\":5:7   */\n      iszero\n      tag_93\n      jumpi\n        /* \"--CODEGEN--\":30:31   */\n      0x0\n        /* \"--CODEGEN--\":27:28   */\n      dup1\n        /* \"--CODEGEN--\":20:32   */\n      revert\n        /* \"--CODEGEN--\":5:7   */\n    tag_93:\n        /* \"src\\BaseRegistrarImplementation.sol\":16295:16509  function safeTransferFrom(address from, address to, uint256 tokenId, bytes memory _data) public {\r... */\n      pop\n      tag_94\n      0x4\n      dup1\n      calldatasize\n      sub\n        /* \"--CODEGEN--\":13:16   */\n      0x80\n        /* \"--CODEGEN--\":8:11   */\n      dup2\n        /* \"--CODEGEN--\":5:17   */\n      lt\n        /* \"--CODEGEN--\":2:4   */\n      iszero\n      tag_95\n      jumpi\n        /* \"--CODEGEN--\":30:31   */\n      0x0\n        /* \"--CODEGEN--\":27:28   */\n      dup1\n        /* \"--CODEGEN--\":20:32   */\n      revert\n        /* \"--CODEGEN--\":2:4   */\n    tag_95:\n        /* \"src\\BaseRegistrarImplementation.sol\":16295:16509  function safeTransferFrom(address from, address to, uint256 tokenId, bytes memory _data) public {\r... */\n      dup2\n      add\n      swap1\n      dup1\n      dup1\n      calldataload\n      0xffffffffffffffffffffffffffffffffffffffff\n      and\n      swap1\n      0x20\n      add\n      swap1\n      swap3\n      swap2\n      swap1\n      dup1\n      calldataload\n      0xffffffffffffffffffffffffffffffffffffffff\n      and\n      swap1\n      0x20\n      add\n      swap1\n      swap3\n      swap2\n      swap1\n      dup1\n      calldataload\n      swap1\n      0x20\n      add\n      swap1\n      swap3\n      swap2\n      swap1\n      dup1\n      calldataload\n      swap1\n      0x20\n      add\n      swap1\n        /* \"--CODEGEN--\":21:32   */\n      0x100000000\n        /* \"--CODEGEN--\":8:19   */\n      dup2\n        /* \"--CODEGEN--\":5:33   */\n      gt\n        /* \"--CODEGEN--\":2:4   */\n      iszero\n      tag_96\n      jumpi\n        /* \"--CODEGEN--\":46:47   */\n      0x0\n        /* \"--CODEGEN--\":43:44   */\n      dup1\n        /* \"--CODEGEN--\":36:48   */\n      revert\n        /* \"--CODEGEN--\":2:4   */\n    tag_96:\n        /* \"src\\BaseRegistrarImplementation.sol\":16295:16509  function safeTransferFrom(address from, address to, uint256 tokenId, bytes memory _data) public {\r... */\n      dup3\n      add\n        /* \"--CODEGEN--\":35:44   */\n      dup4\n        /* \"--CODEGEN--\":28:32   */\n      0x20\n        /* \"--CODEGEN--\":12:26   */\n      dup3\n        /* \"--CODEGEN--\":8:33   */\n      add\n        /* \"--CODEGEN--\":5:45   */\n      gt\n        /* \"--CODEGEN--\":2:4   */\n      iszero\n      tag_97\n      jumpi\n        /* \"--CODEGEN--\":58:59   */\n      0x0\n        /* \"--CODEGEN--\":55:56   */\n      dup1\n        /* \"--CODEGEN--\":48:60   */\n      revert\n        /* \"--CODEGEN--\":2:4   */\n    tag_97:\n        /* \"src\\BaseRegistrarImplementation.sol\":16295:16509  function safeTransferFrom(address from, address to, uint256 tokenId, bytes memory _data) public {\r... */\n      dup1\n      calldataload\n      swap1\n      0x20\n      add\n      swap2\n        /* \"--CODEGEN--\":100:109   */\n      dup5\n        /* \"--CODEGEN--\":95:96   */\n      0x1\n        /* \"--CODEGEN--\":81:93   */\n      dup4\n        /* \"--CODEGEN--\":77:97   */\n      mul\n        /* \"--CODEGEN--\":67:75   */\n      dup5\n        /* \"--CODEGEN--\":63:98   */\n      add\n        /* \"--CODEGEN--\":60:110   */\n      gt\n        /* \"--CODEGEN--\":39:50   */\n      0x100000000\n        /* \"--CODEGEN--\":25:37   */\n      dup4\n        /* \"--CODEGEN--\":22:51   */\n      gt\n        /* \"--CODEGEN--\":11:118   */\n      or\n        /* \"--CODEGEN--\":8:10   */\n      iszero\n      tag_98\n      jumpi\n        /* \"--CODEGEN--\":131:132   */\n      0x0\n        /* \"--CODEGEN--\":128:129   */\n      dup1\n        /* \"--CODEGEN--\":121:133   */\n      revert\n        /* \"--CODEGEN--\":8:10   */\n    tag_98:\n        /* \"src\\BaseRegistrarImplementation.sol\":16295:16509  function safeTransferFrom(address from, address to, uint256 tokenId, bytes memory _data) public {\r... */\n      swap2\n      swap1\n      dup1\n      dup1\n      0x1f\n      add\n      0x20\n      dup1\n      swap2\n      div\n      mul\n      0x20\n      add\n      mload(0x40)\n      swap1\n      dup2\n      add\n      0x40\n      mstore\n      dup1\n      swap4\n      swap3\n      swap2\n      swap1\n      dup2\n      dup2\n      mstore\n      0x20\n      add\n      dup4\n      dup4\n        /* \"--CODEGEN--\":30:33   */\n      dup1\n        /* \"--CODEGEN--\":22:28   */\n      dup3\n        /* \"--CODEGEN--\":14:20   */\n      dup5\n        /* \"--CODEGEN--\":1:34   */\n      calldatacopy\n        /* \"--CODEGEN--\":99:100   */\n      0x0\n        /* \"--CODEGEN--\":93:96   */\n      dup2\n        /* \"--CODEGEN--\":85:91   */\n      dup5\n        /* \"--CODEGEN--\":81:97   */\n      add\n        /* \"--CODEGEN--\":74:101   */\n      mstore\n        /* \"--CODEGEN--\":137:141   */\n      0x1f\n        /* \"--CODEGEN--\":133:142   */\n      not\n        /* \"--CODEGEN--\":126:130   */\n      0x1f\n        /* \"--CODEGEN--\":121:124   */\n      dup3\n        /* \"--CODEGEN--\":117:131   */\n      add\n        /* \"--CODEGEN--\":113:143   */\n      and\n        /* \"--CODEGEN--\":106:143   */\n      swap1\n      pop\n        /* \"--CODEGEN--\":169:172   */\n      dup1\n        /* \"--CODEGEN--\":161:167   */\n      dup4\n        /* \"--CODEGEN--\":157:173   */\n      add\n        /* \"--CODEGEN--\":147:173   */\n      swap3\n      pop\n        /* \"src\\BaseRegistrarImplementation.sol\":16295:16509  function safeTransferFrom(address from, address to, uint256 tokenId, bytes memory _data) public {\r... */\n      pop\n      pop\n      pop\n      pop\n      pop\n      pop\n      swap2\n      swap3\n      swap2\n      swap3\n      swap1\n      pop\n      pop\n      pop\n      jump(tag_99)\n    tag_94:\n      stop\n        /* \"src\\BaseRegistrarImplementation.sol\":23310:23353  uint constant public GRACE_PERIOD = 90 days */\n    tag_20:\n      callvalue\n        /* \"--CODEGEN--\":8:17   */\n      dup1\n        /* \"--CODEGEN--\":5:7   */\n      iszero\n      tag_100\n      jumpi\n        /* \"--CODEGEN--\":30:31   */\n      0x0\n        /* \"--CODEGEN--\":27:28   */\n      dup1\n        /* \"--CODEGEN--\":20:32   */\n      revert\n        /* \"--CODEGEN--\":5:7   */\n    tag_100:\n        /* \"src\\BaseRegistrarImplementation.sol\":23310:23353  uint constant public GRACE_PERIOD = 90 days */\n      pop\n      tag_101\n      jump(tag_102)\n    tag_101:\n      mload(0x40)\n      dup1\n      dup3\n      dup2\n      mstore\n      0x20\n      add\n      swap2\n      pop\n      pop\n      mload(0x40)\n      dup1\n      swap2\n      sub\n      swap1\n      return\n        /* \"src\\BaseRegistrarImplementation.sol\":29271:29692  function renew(uint256 id, uint duration) external live onlyController returns(uint) {\r... */\n    tag_21:\n      callvalue\n        /* \"--CODEGEN--\":8:17   */\n      dup1\n        /* \"--CODEGEN--\":5:7   */\n      iszero\n      tag_103\n      jumpi\n        /* \"--CODEGEN--\":30:31   */\n      0x0\n        /* \"--CODEGEN--\":27:28   */\n      dup1\n        /* \"--CODEGEN--\":20:32   */\n      revert\n        /* \"--CODEGEN--\":5:7   */\n    tag_103:\n        /* \"src\\BaseRegistrarImplementation.sol\":29271:29692  function renew(uint256 id, uint duration) external live onlyController returns(uint) {\r... */\n      pop\n      tag_104\n      0x4\n      dup1\n      calldatasize\n      sub\n        /* \"--CODEGEN--\":13:15   */\n      0x40\n        /* \"--CODEGEN--\":8:11   */\n      dup2\n        /* \"--CODEGEN--\":5:16   */\n      lt\n        /* \"--CODEGEN--\":2:4   */\n      iszero\n      tag_105\n      jumpi\n        /* \"--CODEGEN--\":29:30   */\n      0x0\n        /* \"--CODEGEN--\":26:27   */\n      dup1\n        /* \"--CODEGEN--\":19:31   */\n      revert\n        /* \"--CODEGEN--\":2:4   */\n    tag_105:\n        /* \"src\\BaseRegistrarImplementation.sol\":29271:29692  function renew(uint256 id, uint duration) external live onlyController returns(uint) {\r... */\n      dup2\n      add\n      swap1\n      dup1\n      dup1\n      calldataload\n      swap1\n      0x20\n      add\n      swap1\n      swap3\n      swap2\n      swap1\n      dup1\n      calldataload\n      swap1\n      0x20\n      add\n      swap1\n      swap3\n      swap2\n      swap1\n      pop\n      pop\n      pop\n      jump(tag_106)\n    tag_104:\n      mload(0x40)\n      dup1\n      dup3\n      dup2\n      mstore\n      0x20\n      add\n      swap2\n      pop\n      pop\n      mload(0x40)\n      dup1\n      swap2\n      sub\n      swap1\n      return\n        /* \"src\\BaseRegistrarImplementation.sol\":27421:27520  function nameExpires(uint256 id) external view returns(uint) {\r... */\n    tag_22:\n      callvalue\n        /* \"--CODEGEN--\":8:17   */\n      dup1\n        /* \"--CODEGEN--\":5:7   */\n      iszero\n      tag_107\n      jumpi\n        /* \"--CODEGEN--\":30:31   */\n      0x0\n        /* \"--CODEGEN--\":27:28   */\n      dup1\n        /* \"--CODEGEN--\":20:32   */\n      revert\n        /* \"--CODEGEN--\":5:7   */\n    tag_107:\n        /* \"src\\BaseRegistrarImplementation.sol\":27421:27520  function nameExpires(uint256 id) external view returns(uint) {\r... */\n      pop\n      tag_108\n      0x4\n      dup1\n      calldatasize\n      sub\n        /* \"--CODEGEN--\":13:15   */\n      0x20\n        /* \"--CODEGEN--\":8:11   */\n      dup2\n        /* \"--CODEGEN--\":5:16   */\n      lt\n        /* \"--CODEGEN--\":2:4   */\n      iszero\n      tag_109\n      jumpi\n        /* \"--CODEGEN--\":29:30   */\n      0x0\n        /* \"--CODEGEN--\":26:27   */\n      dup1\n        /* \"--CODEGEN--\":19:31   */\n      revert\n        /* \"--CODEGEN--\":2:4   */\n    tag_109:\n        /* \"src\\BaseRegistrarImplementation.sol\":27421:27520  function nameExpires(uint256 id) external view returns(uint) {\r... */\n      dup2\n      add\n      swap1\n      dup1\n      dup1\n      calldataload\n      swap1\n      0x20\n      add\n      swap1\n      swap3\n      swap2\n      swap1\n      pop\n      pop\n      pop\n      jump(tag_110)\n    tag_108:\n      mload(0x40)\n      dup1\n      dup3\n      dup2\n      mstore\n      0x20\n      add\n      swap2\n      pop\n      pop\n      mload(0x40)\n      dup1\n      swap2\n      sub\n      swap1\n      return\n        /* \"src\\BaseRegistrarImplementation.sol\":23921:23962  mapping(address=>bool) public controllers */\n    tag_23:\n      callvalue\n        /* \"--CODEGEN--\":8:17   */\n      dup1\n        /* \"--CODEGEN--\":5:7   */\n      iszero\n      tag_111\n      jumpi\n        /* \"--CODEGEN--\":30:31   */\n      0x0\n        /* \"--CODEGEN--\":27:28   */\n      dup1\n        /* \"--CODEGEN--\":20:32   */\n      revert\n        /* \"--CODEGEN--\":5:7   */\n    tag_111:\n        /* \"src\\BaseRegistrarImplementation.sol\":23921:23962  mapping(address=>bool) public controllers */\n      pop\n      tag_112\n      0x4\n      dup1\n      calldatasize\n      sub\n        /* \"--CODEGEN--\":13:15   */\n      0x20\n        /* \"--CODEGEN--\":8:11   */\n      dup2\n        /* \"--CODEGEN--\":5:16   */\n      lt\n        /* \"--CODEGEN--\":2:4   */\n      iszero\n      tag_113\n      jumpi\n        /* \"--CODEGEN--\":29:30   */\n      0x0\n        /* \"--CODEGEN--\":26:27   */\n      dup1\n        /* \"--CODEGEN--\":19:31   */\n      revert\n        /* \"--CODEGEN--\":2:4   */\n    tag_113:\n        /* \"src\\BaseRegistrarImplementation.sol\":23921:23962  mapping(address=>bool) public controllers */\n      dup2\n      add\n      swap1\n      dup1\n      dup1\n      calldataload\n      0xffffffffffffffffffffffffffffffffffffffff\n      and\n      swap1\n      0x20\n      add\n      swap1\n      swap3\n      swap2\n      swap1\n      pop\n      pop\n      pop\n      jump(tag_114)\n    tag_112:\n      mload(0x40)\n      dup1\n      dup3\n      iszero\n      iszero\n      iszero\n      iszero\n      dup2\n      mstore\n      0x20\n      add\n      swap2\n      pop\n      pop\n      mload(0x40)\n      dup1\n      swap2\n      sub\n      swap1\n      return\n        /* \"src\\BaseRegistrarImplementation.sol\":23813:23836  bytes32 public baseNode */\n    tag_24:\n      callvalue\n        /* \"--CODEGEN--\":8:17   */\n      dup1\n        /* \"--CODEGEN--\":5:7   */\n      iszero\n      tag_115\n      jumpi\n        /* \"--CODEGEN--\":30:31   */\n      0x0\n        /* \"--CODEGEN--\":27:28   */\n      dup1\n        /* \"--CODEGEN--\":20:32   */\n      revert\n        /* \"--CODEGEN--\":5:7   */\n    tag_115:\n        /* \"src\\BaseRegistrarImplementation.sol\":23813:23836  bytes32 public baseNode */\n      pop\n      tag_116\n      jump(tag_117)\n    tag_116:\n      mload(0x40)\n      dup1\n      dup3\n      dup2\n      mstore\n      0x20\n      add\n      swap2\n      pop\n      pop\n      mload(0x40)\n      dup1\n      swap2\n      sub\n      swap1\n      return\n        /* \"src\\BaseRegistrarImplementation.sol\":14015:14162  function isApprovedForAll(address owner, address operator) public view returns (bool) {\r... */\n    tag_25:\n      callvalue\n        /* \"--CODEGEN--\":8:17   */\n      dup1\n        /* \"--CODEGEN--\":5:7   */\n      iszero\n      tag_118\n      jumpi\n        /* \"--CODEGEN--\":30:31   */\n      0x0\n        /* \"--CODEGEN--\":27:28   */\n      dup1\n        /* \"--CODEGEN--\":20:32   */\n      revert\n        /* \"--CODEGEN--\":5:7   */\n    tag_118:\n        /* \"src\\BaseRegistrarImplementation.sol\":14015:14162  function isApprovedForAll(address owner, address operator) public view returns (bool) {\r... */\n      pop\n      tag_119\n      0x4\n      dup1\n      calldatasize\n      sub\n        /* \"--CODEGEN--\":13:15   */\n      0x40\n        /* \"--CODEGEN--\":8:11   */\n      dup2\n        /* \"--CODEGEN--\":5:16   */\n      lt\n        /* \"--CODEGEN--\":2:4   */\n      iszero\n      tag_120\n      jumpi\n        /* \"--CODEGEN--\":29:30   */\n      0x0\n        /* \"--CODEGEN--\":26:27   */\n      dup1\n        /* \"--CODEGEN--\":19:31   */\n      revert\n        /* \"--CODEGEN--\":2:4   */\n    tag_120:\n        /* \"src\\BaseRegistrarImplementation.sol\":14015:14162  function isApprovedForAll(address owner, address operator) public view returns (bool) {\r... */\n      dup2\n      add\n      swap1\n      dup1\n      dup1\n      calldataload\n      0xffffffffffffffffffffffffffffffffffffffff\n      and\n      swap1\n      0x20\n      add\n      swap1\n      swap3\n      swap2\n      swap1\n      dup1\n      calldataload\n      0xffffffffffffffffffffffffffffffffffffffff\n      and\n      swap1\n      0x20\n      add\n      swap1\n      swap3\n      swap2\n      swap1\n      pop\n      pop\n      pop\n      jump(tag_121)\n    tag_119:\n      mload(0x40)\n      dup1\n      dup3\n      iszero\n      iszero\n      iszero\n      iszero\n      dup2\n      mstore\n      0x20\n      add\n      swap2\n      pop\n      pop\n      mload(0x40)\n      dup1\n      swap2\n      sub\n      swap1\n      return\n        /* \"src\\BaseRegistrarImplementation.sol\":22707:22816  function transferOwnership(address newOwner) public onlyOwner {\r... */\n    tag_26:\n      callvalue\n        /* \"--CODEGEN--\":8:17   */\n      dup1\n        /* \"--CODEGEN--\":5:7   */\n      iszero\n      tag_122\n      jumpi\n        /* \"--CODEGEN--\":30:31   */\n      0x0\n        /* \"--CODEGEN--\":27:28   */\n      dup1\n        /* \"--CODEGEN--\":20:32   */\n      revert\n        /* \"--CODEGEN--\":5:7   */\n    tag_122:\n        /* \"src\\BaseRegistrarImplementation.sol\":22707:22816  function transferOwnership(address newOwner) public onlyOwner {\r... */\n      pop\n      tag_123\n      0x4\n      dup1\n      calldatasize\n      sub\n        /* \"--CODEGEN--\":13:15   */\n      0x20\n        /* \"--CODEGEN--\":8:11   */\n      dup2\n        /* \"--CODEGEN--\":5:16   */\n      lt\n        /* \"--CODEGEN--\":2:4   */\n      iszero\n      tag_124\n      jumpi\n        /* \"--CODEGEN--\":29:30   */\n      0x0\n        /* \"--CODEGEN--\":26:27   */\n      dup1\n        /* \"--CODEGEN--\":19:31   */\n      revert\n        /* \"--CODEGEN--\":2:4   */\n    tag_124:\n        /* \"src\\BaseRegistrarImplementation.sol\":22707:22816  function transferOwnership(address newOwner) public onlyOwner {\r... */\n      dup2\n      add\n      swap1\n      dup1\n      dup1\n      calldataload\n      0xffffffffffffffffffffffffffffffffffffffff\n      and\n      swap1\n      0x20\n      add\n      swap1\n      swap3\n      swap2\n      swap1\n      pop\n      pop\n      pop\n      jump(tag_125)\n    tag_123:\n      stop\n        /* \"src\\BaseRegistrarImplementation.sol\":27010:27170  function removeController(address controller) external onlyOwner {\r... */\n    tag_27:\n      callvalue\n        /* \"--CODEGEN--\":8:17   */\n      dup1\n        /* \"--CODEGEN--\":5:7   */\n      iszero\n      tag_126\n      jumpi\n        /* \"--CODEGEN--\":30:31   */\n      0x0\n        /* \"--CODEGEN--\":27:28   */\n      dup1\n        /* \"--CODEGEN--\":20:32   */\n      revert\n        /* \"--CODEGEN--\":5:7   */\n    tag_126:\n        /* \"src\\BaseRegistrarImplementation.sol\":27010:27170  function removeController(address controller) external onlyOwner {\r... */\n      pop\n      tag_127\n      0x4\n      dup1\n      calldatasize\n      sub\n        /* \"--CODEGEN--\":13:15   */\n      0x20\n        /* \"--CODEGEN--\":8:11   */\n      dup2\n        /* \"--CODEGEN--\":5:16   */\n      lt\n        /* \"--CODEGEN--\":2:4   */\n      iszero\n      tag_128\n      jumpi\n        /* \"--CODEGEN--\":29:30   */\n      0x0\n        /* \"--CODEGEN--\":26:27   */\n      dup1\n        /* \"--CODEGEN--\":19:31   */\n      revert\n        /* \"--CODEGEN--\":2:4   */\n    tag_128:\n        /* \"src\\BaseRegistrarImplementation.sol\":27010:27170  function removeController(address controller) external onlyOwner {\r... */\n      dup2\n      add\n      swap1\n      dup1\n      dup1\n      calldataload\n      0xffffffffffffffffffffffffffffffffffffffff\n      and\n      swap1\n      0x20\n      add\n      swap1\n      swap3\n      swap2\n      swap1\n      pop\n      pop\n      pop\n      jump(tag_129)\n    tag_127:\n      stop\n        /* \"src\\BaseRegistrarImplementation.sol\":28039:28182  function register(uint256 id, address owner, uint duration) external returns(uint) {\r... */\n    tag_28:\n      callvalue\n        /* \"--CODEGEN--\":8:17   */\n      dup1\n        /* \"--CODEGEN--\":5:7   */\n      iszero\n      tag_130\n      jumpi\n        /* \"--CODEGEN--\":30:31   */\n      0x0\n        /* \"--CODEGEN--\":27:28   */\n      dup1\n        /* \"--CODEGEN--\":20:32   */\n      revert\n        /* \"--CODEGEN--\":5:7   */\n    tag_130:\n        /* \"src\\BaseRegistrarImplementation.sol\":28039:28182  function register(uint256 id, address owner, uint duration) external returns(uint) {\r... */\n      pop\n      tag_131\n      0x4\n      dup1\n      calldatasize\n      sub\n        /* \"--CODEGEN--\":13:15   */\n      0x60\n        /* \"--CODEGEN--\":8:11   */\n      dup2\n        /* \"--CODEGEN--\":5:16   */\n      lt\n        /* \"--CODEGEN--\":2:4   */\n      iszero\n      tag_132\n      jumpi\n        /* \"--CODEGEN--\":29:30   */\n      0x0\n        /* \"--CODEGEN--\":26:27   */\n      dup1\n        /* \"--CODEGEN--\":19:31   */\n      revert\n        /* \"--CODEGEN--\":2:4   */\n    tag_132:\n        /* \"src\\BaseRegistrarImplementation.sol\":28039:28182  function register(uint256 id, address owner, uint duration) external returns(uint) {\r... */\n      dup2\n      add\n      swap1\n      dup1\n      dup1\n      calldataload\n      swap1\n      0x20\n      add\n      swap1\n      swap3\n      swap2\n      swap1\n      dup1\n      calldataload\n      0xffffffffffffffffffffffffffffffffffffffff\n      and\n      swap1\n      0x20\n      add\n      swap1\n      swap3\n      swap2\n      swap1\n      dup1\n      calldataload\n      swap1\n      0x20\n      add\n      swap1\n      swap3\n      swap2\n      swap1\n      pop\n      pop\n      pop\n      jump(tag_133)\n    tag_131:\n      mload(0x40)\n      dup1\n      dup3\n      dup2\n      mstore\n      0x20\n      add\n      swap2\n      pop\n      pop\n      mload(0x40)\n      dup1\n      swap2\n      sub\n      swap1\n      return\n        /* \"src\\BaseRegistrarImplementation.sol\":29987:30210  function supportsInterface(bytes4 interfaceID) external view returns (bool) {\r... */\n    tag_32:\n        /* \"src\\BaseRegistrarImplementation.sol\":30057:30061  bool */\n      0x0\n        /* \"src\\BaseRegistrarImplementation.sol\":25285:25323  keccak256(\"supportsInterface(bytes4)\") */\n      mload(0x40)\n      dup1\n      dup1\n      0x737570706f727473496e74657266616365286279746573342900000000000000\n      dup2\n      mstore\n      pop\n      0x19\n      add\n      swap1\n      pop\n      mload(0x40)\n      dup1\n      swap2\n      sub\n      swap1\n      keccak256\n        /* \"src\\BaseRegistrarImplementation.sol\":30081:30113  interfaceID == INTERFACE_META_ID */\n      not(0xffffffffffffffffffffffffffffffffffffffffffffffffffffffff)\n      and\n        /* \"src\\BaseRegistrarImplementation.sol\":30081:30092  interfaceID */\n      dup3\n        /* \"src\\BaseRegistrarImplementation.sol\":30081:30113  interfaceID == INTERFACE_META_ID */\n      not(0xffffffffffffffffffffffffffffffffffffffffffffffffffffffff)\n      and\n      eq\n        /* \"src\\BaseRegistrarImplementation.sol\":30081:30157  interfaceID == INTERFACE_META_ID ||\r... */\n      dup1\n      tag_135\n      jumpi\n      pop\n        /* \"src\\BaseRegistrarImplementation.sol\":25804:25864  keccak256(\"safeTransferFrom(address,address,uint256,bytes)\") */\n      mload(0x40)\n      dup1\n      dup1\n      0x736166655472616e7366657246726f6d28616464726573732c61646472657373\n      dup2\n      mstore\n      0x20\n      add\n      0x2c75696e743235362c6279746573290000000000000000000000000000000000\n      dup2\n      mstore\n      pop\n      0x2f\n      add\n      swap1\n      pop\n      mload(0x40)\n      dup1\n      swap2\n      sub\n      swap1\n      keccak256\n        /* \"src\\BaseRegistrarImplementation.sol\":25738:25792  keccak256(\"safeTransferFrom(address,address,uint256)\") */\n      mload(0x40)\n      dup1\n      dup1\n      0x736166655472616e7366657246726f6d28616464726573732c61646472657373\n      dup2\n      mstore\n      0x20\n      add\n      0x2c75696e74323536290000000000000000000000000000000000000000000000\n      dup2\n      mstore\n      pop\n      0x29\n      add\n      swap1\n      pop\n      mload(0x40)\n      dup1\n      swap2\n      sub\n      swap1\n      keccak256\n        /* \"src\\BaseRegistrarImplementation.sol\":25676:25726  keccak256(\"transferFrom(address,address,uint256)\") */\n      mload(0x40)\n      dup1\n      dup1\n      0x7472616e7366657246726f6d28616464726573732c616464726573732c75696e\n      dup2\n      mstore\n      0x20\n      add\n      0x7432353629000000000000000000000000000000000000000000000000000000\n      dup2\n      mstore\n      pop\n      0x25\n      add\n      swap1\n      pop\n      mload(0x40)\n      dup1\n      swap2\n      sub\n      swap1\n      keccak256\n        /* \"src\\BaseRegistrarImplementation.sol\":25618:25664  keccak256(\"isApprovedForAll(address,address)\") */\n      mload(0x40)\n      dup1\n      dup1\n      0x6973417070726f766564466f72416c6c28616464726573732c61646472657373\n      dup2\n      mstore\n      0x20\n      add\n      0x2900000000000000000000000000000000000000000000000000000000000000\n      dup2\n      mstore\n      pop\n      0x21\n      add\n      swap1\n      pop\n      mload(0x40)\n      dup1\n      swap2\n      sub\n      swap1\n      keccak256\n        /* \"src\\BaseRegistrarImplementation.sol\":25562:25606  keccak256(\"setApprovalForAll(address,bool)\") */\n      mload(0x40)\n      dup1\n      dup1\n      0x736574417070726f76616c466f72416c6c28616464726573732c626f6f6c2900\n      dup2\n      mstore\n      pop\n      0x1f\n      add\n      swap1\n      pop\n      mload(0x40)\n      dup1\n      swap2\n      sub\n      swap1\n      keccak256\n        /* \"src\\BaseRegistrarImplementation.sol\":25517:25550  keccak256(\"getApproved(uint256)\") */\n      mload(0x40)\n      dup1\n      dup1\n      0x676574417070726f7665642875696e7432353629000000000000000000000000\n      dup2\n      mstore\n      pop\n      0x14\n      add\n      swap1\n      pop\n      mload(0x40)\n      dup1\n      swap2\n      sub\n      swap1\n      keccak256\n        /* \"src\\BaseRegistrarImplementation.sol\":25468:25505  keccak256(\"approve(address,uint256)\") */\n      mload(0x40)\n      dup1\n      dup1\n      0x617070726f766528616464726573732c75696e74323536290000000000000000\n      dup2\n      mstore\n      pop\n      0x18\n      add\n      swap1\n      pop\n      mload(0x40)\n      dup1\n      swap2\n      sub\n      swap1\n      keccak256\n        /* \"src\\BaseRegistrarImplementation.sol\":25427:25456  keccak256(\"ownerOf(uint256)\") */\n      mload(0x40)\n      dup1\n      dup1\n      0x6f776e65724f662875696e743235362900000000000000000000000000000000\n      dup2\n      mstore\n      pop\n      0x10\n      add\n      swap1\n      pop\n      mload(0x40)\n      dup1\n      swap2\n      sub\n      swap1\n      keccak256\n        /* \"src\\BaseRegistrarImplementation.sol\":25384:25415  keccak256(\"balanceOf(address)\") */\n      mload(0x40)\n      dup1\n      dup1\n      0x62616c616e63654f662861646472657373290000000000000000000000000000\n      dup2\n      mstore\n      pop\n      0x12\n      add\n      swap1\n      pop\n      mload(0x40)\n      dup1\n      swap2\n      sub\n      swap1\n      keccak256\n        /* \"src\\BaseRegistrarImplementation.sol\":25384:25456  keccak256(\"balanceOf(address)\") ^\r... */\n      xor\n        /* \"src\\BaseRegistrarImplementation.sol\":25384:25505  keccak256(\"balanceOf(address)\") ^\r... */\n      xor\n        /* \"src\\BaseRegistrarImplementation.sol\":25384:25550  keccak256(\"balanceOf(address)\") ^\r... */\n      xor\n        /* \"src\\BaseRegistrarImplementation.sol\":25384:25606  keccak256(\"balanceOf(address)\") ^\r... */\n      xor\n        /* \"src\\BaseRegistrarImplementation.sol\":25384:25664  keccak256(\"balanceOf(address)\") ^\r... */\n      xor\n        /* \"src\\BaseRegistrarImplementation.sol\":25384:25726  keccak256(\"balanceOf(address)\") ^\r... */\n      xor\n        /* \"src\\BaseRegistrarImplementation.sol\":25384:25792  keccak256(\"balanceOf(address)\") ^\r... */\n      xor\n        /* \"src\\BaseRegistrarImplementation.sol\":25384:25864  keccak256(\"balanceOf(address)\") ^\r... */\n      xor\n        /* \"src\\BaseRegistrarImplementation.sol\":30133:30157  interfaceID == ERC721_ID */\n      not(0xffffffffffffffffffffffffffffffffffffffffffffffffffffffff)\n      and\n        /* \"src\\BaseRegistrarImplementation.sol\":30133:30144  interfaceID */\n      dup3\n        /* \"src\\BaseRegistrarImplementation.sol\":30133:30157  interfaceID == ERC721_ID */\n      not(0xffffffffffffffffffffffffffffffffffffffffffffffffffffffff)\n      and\n      eq\n        /* \"src\\BaseRegistrarImplementation.sol\":30081:30157  interfaceID == INTERFACE_META_ID ||\r... */\n    tag_135:\n        /* \"src\\BaseRegistrarImplementation.sol\":30081:30202  interfaceID == INTERFACE_META_ID ||\r... */\n      dup1\n      tag_136\n      jumpi\n      pop\n        /* \"src\\BaseRegistrarImplementation.sol\":25922:25959  keccak256(\"reclaim(uint256,address)\") */\n      mload(0x40)\n      dup1\n      dup1\n      0x7265636c61696d2875696e743235362c61646472657373290000000000000000\n      dup2\n      mstore\n      pop\n      0x18\n      add\n      swap1\n      pop\n      mload(0x40)\n      dup1\n      swap2\n      sub\n      swap1\n      keccak256\n        /* \"src\\BaseRegistrarImplementation.sol\":30177:30202  interfaceID == RECLAIM_ID */\n      not(0xffffffffffffffffffffffffffffffffffffffffffffffffffffffff)\n      and\n        /* \"src\\BaseRegistrarImplementation.sol\":30177:30188  interfaceID */\n      dup3\n        /* \"src\\BaseRegistrarImplementation.sol\":30177:30202  interfaceID == RECLAIM_ID */\n      not(0xffffffffffffffffffffffffffffffffffffffffffffffffffffffff)\n      and\n      eq\n        /* \"src\\BaseRegistrarImplementation.sol\":30081:30202  interfaceID == INTERFACE_META_ID ||\r... */\n    tag_136:\n        /* \"src\\BaseRegistrarImplementation.sol\":30074:30202  return interfaceID == INTERFACE_META_ID ||\r... */\n      swap1\n      pop\n        /* \"src\\BaseRegistrarImplementation.sol\":29987:30210  function supportsInterface(bytes4 interfaceID) external view returns (bool) {\r... */\n      swap2\n      swap1\n      pop\n      jump\t// out\n        /* \"src\\BaseRegistrarImplementation.sol\":13015:13169  function getApproved(uint256 tokenId) public view returns (address) {\r... */\n    tag_36:\n        /* \"src\\BaseRegistrarImplementation.sol\":13074:13081  address */\n      0x0\n        /* \"src\\BaseRegistrarImplementation.sol\":13102:13118  _exists(tokenId) */\n      tag_138\n        /* \"src\\BaseRegistrarImplementation.sol\":13110:13117  tokenId */\n      dup3\n        /* \"src\\BaseRegistrarImplementation.sol\":13102:13109  _exists */\n      tag_139\n        /* \"src\\BaseRegistrarImplementation.sol\":13102:13118  _exists(tokenId) */\n      jump\t// in\n    tag_138:\n        /* \"src\\BaseRegistrarImplementation.sol\":13094:13119  require(_exists(tokenId)) */\n      iszero\n      iszero\n      tag_140\n      jumpi\n      0x0\n      dup1\n      revert\n    tag_140:\n        /* \"src\\BaseRegistrarImplementation.sol\":13137:13152  _tokenApprovals */\n      0x6\n        /* \"src\\BaseRegistrarImplementation.sol\":13137:13161  _tokenApprovals[tokenId] */\n      0x0\n        /* \"src\\BaseRegistrarImplementation.sol\":13153:13160  tokenId */\n      dup4\n        /* \"src\\BaseRegistrarImplementation.sol\":13137:13161  _tokenApprovals[tokenId] */\n      dup2\n      mstore\n      0x20\n      add\n      swap1\n      dup2\n      mstore\n      0x20\n      add\n      0x0\n      keccak256\n      0x0\n      swap1\n      sload\n      swap1\n      0x100\n      exp\n      swap1\n      div\n      0xffffffffffffffffffffffffffffffffffffffff\n      and\n        /* \"src\\BaseRegistrarImplementation.sol\":13130:13161  return _tokenApprovals[tokenId] */\n      swap1\n      pop\n        /* \"src\\BaseRegistrarImplementation.sol\":13015:13169  function getApproved(uint256 tokenId) public view returns (address) {\r... */\n      swap2\n      swap1\n      pop\n      jump\t// out\n        /* \"src\\BaseRegistrarImplementation.sol\":12423:12722  function approve(address to, uint256 tokenId) public {\r... */\n    tag_40:\n        /* \"src\\BaseRegistrarImplementation.sol\":12487:12500  address owner */\n      0x0\n        /* \"src\\BaseRegistrarImplementation.sol\":12503:12519  ownerOf(tokenId) */\n      tag_142\n        /* \"src\\BaseRegistrarImplementation.sol\":12511:12518  tokenId */\n      dup3\n        /* \"src\\BaseRegistrarImplementation.sol\":12503:12510  ownerOf */\n      tag_67\n        /* \"src\\BaseRegistrarImplementation.sol\":12503:12519  ownerOf(tokenId) */\n      jump\t// in\n    tag_142:\n        /* \"src\\BaseRegistrarImplementation.sol\":12487:12519  address owner = ownerOf(tokenId) */\n      swap1\n      pop\n        /* \"src\\BaseRegistrarImplementation.sol\":12544:12549  owner */\n      dup1\n        /* \"src\\BaseRegistrarImplementation.sol\":12538:12549  to != owner */\n      0xffffffffffffffffffffffffffffffffffffffff\n      and\n        /* \"src\\BaseRegistrarImplementation.sol\":12538:12540  to */\n      dup4\n        /* \"src\\BaseRegistrarImplementation.sol\":12538:12549  to != owner */\n      0xffffffffffffffffffffffffffffffffffffffff\n      and\n      eq\n      iszero\n        /* \"src\\BaseRegistrarImplementation.sol\":12530:12550  require(to != owner) */\n      iszero\n      iszero\n      tag_143\n      jumpi\n      0x0\n      dup1\n      revert\n    tag_143:\n        /* \"src\\BaseRegistrarImplementation.sol\":12583:12588  owner */\n      dup1\n        /* \"src\\BaseRegistrarImplementation.sol\":12569:12588  msg.sender == owner */\n      0xffffffffffffffffffffffffffffffffffffffff\n      and\n        /* \"src\\BaseRegistrarImplementation.sol\":12569:12579  msg.sender */\n      caller\n        /* \"src\\BaseRegistrarImplementation.sol\":12569:12588  msg.sender == owner */\n      0xffffffffffffffffffffffffffffffffffffffff\n      and\n      eq\n        /* \"src\\BaseRegistrarImplementation.sol\":12569:12627  msg.sender == owner || isApprovedForAll(owner, msg.sender) */\n      dup1\n      tag_144\n      jumpi\n      pop\n        /* \"src\\BaseRegistrarImplementation.sol\":12592:12627  isApprovedForAll(owner, msg.sender) */\n      tag_145\n        /* \"src\\BaseRegistrarImplementation.sol\":12609:12614  owner */\n      dup2\n        /* \"src\\BaseRegistrarImplementation.sol\":12616:12626  msg.sender */\n      caller\n        /* \"src\\BaseRegistrarImplementation.sol\":12592:12608  isApprovedForAll */\n      tag_121\n        /* \"src\\BaseRegistrarImplementation.sol\":12592:12627  isApprovedForAll(owner, msg.sender) */\n      jump\t// in\n    tag_145:\n        /* \"src\\BaseRegistrarImplementation.sol\":12569:12627  msg.sender == owner || isApprovedForAll(owner, msg.sender) */\n    tag_144:\n        /* \"src\\BaseRegistrarImplementation.sol\":12561:12628  require(msg.sender == owner || isApprovedForAll(owner, msg.sender)) */\n      iszero\n      iszero\n      tag_146\n      jumpi\n      0x0\n      dup1\n      revert\n    tag_146:\n        /* \"src\\BaseRegistrarImplementation.sol\":12668:12670  to */\n      dup3\n        /* \"src\\BaseRegistrarImplementation.sol\":12641:12656  _tokenApprovals */\n      0x6\n        /* \"src\\BaseRegistrarImplementation.sol\":12641:12665  _tokenApprovals[tokenId] */\n      0x0\n        /* \"src\\BaseRegistrarImplementation.sol\":12657:12664  tokenId */\n      dup5\n        /* \"src\\BaseRegistrarImplementation.sol\":12641:12665  _tokenApprovals[tokenId] */\n      dup2\n      mstore\n      0x20\n      add\n      swap1\n      dup2\n      mstore\n      0x20\n      add\n      0x0\n      keccak256\n      0x0\n        /* \"src\\BaseRegistrarImplementation.sol\":12641:12670  _tokenApprovals[tokenId] = to */\n      0x100\n      exp\n      dup2\n      sload\n      dup2\n      0xffffffffffffffffffffffffffffffffffffffff\n      mul\n      not\n      and\n      swap1\n      dup4\n      0xffffffffffffffffffffffffffffffffffffffff\n      and\n      mul\n      or\n      swap1\n      sstore\n      pop\n        /* \"src\\BaseRegistrarImplementation.sol\":12706:12713  tokenId */\n      dup2\n        /* \"src\\BaseRegistrarImplementation.sol\":12702:12704  to */\n      dup4\n        /* \"src\\BaseRegistrarImplementation.sol\":12686:12714  Approval(owner, to, tokenId) */\n      0xffffffffffffffffffffffffffffffffffffffff\n      and\n        /* \"src\\BaseRegistrarImplementation.sol\":12695:12700  owner */\n      dup3\n        /* \"src\\BaseRegistrarImplementation.sol\":12686:12714  Approval(owner, to, tokenId) */\n      0xffffffffffffffffffffffffffffffffffffffff\n      and\n      0x8c5be1e5ebec7d5bd14f71427d1e84f3dd0314c0f7b2291e5b200ac8c7c3b925\n      mload(0x40)\n      mload(0x40)\n      dup1\n      swap2\n      sub\n      swap1\n      log4\n        /* \"src\\BaseRegistrarImplementation.sol\":12423:12722  function approve(address to, uint256 tokenId) public {\r... */\n      pop\n      pop\n      pop\n      jump\t// out\n        /* \"src\\BaseRegistrarImplementation.sol\":28460:28608  function registerOnly(uint256 id, address owner, uint duration) external returns(uint) {\r... */\n    tag_44:\n        /* \"src\\BaseRegistrarImplementation.sol\":28541:28545  uint */\n      0x0\n        /* \"src\\BaseRegistrarImplementation.sol\":28563:28600  _register(id, owner, duration, false) */\n      tag_148\n        /* \"src\\BaseRegistrarImplementation.sol\":28573:28575  id */\n      dup5\n        /* \"src\\BaseRegistrarImplementation.sol\":28577:28582  owner */\n      dup5\n        /* \"src\\BaseRegistrarImplementation.sol\":28584:28592  duration */\n      dup5\n        /* \"src\\BaseRegistrarImplementation.sol\":28594:28599  false */\n      0x0\n        /* \"src\\BaseRegistrarImplementation.sol\":28563:28572  _register */\n      tag_149\n        /* \"src\\BaseRegistrarImplementation.sol\":28563:28600  _register(id, owner, duration, false) */\n      jump\t// in\n    tag_148:\n        /* \"src\\BaseRegistrarImplementation.sol\":28556:28600  return _register(id, owner, duration, false) */\n      swap1\n      pop\n        /* \"src\\BaseRegistrarImplementation.sol\":28460:28608  function registerOnly(uint256 id, address owner, uint duration) external returns(uint) {\r... */\n      swap4\n      swap3\n      pop\n      pop\n      pop\n      jump\t// out\n        /* \"src\\BaseRegistrarImplementation.sol\":14605:14789  function transferFrom(address from, address to, uint256 tokenId) public {\r... */\n    tag_48:\n        /* \"src\\BaseRegistrarImplementation.sol\":14696:14735  _isApprovedOrOwner(msg.sender, tokenId) */\n      tag_151\n        /* \"src\\BaseRegistrarImplementation.sol\":14715:14725  msg.sender */\n      caller\n        /* \"src\\BaseRegistrarImplementation.sol\":14727:14734  tokenId */\n      dup3\n        /* \"src\\BaseRegistrarImplementation.sol\":14696:14714  _isApprovedOrOwner */\n      tag_152\n        /* \"src\\BaseRegistrarImplementation.sol\":14696:14735  _isApprovedOrOwner(msg.sender, tokenId) */\n      jump\t// in\n    tag_151:\n        /* \"src\\BaseRegistrarImplementation.sol\":14688:14736  require(_isApprovedOrOwner(msg.sender, tokenId)) */\n      iszero\n      iszero\n      tag_153\n      jumpi\n      0x0\n      dup1\n      revert\n    tag_153:\n        /* \"src\\BaseRegistrarImplementation.sol\":14749:14781  _transferFrom(from, to, tokenId) */\n      tag_154\n        /* \"src\\BaseRegistrarImplementation.sol\":14763:14767  from */\n      dup4\n        /* \"src\\BaseRegistrarImplementation.sol\":14769:14771  to */\n      dup4\n        /* \"src\\BaseRegistrarImplementation.sol\":14773:14780  tokenId */\n      dup4\n        /* \"src\\BaseRegistrarImplementation.sol\":14749:14762  _transferFrom */\n      tag_155\n        /* \"src\\BaseRegistrarImplementation.sol\":14749:14781  _transferFrom(from, to, tokenId) */\n      jump\t// in\n    tag_154:\n        /* \"src\\BaseRegistrarImplementation.sol\":14605:14789  function transferFrom(address from, address to, uint256 tokenId) public {\r... */\n      pop\n      pop\n      pop\n      jump\t// out\n        /* \"src\\BaseRegistrarImplementation.sol\":29799:29979  function reclaim(uint256 id, address owner) external live {\r... */\n    tag_52:\n        /* \"src\\BaseRegistrarImplementation.sol\":26149:26153  this */\n      address\n        /* \"src\\BaseRegistrarImplementation.sol\":26118:26154  ens.owner(baseNode) == address(this) */\n      0xffffffffffffffffffffffffffffffffffffffff\n      and\n        /* \"src\\BaseRegistrarImplementation.sol\":26118:26121  ens */\n      0x2\n      0x0\n      swap1\n      sload\n      swap1\n      0x100\n      exp\n      swap1\n      div\n      0xffffffffffffffffffffffffffffffffffffffff\n      and\n        /* \"src\\BaseRegistrarImplementation.sol\":26118:26127  ens.owner */\n      0xffffffffffffffffffffffffffffffffffffffff\n      and\n      0x2571be3\n        /* \"src\\BaseRegistrarImplementation.sol\":26128:26136  baseNode */\n      sload(0x3)\n        /* \"src\\BaseRegistrarImplementation.sol\":26118:26137  ens.owner(baseNode) */\n      mload(0x40)\n      dup3\n      0xffffffff\n      and\n      0x100000000000000000000000000000000000000000000000000000000\n      mul\n      dup2\n      mstore\n      0x4\n      add\n      dup1\n      dup3\n      dup2\n      mstore\n      0x20\n      add\n      swap2\n      pop\n      pop\n      0x20\n      mload(0x40)\n      dup1\n      dup4\n      sub\n      dup2\n      dup7\n      dup1\n      extcodesize\n      iszero\n        /* \"--CODEGEN--\":8:17   */\n      dup1\n        /* \"--CODEGEN--\":5:7   */\n      iszero\n      tag_157\n      jumpi\n        /* \"--CODEGEN--\":30:31   */\n      0x0\n        /* \"--CODEGEN--\":27:28   */\n      dup1\n        /* \"--CODEGEN--\":20:32   */\n      revert\n        /* \"--CODEGEN--\":5:7   */\n    tag_157:\n        /* \"src\\BaseRegistrarImplementation.sol\":26118:26137  ens.owner(baseNode) */\n      pop\n      gas\n      staticcall\n      iszero\n        /* \"--CODEGEN--\":8:17   */\n      dup1\n        /* \"--CODEGEN--\":5:7   */\n      iszero\n      tag_158\n      jumpi\n        /* \"--CODEGEN--\":45:61   */\n      returndatasize\n        /* \"--CODEGEN--\":42:43   */\n      0x0\n        /* \"--CODEGEN--\":39:40   */\n      dup1\n        /* \"--CODEGEN--\":24:62   */\n      returndatacopy\n        /* \"--CODEGEN--\":77:93   */\n      returndatasize\n        /* \"--CODEGEN--\":74:75   */\n      0x0\n        /* \"--CODEGEN--\":67:94   */\n      revert\n        /* \"--CODEGEN--\":5:7   */\n    tag_158:\n        /* \"src\\BaseRegistrarImplementation.sol\":26118:26137  ens.owner(baseNode) */\n      pop\n      pop\n      pop\n      pop\n      mload(0x40)\n      returndatasize\n        /* \"--CODEGEN--\":13:15   */\n      0x20\n        /* \"--CODEGEN--\":8:11   */\n      dup2\n        /* \"--CODEGEN--\":5:16   */\n      lt\n        /* \"--CODEGEN--\":2:4   */\n      iszero\n      tag_159\n      jumpi\n        /* \"--CODEGEN--\":29:30   */\n      0x0\n        /* \"--CODEGEN--\":26:27   */\n      dup1\n        /* \"--CODEGEN--\":19:31   */\n      revert\n        /* \"--CODEGEN--\":2:4   */\n    tag_159:\n        /* \"src\\BaseRegistrarImplementation.sol\":26118:26137  ens.owner(baseNode) */\n      dup2\n      add\n      swap1\n      dup1\n      dup1\n      mload\n      swap1\n      0x20\n      add\n      swap1\n      swap3\n      swap2\n      swap1\n      pop\n      pop\n      pop\n        /* \"src\\BaseRegistrarImplementation.sol\":26118:26154  ens.owner(baseNode) == address(this) */\n      0xffffffffffffffffffffffffffffffffffffffff\n      and\n      eq\n        /* \"src\\BaseRegistrarImplementation.sol\":26110:26155  require(ens.owner(baseNode) == address(this)) */\n      iszero\n      iszero\n      tag_160\n      jumpi\n      0x0\n      dup1\n      revert\n    tag_160:\n        /* \"src\\BaseRegistrarImplementation.sol\":29876:29910  _isApprovedOrOwner(msg.sender, id) */\n      tag_162\n        /* \"src\\BaseRegistrarImplementation.sol\":29895:29905  msg.sender */\n      caller\n        /* \"src\\BaseRegistrarImplementation.sol\":29907:29909  id */\n      dup4\n        /* \"src\\BaseRegistrarImplementation.sol\":29876:29894  _isApprovedOrOwner */\n      tag_152\n        /* \"src\\BaseRegistrarImplementation.sol\":29876:29910  _isApprovedOrOwner(msg.sender, id) */\n      jump\t// in\n    tag_162:\n        /* \"src\\BaseRegistrarImplementation.sol\":29868:29911  require(_isApprovedOrOwner(msg.sender, id)) */\n      iszero\n      iszero\n      tag_163\n      jumpi\n      0x0\n      dup1\n      revert\n    tag_163:\n        /* \"src\\BaseRegistrarImplementation.sol\":29922:29925  ens */\n      0x2\n      0x0\n      swap1\n      sload\n      swap1\n      0x100\n      exp\n      swap1\n      div\n      0xffffffffffffffffffffffffffffffffffffffff\n      and\n        /* \"src\\BaseRegistrarImplementation.sol\":29922:29941  ens.setSubnodeOwner */\n      0xffffffffffffffffffffffffffffffffffffffff\n      and\n      0x6ab5923\n        /* \"src\\BaseRegistrarImplementation.sol\":29942:29950  baseNode */\n      sload(0x3)\n        /* \"src\\BaseRegistrarImplementation.sol\":29960:29962  id */\n      dup5\n        /* \"src\\BaseRegistrarImplementation.sol\":29952:29963  bytes32(id) */\n      0x1\n      mul\n        /* \"src\\BaseRegistrarImplementation.sol\":29965:29970  owner */\n      dup5\n        /* \"src\\BaseRegistrarImplementation.sol\":29922:29971  ens.setSubnodeOwner(baseNode, bytes32(id), owner) */\n      mload(0x40)\n      dup5\n      0xffffffff\n      and\n      0x100000000000000000000000000000000000000000000000000000000\n      mul\n      dup2\n      mstore\n      0x4\n      add\n      dup1\n      dup5\n      dup2\n      mstore\n      0x20\n      add\n      dup4\n      dup2\n      mstore\n      0x20\n      add\n      dup3\n      0xffffffffffffffffffffffffffffffffffffffff\n      and\n      0xffffffffffffffffffffffffffffffffffffffff\n      and\n      dup2\n      mstore\n      0x20\n      add\n      swap4\n      pop\n      pop\n      pop\n      pop\n      0x20\n      mload(0x40)\n      dup1\n      dup4\n      sub\n      dup2\n      0x0\n      dup8\n      dup1\n      extcodesize\n      iszero\n        /* \"--CODEGEN--\":8:17   */\n      dup1\n        /* \"--CODEGEN--\":5:7   */\n      iszero\n      tag_164\n      jumpi\n        /* \"--CODEGEN--\":30:31   */\n      0x0\n        /* \"--CODEGEN--\":27:28   */\n      dup1\n        /* \"--CODEGEN--\":20:32   */\n      revert\n        /* \"--CODEGEN--\":5:7   */\n    tag_164:\n        /* \"src\\BaseRegistrarImplementation.sol\":29922:29971  ens.setSubnodeOwner(baseNode, bytes32(id), owner) */\n      pop\n      gas\n      call\n      iszero\n        /* \"--CODEGEN--\":8:17   */\n      dup1\n        /* \"--CODEGEN--\":5:7   */\n      iszero\n      tag_165\n      jumpi\n        /* \"--CODEGEN--\":45:61   */\n      returndatasize\n        /* \"--CODEGEN--\":42:43   */\n      0x0\n        /* \"--CODEGEN--\":39:40   */\n      dup1\n        /* \"--CODEGEN--\":24:62   */\n      returndatacopy\n        /* \"--CODEGEN--\":77:93   */\n      returndatasize\n        /* \"--CODEGEN--\":74:75   */\n      0x0\n        /* \"--CODEGEN--\":67:94   */\n      revert\n        /* \"--CODEGEN--\":5:7   */\n    tag_165:\n        /* \"src\\BaseRegistrarImplementation.sol\":29922:29971  ens.setSubnodeOwner(baseNode, bytes32(id), owner) */\n      pop\n      pop\n      pop\n      pop\n      mload(0x40)\n      returndatasize\n        /* \"--CODEGEN--\":13:15   */\n      0x20\n        /* \"--CODEGEN--\":8:11   */\n      dup2\n        /* \"--CODEGEN--\":5:16   */\n      lt\n        /* \"--CODEGEN--\":2:4   */\n      iszero\n      tag_166\n      jumpi\n        /* \"--CODEGEN--\":29:30   */\n      0x0\n        /* \"--CODEGEN--\":26:27   */\n      dup1\n        /* \"--CODEGEN--\":19:31   */\n      revert\n        /* \"--CODEGEN--\":2:4   */\n    tag_166:\n        /* \"src\\BaseRegistrarImplementation.sol\":29922:29971  ens.setSubnodeOwner(baseNode, bytes32(id), owner) */\n      dup2\n      add\n      swap1\n      dup1\n      dup1\n      mload\n      swap1\n      0x20\n      add\n      swap1\n      swap3\n      swap2\n      swap1\n      pop\n      pop\n      pop\n      pop\n        /* \"src\\BaseRegistrarImplementation.sol\":29799:29979  function reclaim(uint256 id, address owner) external live {\r... */\n      pop\n      pop\n      jump\t// out\n        /* \"src\\BaseRegistrarImplementation.sol\":23727:23741  ENS public ens */\n    tag_55:\n      0x2\n      0x0\n      swap1\n      sload\n      swap1\n      0x100\n      exp\n      swap1\n      div\n      0xffffffffffffffffffffffffffffffffffffffff\n      and\n      dup2\n      jump\t// out\n        /* \"src\\BaseRegistrarImplementation.sol\":15442:15576  function safeTransferFrom(address from, address to, uint256 tokenId) public {\r... */\n    tag_59:\n        /* \"src\\BaseRegistrarImplementation.sol\":15529:15568  safeTransferFrom(from, to, tokenId, \"\") */\n      tag_168\n        /* \"src\\BaseRegistrarImplementation.sol\":15546:15550  from */\n      dup4\n        /* \"src\\BaseRegistrarImplementation.sol\":15552:15554  to */\n      dup4\n        /* \"src\\BaseRegistrarImplementation.sol\":15556:15563  tokenId */\n      dup4\n        /* \"src\\BaseRegistrarImplementation.sol\":15529:15568  safeTransferFrom(from, to, tokenId, \"\") */\n      0x20\n      mload(0x40)\n      swap1\n      dup2\n      add\n      0x40\n      mstore\n      dup1\n      0x0\n      dup2\n      mstore\n      pop\n        /* \"src\\BaseRegistrarImplementation.sol\":15529:15545  safeTransferFrom */\n      tag_99\n        /* \"src\\BaseRegistrarImplementation.sol\":15529:15568  safeTransferFrom(from, to, tokenId, \"\") */\n      jump\t// in\n    tag_168:\n        /* \"src\\BaseRegistrarImplementation.sol\":15442:15576  function safeTransferFrom(address from, address to, uint256 tokenId) public {\r... */\n      pop\n      pop\n      pop\n      jump\t// out\n        /* \"src\\BaseRegistrarImplementation.sol\":27239:27351  function setResolver(address resolver) external onlyOwner {\r... */\n    tag_63:\n        /* \"src\\BaseRegistrarImplementation.sol\":21889:21898  isOwner() */\n      tag_170\n        /* \"src\\BaseRegistrarImplementation.sol\":21889:21896  isOwner */\n      tag_80\n        /* \"src\\BaseRegistrarImplementation.sol\":21889:21898  isOwner() */\n      jump\t// in\n    tag_170:\n        /* \"src\\BaseRegistrarImplementation.sol\":21881:21899  require(isOwner()) */\n      iszero\n      iszero\n      tag_171\n      jumpi\n      0x0\n      dup1\n      revert\n    tag_171:\n        /* \"src\\BaseRegistrarImplementation.sol\":27308:27311  ens */\n      0x2\n      0x0\n      swap1\n      sload\n      swap1\n      0x100\n      exp\n      swap1\n      div\n      0xffffffffffffffffffffffffffffffffffffffff\n      and\n        /* \"src\\BaseRegistrarImplementation.sol\":27308:27323  ens.setResolver */\n      0xffffffffffffffffffffffffffffffffffffffff\n      and\n      0x1896f70a\n        /* \"src\\BaseRegistrarImplementation.sol\":27324:27332  baseNode */\n      sload(0x3)\n        /* \"src\\BaseRegistrarImplementation.sol\":27334:27342  resolver */\n      dup4\n        /* \"src\\BaseRegistrarImplementation.sol\":27308:27343  ens.setResolver(baseNode, resolver) */\n      mload(0x40)\n      dup4\n      0xffffffff\n      and\n      0x100000000000000000000000000000000000000000000000000000000\n      mul\n      dup2\n      mstore\n      0x4\n      add\n      dup1\n      dup4\n      dup2\n      mstore\n      0x20\n      add\n      dup3\n      0xffffffffffffffffffffffffffffffffffffffff\n      and\n      0xffffffffffffffffffffffffffffffffffffffff\n      and\n      dup2\n      mstore\n      0x20\n      add\n      swap3\n      pop\n      pop\n      pop\n      0x0\n      mload(0x40)\n      dup1\n      dup4\n      sub\n      dup2\n      0x0\n      dup8\n      dup1\n      extcodesize\n      iszero\n        /* \"--CODEGEN--\":8:17   */\n      dup1\n        /* \"--CODEGEN--\":5:7   */\n      iszero\n      tag_173\n      jumpi\n        /* \"--CODEGEN--\":30:31   */\n      0x0\n        /* \"--CODEGEN--\":27:28   */\n      dup1\n        /* \"--CODEGEN--\":20:32   */\n      revert\n        /* \"--CODEGEN--\":5:7   */\n    tag_173:\n        /* \"src\\BaseRegistrarImplementation.sol\":27308:27343  ens.setResolver(baseNode, resolver) */\n      pop\n      gas\n      call\n      iszero\n        /* \"--CODEGEN--\":8:17   */\n      dup1\n        /* \"--CODEGEN--\":5:7   */\n      iszero\n      tag_174\n      jumpi\n        /* \"--CODEGEN--\":45:61   */\n      returndatasize\n        /* \"--CODEGEN--\":42:43   */\n      0x0\n        /* \"--CODEGEN--\":39:40   */\n      dup1\n        /* \"--CODEGEN--\":24:62   */\n      returndatacopy\n        /* \"--CODEGEN--\":77:93   */\n      returndatasize\n        /* \"--CODEGEN--\":74:75   */\n      0x0\n        /* \"--CODEGEN--\":67:94   */\n      revert\n        /* \"--CODEGEN--\":5:7   */\n    tag_174:\n        /* \"src\\BaseRegistrarImplementation.sol\":27308:27343  ens.setResolver(baseNode, resolver) */\n      pop\n      pop\n      pop\n      pop\n        /* \"src\\BaseRegistrarImplementation.sol\":27239:27351  function setResolver(address resolver) external onlyOwner {\r... */\n      pop\n      jump\t// out\n        /* \"src\\BaseRegistrarImplementation.sol\":26563:26718  function ownerOf(uint256 tokenId) public view returns (address) {\r... */\n    tag_67:\n        /* \"src\\BaseRegistrarImplementation.sol\":26618:26625  address */\n      0x0\n        /* \"src\\BaseRegistrarImplementation.sol\":26666:26669  now */\n      timestamp\n        /* \"src\\BaseRegistrarImplementation.sol\":26646:26654  expiries */\n      0x9\n        /* \"src\\BaseRegistrarImplementation.sol\":26646:26663  expiries[tokenId] */\n      0x0\n        /* \"src\\BaseRegistrarImplementation.sol\":26655:26662  tokenId */\n      dup5\n        /* \"src\\BaseRegistrarImplementation.sol\":26646:26663  expiries[tokenId] */\n      dup2\n      mstore\n      0x20\n      add\n      swap1\n      dup2\n      mstore\n      0x20\n      add\n      0x0\n      keccak256\n      sload\n        /* \"src\\BaseRegistrarImplementation.sol\":26646:26669  expiries[tokenId] > now */\n      gt\n        /* \"src\\BaseRegistrarImplementation.sol\":26638:26670  require(expiries[tokenId] > now) */\n      iszero\n      iszero\n      tag_176\n      jumpi\n      0x0\n      dup1\n      revert\n    tag_176:\n        /* \"src\\BaseRegistrarImplementation.sol\":26688:26710  super.ownerOf(tokenId) */\n      tag_177\n        /* \"src\\BaseRegistrarImplementation.sol\":26702:26709  tokenId */\n      dup3\n        /* \"src\\BaseRegistrarImplementation.sol\":26688:26701  super.ownerOf */\n      tag_178\n        /* \"src\\BaseRegistrarImplementation.sol\":26688:26710  super.ownerOf(tokenId) */\n      jump\t// in\n    tag_177:\n        /* \"src\\BaseRegistrarImplementation.sol\":26681:26710  return super.ownerOf(tokenId) */\n      swap1\n      pop\n        /* \"src\\BaseRegistrarImplementation.sol\":26563:26718  function ownerOf(uint256 tokenId) public view returns (address) {\r... */\n      swap2\n      swap1\n      pop\n      jump\t// out\n        /* \"src\\BaseRegistrarImplementation.sol\":11427:11580  function balanceOf(address owner) public view returns (uint256) {\r... */\n    tag_71:\n        /* \"src\\BaseRegistrarImplementation.sol\":11482:11489  uint256 */\n      0x0\n        /* \"src\\BaseRegistrarImplementation.sol\":11527:11528  0 */\n      dup1\n        /* \"src\\BaseRegistrarImplementation.sol\":11510:11529  owner != address(0) */\n      0xffffffffffffffffffffffffffffffffffffffff\n      and\n        /* \"src\\BaseRegistrarImplementation.sol\":11510:11515  owner */\n      dup3\n        /* \"src\\BaseRegistrarImplementation.sol\":11510:11529  owner != address(0) */\n      0xffffffffffffffffffffffffffffffffffffffff\n      and\n      eq\n      iszero\n        /* \"src\\BaseRegistrarImplementation.sol\":11502:11530  require(owner != address(0)) */\n      iszero\n      iszero\n      tag_180\n      jumpi\n      0x0\n      dup1\n      revert\n    tag_180:\n        /* \"src\\BaseRegistrarImplementation.sol\":11548:11565  _ownedTokensCount */\n      0x7\n        /* \"src\\BaseRegistrarImplementation.sol\":11548:11572  _ownedTokensCount[owner] */\n      0x0\n        /* \"src\\BaseRegistrarImplementation.sol\":11566:11571  owner */\n      dup4\n        /* \"src\\BaseRegistrarImplementation.sol\":11548:11572  _ownedTokensCount[owner] */\n      0xffffffffffffffffffffffffffffffffffffffff\n      and\n      0xffffffffffffffffffffffffffffffffffffffff\n      and\n      dup2\n      mstore\n      0x20\n      add\n      swap1\n      dup2\n      mstore\n      0x20\n      add\n      0x0\n      keccak256\n      sload\n        /* \"src\\BaseRegistrarImplementation.sol\":11541:11572  return _ownedTokensCount[owner] */\n      swap1\n      pop\n        /* \"src\\BaseRegistrarImplementation.sol\":11427:11580  function balanceOf(address owner) public view returns (uint256) {\r... */\n      swap2\n      swap1\n      pop\n      jump\t// out\n        /* \"src\\BaseRegistrarImplementation.sol\":22390:22530  function renounceOwnership() public onlyOwner {\r... */\n    tag_74:\n        /* \"src\\BaseRegistrarImplementation.sol\":21889:21898  isOwner() */\n      tag_182\n        /* \"src\\BaseRegistrarImplementation.sol\":21889:21896  isOwner */\n      tag_80\n        /* \"src\\BaseRegistrarImplementation.sol\":21889:21898  isOwner() */\n      jump\t// in\n    tag_182:\n        /* \"src\\BaseRegistrarImplementation.sol\":21881:21899  require(isOwner()) */\n      iszero\n      iszero\n      tag_183\n      jumpi\n      0x0\n      dup1\n      revert\n    tag_183:\n        /* \"src\\BaseRegistrarImplementation.sol\":22489:22490  0 */\n      0x0\n        /* \"src\\BaseRegistrarImplementation.sol\":22452:22492  OwnershipTransferred(_owner, address(0)) */\n      0xffffffffffffffffffffffffffffffffffffffff\n      and\n        /* \"src\\BaseRegistrarImplementation.sol\":22473:22479  _owner */\n      0x1\n      0x0\n      swap1\n      sload\n      swap1\n      0x100\n      exp\n      swap1\n      div\n      0xffffffffffffffffffffffffffffffffffffffff\n      and\n        /* \"src\\BaseRegistrarImplementation.sol\":22452:22492  OwnershipTransferred(_owner, address(0)) */\n      0xffffffffffffffffffffffffffffffffffffffff\n      and\n      0x8be0079c531659141344cd1fd0a4f28419497f9722a3daafe3b4186f6b6457e0\n      mload(0x40)\n      mload(0x40)\n      dup1\n      swap2\n      sub\n      swap1\n      log3\n        /* \"src\\BaseRegistrarImplementation.sol\":22520:22521  0 */\n      0x0\n        /* \"src\\BaseRegistrarImplementation.sol\":22503:22509  _owner */\n      0x1\n      0x0\n        /* \"src\\BaseRegistrarImplementation.sol\":22503:22522  _owner = address(0) */\n      0x100\n      exp\n      dup2\n      sload\n      dup2\n      0xffffffffffffffffffffffffffffffffffffffff\n      mul\n      not\n      and\n      swap1\n      dup4\n      0xffffffffffffffffffffffffffffffffffffffff\n      and\n      mul\n      or\n      swap1\n      sstore\n      pop\n        /* \"src\\BaseRegistrarImplementation.sol\":22390:22530  function renounceOwnership() public onlyOwner {\r... */\n      jump\t// out\n        /* \"src\\BaseRegistrarImplementation.sol\":21677:21756  function owner() public view returns (address) {\r... */\n    tag_77:\n        /* \"src\\BaseRegistrarImplementation.sol\":21715:21722  address */\n      0x0\n        /* \"src\\BaseRegistrarImplementation.sol\":21742:21748  _owner */\n      0x1\n      0x0\n      swap1\n      sload\n      swap1\n      0x100\n      exp\n      swap1\n      div\n      0xffffffffffffffffffffffffffffffffffffffff\n      and\n        /* \"src\\BaseRegistrarImplementation.sol\":21735:21748  return _owner */\n      swap1\n      pop\n        /* \"src\\BaseRegistrarImplementation.sol\":21677:21756  function owner() public view returns (address) {\r... */\n      swap1\n      jump\t// out\n        /* \"src\\BaseRegistrarImplementation.sol\":22012:22104  function isOwner() public view returns (bool) {\r... */\n    tag_80:\n        /* \"src\\BaseRegistrarImplementation.sol\":22052:22056  bool */\n      0x0\n        /* \"src\\BaseRegistrarImplementation.sol\":22090:22096  _owner */\n      0x1\n      0x0\n      swap1\n      sload\n      swap1\n      0x100\n      exp\n      swap1\n      div\n      0xffffffffffffffffffffffffffffffffffffffff\n      and\n        /* \"src\\BaseRegistrarImplementation.sol\":22076:22096  msg.sender == _owner */\n      0xffffffffffffffffffffffffffffffffffffffff\n      and\n        /* \"src\\BaseRegistrarImplementation.sol\":22076:22086  msg.sender */\n      caller\n        /* \"src\\BaseRegistrarImplementation.sol\":22076:22096  msg.sender == _owner */\n      0xffffffffffffffffffffffffffffffffffffffff\n      and\n      eq\n        /* \"src\\BaseRegistrarImplementation.sol\":22069:22096  return msg.sender == _owner */\n      swap1\n      pop\n        /* \"src\\BaseRegistrarImplementation.sol\":22012:22104  function isOwner() public view returns (bool) {\r... */\n      swap1\n      jump\t// out\n        /* \"src\\BaseRegistrarImplementation.sol\":27603:27793  function available(uint256 id) public view returns(bool) {\r... */\n    tag_84:\n        /* \"src\\BaseRegistrarImplementation.sol\":27654:27658  bool */\n      0x0\n        /* \"src\\BaseRegistrarImplementation.sol\":27782:27785  now */\n      timestamp\n        /* \"src\\BaseRegistrarImplementation.sol\":23346:23353  90 days */\n      0x76a700\n        /* \"src\\BaseRegistrarImplementation.sol\":27752:27760  expiries */\n      0x9\n        /* \"src\\BaseRegistrarImplementation.sol\":27752:27764  expiries[id] */\n      0x0\n        /* \"src\\BaseRegistrarImplementation.sol\":27761:27763  id */\n      dup6\n        /* \"src\\BaseRegistrarImplementation.sol\":27752:27764  expiries[id] */\n      dup2\n      mstore\n      0x20\n      add\n      swap1\n      dup2\n      mstore\n      0x20\n      add\n      0x0\n      keccak256\n      sload\n        /* \"src\\BaseRegistrarImplementation.sol\":27752:27779  expiries[id] + GRACE_PERIOD */\n      add\n        /* \"src\\BaseRegistrarImplementation.sol\":27752:27785  expiries[id] + GRACE_PERIOD < now */\n      lt\n        /* \"src\\BaseRegistrarImplementation.sol\":27745:27785  return expiries[id] + GRACE_PERIOD < now */\n      swap1\n      pop\n        /* \"src\\BaseRegistrarImplementation.sol\":27603:27793  function available(uint256 id) public view returns(bool) {\r... */\n      swap2\n      swap1\n      pop\n      jump\t// out\n        /* \"src\\BaseRegistrarImplementation.sol\":13469:13686  function setApprovalForAll(address to, bool approved) public {\r... */\n    tag_88:\n        /* \"src\\BaseRegistrarImplementation.sol\":13555:13565  msg.sender */\n      caller\n        /* \"src\\BaseRegistrarImplementation.sol\":13549:13565  to != msg.sender */\n      0xffffffffffffffffffffffffffffffffffffffff\n      and\n        /* \"src\\BaseRegistrarImplementation.sol\":13549:13551  to */\n      dup3\n        /* \"src\\BaseRegistrarImplementation.sol\":13549:13565  to != msg.sender */\n      0xffffffffffffffffffffffffffffffffffffffff\n      and\n      eq\n      iszero\n        /* \"src\\BaseRegistrarImplementation.sol\":13541:13566  require(to != msg.sender) */\n      iszero\n      iszero\n      tag_189\n      jumpi\n      0x0\n      dup1\n      revert\n    tag_189:\n        /* \"src\\BaseRegistrarImplementation.sol\":13614:13622  approved */\n      dup1\n        /* \"src\\BaseRegistrarImplementation.sol\":13577:13595  _operatorApprovals */\n      0x8\n        /* \"src\\BaseRegistrarImplementation.sol\":13577:13607  _operatorApprovals[msg.sender] */\n      0x0\n        /* \"src\\BaseRegistrarImplementation.sol\":13596:13606  msg.sender */\n      caller\n        /* \"src\\BaseRegistrarImplementation.sol\":13577:13607  _operatorApprovals[msg.sender] */\n      0xffffffffffffffffffffffffffffffffffffffff\n      and\n      0xffffffffffffffffffffffffffffffffffffffff\n      and\n      dup2\n      mstore\n      0x20\n      add\n      swap1\n      dup2\n      mstore\n      0x20\n      add\n      0x0\n      keccak256\n        /* \"src\\BaseRegistrarImplementation.sol\":13577:13611  _operatorApprovals[msg.sender][to] */\n      0x0\n        /* \"src\\BaseRegistrarImplementation.sol\":13608:13610  to */\n      dup5\n        /* \"src\\BaseRegistrarImplementation.sol\":13577:13611  _operatorApprovals[msg.sender][to] */\n      0xffffffffffffffffffffffffffffffffffffffff\n      and\n      0xffffffffffffffffffffffffffffffffffffffff\n      and\n      dup2\n      mstore\n      0x20\n      add\n      swap1\n      dup2\n      mstore\n      0x20\n      add\n      0x0\n      keccak256\n      0x0\n        /* \"src\\BaseRegistrarImplementation.sol\":13577:13622  _operatorApprovals[msg.sender][to] = approved */\n      0x100\n      exp\n      dup2\n      sload\n      dup2\n      0xff\n      mul\n      not\n      and\n      swap1\n      dup4\n      iszero\n      iszero\n      mul\n      or\n      swap1\n      sstore\n      pop\n        /* \"src\\BaseRegistrarImplementation.sol\":13665:13667  to */\n      dup2\n        /* \"src\\BaseRegistrarImplementation.sol\":13638:13678  ApprovalForAll(msg.sender, to, approved) */\n      0xffffffffffffffffffffffffffffffffffffffff\n      and\n        /* \"src\\BaseRegistrarImplementation.sol\":13653:13663  msg.sender */\n      caller\n        /* \"src\\BaseRegistrarImplementation.sol\":13638:13678  ApprovalForAll(msg.sender, to, approved) */\n      0xffffffffffffffffffffffffffffffffffffffff\n      and\n      0x17307eab39ab6107e8899845ad3d59bd9653f200f220920489ca2b5937696c31\n        /* \"src\\BaseRegistrarImplementation.sol\":13669:13677  approved */\n      dup4\n        /* \"src\\BaseRegistrarImplementation.sol\":13638:13678  ApprovalForAll(msg.sender, to, approved) */\n      mload(0x40)\n      dup1\n      dup3\n      iszero\n      iszero\n      iszero\n      iszero\n      dup2\n      mstore\n      0x20\n      add\n      swap2\n      pop\n      pop\n      mload(0x40)\n      dup1\n      swap2\n      sub\n      swap1\n      log3\n        /* \"src\\BaseRegistrarImplementation.sol\":13469:13686  function setApprovalForAll(address to, bool approved) public {\r... */\n      pop\n      pop\n      jump\t// out\n        /* \"src\\BaseRegistrarImplementation.sol\":26795:26949  function addController(address controller) external onlyOwner {\r... */\n    tag_92:\n        /* \"src\\BaseRegistrarImplementation.sol\":21889:21898  isOwner() */\n      tag_191\n        /* \"src\\BaseRegistrarImplementation.sol\":21889:21896  isOwner */\n      tag_80\n        /* \"src\\BaseRegistrarImplementation.sol\":21889:21898  isOwner() */\n      jump\t// in\n    tag_191:\n        /* \"src\\BaseRegistrarImplementation.sol\":21881:21899  require(isOwner()) */\n      iszero\n      iszero\n      tag_192\n      jumpi\n      0x0\n      dup1\n      revert\n    tag_192:\n        /* \"src\\BaseRegistrarImplementation.sol\":26894:26898  true */\n      0x1\n        /* \"src\\BaseRegistrarImplementation.sol\":26868:26879  controllers */\n      0x4\n        /* \"src\\BaseRegistrarImplementation.sol\":26868:26891  controllers[controller] */\n      0x0\n        /* \"src\\BaseRegistrarImplementation.sol\":26880:26890  controller */\n      dup4\n        /* \"src\\BaseRegistrarImplementation.sol\":26868:26891  controllers[controller] */\n      0xffffffffffffffffffffffffffffffffffffffff\n      and\n      0xffffffffffffffffffffffffffffffffffffffff\n      and\n      dup2\n      mstore\n      0x20\n      add\n      swap1\n      dup2\n      mstore\n      0x20\n      add\n      0x0\n      keccak256\n      0x0\n        /* \"src\\BaseRegistrarImplementation.sol\":26868:26898  controllers[controller] = true */\n      0x100\n      exp\n      dup2\n      sload\n      dup2\n      0xff\n      mul\n      not\n      and\n      swap1\n      dup4\n      iszero\n      iszero\n      mul\n      or\n      swap1\n      sstore\n      pop\n        /* \"src\\BaseRegistrarImplementation.sol\":26930:26940  controller */\n      dup1\n        /* \"src\\BaseRegistrarImplementation.sol\":26914:26941  ControllerAdded(controller) */\n      0xffffffffffffffffffffffffffffffffffffffff\n      and\n      0xa8bb31534c0ed46f380cb867bd5c803a189ced9a764e30b3a4991a9901d7474\n      mload(0x40)\n      mload(0x40)\n      dup1\n      swap2\n      sub\n      swap1\n      log2\n        /* \"src\\BaseRegistrarImplementation.sol\":26795:26949  function addController(address controller) external onlyOwner {\r... */\n      pop\n      jump\t// out\n        /* \"src\\BaseRegistrarImplementation.sol\":16295:16509  function safeTransferFrom(address from, address to, uint256 tokenId, bytes memory _data) public {\r... */\n    tag_99:\n        /* \"src\\BaseRegistrarImplementation.sol\":16402:16433  transferFrom(from, to, tokenId) */\n      tag_195\n        /* \"src\\BaseRegistrarImplementation.sol\":16415:16419  from */\n      dup5\n        /* \"src\\BaseRegistrarImplementation.sol\":16421:16423  to */\n      dup5\n        /* \"src\\BaseRegistrarImplementation.sol\":16425:16432  tokenId */\n      dup5\n        /* \"src\\BaseRegistrarImplementation.sol\":16402:16414  transferFrom */\n      tag_48\n        /* \"src\\BaseRegistrarImplementation.sol\":16402:16433  transferFrom(from, to, tokenId) */\n      jump\t// in\n    tag_195:\n        /* \"src\\BaseRegistrarImplementation.sol\":16452:16500  _checkOnERC721Received(from, to, tokenId, _data) */\n      tag_196\n        /* \"src\\BaseRegistrarImplementation.sol\":16475:16479  from */\n      dup5\n        /* \"src\\BaseRegistrarImplementation.sol\":16481:16483  to */\n      dup5\n        /* \"src\\BaseRegistrarImplementation.sol\":16485:16492  tokenId */\n      dup5\n        /* \"src\\BaseRegistrarImplementation.sol\":16494:16499  _data */\n      dup5\n        /* \"src\\BaseRegistrarImplementation.sol\":16452:16474  _checkOnERC721Received */\n      tag_197\n        /* \"src\\BaseRegistrarImplementation.sol\":16452:16500  _checkOnERC721Received(from, to, tokenId, _data) */\n      jump\t// in\n    tag_196:\n        /* \"src\\BaseRegistrarImplementation.sol\":16444:16501  require(_checkOnERC721Received(from, to, tokenId, _data)) */\n      iszero\n      iszero\n      tag_198\n      jumpi\n      0x0\n      dup1\n      revert\n    tag_198:\n        /* \"src\\BaseRegistrarImplementation.sol\":16295:16509  function safeTransferFrom(address from, address to, uint256 tokenId, bytes memory _data) public {\r... */\n      pop\n      pop\n      pop\n      pop\n      jump\t// out\n        /* \"src\\BaseRegistrarImplementation.sol\":23310:23353  uint constant public GRACE_PERIOD = 90 days */\n    tag_102:\n        /* \"src\\BaseRegistrarImplementation.sol\":23346:23353  90 days */\n      0x76a700\n        /* \"src\\BaseRegistrarImplementation.sol\":23310:23353  uint constant public GRACE_PERIOD = 90 days */\n      dup2\n      jump\t// out\n        /* \"src\\BaseRegistrarImplementation.sol\":29271:29692  function renew(uint256 id, uint duration) external live onlyController returns(uint) {\r... */\n    tag_106:\n        /* \"src\\BaseRegistrarImplementation.sol\":29350:29354  uint */\n      0x0\n        /* \"src\\BaseRegistrarImplementation.sol\":26149:26153  this */\n      address\n        /* \"src\\BaseRegistrarImplementation.sol\":26118:26154  ens.owner(baseNode) == address(this) */\n      0xffffffffffffffffffffffffffffffffffffffff\n      and\n        /* \"src\\BaseRegistrarImplementation.sol\":26118:26121  ens */\n      0x2\n      0x0\n      swap1\n      sload\n      swap1\n      0x100\n      exp\n      swap1\n      div\n      0xffffffffffffffffffffffffffffffffffffffff\n      and\n        /* \"src\\BaseRegistrarImplementation.sol\":26118:26127  ens.owner */\n      0xffffffffffffffffffffffffffffffffffffffff\n      and\n      0x2571be3\n        /* \"src\\BaseRegistrarImplementation.sol\":26128:26136  baseNode */\n      sload(0x3)\n        /* \"src\\BaseRegistrarImplementation.sol\":26118:26137  ens.owner(baseNode) */\n      mload(0x40)\n      dup3\n      0xffffffff\n      and\n      0x100000000000000000000000000000000000000000000000000000000\n      mul\n      dup2\n      mstore\n      0x4\n      add\n      dup1\n      dup3\n      dup2\n      mstore\n      0x20\n      add\n      swap2\n      pop\n      pop\n      0x20\n      mload(0x40)\n      dup1\n      dup4\n      sub\n      dup2\n      dup7\n      dup1\n      extcodesize\n      iszero\n        /* \"--CODEGEN--\":8:17   */\n      dup1\n        /* \"--CODEGEN--\":5:7   */\n      iszero\n      tag_200\n      jumpi\n        /* \"--CODEGEN--\":30:31   */\n      0x0\n        /* \"--CODEGEN--\":27:28   */\n      dup1\n        /* \"--CODEGEN--\":20:32   */\n      revert\n        /* \"--CODEGEN--\":5:7   */\n    tag_200:\n        /* \"src\\BaseRegistrarImplementation.sol\":26118:26137  ens.owner(baseNode) */\n      pop\n      gas\n      staticcall\n      iszero\n        /* \"--CODEGEN--\":8:17   */\n      dup1\n        /* \"--CODEGEN--\":5:7   */\n      iszero\n      tag_201\n      jumpi\n        /* \"--CODEGEN--\":45:61   */\n      returndatasize\n        /* \"--CODEGEN--\":42:43   */\n      0x0\n        /* \"--CODEGEN--\":39:40   */\n      dup1\n        /* \"--CODEGEN--\":24:62   */\n      returndatacopy\n        /* \"--CODEGEN--\":77:93   */\n      returndatasize\n        /* \"--CODEGEN--\":74:75   */\n      0x0\n        /* \"--CODEGEN--\":67:94   */\n      revert\n        /* \"--CODEGEN--\":5:7   */\n    tag_201:\n        /* \"src\\BaseRegistrarImplementation.sol\":26118:26137  ens.owner(baseNode) */\n      pop\n      pop\n      pop\n      pop\n      mload(0x40)\n      returndatasize\n        /* \"--CODEGEN--\":13:15   */\n      0x20\n        /* \"--CODEGEN--\":8:11   */\n      dup2\n        /* \"--CODEGEN--\":5:16   */\n      lt\n        /* \"--CODEGEN--\":2:4   */\n      iszero\n      tag_202\n      jumpi\n        /* \"--CODEGEN--\":29:30   */\n      0x0\n        /* \"--CODEGEN--\":26:27   */\n      dup1\n        /* \"--CODEGEN--\":19:31   */\n      revert\n        /* \"--CODEGEN--\":2:4   */\n    tag_202:\n        /* \"src\\BaseRegistrarImplementation.sol\":26118:26137  ens.owner(baseNode) */\n      dup2\n      add\n      swap1\n      dup1\n      dup1\n      mload\n      swap1\n      0x20\n      add\n      swap1\n      swap3\n      swap2\n      swap1\n      pop\n      pop\n      pop\n        /* \"src\\BaseRegistrarImplementation.sol\":26118:26154  ens.owner(baseNode) == address(this) */\n      0xffffffffffffffffffffffffffffffffffffffff\n      and\n      eq\n        /* \"src\\BaseRegistrarImplementation.sol\":26110:26155  require(ens.owner(baseNode) == address(this)) */\n      iszero\n      iszero\n      tag_203\n      jumpi\n      0x0\n      dup1\n      revert\n    tag_203:\n        /* \"src\\BaseRegistrarImplementation.sol\":26226:26237  controllers */\n      0x4\n        /* \"src\\BaseRegistrarImplementation.sol\":26226:26249  controllers[msg.sender] */\n      0x0\n        /* \"src\\BaseRegistrarImplementation.sol\":26238:26248  msg.sender */\n      caller\n        /* \"src\\BaseRegistrarImplementation.sol\":26226:26249  controllers[msg.sender] */\n      0xffffffffffffffffffffffffffffffffffffffff\n      and\n      0xffffffffffffffffffffffffffffffffffffffff\n      and\n      dup2\n      mstore\n      0x20\n      add\n      swap1\n      dup2\n      mstore\n      0x20\n      add\n      0x0\n      keccak256\n      0x0\n      swap1\n      sload\n      swap1\n      0x100\n      exp\n      swap1\n      div\n      0xff\n      and\n        /* \"src\\BaseRegistrarImplementation.sol\":26218:26250  require(controllers[msg.sender]) */\n      iszero\n      iszero\n      tag_205\n      jumpi\n      0x0\n      dup1\n      revert\n    tag_205:\n        /* \"src\\BaseRegistrarImplementation.sol\":29406:29409  now */\n      timestamp\n        /* \"src\\BaseRegistrarImplementation.sol\":23346:23353  90 days */\n      0x76a700\n        /* \"src\\BaseRegistrarImplementation.sol\":29375:29383  expiries */\n      0x9\n        /* \"src\\BaseRegistrarImplementation.sol\":29375:29387  expiries[id] */\n      0x0\n        /* \"src\\BaseRegistrarImplementation.sol\":29384:29386  id */\n      dup7\n        /* \"src\\BaseRegistrarImplementation.sol\":29375:29387  expiries[id] */\n      dup2\n      mstore\n      0x20\n      add\n      swap1\n      dup2\n      mstore\n      0x20\n      add\n      0x0\n      keccak256\n      sload\n        /* \"src\\BaseRegistrarImplementation.sol\":29375:29402  expiries[id] + GRACE_PERIOD */\n      add\n        /* \"src\\BaseRegistrarImplementation.sol\":29375:29409  expiries[id] + GRACE_PERIOD >= now */\n      lt\n      iszero\n        /* \"src\\BaseRegistrarImplementation.sol\":29367:29410  require(expiries[id] + GRACE_PERIOD >= now) */\n      iszero\n      iszero\n      tag_207\n      jumpi\n      0x0\n      dup1\n      revert\n    tag_207:\n        /* \"src\\BaseRegistrarImplementation.sol\":23346:23353  90 days */\n      0x76a700\n        /* \"src\\BaseRegistrarImplementation.sol\":29521:29529  duration */\n      dup3\n        /* \"src\\BaseRegistrarImplementation.sol\":29521:29544  duration + GRACE_PERIOD */\n      add\n        /* \"src\\BaseRegistrarImplementation.sol\":23346:23353  90 days */\n      0x76a700\n        /* \"src\\BaseRegistrarImplementation.sol\":29495:29503  duration */\n      dup4\n        /* \"src\\BaseRegistrarImplementation.sol\":29480:29488  expiries */\n      0x9\n        /* \"src\\BaseRegistrarImplementation.sol\":29480:29492  expiries[id] */\n      0x0\n        /* \"src\\BaseRegistrarImplementation.sol\":29489:29491  id */\n      dup8\n        /* \"src\\BaseRegistrarImplementation.sol\":29480:29492  expiries[id] */\n      dup2\n      mstore\n      0x20\n      add\n      swap1\n      dup2\n      mstore\n      0x20\n      add\n      0x0\n      keccak256\n      sload\n        /* \"src\\BaseRegistrarImplementation.sol\":29480:29503  expiries[id] + duration */\n      add\n        /* \"src\\BaseRegistrarImplementation.sol\":29480:29518  expiries[id] + duration + GRACE_PERIOD */\n      add\n        /* \"src\\BaseRegistrarImplementation.sol\":29480:29544  expiries[id] + duration + GRACE_PERIOD > duration + GRACE_PERIOD */\n      gt\n        /* \"src\\BaseRegistrarImplementation.sol\":29472:29545  require(expiries[id] + duration + GRACE_PERIOD > duration + GRACE_PERIOD) */\n      iszero\n      iszero\n      tag_208\n      jumpi\n      0x0\n      dup1\n      revert\n    tag_208:\n        /* \"src\\BaseRegistrarImplementation.sol\":29601:29609  duration */\n      dup2\n        /* \"src\\BaseRegistrarImplementation.sol\":29585:29593  expiries */\n      0x9\n        /* \"src\\BaseRegistrarImplementation.sol\":29585:29597  expiries[id] */\n      0x0\n        /* \"src\\BaseRegistrarImplementation.sol\":29594:29596  id */\n      dup6\n        /* \"src\\BaseRegistrarImplementation.sol\":29585:29597  expiries[id] */\n      dup2\n      mstore\n      0x20\n      add\n      swap1\n      dup2\n      mstore\n      0x20\n      add\n      0x0\n      keccak256\n      0x0\n        /* \"src\\BaseRegistrarImplementation.sol\":29585:29609  expiries[id] += duration */\n      dup3\n      dup3\n      sload\n      add\n      swap3\n      pop\n      pop\n      dup2\n      swap1\n      sstore\n      pop\n        /* \"src\\BaseRegistrarImplementation.sol\":29637:29639  id */\n      dup3\n        /* \"src\\BaseRegistrarImplementation.sol\":29625:29654  NameRenewed(id, expiries[id]) */\n      0x9b87a00e30f1ac65d898f070f8a3488fe60517182d0a2098e1b4b93a54aa9bd6\n        /* \"src\\BaseRegistrarImplementation.sol\":29641:29649  expiries */\n      0x9\n        /* \"src\\BaseRegistrarImplementation.sol\":29641:29653  expiries[id] */\n      0x0\n        /* \"src\\BaseRegistrarImplementation.sol\":29650:29652  id */\n      dup7\n        /* \"src\\BaseRegistrarImplementation.sol\":29641:29653  expiries[id] */\n      dup2\n      mstore\n      0x20\n      add\n      swap1\n      dup2\n      mstore\n      0x20\n      add\n      0x0\n      keccak256\n      sload\n        /* \"src\\BaseRegistrarImplementation.sol\":29625:29654  NameRenewed(id, expiries[id]) */\n      mload(0x40)\n      dup1\n      dup3\n      dup2\n      mstore\n      0x20\n      add\n      swap2\n      pop\n      pop\n      mload(0x40)\n      dup1\n      swap2\n      sub\n      swap1\n      log2\n        /* \"src\\BaseRegistrarImplementation.sol\":29672:29680  expiries */\n      0x9\n        /* \"src\\BaseRegistrarImplementation.sol\":29672:29684  expiries[id] */\n      0x0\n        /* \"src\\BaseRegistrarImplementation.sol\":29681:29683  id */\n      dup5\n        /* \"src\\BaseRegistrarImplementation.sol\":29672:29684  expiries[id] */\n      dup2\n      mstore\n      0x20\n      add\n      swap1\n      dup2\n      mstore\n      0x20\n      add\n      0x0\n      keccak256\n      sload\n        /* \"src\\BaseRegistrarImplementation.sol\":29665:29684  return expiries[id] */\n      swap1\n      pop\n        /* \"src\\BaseRegistrarImplementation.sol\":29271:29692  function renew(uint256 id, uint duration) external live onlyController returns(uint) {\r... */\n      swap3\n      swap2\n      pop\n      pop\n      jump\t// out\n        /* \"src\\BaseRegistrarImplementation.sol\":27421:27520  function nameExpires(uint256 id) external view returns(uint) {\r... */\n    tag_110:\n        /* \"src\\BaseRegistrarImplementation.sol\":27476:27480  uint */\n      0x0\n        /* \"src\\BaseRegistrarImplementation.sol\":27500:27508  expiries */\n      0x9\n        /* \"src\\BaseRegistrarImplementation.sol\":27500:27512  expiries[id] */\n      0x0\n        /* \"src\\BaseRegistrarImplementation.sol\":27509:27511  id */\n      dup4\n        /* \"src\\BaseRegistrarImplementation.sol\":27500:27512  expiries[id] */\n      dup2\n      mstore\n      0x20\n      add\n      swap1\n      dup2\n      mstore\n      0x20\n      add\n      0x0\n      keccak256\n      sload\n        /* \"src\\BaseRegistrarImplementation.sol\":27493:27512  return expiries[id] */\n      swap1\n      pop\n        /* \"src\\BaseRegistrarImplementation.sol\":27421:27520  function nameExpires(uint256 id) external view returns(uint) {\r... */\n      swap2\n      swap1\n      pop\n      jump\t// out\n        /* \"src\\BaseRegistrarImplementation.sol\":23921:23962  mapping(address=>bool) public controllers */\n    tag_114:\n      mstore(0x20, 0x4)\n      dup1\n      0x0\n      mstore\n      keccak256(0x0, 0x40)\n      0x0\n      swap2\n      pop\n      sload\n      swap1\n      0x100\n      exp\n      swap1\n      div\n      0xff\n      and\n      dup2\n      jump\t// out\n        /* \"src\\BaseRegistrarImplementation.sol\":23813:23836  bytes32 public baseNode */\n    tag_117:\n      sload(0x3)\n      dup2\n      jump\t// out\n        /* \"src\\BaseRegistrarImplementation.sol\":14015:14162  function isApprovedForAll(address owner, address operator) public view returns (bool) {\r... */\n    tag_121:\n        /* \"src\\BaseRegistrarImplementation.sol\":14095:14099  bool */\n      0x0\n        /* \"src\\BaseRegistrarImplementation.sol\":14119:14137  _operatorApprovals */\n      0x8\n        /* \"src\\BaseRegistrarImplementation.sol\":14119:14144  _operatorApprovals[owner] */\n      0x0\n        /* \"src\\BaseRegistrarImplementation.sol\":14138:14143  owner */\n      dup5\n        /* \"src\\BaseRegistrarImplementation.sol\":14119:14144  _operatorApprovals[owner] */\n      0xffffffffffffffffffffffffffffffffffffffff\n      and\n      0xffffffffffffffffffffffffffffffffffffffff\n      and\n      dup2\n      mstore\n      0x20\n      add\n      swap1\n      dup2\n      mstore\n      0x20\n      add\n      0x0\n      keccak256\n        /* \"src\\BaseRegistrarImplementation.sol\":14119:14154  _operatorApprovals[owner][operator] */\n      0x0\n        /* \"src\\BaseRegistrarImplementation.sol\":14145:14153  operator */\n      dup4\n        /* \"src\\BaseRegistrarImplementation.sol\":14119:14154  _operatorApprovals[owner][operator] */\n      0xffffffffffffffffffffffffffffffffffffffff\n      and\n      0xffffffffffffffffffffffffffffffffffffffff\n      and\n      dup2\n      mstore\n      0x20\n      add\n      swap1\n      dup2\n      mstore\n      0x20\n      add\n      0x0\n      keccak256\n      0x0\n      swap1\n      sload\n      swap1\n      0x100\n      exp\n      swap1\n      div\n      0xff\n      and\n        /* \"src\\BaseRegistrarImplementation.sol\":14112:14154  return _operatorApprovals[owner][operator] */\n      swap1\n      pop\n        /* \"src\\BaseRegistrarImplementation.sol\":14015:14162  function isApprovedForAll(address owner, address operator) public view returns (bool) {\r... */\n      swap3\n      swap2\n      pop\n      pop\n      jump\t// out\n        /* \"src\\BaseRegistrarImplementation.sol\":22707:22816  function transferOwnership(address newOwner) public onlyOwner {\r... */\n    tag_125:\n        /* \"src\\BaseRegistrarImplementation.sol\":21889:21898  isOwner() */\n      tag_212\n        /* \"src\\BaseRegistrarImplementation.sol\":21889:21896  isOwner */\n      tag_80\n        /* \"src\\BaseRegistrarImplementation.sol\":21889:21898  isOwner() */\n      jump\t// in\n    tag_212:\n        /* \"src\\BaseRegistrarImplementation.sol\":21881:21899  require(isOwner()) */\n      iszero\n      iszero\n      tag_213\n      jumpi\n      0x0\n      dup1\n      revert\n    tag_213:\n        /* \"src\\BaseRegistrarImplementation.sol\":22780:22808  _transferOwnership(newOwner) */\n      tag_215\n        /* \"src\\BaseRegistrarImplementation.sol\":22799:22807  newOwner */\n      dup2\n        /* \"src\\BaseRegistrarImplementation.sol\":22780:22798  _transferOwnership */\n      tag_216\n        /* \"src\\BaseRegistrarImplementation.sol\":22780:22808  _transferOwnership(newOwner) */\n      jump\t// in\n    tag_215:\n        /* \"src\\BaseRegistrarImplementation.sol\":22707:22816  function transferOwnership(address newOwner) public onlyOwner {\r... */\n      pop\n      jump\t// out\n        /* \"src\\BaseRegistrarImplementation.sol\":27010:27170  function removeController(address controller) external onlyOwner {\r... */\n    tag_129:\n        /* \"src\\BaseRegistrarImplementation.sol\":21889:21898  isOwner() */\n      tag_218\n        /* \"src\\BaseRegistrarImplementation.sol\":21889:21896  isOwner */\n      tag_80\n        /* \"src\\BaseRegistrarImplementation.sol\":21889:21898  isOwner() */\n      jump\t// in\n    tag_218:\n        /* \"src\\BaseRegistrarImplementation.sol\":21881:21899  require(isOwner()) */\n      iszero\n      iszero\n      tag_219\n      jumpi\n      0x0\n      dup1\n      revert\n    tag_219:\n        /* \"src\\BaseRegistrarImplementation.sol\":27112:27117  false */\n      0x0\n        /* \"src\\BaseRegistrarImplementation.sol\":27086:27097  controllers */\n      0x4\n        /* \"src\\BaseRegistrarImplementation.sol\":27086:27109  controllers[controller] */\n      0x0\n        /* \"src\\BaseRegistrarImplementation.sol\":27098:27108  controller */\n      dup4\n        /* \"src\\BaseRegistrarImplementation.sol\":27086:27109  controllers[controller] */\n      0xffffffffffffffffffffffffffffffffffffffff\n      and\n      0xffffffffffffffffffffffffffffffffffffffff\n      and\n      dup2\n      mstore\n      0x20\n      add\n      swap1\n      dup2\n      mstore\n      0x20\n      add\n      0x0\n      keccak256\n      0x0\n        /* \"src\\BaseRegistrarImplementation.sol\":27086:27117  controllers[controller] = false */\n      0x100\n      exp\n      dup2\n      sload\n      dup2\n      0xff\n      mul\n      not\n      and\n      swap1\n      dup4\n      iszero\n      iszero\n      mul\n      or\n      swap1\n      sstore\n      pop\n        /* \"src\\BaseRegistrarImplementation.sol\":27151:27161  controller */\n      dup1\n        /* \"src\\BaseRegistrarImplementation.sol\":27133:27162  ControllerRemoved(controller) */\n      0xffffffffffffffffffffffffffffffffffffffff\n      and\n      0x33d83959be2573f5453b12eb9d43b3499bc57d96bd2f067ba44803c859e81113\n      mload(0x40)\n      mload(0x40)\n      dup1\n      swap2\n      sub\n      swap1\n      log2\n        /* \"src\\BaseRegistrarImplementation.sol\":27010:27170  function removeController(address controller) external onlyOwner {\r... */\n      pop\n      jump\t// out\n        /* \"src\\BaseRegistrarImplementation.sol\":28039:28182  function register(uint256 id, address owner, uint duration) external returns(uint) {\r... */\n    tag_133:\n        /* \"src\\BaseRegistrarImplementation.sol\":28116:28120  uint */\n      0x0\n        /* \"src\\BaseRegistrarImplementation.sol\":28138:28174  _register(id, owner, duration, true) */\n      tag_222\n        /* \"src\\BaseRegistrarImplementation.sol\":28148:28150  id */\n      dup5\n        /* \"src\\BaseRegistrarImplementation.sol\":28152:28157  owner */\n      dup5\n        /* \"src\\BaseRegistrarImplementation.sol\":28159:28167  duration */\n      dup5\n        /* \"src\\BaseRegistrarImplementation.sol\":28169:28173  true */\n      0x1\n        /* \"src\\BaseRegistrarImplementation.sol\":28138:28147  _register */\n      tag_149\n        /* \"src\\BaseRegistrarImplementation.sol\":28138:28174  _register(id, owner, duration, true) */\n      jump\t// in\n    tag_222:\n        /* \"src\\BaseRegistrarImplementation.sol\":28131:28174  return _register(id, owner, duration, true) */\n      swap1\n      pop\n        /* \"src\\BaseRegistrarImplementation.sol\":28039:28182  function register(uint256 id, address owner, uint duration) external returns(uint) {\r... */\n      swap4\n      swap3\n      pop\n      pop\n      pop\n      jump\t// out\n        /* \"src\\BaseRegistrarImplementation.sol\":16705:16860  function _exists(uint256 tokenId) internal view returns (bool) {\r... */\n    tag_139:\n        /* \"src\\BaseRegistrarImplementation.sol\":16762:16766  bool */\n      0x0\n        /* \"src\\BaseRegistrarImplementation.sol\":16779:16792  address owner */\n      dup1\n        /* \"src\\BaseRegistrarImplementation.sol\":16795:16806  _tokenOwner */\n      0x5\n        /* \"src\\BaseRegistrarImplementation.sol\":16795:16815  _tokenOwner[tokenId] */\n      0x0\n        /* \"src\\BaseRegistrarImplementation.sol\":16807:16814  tokenId */\n      dup5\n        /* \"src\\BaseRegistrarImplementation.sol\":16795:16815  _tokenOwner[tokenId] */\n      dup2\n      mstore\n      0x20\n      add\n      swap1\n      dup2\n      mstore\n      0x20\n      add\n      0x0\n      keccak256\n      0x0\n      swap1\n      sload\n      swap1\n      0x100\n      exp\n      swap1\n      div\n      0xffffffffffffffffffffffffffffffffffffffff\n      and\n        /* \"src\\BaseRegistrarImplementation.sol\":16779:16815  address owner = _tokenOwner[tokenId] */\n      swap1\n      pop\n        /* \"src\\BaseRegistrarImplementation.sol\":16850:16851  0 */\n      0x0\n        /* \"src\\BaseRegistrarImplementation.sol\":16833:16852  owner != address(0) */\n      0xffffffffffffffffffffffffffffffffffffffff\n      and\n        /* \"src\\BaseRegistrarImplementation.sol\":16833:16838  owner */\n      dup2\n        /* \"src\\BaseRegistrarImplementation.sol\":16833:16852  owner != address(0) */\n      0xffffffffffffffffffffffffffffffffffffffff\n      and\n      eq\n      iszero\n        /* \"src\\BaseRegistrarImplementation.sol\":16826:16852  return owner != address(0) */\n      swap2\n      pop\n      pop\n        /* \"src\\BaseRegistrarImplementation.sol\":16705:16860  function _exists(uint256 tokenId) internal view returns (bool) {\r... */\n      swap2\n      swap1\n      pop\n      jump\t// out\n        /* \"src\\BaseRegistrarImplementation.sol\":28616:29263  function _register(uint256 id, address owner, uint duration, bool updateRegistry) internal live onlyController returns(uint) {\r... */\n    tag_149:\n        /* \"src\\BaseRegistrarImplementation.sol\":28735:28739  uint */\n      0x0\n        /* \"src\\BaseRegistrarImplementation.sol\":26149:26153  this */\n      address\n        /* \"src\\BaseRegistrarImplementation.sol\":26118:26154  ens.owner(baseNode) == address(this) */\n      0xffffffffffffffffffffffffffffffffffffffff\n      and\n        /* \"src\\BaseRegistrarImplementation.sol\":26118:26121  ens */\n      0x2\n      0x0\n      swap1\n      sload\n      swap1\n      0x100\n      exp\n      swap1\n      div\n      0xffffffffffffffffffffffffffffffffffffffff\n      and\n        /* \"src\\BaseRegistrarImplementation.sol\":26118:26127  ens.owner */\n      0xffffffffffffffffffffffffffffffffffffffff\n      and\n      0x2571be3\n        /* \"src\\BaseRegistrarImplementation.sol\":26128:26136  baseNode */\n      sload(0x3)\n        /* \"src\\BaseRegistrarImplementation.sol\":26118:26137  ens.owner(baseNode) */\n      mload(0x40)\n      dup3\n      0xffffffff\n      and\n      0x100000000000000000000000000000000000000000000000000000000\n      mul\n      dup2\n      mstore\n      0x4\n      add\n      dup1\n      dup3\n      dup2\n      mstore\n      0x20\n      add\n      swap2\n      pop\n      pop\n      0x20\n      mload(0x40)\n      dup1\n      dup4\n      sub\n      dup2\n      dup7\n      dup1\n      extcodesize\n      iszero\n        /* \"--CODEGEN--\":8:17   */\n      dup1\n        /* \"--CODEGEN--\":5:7   */\n      iszero\n      tag_225\n      jumpi\n        /* \"--CODEGEN--\":30:31   */\n      0x0\n        /* \"--CODEGEN--\":27:28   */\n      dup1\n        /* \"--CODEGEN--\":20:32   */\n      revert\n        /* \"--CODEGEN--\":5:7   */\n    tag_225:\n        /* \"src\\BaseRegistrarImplementation.sol\":26118:26137  ens.owner(baseNode) */\n      pop\n      gas\n      staticcall\n      iszero\n        /* \"--CODEGEN--\":8:17   */\n      dup1\n        /* \"--CODEGEN--\":5:7   */\n      iszero\n      tag_226\n      jumpi\n        /* \"--CODEGEN--\":45:61   */\n      returndatasize\n        /* \"--CODEGEN--\":42:43   */\n      0x0\n        /* \"--CODEGEN--\":39:40   */\n      dup1\n        /* \"--CODEGEN--\":24:62   */\n      returndatacopy\n        /* \"--CODEGEN--\":77:93   */\n      returndatasize\n        /* \"--CODEGEN--\":74:75   */\n      0x0\n        /* \"--CODEGEN--\":67:94   */\n      revert\n        /* \"--CODEGEN--\":5:7   */\n    tag_226:\n        /* \"src\\BaseRegistrarImplementation.sol\":26118:26137  ens.owner(baseNode) */\n      pop\n      pop\n      pop\n      pop\n      mload(0x40)\n      returndatasize\n        /* \"--CODEGEN--\":13:15   */\n      0x20\n        /* \"--CODEGEN--\":8:11   */\n      dup2\n        /* \"--CODEGEN--\":5:16   */\n      lt\n        /* \"--CODEGEN--\":2:4   */\n      iszero\n      tag_227\n      jumpi\n        /* \"--CODEGEN--\":29:30   */\n      0x0\n        /* \"--CODEGEN--\":26:27   */\n      dup1\n        /* \"--CODEGEN--\":19:31   */\n      revert\n        /* \"--CODEGEN--\":2:4   */\n    tag_227:\n        /* \"src\\BaseRegistrarImplementation.sol\":26118:26137  ens.owner(baseNode) */\n      dup2\n      add\n      swap1\n      dup1\n      dup1\n      mload\n      swap1\n      0x20\n      add\n      swap1\n      swap3\n      swap2\n      swap1\n      pop\n      pop\n      pop\n        /* \"src\\BaseRegistrarImplementation.sol\":26118:26154  ens.owner(baseNode) == address(this) */\n      0xffffffffffffffffffffffffffffffffffffffff\n      and\n      eq\n        /* \"src\\BaseRegistrarImplementation.sol\":26110:26155  require(ens.owner(baseNode) == address(this)) */\n      iszero\n      iszero\n      tag_228\n      jumpi\n      0x0\n      dup1\n      revert\n    tag_228:\n        /* \"src\\BaseRegistrarImplementation.sol\":26226:26237  controllers */\n      0x4\n        /* \"src\\BaseRegistrarImplementation.sol\":26226:26249  controllers[msg.sender] */\n      0x0\n        /* \"src\\BaseRegistrarImplementation.sol\":26238:26248  msg.sender */\n      caller\n        /* \"src\\BaseRegistrarImplementation.sol\":26226:26249  controllers[msg.sender] */\n      0xffffffffffffffffffffffffffffffffffffffff\n      and\n      0xffffffffffffffffffffffffffffffffffffffff\n      and\n      dup2\n      mstore\n      0x20\n      add\n      swap1\n      dup2\n      mstore\n      0x20\n      add\n      0x0\n      keccak256\n      0x0\n      swap1\n      sload\n      swap1\n      0x100\n      exp\n      swap1\n      div\n      0xff\n      and\n        /* \"src\\BaseRegistrarImplementation.sol\":26218:26250  require(controllers[msg.sender]) */\n      iszero\n      iszero\n      tag_230\n      jumpi\n      0x0\n      dup1\n      revert\n    tag_230:\n        /* \"src\\BaseRegistrarImplementation.sol\":28760:28773  available(id) */\n      tag_232\n        /* \"src\\BaseRegistrarImplementation.sol\":28770:28772  id */\n      dup6\n        /* \"src\\BaseRegistrarImplementation.sol\":28760:28769  available */\n      tag_84\n        /* \"src\\BaseRegistrarImplementation.sol\":28760:28773  available(id) */\n      jump\t// in\n    tag_232:\n        /* \"src\\BaseRegistrarImplementation.sol\":28752:28774  require(available(id)) */\n      iszero\n      iszero\n      tag_233\n      jumpi\n      0x0\n      dup1\n      revert\n    tag_233:\n        /* \"src\\BaseRegistrarImplementation.sol\":23346:23353  90 days */\n      0x76a700\n        /* \"src\\BaseRegistrarImplementation.sol\":28825:28828  now */\n      timestamp\n        /* \"src\\BaseRegistrarImplementation.sol\":28825:28843  now + GRACE_PERIOD */\n      add\n        /* \"src\\BaseRegistrarImplementation.sol\":23346:23353  90 days */\n      0x76a700\n        /* \"src\\BaseRegistrarImplementation.sol\":28799:28807  duration */\n      dup5\n        /* \"src\\BaseRegistrarImplementation.sol\":28793:28796  now */\n      timestamp\n        /* \"src\\BaseRegistrarImplementation.sol\":28793:28807  now + duration */\n      add\n        /* \"src\\BaseRegistrarImplementation.sol\":28793:28822  now + duration + GRACE_PERIOD */\n      add\n        /* \"src\\BaseRegistrarImplementation.sol\":28793:28843  now + duration + GRACE_PERIOD > now + GRACE_PERIOD */\n      gt\n        /* \"src\\BaseRegistrarImplementation.sol\":28785:28844  require(now + duration + GRACE_PERIOD > now + GRACE_PERIOD) */\n      iszero\n      iszero\n      tag_234\n      jumpi\n      0x0\n      dup1\n      revert\n    tag_234:\n        /* \"src\\BaseRegistrarImplementation.sol\":28905:28913  duration */\n      dup3\n        /* \"src\\BaseRegistrarImplementation.sol\":28899:28902  now */\n      timestamp\n        /* \"src\\BaseRegistrarImplementation.sol\":28899:28913  now + duration */\n      add\n        /* \"src\\BaseRegistrarImplementation.sol\":28884:28892  expiries */\n      0x9\n        /* \"src\\BaseRegistrarImplementation.sol\":28884:28896  expiries[id] */\n      0x0\n        /* \"src\\BaseRegistrarImplementation.sol\":28893:28895  id */\n      dup8\n        /* \"src\\BaseRegistrarImplementation.sol\":28884:28896  expiries[id] */\n      dup2\n      mstore\n      0x20\n      add\n      swap1\n      dup2\n      mstore\n      0x20\n      add\n      0x0\n      keccak256\n        /* \"src\\BaseRegistrarImplementation.sol\":28884:28913  expiries[id] = now + duration */\n      dup2\n      swap1\n      sstore\n      pop\n        /* \"src\\BaseRegistrarImplementation.sol\":28927:28938  _exists(id) */\n      tag_235\n        /* \"src\\BaseRegistrarImplementation.sol\":28935:28937  id */\n      dup6\n        /* \"src\\BaseRegistrarImplementation.sol\":28927:28934  _exists */\n      tag_139\n        /* \"src\\BaseRegistrarImplementation.sol\":28927:28938  _exists(id) */\n      jump\t// in\n    tag_235:\n        /* \"src\\BaseRegistrarImplementation.sol\":28924:29031  if(_exists(id)) {\r... */\n      iszero\n      tag_236\n      jumpi\n        /* \"src\\BaseRegistrarImplementation.sol\":29010:29019  _burn(id) */\n      tag_237\n        /* \"src\\BaseRegistrarImplementation.sol\":29016:29018  id */\n      dup6\n        /* \"src\\BaseRegistrarImplementation.sol\":29010:29015  _burn */\n      tag_238\n        /* \"src\\BaseRegistrarImplementation.sol\":29010:29019  _burn(id) */\n      jump\t// in\n    tag_237:\n        /* \"src\\BaseRegistrarImplementation.sol\":28924:29031  if(_exists(id)) {\r... */\n    tag_236:\n        /* \"src\\BaseRegistrarImplementation.sol\":29041:29057  _mint(owner, id) */\n      tag_239\n        /* \"src\\BaseRegistrarImplementation.sol\":29047:29052  owner */\n      dup5\n        /* \"src\\BaseRegistrarImplementation.sol\":29054:29056  id */\n      dup7\n        /* \"src\\BaseRegistrarImplementation.sol\":29041:29046  _mint */\n      tag_240\n        /* \"src\\BaseRegistrarImplementation.sol\":29041:29057  _mint(owner, id) */\n      jump\t// in\n    tag_239:\n        /* \"src\\BaseRegistrarImplementation.sol\":29071:29085  updateRegistry */\n      dup2\n        /* \"src\\BaseRegistrarImplementation.sol\":29068:29163  if(updateRegistry) {\r... */\n      iszero\n      tag_241\n      jumpi\n        /* \"src\\BaseRegistrarImplementation.sol\":29102:29105  ens */\n      0x2\n      0x0\n      swap1\n      sload\n      swap1\n      0x100\n      exp\n      swap1\n      div\n      0xffffffffffffffffffffffffffffffffffffffff\n      and\n        /* \"src\\BaseRegistrarImplementation.sol\":29102:29121  ens.setSubnodeOwner */\n      0xffffffffffffffffffffffffffffffffffffffff\n      and\n      0x6ab5923\n        /* \"src\\BaseRegistrarImplementation.sol\":29122:29130  baseNode */\n      sload(0x3)\n        /* \"src\\BaseRegistrarImplementation.sol\":29140:29142  id */\n      dup8\n        /* \"src\\BaseRegistrarImplementation.sol\":29132:29143  bytes32(id) */\n      0x1\n      mul\n        /* \"src\\BaseRegistrarImplementation.sol\":29145:29150  owner */\n      dup8\n        /* \"src\\BaseRegistrarImplementation.sol\":29102:29151  ens.setSubnodeOwner(baseNode, bytes32(id), owner) */\n      mload(0x40)\n      dup5\n      0xffffffff\n      and\n      0x100000000000000000000000000000000000000000000000000000000\n      mul\n      dup2\n      mstore\n      0x4\n      add\n      dup1\n      dup5\n      dup2\n      mstore\n      0x20\n      add\n      dup4\n      dup2\n      mstore\n      0x20\n      add\n      dup3\n      0xffffffffffffffffffffffffffffffffffffffff\n      and\n      0xffffffffffffffffffffffffffffffffffffffff\n      and\n      dup2\n      mstore\n      0x20\n      add\n      swap4\n      pop\n      pop\n      pop\n      pop\n      0x20\n      mload(0x40)\n      dup1\n      dup4\n      sub\n      dup2\n      0x0\n      dup8\n      dup1\n      extcodesize\n      iszero\n        /* \"--CODEGEN--\":8:17   */\n      dup1\n        /* \"--CODEGEN--\":5:7   */\n      iszero\n      tag_242\n      jumpi\n        /* \"--CODEGEN--\":30:31   */\n      0x0\n        /* \"--CODEGEN--\":27:28   */\n      dup1\n        /* \"--CODEGEN--\":20:32   */\n      revert\n        /* \"--CODEGEN--\":5:7   */\n    tag_242:\n        /* \"src\\BaseRegistrarImplementation.sol\":29102:29151  ens.setSubnodeOwner(baseNode, bytes32(id), owner) */\n      pop\n      gas\n      call\n      iszero\n        /* \"--CODEGEN--\":8:17   */\n      dup1\n        /* \"--CODEGEN--\":5:7   */\n      iszero\n      tag_243\n      jumpi\n        /* \"--CODEGEN--\":45:61   */\n      returndatasize\n        /* \"--CODEGEN--\":42:43   */\n      0x0\n        /* \"--CODEGEN--\":39:40   */\n      dup1\n        /* \"--CODEGEN--\":24:62   */\n      returndatacopy\n        /* \"--CODEGEN--\":77:93   */\n      returndatasize\n        /* \"--CODEGEN--\":74:75   */\n      0x0\n        /* \"--CODEGEN--\":67:94   */\n      revert\n        /* \"--CODEGEN--\":5:7   */\n    tag_243:\n        /* \"src\\BaseRegistrarImplementation.sol\":29102:29151  ens.setSubnodeOwner(baseNode, bytes32(id), owner) */\n      pop\n      pop\n      pop\n      pop\n      mload(0x40)\n      returndatasize\n        /* \"--CODEGEN--\":13:15   */\n      0x20\n        /* \"--CODEGEN--\":8:11   */\n      dup2\n        /* \"--CODEGEN--\":5:16   */\n      lt\n        /* \"--CODEGEN--\":2:4   */\n      iszero\n      tag_244\n      jumpi\n        /* \"--CODEGEN--\":29:30   */\n      0x0\n        /* \"--CODEGEN--\":26:27   */\n      dup1\n        /* \"--CODEGEN--\":19:31   */\n      revert\n        /* \"--CODEGEN--\":2:4   */\n    tag_244:\n        /* \"src\\BaseRegistrarImplementation.sol\":29102:29151  ens.setSubnodeOwner(baseNode, bytes32(id), owner) */\n      dup2\n      add\n      swap1\n      dup1\n      dup1\n      mload\n      swap1\n      0x20\n      add\n      swap1\n      swap3\n      swap2\n      swap1\n      pop\n      pop\n      pop\n      pop\n        /* \"src\\BaseRegistrarImplementation.sol\":29068:29163  if(updateRegistry) {\r... */\n    tag_241:\n        /* \"src\\BaseRegistrarImplementation.sol\":29199:29204  owner */\n      dup4\n        /* \"src\\BaseRegistrarImplementation.sol\":29180:29221  NameRegistered(id, owner, now + duration) */\n      0xffffffffffffffffffffffffffffffffffffffff\n      and\n        /* \"src\\BaseRegistrarImplementation.sol\":29195:29197  id */\n      dup6\n        /* \"src\\BaseRegistrarImplementation.sol\":29180:29221  NameRegistered(id, owner, now + duration) */\n      0xb3d987963d01b2f68493b4bdb130988f157ea43070d4ad840fee0466ed9370d9\n        /* \"src\\BaseRegistrarImplementation.sol\":29212:29220  duration */\n      dup6\n        /* \"src\\BaseRegistrarImplementation.sol\":29206:29209  now */\n      timestamp\n        /* \"src\\BaseRegistrarImplementation.sol\":29206:29220  now + duration */\n      add\n        /* \"src\\BaseRegistrarImplementation.sol\":29180:29221  NameRegistered(id, owner, now + duration) */\n      mload(0x40)\n      dup1\n      dup3\n      dup2\n      mstore\n      0x20\n      add\n      swap2\n      pop\n      pop\n      mload(0x40)\n      dup1\n      swap2\n      sub\n      swap1\n      log3\n        /* \"src\\BaseRegistrarImplementation.sol\":29247:29255  duration */\n      dup3\n        /* \"src\\BaseRegistrarImplementation.sol\":29241:29244  now */\n      timestamp\n        /* \"src\\BaseRegistrarImplementation.sol\":29241:29255  now + duration */\n      add\n        /* \"src\\BaseRegistrarImplementation.sol\":29234:29255  return now + duration */\n      swap1\n      pop\n        /* \"src\\BaseRegistrarImplementation.sol\":28616:29263  function _register(uint256 id, address owner, uint duration, bool updateRegistry) internal live onlyController returns(uint) {\r... */\n      swap5\n      swap4\n      pop\n      pop\n      pop\n      pop\n      jump\t// out\n        /* \"src\\BaseRegistrarImplementation.sol\":17232:17481  function _isApprovedOrOwner(address spender, uint256 tokenId) internal view returns (bool) {\r... */\n    tag_152:\n        /* \"src\\BaseRegistrarImplementation.sol\":17317:17321  bool */\n      0x0\n        /* \"src\\BaseRegistrarImplementation.sol\":17334:17347  address owner */\n      dup1\n        /* \"src\\BaseRegistrarImplementation.sol\":17350:17366  ownerOf(tokenId) */\n      tag_246\n        /* \"src\\BaseRegistrarImplementation.sol\":17358:17365  tokenId */\n      dup4\n        /* \"src\\BaseRegistrarImplementation.sol\":17350:17357  ownerOf */\n      tag_67\n        /* \"src\\BaseRegistrarImplementation.sol\":17350:17366  ownerOf(tokenId) */\n      jump\t// in\n    tag_246:\n        /* \"src\\BaseRegistrarImplementation.sol\":17334:17366  address owner = ownerOf(tokenId) */\n      swap1\n      pop\n        /* \"src\\BaseRegistrarImplementation.sol\":17396:17401  owner */\n      dup1\n        /* \"src\\BaseRegistrarImplementation.sol\":17385:17401  spender == owner */\n      0xffffffffffffffffffffffffffffffffffffffff\n      and\n        /* \"src\\BaseRegistrarImplementation.sol\":17385:17392  spender */\n      dup5\n        /* \"src\\BaseRegistrarImplementation.sol\":17385:17401  spender == owner */\n      0xffffffffffffffffffffffffffffffffffffffff\n      and\n      eq\n        /* \"src\\BaseRegistrarImplementation.sol\":17385:17436  spender == owner || getApproved(tokenId) == spender */\n      dup1\n      tag_247\n      jumpi\n      pop\n        /* \"src\\BaseRegistrarImplementation.sol\":17429:17436  spender */\n      dup4\n        /* \"src\\BaseRegistrarImplementation.sol\":17405:17436  getApproved(tokenId) == spender */\n      0xffffffffffffffffffffffffffffffffffffffff\n      and\n        /* \"src\\BaseRegistrarImplementation.sol\":17405:17425  getApproved(tokenId) */\n      tag_248\n        /* \"src\\BaseRegistrarImplementation.sol\":17417:17424  tokenId */\n      dup5\n        /* \"src\\BaseRegistrarImplementation.sol\":17405:17416  getApproved */\n      tag_36\n        /* \"src\\BaseRegistrarImplementation.sol\":17405:17425  getApproved(tokenId) */\n      jump\t// in\n    tag_248:\n        /* \"src\\BaseRegistrarImplementation.sol\":17405:17436  getApproved(tokenId) == spender */\n      0xffffffffffffffffffffffffffffffffffffffff\n      and\n      eq\n        /* \"src\\BaseRegistrarImplementation.sol\":17385:17436  spender == owner || getApproved(tokenId) == spender */\n    tag_247:\n        /* \"src\\BaseRegistrarImplementation.sol\":17385:17472  spender == owner || getApproved(tokenId) == spender || isApprovedForAll(owner, spender) */\n      dup1\n      tag_249\n      jumpi\n      pop\n        /* \"src\\BaseRegistrarImplementation.sol\":17440:17472  isApprovedForAll(owner, spender) */\n      tag_250\n        /* \"src\\BaseRegistrarImplementation.sol\":17457:17462  owner */\n      dup2\n        /* \"src\\BaseRegistrarImplementation.sol\":17464:17471  spender */\n      dup6\n        /* \"src\\BaseRegistrarImplementation.sol\":17440:17456  isApprovedForAll */\n      tag_121\n        /* \"src\\BaseRegistrarImplementation.sol\":17440:17472  isApprovedForAll(owner, spender) */\n      jump\t// in\n    tag_250:\n        /* \"src\\BaseRegistrarImplementation.sol\":17385:17472  spender == owner || getApproved(tokenId) == spender || isApprovedForAll(owner, spender) */\n    tag_249:\n        /* \"src\\BaseRegistrarImplementation.sol\":17377:17473  return (spender == owner || getApproved(tokenId) == spender || isApprovedForAll(owner, spender)) */\n      swap2\n      pop\n      pop\n        /* \"src\\BaseRegistrarImplementation.sol\":17232:17481  function _isApprovedOrOwner(address spender, uint256 tokenId) internal view returns (bool) {\r... */\n      swap3\n      swap2\n      pop\n      pop\n      jump\t// out\n        /* \"src\\BaseRegistrarImplementation.sol\":19275:19689  function _transferFrom(address from, address to, uint256 tokenId) internal {\r... */\n    tag_155:\n        /* \"src\\BaseRegistrarImplementation.sol\":19389:19393  from */\n      dup3\n        /* \"src\\BaseRegistrarImplementation.sol\":19369:19393  ownerOf(tokenId) == from */\n      0xffffffffffffffffffffffffffffffffffffffff\n      and\n        /* \"src\\BaseRegistrarImplementation.sol\":19369:19385  ownerOf(tokenId) */\n      tag_252\n        /* \"src\\BaseRegistrarImplementation.sol\":19377:19384  tokenId */\n      dup3\n        /* \"src\\BaseRegistrarImplementation.sol\":19369:19376  ownerOf */\n      tag_67\n        /* \"src\\BaseRegistrarImplementation.sol\":19369:19385  ownerOf(tokenId) */\n      jump\t// in\n    tag_252:\n        /* \"src\\BaseRegistrarImplementation.sol\":19369:19393  ownerOf(tokenId) == from */\n      0xffffffffffffffffffffffffffffffffffffffff\n      and\n      eq\n        /* \"src\\BaseRegistrarImplementation.sol\":19361:19394  require(ownerOf(tokenId) == from) */\n      iszero\n      iszero\n      tag_253\n      jumpi\n      0x0\n      dup1\n      revert\n    tag_253:\n        /* \"src\\BaseRegistrarImplementation.sol\":19427:19428  0 */\n      0x0\n        /* \"src\\BaseRegistrarImplementation.sol\":19413:19429  to != address(0) */\n      0xffffffffffffffffffffffffffffffffffffffff\n      and\n        /* \"src\\BaseRegistrarImplementation.sol\":19413:19415  to */\n      dup3\n        /* \"src\\BaseRegistrarImplementation.sol\":19413:19429  to != address(0) */\n      0xffffffffffffffffffffffffffffffffffffffff\n      and\n      eq\n      iszero\n        /* \"src\\BaseRegistrarImplementation.sol\":19405:19430  require(to != address(0)) */\n      iszero\n      iszero\n      tag_254\n      jumpi\n      0x0\n      dup1\n      revert\n    tag_254:\n        /* \"src\\BaseRegistrarImplementation.sol\":19443:19466  _clearApproval(tokenId) */\n      tag_255\n        /* \"src\\BaseRegistrarImplementation.sol\":19458:19465  tokenId */\n      dup2\n        /* \"src\\BaseRegistrarImplementation.sol\":19443:19457  _clearApproval */\n      tag_256\n        /* \"src\\BaseRegistrarImplementation.sol\":19443:19466  _clearApproval(tokenId) */\n      jump\t// in\n    tag_255:\n        /* \"src\\BaseRegistrarImplementation.sol\":19505:19535  _ownedTokensCount[from].sub(1) */\n      tag_257\n        /* \"src\\BaseRegistrarImplementation.sol\":19533:19534  1 */\n      0x1\n        /* \"src\\BaseRegistrarImplementation.sol\":19505:19522  _ownedTokensCount */\n      0x7\n        /* \"src\\BaseRegistrarImplementation.sol\":19505:19528  _ownedTokensCount[from] */\n      0x0\n        /* \"src\\BaseRegistrarImplementation.sol\":19523:19527  from */\n      dup7\n        /* \"src\\BaseRegistrarImplementation.sol\":19505:19528  _ownedTokensCount[from] */\n      0xffffffffffffffffffffffffffffffffffffffff\n      and\n      0xffffffffffffffffffffffffffffffffffffffff\n      and\n      dup2\n      mstore\n      0x20\n      add\n      swap1\n      dup2\n      mstore\n      0x20\n      add\n      0x0\n      keccak256\n      sload\n        /* \"src\\BaseRegistrarImplementation.sol\":19505:19532  _ownedTokensCount[from].sub */\n      tag_258\n      swap1\n        /* \"src\\BaseRegistrarImplementation.sol\":19505:19535  _ownedTokensCount[from].sub(1) */\n      swap2\n      swap1\n      0xffffffff\n      and\n      jump\t// in\n    tag_257:\n        /* \"src\\BaseRegistrarImplementation.sol\":19479:19496  _ownedTokensCount */\n      0x7\n        /* \"src\\BaseRegistrarImplementation.sol\":19479:19502  _ownedTokensCount[from] */\n      0x0\n        /* \"src\\BaseRegistrarImplementation.sol\":19497:19501  from */\n      dup6\n        /* \"src\\BaseRegistrarImplementation.sol\":19479:19502  _ownedTokensCount[from] */\n      0xffffffffffffffffffffffffffffffffffffffff\n      and\n      0xffffffffffffffffffffffffffffffffffffffff\n      and\n      dup2\n      mstore\n      0x20\n      add\n      swap1\n      dup2\n      mstore\n      0x20\n      add\n      0x0\n      keccak256\n        /* \"src\\BaseRegistrarImplementation.sol\":19479:19535  _ownedTokensCount[from] = _ownedTokensCount[from].sub(1) */\n      dup2\n      swap1\n      sstore\n      pop\n        /* \"src\\BaseRegistrarImplementation.sol\":19570:19598  _ownedTokensCount[to].add(1) */\n      tag_259\n        /* \"src\\BaseRegistrarImplementation.sol\":19596:19597  1 */\n      0x1\n        /* \"src\\BaseRegistrarImplementation.sol\":19570:19587  _ownedTokensCount */\n      0x7\n        /* \"src\\BaseRegistrarImplementation.sol\":19570:19591  _ownedTokensCount[to] */\n      0x0\n        /* \"src\\BaseRegistrarImplementation.sol\":19588:19590  to */\n      dup6\n        /* \"src\\BaseRegistrarImplementation.sol\":19570:19591  _ownedTokensCount[to] */\n      0xffffffffffffffffffffffffffffffffffffffff\n      and\n      0xffffffffffffffffffffffffffffffffffffffff\n      and\n      dup2\n      mstore\n      0x20\n      add\n      swap1\n      dup2\n      mstore\n      0x20\n      add\n      0x0\n      keccak256\n      sload\n        /* \"src\\BaseRegistrarImplementation.sol\":19570:19595  _ownedTokensCount[to].add */\n      tag_260\n      swap1\n        /* \"src\\BaseRegistrarImplementation.sol\":19570:19598  _ownedTokensCount[to].add(1) */\n      swap2\n      swap1\n      0xffffffff\n      and\n      jump\t// in\n    tag_259:\n        /* \"src\\BaseRegistrarImplementation.sol\":19546:19563  _ownedTokensCount */\n      0x7\n        /* \"src\\BaseRegistrarImplementation.sol\":19546:19567  _ownedTokensCount[to] */\n      0x0\n        /* \"src\\BaseRegistrarImplementation.sol\":19564:19566  to */\n      dup5\n        /* \"src\\BaseRegistrarImplementation.sol\":19546:19567  _ownedTokensCount[to] */\n      0xffffffffffffffffffffffffffffffffffffffff\n      and\n      0xffffffffffffffffffffffffffffffffffffffff\n      and\n      dup2\n      mstore\n      0x20\n      add\n      swap1\n      dup2\n      mstore\n      0x20\n      add\n      0x0\n      keccak256\n        /* \"src\\BaseRegistrarImplementation.sol\":19546:19598  _ownedTokensCount[to] = _ownedTokensCount[to].add(1) */\n      dup2\n      swap1\n      sstore\n      pop\n        /* \"src\\BaseRegistrarImplementation.sol\":19634:19636  to */\n      dup2\n        /* \"src\\BaseRegistrarImplementation.sol\":19611:19622  _tokenOwner */\n      0x5\n        /* \"src\\BaseRegistrarImplementation.sol\":19611:19631  _tokenOwner[tokenId] */\n      0x0\n        /* \"src\\BaseRegistrarImplementation.sol\":19623:19630  tokenId */\n      dup4\n        /* \"src\\BaseRegistrarImplementation.sol\":19611:19631  _tokenOwner[tokenId] */\n      dup2\n      mstore\n      0x20\n      add\n      swap1\n      dup2\n      mstore\n      0x20\n      add\n      0x0\n      keccak256\n      0x0\n        /* \"src\\BaseRegistrarImplementation.sol\":19611:19636  _tokenOwner[tokenId] = to */\n      0x100\n      exp\n      dup2\n      sload\n      dup2\n      0xffffffffffffffffffffffffffffffffffffffff\n      mul\n      not\n      and\n      swap1\n      dup4\n      0xffffffffffffffffffffffffffffffffffffffff\n      and\n      mul\n      or\n      swap1\n      sstore\n      pop\n        /* \"src\\BaseRegistrarImplementation.sol\":19673:19680  tokenId */\n      dup1\n        /* \"src\\BaseRegistrarImplementation.sol\":19669:19671  to */\n      dup3\n        /* \"src\\BaseRegistrarImplementation.sol\":19654:19681  Transfer(from, to, tokenId) */\n      0xffffffffffffffffffffffffffffffffffffffff\n      and\n        /* \"src\\BaseRegistrarImplementation.sol\":19663:19667  from */\n      dup5\n        /* \"src\\BaseRegistrarImplementation.sol\":19654:19681  Transfer(from, to, tokenId) */\n      0xffffffffffffffffffffffffffffffffffffffff\n      and\n      0xddf252ad1be2c89b69c2b068fc378daa952ba7f163c4a11628f55a4df523b3ef\n      mload(0x40)\n      mload(0x40)\n      dup1\n      swap2\n      sub\n      swap1\n      log4\n        /* \"src\\BaseRegistrarImplementation.sol\":19275:19689  function _transferFrom(address from, address to, uint256 tokenId) internal {\r... */\n      pop\n      pop\n      pop\n      jump\t// out\n        /* \"src\\BaseRegistrarImplementation.sol\":11811:11992  function ownerOf(uint256 tokenId) public view returns (address) {\r... */\n    tag_178:\n        /* \"src\\BaseRegistrarImplementation.sol\":11866:11873  address */\n      0x0\n        /* \"src\\BaseRegistrarImplementation.sol\":11886:11899  address owner */\n      dup1\n        /* \"src\\BaseRegistrarImplementation.sol\":11902:11913  _tokenOwner */\n      0x5\n        /* \"src\\BaseRegistrarImplementation.sol\":11902:11922  _tokenOwner[tokenId] */\n      0x0\n        /* \"src\\BaseRegistrarImplementation.sol\":11914:11921  tokenId */\n      dup5\n        /* \"src\\BaseRegistrarImplementation.sol\":11902:11922  _tokenOwner[tokenId] */\n      dup2\n      mstore\n      0x20\n      add\n      swap1\n      dup2\n      mstore\n      0x20\n      add\n      0x0\n      keccak256\n      0x0\n      swap1\n      sload\n      swap1\n      0x100\n      exp\n      swap1\n      div\n      0xffffffffffffffffffffffffffffffffffffffff\n      and\n        /* \"src\\BaseRegistrarImplementation.sol\":11886:11922  address owner = _tokenOwner[tokenId] */\n      swap1\n      pop\n        /* \"src\\BaseRegistrarImplementation.sol\":11958:11959  0 */\n      0x0\n        /* \"src\\BaseRegistrarImplementation.sol\":11941:11960  owner != address(0) */\n      0xffffffffffffffffffffffffffffffffffffffff\n      and\n        /* \"src\\BaseRegistrarImplementation.sol\":11941:11946  owner */\n      dup2\n        /* \"src\\BaseRegistrarImplementation.sol\":11941:11960  owner != address(0) */\n      0xffffffffffffffffffffffffffffffffffffffff\n      and\n      eq\n      iszero\n        /* \"src\\BaseRegistrarImplementation.sol\":11933:11961  require(owner != address(0)) */\n      iszero\n      iszero\n      tag_262\n      jumpi\n      0x0\n      dup1\n      revert\n    tag_262:\n        /* \"src\\BaseRegistrarImplementation.sol\":11979:11984  owner */\n      dup1\n        /* \"src\\BaseRegistrarImplementation.sol\":11972:11984  return owner */\n      swap2\n      pop\n      pop\n        /* \"src\\BaseRegistrarImplementation.sol\":11811:11992  function ownerOf(uint256 tokenId) public view returns (address) {\r... */\n      swap2\n      swap1\n      pop\n      jump\t// out\n        /* \"src\\BaseRegistrarImplementation.sol\":20223:20579  function _checkOnERC721Received(address from, address to, uint256 tokenId, bytes memory _data)\r... */\n    tag_197:\n        /* \"src\\BaseRegistrarImplementation.sol\":20345:20349  bool */\n      0x0\n        /* \"src\\BaseRegistrarImplementation.sol\":20372:20387  to.isContract() */\n      tag_264\n        /* \"src\\BaseRegistrarImplementation.sol\":20372:20374  to */\n      dup5\n        /* \"src\\BaseRegistrarImplementation.sol\":20372:20385  to.isContract */\n      0xffffffffffffffffffffffffffffffffffffffff\n      and\n      tag_265\n        /* \"src\\BaseRegistrarImplementation.sol\":20372:20387  to.isContract() */\n      jump\t// in\n    tag_264:\n        /* \"src\\BaseRegistrarImplementation.sol\":20371:20387  !to.isContract() */\n      iszero\n        /* \"src\\BaseRegistrarImplementation.sol\":20367:20427  if (!to.isContract()) {\r... */\n      iszero\n      tag_266\n      jumpi\n        /* \"src\\BaseRegistrarImplementation.sol\":20411:20415  true */\n      0x1\n        /* \"src\\BaseRegistrarImplementation.sol\":20404:20415  return true */\n      swap1\n      pop\n      jump(tag_263)\n        /* \"src\\BaseRegistrarImplementation.sol\":20367:20427  if (!to.isContract()) {\r... */\n    tag_266:\n        /* \"src\\BaseRegistrarImplementation.sol\":20439:20452  bytes4 retval */\n      0x0\n        /* \"src\\BaseRegistrarImplementation.sol\":20471:20473  to */\n      dup5\n        /* \"src\\BaseRegistrarImplementation.sol\":20455:20491  IERC721Receiver(to).onERC721Received */\n      0xffffffffffffffffffffffffffffffffffffffff\n      and\n      0x150b7a02\n        /* \"src\\BaseRegistrarImplementation.sol\":20492:20502  msg.sender */\n      caller\n        /* \"src\\BaseRegistrarImplementation.sol\":20504:20508  from */\n      dup9\n        /* \"src\\BaseRegistrarImplementation.sol\":20510:20517  tokenId */\n      dup8\n        /* \"src\\BaseRegistrarImplementation.sol\":20519:20524  _data */\n      dup8\n        /* \"src\\BaseRegistrarImplementation.sol\":20455:20525  IERC721Receiver(to).onERC721Received(msg.sender, from, tokenId, _data) */\n      mload(0x40)\n      dup6\n      0xffffffff\n      and\n      0x100000000000000000000000000000000000000000000000000000000\n      mul\n      dup2\n      mstore\n      0x4\n      add\n      dup1\n      dup6\n      0xffffffffffffffffffffffffffffffffffffffff\n      and\n      0xffffffffffffffffffffffffffffffffffffffff\n      and\n      dup2\n      mstore\n      0x20\n      add\n      dup5\n      0xffffffffffffffffffffffffffffffffffffffff\n      and\n      0xffffffffffffffffffffffffffffffffffffffff\n      and\n      dup2\n      mstore\n      0x20\n      add\n      dup4\n      dup2\n      mstore\n      0x20\n      add\n      dup1\n      0x20\n      add\n      dup3\n      dup2\n      sub\n      dup3\n      mstore\n      dup4\n      dup2\n      dup2\n      mload\n      dup2\n      mstore\n      0x20\n      add\n      swap2\n      pop\n      dup1\n      mload\n      swap1\n      0x20\n      add\n      swap1\n      dup1\n      dup4\n      dup4\n        /* \"--CODEGEN--\":23:24   */\n      0x0\n        /* \"--CODEGEN--\":8:108   */\n    tag_267:\n        /* \"--CODEGEN--\":33:36   */\n      dup4\n        /* \"--CODEGEN--\":30:31   */\n      dup2\n        /* \"--CODEGEN--\":27:37   */\n      lt\n        /* \"--CODEGEN--\":8:108   */\n      iszero\n      tag_268\n      jumpi\n        /* \"--CODEGEN--\":99:100   */\n      dup1\n        /* \"--CODEGEN--\":94:97   */\n      dup3\n        /* \"--CODEGEN--\":90:101   */\n      add\n        /* \"--CODEGEN--\":84:102   */\n      mload\n        /* \"--CODEGEN--\":80:81   */\n      dup2\n        /* \"--CODEGEN--\":75:78   */\n      dup5\n        /* \"--CODEGEN--\":71:82   */\n      add\n        /* \"--CODEGEN--\":64:103   */\n      mstore\n        /* \"--CODEGEN--\":52:54   */\n      0x20\n        /* \"--CODEGEN--\":49:50   */\n      dup2\n        /* \"--CODEGEN--\":45:55   */\n      add\n        /* \"--CODEGEN--\":40:55   */\n      swap1\n      pop\n        /* \"--CODEGEN--\":8:108   */\n      jump(tag_267)\n    tag_268:\n        /* \"--CODEGEN--\":12:26   */\n      pop\n        /* \"src\\BaseRegistrarImplementation.sol\":20455:20525  IERC721Receiver(to).onERC721Received(msg.sender, from, tokenId, _data) */\n      pop\n      pop\n      pop\n      swap1\n      pop\n      swap1\n      dup2\n      add\n      swap1\n      0x1f\n      and\n      dup1\n      iszero\n      tag_270\n      jumpi\n      dup1\n      dup3\n      sub\n      dup1\n      mload\n      0x1\n      dup4\n      0x20\n      sub\n      0x100\n      exp\n      sub\n      not\n      and\n      dup2\n      mstore\n      0x20\n      add\n      swap2\n      pop\n    tag_270:\n      pop\n      swap6\n      pop\n      pop\n      pop\n      pop\n      pop\n      pop\n      0x20\n      mload(0x40)\n      dup1\n      dup4\n      sub\n      dup2\n      0x0\n      dup8\n      dup1\n      extcodesize\n      iszero\n        /* \"--CODEGEN--\":8:17   */\n      dup1\n        /* \"--CODEGEN--\":5:7   */\n      iszero\n      tag_271\n      jumpi\n        /* \"--CODEGEN--\":30:31   */\n      0x0\n        /* \"--CODEGEN--\":27:28   */\n      dup1\n        /* \"--CODEGEN--\":20:32   */\n      revert\n        /* \"--CODEGEN--\":5:7   */\n    tag_271:\n        /* \"src\\BaseRegistrarImplementation.sol\":20455:20525  IERC721Receiver(to).onERC721Received(msg.sender, from, tokenId, _data) */\n      pop\n      gas\n      call\n      iszero\n        /* \"--CODEGEN--\":8:17   */\n      dup1\n        /* \"--CODEGEN--\":5:7   */\n      iszero\n      tag_272\n      jumpi\n        /* \"--CODEGEN--\":45:61   */\n      returndatasize\n        /* \"--CODEGEN--\":42:43   */\n      0x0\n        /* \"--CODEGEN--\":39:40   */\n      dup1\n        /* \"--CODEGEN--\":24:62   */\n      returndatacopy\n        /* \"--CODEGEN--\":77:93   */\n      returndatasize\n        /* \"--CODEGEN--\":74:75   */\n      0x0\n        /* \"--CODEGEN--\":67:94   */\n      revert\n        /* \"--CODEGEN--\":5:7   */\n    tag_272:\n        /* \"src\\BaseRegistrarImplementation.sol\":20455:20525  IERC721Receiver(to).onERC721Received(msg.sender, from, tokenId, _data) */\n      pop\n      pop\n      pop\n      pop\n      mload(0x40)\n      returndatasize\n        /* \"--CODEGEN--\":13:15   */\n      0x20\n        /* \"--CODEGEN--\":8:11   */\n      dup2\n        /* \"--CODEGEN--\":5:16   */\n      lt\n        /* \"--CODEGEN--\":2:4   */\n      iszero\n      tag_273\n      jumpi\n        /* \"--CODEGEN--\":29:30   */\n      0x0\n        /* \"--CODEGEN--\":26:27   */\n      dup1\n        /* \"--CODEGEN--\":19:31   */\n      revert\n        /* \"--CODEGEN--\":2:4   */\n    tag_273:\n        /* \"src\\BaseRegistrarImplementation.sol\":20455:20525  IERC721Receiver(to).onERC721Received(msg.sender, from, tokenId, _data) */\n      dup2\n      add\n      swap1\n      dup1\n      dup1\n      mload\n      swap1\n      0x20\n      add\n      swap1\n      swap3\n      swap2\n      swap1\n      pop\n      pop\n      pop\n        /* \"src\\BaseRegistrarImplementation.sol\":20439:20525  bytes4 retval = IERC721Receiver(to).onERC721Received(msg.sender, from, tokenId, _data) */\n      swap1\n      pop\n        /* \"src\\BaseRegistrarImplementation.sol\":9891:9901  0x150b7a02 */\n      0x150b7a02\n        /* \"src\\BaseRegistrarImplementation.sol\":20554:20570  _ERC721_RECEIVED */\n      0x100000000000000000000000000000000000000000000000000000000\n      mul\n        /* \"src\\BaseRegistrarImplementation.sol\":20544:20570  retval == _ERC721_RECEIVED */\n      not(0xffffffffffffffffffffffffffffffffffffffffffffffffffffffff)\n      and\n        /* \"src\\BaseRegistrarImplementation.sol\":20544:20550  retval */\n      dup2\n        /* \"src\\BaseRegistrarImplementation.sol\":20544:20570  retval == _ERC721_RECEIVED */\n      not(0xffffffffffffffffffffffffffffffffffffffffffffffffffffffff)\n      and\n      eq\n        /* \"src\\BaseRegistrarImplementation.sol\":20536:20571  return (retval == _ERC721_RECEIVED) */\n      swap2\n      pop\n      pop\n        /* \"src\\BaseRegistrarImplementation.sol\":20223:20579  function _checkOnERC721Received(address from, address to, uint256 tokenId, bytes memory _data)\r... */\n    tag_263:\n      swap5\n      swap4\n      pop\n      pop\n      pop\n      pop\n      jump\t// out\n        /* \"src\\BaseRegistrarImplementation.sol\":22966:23153  function _transferOwnership(address newOwner) internal {\r... */\n    tag_216:\n        /* \"src\\BaseRegistrarImplementation.sol\":23060:23061  0 */\n      0x0\n        /* \"src\\BaseRegistrarImplementation.sol\":23040:23062  newOwner != address(0) */\n      0xffffffffffffffffffffffffffffffffffffffff\n      and\n        /* \"src\\BaseRegistrarImplementation.sol\":23040:23048  newOwner */\n      dup2\n        /* \"src\\BaseRegistrarImplementation.sol\":23040:23062  newOwner != address(0) */\n      0xffffffffffffffffffffffffffffffffffffffff\n      and\n      eq\n      iszero\n        /* \"src\\BaseRegistrarImplementation.sol\":23032:23063  require(newOwner != address(0)) */\n      iszero\n      iszero\n      tag_275\n      jumpi\n      0x0\n      dup1\n      revert\n    tag_275:\n        /* \"src\\BaseRegistrarImplementation.sol\":23108:23116  newOwner */\n      dup1\n        /* \"src\\BaseRegistrarImplementation.sol\":23079:23117  OwnershipTransferred(_owner, newOwner) */\n      0xffffffffffffffffffffffffffffffffffffffff\n      and\n        /* \"src\\BaseRegistrarImplementation.sol\":23100:23106  _owner */\n      0x1\n      0x0\n      swap1\n      sload\n      swap1\n      0x100\n      exp\n      swap1\n      div\n      0xffffffffffffffffffffffffffffffffffffffff\n      and\n        /* \"src\\BaseRegistrarImplementation.sol\":23079:23117  OwnershipTransferred(_owner, newOwner) */\n      0xffffffffffffffffffffffffffffffffffffffff\n      and\n      0x8be0079c531659141344cd1fd0a4f28419497f9722a3daafe3b4186f6b6457e0\n      mload(0x40)\n      mload(0x40)\n      dup1\n      swap2\n      sub\n      swap1\n      log3\n        /* \"src\\BaseRegistrarImplementation.sol\":23137:23145  newOwner */\n      dup1\n        /* \"src\\BaseRegistrarImplementation.sol\":23128:23134  _owner */\n      0x1\n      0x0\n        /* \"src\\BaseRegistrarImplementation.sol\":23128:23145  _owner = newOwner */\n      0x100\n      exp\n      dup2\n      sload\n      dup2\n      0xffffffffffffffffffffffffffffffffffffffff\n      mul\n      not\n      and\n      swap1\n      dup4\n      0xffffffffffffffffffffffffffffffffffffffff\n      and\n      mul\n      or\n      swap1\n      sstore\n      pop\n        /* \"src\\BaseRegistrarImplementation.sol\":22966:23153  function _transferOwnership(address newOwner) internal {\r... */\n      pop\n      jump\t// out\n        /* \"src\\BaseRegistrarImplementation.sol\":18800:18892  function _burn(uint256 tokenId) internal {\r... */\n    tag_238:\n        /* \"src\\BaseRegistrarImplementation.sol\":18852:18884  _burn(ownerOf(tokenId), tokenId) */\n      tag_277\n        /* \"src\\BaseRegistrarImplementation.sol\":18858:18874  ownerOf(tokenId) */\n      tag_278\n        /* \"src\\BaseRegistrarImplementation.sol\":18866:18873  tokenId */\n      dup3\n        /* \"src\\BaseRegistrarImplementation.sol\":18858:18865  ownerOf */\n      tag_67\n        /* \"src\\BaseRegistrarImplementation.sol\":18858:18874  ownerOf(tokenId) */\n      jump\t// in\n    tag_278:\n        /* \"src\\BaseRegistrarImplementation.sol\":18876:18883  tokenId */\n      dup3\n        /* \"src\\BaseRegistrarImplementation.sol\":18852:18857  _burn */\n      tag_279\n        /* \"src\\BaseRegistrarImplementation.sol\":18852:18884  _burn(ownerOf(tokenId), tokenId) */\n      jump\t// in\n    tag_277:\n        /* \"src\\BaseRegistrarImplementation.sol\":18800:18892  function _burn(uint256 tokenId) internal {\r... */\n      pop\n      jump\t// out\n        /* \"src\\BaseRegistrarImplementation.sol\":17732:18018  function _mint(address to, uint256 tokenId) internal {\r... */\n    tag_240:\n        /* \"src\\BaseRegistrarImplementation.sol\":17818:17819  0 */\n      0x0\n        /* \"src\\BaseRegistrarImplementation.sol\":17804:17820  to != address(0) */\n      0xffffffffffffffffffffffffffffffffffffffff\n      and\n        /* \"src\\BaseRegistrarImplementation.sol\":17804:17806  to */\n      dup3\n        /* \"src\\BaseRegistrarImplementation.sol\":17804:17820  to != address(0) */\n      0xffffffffffffffffffffffffffffffffffffffff\n      and\n      eq\n      iszero\n        /* \"src\\BaseRegistrarImplementation.sol\":17796:17821  require(to != address(0)) */\n      iszero\n      iszero\n      tag_281\n      jumpi\n      0x0\n      dup1\n      revert\n    tag_281:\n        /* \"src\\BaseRegistrarImplementation.sol\":17841:17857  _exists(tokenId) */\n      tag_282\n        /* \"src\\BaseRegistrarImplementation.sol\":17849:17856  tokenId */\n      dup2\n        /* \"src\\BaseRegistrarImplementation.sol\":17841:17848  _exists */\n      tag_139\n        /* \"src\\BaseRegistrarImplementation.sol\":17841:17857  _exists(tokenId) */\n      jump\t// in\n    tag_282:\n        /* \"src\\BaseRegistrarImplementation.sol\":17840:17857  !_exists(tokenId) */\n      iszero\n        /* \"src\\BaseRegistrarImplementation.sol\":17832:17858  require(!_exists(tokenId)) */\n      iszero\n      iszero\n      tag_283\n      jumpi\n      0x0\n      dup1\n      revert\n    tag_283:\n        /* \"src\\BaseRegistrarImplementation.sol\":17894:17896  to */\n      dup2\n        /* \"src\\BaseRegistrarImplementation.sol\":17871:17882  _tokenOwner */\n      0x5\n        /* \"src\\BaseRegistrarImplementation.sol\":17871:17891  _tokenOwner[tokenId] */\n      0x0\n        /* \"src\\BaseRegistrarImplementation.sol\":17883:17890  tokenId */\n      dup4\n        /* \"src\\BaseRegistrarImplementation.sol\":17871:17891  _tokenOwner[tokenId] */\n      dup2\n      mstore\n      0x20\n      add\n      swap1\n      dup2\n      mstore\n      0x20\n      add\n      0x0\n      keccak256\n      0x0\n        /* \"src\\BaseRegistrarImplementation.sol\":17871:17896  _tokenOwner[tokenId] = to */\n      0x100\n      exp\n      dup2\n      sload\n      dup2\n      0xffffffffffffffffffffffffffffffffffffffff\n      mul\n      not\n      and\n      swap1\n      dup4\n      0xffffffffffffffffffffffffffffffffffffffff\n      and\n      mul\n      or\n      swap1\n      sstore\n      pop\n        /* \"src\\BaseRegistrarImplementation.sol\":17931:17959  _ownedTokensCount[to].add(1) */\n      tag_284\n        /* \"src\\BaseRegistrarImplementation.sol\":17957:17958  1 */\n      0x1\n        /* \"src\\BaseRegistrarImplementation.sol\":17931:17948  _ownedTokensCount */\n      0x7\n        /* \"src\\BaseRegistrarImplementation.sol\":17931:17952  _ownedTokensCount[to] */\n      0x0\n        /* \"src\\BaseRegistrarImplementation.sol\":17949:17951  to */\n      dup6\n        /* \"src\\BaseRegistrarImplementation.sol\":17931:17952  _ownedTokensCount[to] */\n      0xffffffffffffffffffffffffffffffffffffffff\n      and\n      0xffffffffffffffffffffffffffffffffffffffff\n      and\n      dup2\n      mstore\n      0x20\n      add\n      swap1\n      dup2\n      mstore\n      0x20\n      add\n      0x0\n      keccak256\n      sload\n        /* \"src\\BaseRegistrarImplementation.sol\":17931:17956  _ownedTokensCount[to].add */\n      tag_260\n      swap1\n        /* \"src\\BaseRegistrarImplementation.sol\":17931:17959  _ownedTokensCount[to].add(1) */\n      swap2\n      swap1\n      0xffffffff\n      and\n      jump\t// in\n    tag_284:\n        /* \"src\\BaseRegistrarImplementation.sol\":17907:17924  _ownedTokensCount */\n      0x7\n        /* \"src\\BaseRegistrarImplementation.sol\":17907:17928  _ownedTokensCount[to] */\n      0x0\n        /* \"src\\BaseRegistrarImplementation.sol\":17925:17927  to */\n      dup5\n        /* \"src\\BaseRegistrarImplementation.sol\":17907:17928  _ownedTokensCount[to] */\n      0xffffffffffffffffffffffffffffffffffffffff\n      and\n      0xffffffffffffffffffffffffffffffffffffffff\n      and\n      dup2\n      mstore\n      0x20\n      add\n      swap1\n      dup2\n      mstore\n      0x20\n      add\n      0x0\n      keccak256\n        /* \"src\\BaseRegistrarImplementation.sol\":17907:17959  _ownedTokensCount[to] = _ownedTokensCount[to].add(1) */\n      dup2\n      swap1\n      sstore\n      pop\n        /* \"src\\BaseRegistrarImplementation.sol\":18002:18009  tokenId */\n      dup1\n        /* \"src\\BaseRegistrarImplementation.sol\":17998:18000  to */\n      dup3\n        /* \"src\\BaseRegistrarImplementation.sol\":17977:18010  Transfer(address(0), to, tokenId) */\n      0xffffffffffffffffffffffffffffffffffffffff\n      and\n        /* \"src\\BaseRegistrarImplementation.sol\":17994:17995  0 */\n      0x0\n        /* \"src\\BaseRegistrarImplementation.sol\":17977:18010  Transfer(address(0), to, tokenId) */\n      0xffffffffffffffffffffffffffffffffffffffff\n      and\n      0xddf252ad1be2c89b69c2b068fc378daa952ba7f163c4a11628f55a4df523b3ef\n      mload(0x40)\n      mload(0x40)\n      dup1\n      swap2\n      sub\n      swap1\n      log4\n        /* \"src\\BaseRegistrarImplementation.sol\":17732:18018  function _mint(address to, uint256 tokenId) internal {\r... */\n      pop\n      pop\n      jump\t// out\n        /* \"src\\BaseRegistrarImplementation.sol\":20746:20921  function _clearApproval(uint256 tokenId) private {\r... */\n    tag_256:\n        /* \"src\\BaseRegistrarImplementation.sol\":20846:20847  0 */\n      0x0\n        /* \"src\\BaseRegistrarImplementation.sol\":20810:20848  _tokenApprovals[tokenId] != address(0) */\n      0xffffffffffffffffffffffffffffffffffffffff\n      and\n        /* \"src\\BaseRegistrarImplementation.sol\":20810:20825  _tokenApprovals */\n      0x6\n        /* \"src\\BaseRegistrarImplementation.sol\":20810:20834  _tokenApprovals[tokenId] */\n      0x0\n        /* \"src\\BaseRegistrarImplementation.sol\":20826:20833  tokenId */\n      dup4\n        /* \"src\\BaseRegistrarImplementation.sol\":20810:20834  _tokenApprovals[tokenId] */\n      dup2\n      mstore\n      0x20\n      add\n      swap1\n      dup2\n      mstore\n      0x20\n      add\n      0x0\n      keccak256\n      0x0\n      swap1\n      sload\n      swap1\n      0x100\n      exp\n      swap1\n      div\n      0xffffffffffffffffffffffffffffffffffffffff\n      and\n        /* \"src\\BaseRegistrarImplementation.sol\":20810:20848  _tokenApprovals[tokenId] != address(0) */\n      0xffffffffffffffffffffffffffffffffffffffff\n      and\n      eq\n      iszero\n        /* \"src\\BaseRegistrarImplementation.sol\":20806:20914  if (_tokenApprovals[tokenId] != address(0)) {\r... */\n      iszero\n      tag_286\n      jumpi\n        /* \"src\\BaseRegistrarImplementation.sol\":20900:20901  0 */\n      0x0\n        /* \"src\\BaseRegistrarImplementation.sol\":20865:20880  _tokenApprovals */\n      0x6\n        /* \"src\\BaseRegistrarImplementation.sol\":20865:20889  _tokenApprovals[tokenId] */\n      0x0\n        /* \"src\\BaseRegistrarImplementation.sol\":20881:20888  tokenId */\n      dup4\n        /* \"src\\BaseRegistrarImplementation.sol\":20865:20889  _tokenApprovals[tokenId] */\n      dup2\n      mstore\n      0x20\n      add\n      swap1\n      dup2\n      mstore\n      0x20\n      add\n      0x0\n      keccak256\n      0x0\n        /* \"src\\BaseRegistrarImplementation.sol\":20865:20902  _tokenApprovals[tokenId] = address(0) */\n      0x100\n      exp\n      dup2\n      sload\n      dup2\n      0xffffffffffffffffffffffffffffffffffffffff\n      mul\n      not\n      and\n      swap1\n      dup4\n      0xffffffffffffffffffffffffffffffffffffffff\n      and\n      mul\n      or\n      swap1\n      sstore\n      pop\n        /* \"src\\BaseRegistrarImplementation.sol\":20806:20914  if (_tokenApprovals[tokenId] != address(0)) {\r... */\n    tag_286:\n        /* \"src\\BaseRegistrarImplementation.sol\":20746:20921  function _clearApproval(uint256 tokenId) private {\r... */\n      pop\n      jump\t// out\n        /* \"src\\BaseRegistrarImplementation.sol\":6221:6371  function sub(uint256 a, uint256 b) internal pure returns (uint256) {\r... */\n    tag_258:\n        /* \"src\\BaseRegistrarImplementation.sol\":6279:6286  uint256 */\n      0x0\n        /* \"src\\BaseRegistrarImplementation.sol\":6312:6313  a */\n      dup3\n        /* \"src\\BaseRegistrarImplementation.sol\":6307:6308  b */\n      dup3\n        /* \"src\\BaseRegistrarImplementation.sol\":6307:6313  b <= a */\n      gt\n      iszero\n        /* \"src\\BaseRegistrarImplementation.sol\":6299:6314  require(b <= a) */\n      iszero\n      iszero\n      tag_288\n      jumpi\n      0x0\n      dup1\n      revert\n    tag_288:\n        /* \"src\\BaseRegistrarImplementation.sol\":6325:6334  uint256 c */\n      0x0\n        /* \"src\\BaseRegistrarImplementation.sol\":6341:6342  b */\n      dup3\n        /* \"src\\BaseRegistrarImplementation.sol\":6337:6338  a */\n      dup5\n        /* \"src\\BaseRegistrarImplementation.sol\":6337:6342  a - b */\n      sub\n        /* \"src\\BaseRegistrarImplementation.sol\":6325:6342  uint256 c = a - b */\n      swap1\n      pop\n        /* \"src\\BaseRegistrarImplementation.sol\":6362:6363  c */\n      dup1\n        /* \"src\\BaseRegistrarImplementation.sol\":6355:6363  return c */\n      swap2\n      pop\n      pop\n        /* \"src\\BaseRegistrarImplementation.sol\":6221:6371  function sub(uint256 a, uint256 b) internal pure returns (uint256) {\r... */\n      swap3\n      swap2\n      pop\n      pop\n      jump\t// out\n        /* \"src\\BaseRegistrarImplementation.sol\":6457:6607  function add(uint256 a, uint256 b) internal pure returns (uint256) {\r... */\n    tag_260:\n        /* \"src\\BaseRegistrarImplementation.sol\":6515:6522  uint256 */\n      0x0\n        /* \"src\\BaseRegistrarImplementation.sol\":6535:6544  uint256 c */\n      dup1\n        /* \"src\\BaseRegistrarImplementation.sol\":6551:6552  b */\n      dup3\n        /* \"src\\BaseRegistrarImplementation.sol\":6547:6548  a */\n      dup5\n        /* \"src\\BaseRegistrarImplementation.sol\":6547:6552  a + b */\n      add\n        /* \"src\\BaseRegistrarImplementation.sol\":6535:6552  uint256 c = a + b */\n      swap1\n      pop\n        /* \"src\\BaseRegistrarImplementation.sol\":6576:6577  a */\n      dup4\n        /* \"src\\BaseRegistrarImplementation.sol\":6571:6572  c */\n      dup2\n        /* \"src\\BaseRegistrarImplementation.sol\":6571:6577  c >= a */\n      lt\n      iszero\n        /* \"src\\BaseRegistrarImplementation.sol\":6563:6578  require(c >= a) */\n      iszero\n      iszero\n      tag_290\n      jumpi\n      0x0\n      dup1\n      revert\n    tag_290:\n        /* \"src\\BaseRegistrarImplementation.sol\":6598:6599  c */\n      dup1\n        /* \"src\\BaseRegistrarImplementation.sol\":6591:6599  return c */\n      swap2\n      pop\n      pop\n        /* \"src\\BaseRegistrarImplementation.sol\":6457:6607  function add(uint256 a, uint256 b) internal pure returns (uint256) {\r... */\n      swap3\n      swap2\n      pop\n      pop\n      jump\t// out\n        /* \"src\\BaseRegistrarImplementation.sol\":7434:8061  function isContract(address account) internal view returns (bool) {\r... */\n    tag_265:\n        /* \"src\\BaseRegistrarImplementation.sol\":7494:7498  bool */\n      0x0\n        /* \"src\\BaseRegistrarImplementation.sol\":7511:7523  uint256 size */\n      dup1\n        /* \"src\\BaseRegistrarImplementation.sol\":8018:8025  account */\n      dup3\n        /* \"src\\BaseRegistrarImplementation.sol\":8006:8026  extcodesize(account) */\n      extcodesize\n        /* \"src\\BaseRegistrarImplementation.sol\":7998:8026  size := extcodesize(account) */\n      swap1\n      pop\n        /* \"src\\BaseRegistrarImplementation.sol\":8052:8053  0 */\n      0x0\n        /* \"src\\BaseRegistrarImplementation.sol\":8045:8049  size */\n      dup2\n        /* \"src\\BaseRegistrarImplementation.sol\":8045:8053  size > 0 */\n      gt\n        /* \"src\\BaseRegistrarImplementation.sol\":8038:8053  return size > 0 */\n      swap2\n      pop\n      pop\n        /* \"src\\BaseRegistrarImplementation.sol\":7434:8061  function isContract(address account) internal view returns (bool) {\r... */\n      swap2\n      swap1\n      pop\n      jump\t// out\n        /* \"src\\BaseRegistrarImplementation.sol\":18300:18614  function _burn(address owner, uint256 tokenId) internal {\r... */\n    tag_279:\n        /* \"src\\BaseRegistrarImplementation.sol\":18395:18400  owner */\n      dup2\n        /* \"src\\BaseRegistrarImplementation.sol\":18375:18400  ownerOf(tokenId) == owner */\n      0xffffffffffffffffffffffffffffffffffffffff\n      and\n        /* \"src\\BaseRegistrarImplementation.sol\":18375:18391  ownerOf(tokenId) */\n      tag_293\n        /* \"src\\BaseRegistrarImplementation.sol\":18383:18390  tokenId */\n      dup3\n        /* \"src\\BaseRegistrarImplementation.sol\":18375:18382  ownerOf */\n      tag_67\n        /* \"src\\BaseRegistrarImplementation.sol\":18375:18391  ownerOf(tokenId) */\n      jump\t// in\n    tag_293:\n        /* \"src\\BaseRegistrarImplementation.sol\":18375:18400  ownerOf(tokenId) == owner */\n      0xffffffffffffffffffffffffffffffffffffffff\n      and\n      eq\n        /* \"src\\BaseRegistrarImplementation.sol\":18367:18401  require(ownerOf(tokenId) == owner) */\n      iszero\n      iszero\n      tag_294\n      jumpi\n      0x0\n      dup1\n      revert\n    tag_294:\n        /* \"src\\BaseRegistrarImplementation.sol\":18414:18437  _clearApproval(tokenId) */\n      tag_295\n        /* \"src\\BaseRegistrarImplementation.sol\":18429:18436  tokenId */\n      dup2\n        /* \"src\\BaseRegistrarImplementation.sol\":18414:18428  _clearApproval */\n      tag_256\n        /* \"src\\BaseRegistrarImplementation.sol\":18414:18437  _clearApproval(tokenId) */\n      jump\t// in\n    tag_295:\n        /* \"src\\BaseRegistrarImplementation.sol\":18477:18508  _ownedTokensCount[owner].sub(1) */\n      tag_296\n        /* \"src\\BaseRegistrarImplementation.sol\":18506:18507  1 */\n      0x1\n        /* \"src\\BaseRegistrarImplementation.sol\":18477:18494  _ownedTokensCount */\n      0x7\n        /* \"src\\BaseRegistrarImplementation.sol\":18477:18501  _ownedTokensCount[owner] */\n      0x0\n        /* \"src\\BaseRegistrarImplementation.sol\":18495:18500  owner */\n      dup6\n        /* \"src\\BaseRegistrarImplementation.sol\":18477:18501  _ownedTokensCount[owner] */\n      0xffffffffffffffffffffffffffffffffffffffff\n      and\n      0xffffffffffffffffffffffffffffffffffffffff\n      and\n      dup2\n      mstore\n      0x20\n      add\n      swap1\n      dup2\n      mstore\n      0x20\n      add\n      0x0\n      keccak256\n      sload\n        /* \"src\\BaseRegistrarImplementation.sol\":18477:18505  _ownedTokensCount[owner].sub */\n      tag_258\n      swap1\n        /* \"src\\BaseRegistrarImplementation.sol\":18477:18508  _ownedTokensCount[owner].sub(1) */\n      swap2\n      swap1\n      0xffffffff\n      and\n      jump\t// in\n    tag_296:\n        /* \"src\\BaseRegistrarImplementation.sol\":18450:18467  _ownedTokensCount */\n      0x7\n        /* \"src\\BaseRegistrarImplementation.sol\":18450:18474  _ownedTokensCount[owner] */\n      0x0\n        /* \"src\\BaseRegistrarImplementation.sol\":18468:18473  owner */\n      dup5\n        /* \"src\\BaseRegistrarImplementation.sol\":18450:18474  _ownedTokensCount[owner] */\n      0xffffffffffffffffffffffffffffffffffffffff\n      and\n      0xffffffffffffffffffffffffffffffffffffffff\n      and\n      dup2\n      mstore\n      0x20\n      add\n      swap1\n      dup2\n      mstore\n      0x20\n      add\n      0x0\n      keccak256\n        /* \"src\\BaseRegistrarImplementation.sol\":18450:18508  _ownedTokensCount[owner] = _ownedTokensCount[owner].sub(1) */\n      dup2\n      swap1\n      sstore\n      pop\n        /* \"src\\BaseRegistrarImplementation.sol\":18550:18551  0 */\n      0x0\n        /* \"src\\BaseRegistrarImplementation.sol\":18519:18530  _tokenOwner */\n      0x5\n        /* \"src\\BaseRegistrarImplementation.sol\":18519:18539  _tokenOwner[tokenId] */\n      0x0\n        /* \"src\\BaseRegistrarImplementation.sol\":18531:18538  tokenId */\n      dup4\n        /* \"src\\BaseRegistrarImplementation.sol\":18519:18539  _tokenOwner[tokenId] */\n      dup2\n      mstore\n      0x20\n      add\n      swap1\n      dup2\n      mstore\n      0x20\n      add\n      0x0\n      keccak256\n      0x0\n        /* \"src\\BaseRegistrarImplementation.sol\":18519:18552  _tokenOwner[tokenId] = address(0) */\n      0x100\n      exp\n      dup2\n      sload\n      dup2\n      0xffffffffffffffffffffffffffffffffffffffff\n      mul\n      not\n      and\n      swap1\n      dup4\n      0xffffffffffffffffffffffffffffffffffffffff\n      and\n      mul\n      or\n      swap1\n      sstore\n      pop\n        /* \"src\\BaseRegistrarImplementation.sol\":18598:18605  tokenId */\n      dup1\n        /* \"src\\BaseRegistrarImplementation.sol\":18594:18595  0 */\n      0x0\n        /* \"src\\BaseRegistrarImplementation.sol\":18570:18606  Transfer(owner, address(0), tokenId) */\n      0xffffffffffffffffffffffffffffffffffffffff\n      and\n        /* \"src\\BaseRegistrarImplementation.sol\":18579:18584  owner */\n      dup4\n        /* \"src\\BaseRegistrarImplementation.sol\":18570:18606  Transfer(owner, address(0), tokenId) */\n      0xffffffffffffffffffffffffffffffffffffffff\n      and\n      0xddf252ad1be2c89b69c2b068fc378daa952ba7f163c4a11628f55a4df523b3ef\n      mload(0x40)\n      mload(0x40)\n      dup1\n      swap2\n      sub\n      swap1\n      log4\n        /* \"src\\BaseRegistrarImplementation.sol\":18300:18614  function _burn(address owner, uint256 tokenId) internal {\r... */\n      pop\n      pop\n      jump\t// out\n\n    auxdata: 0xa165627a7a7230582029e451f665c3e9a22b6ea79ad6b3555c7fb50f4ada9a2356eb60cc650b94fd8f0029\n}\n",
				"bytecode": {
					"linkReferences": {},
					"object": "60806040523480156200001157600080fd5b5060405160408062002e71833981018060405260408110156200003357600080fd5b8101908080519060200190929190805190602001909291905050506200008b6301ffc9a77c010000000000000000000000000000000000000000000000000000000002620001d6640100000000026401000000009004565b33600160006101000a81548173ffffffffffffffffffffffffffffffffffffffff021916908373ffffffffffffffffffffffffffffffffffffffff160217905550600160009054906101000a900473ffffffffffffffffffffffffffffffffffffffff1673ffffffffffffffffffffffffffffffffffffffff16600073ffffffffffffffffffffffffffffffffffffffff167f8be0079c531659141344cd1fd0a4f28419497f9722a3daafe3b4186f6b6457e060405160405180910390a3620001866380ac58cd7c010000000000000000000000000000000000000000000000000000000002620001d6640100000000026401000000009004565b81600260006101000a81548173ffffffffffffffffffffffffffffffffffffffff021916908373ffffffffffffffffffffffffffffffffffffffff16021790555080600381905550505062000294565b63ffffffff7c010000000000000000000000000000000000000000000000000000000002817bffffffffffffffffffffffffffffffffffffffffffffffffffffffff1916141515156200022857600080fd5b6001600080837bffffffffffffffffffffffffffffffffffffffffffffffffffffffff19167bffffffffffffffffffffffffffffffffffffffffffffffffffffffff1916815260200190815260200160002060006101000a81548160ff02191690831515021790555050565b612bcd80620002a46000396000f3fe60806040526004361061015f576000357c0100000000000000000000000000000000000000000000000000000000900463ffffffff16806301ffc9a714610164578063081812fc146101d6578063095ea7b3146102515780630e297b45146102ac57806323b872dd1461032557806328ed4f6c146103a05780633f15457f146103fb57806342842e0e146104525780634e543b26146104cd5780636352211e1461051e57806370a0823114610599578063715018a6146105fe5780638da5cb5b146106155780638f32d59b1461066c57806396e494e81461069b578063a22cb465146106ee578063a7fc7a071461074b578063b88d4fde1461079c578063c1a287e2146108ae578063c475abff146108d9578063d6e4fa8614610932578063da8c229e14610981578063ddf7fcb0146109ea578063e985e9c514610a15578063f2fde38b14610a9e578063f6a74ed714610aef578063fca247ac14610b40575b600080fd5b34801561017057600080fd5b506101bc6004803603602081101561018757600080fd5b8101908080357bffffffffffffffffffffffffffffffffffffffffffffffffffffffff19169060200190929190505050610bb9565b604051808215151515815260200191505060405180910390f35b3480156101e257600080fd5b5061020f600480360360208110156101f957600080fd5b8101908080359060200190929190505050610f82565b604051808273ffffffffffffffffffffffffffffffffffffffff1673ffffffffffffffffffffffffffffffffffffffff16815260200191505060405180910390f35b34801561025d57600080fd5b506102aa6004803603604081101561027457600080fd5b81019080803573ffffffffffffffffffffffffffffffffffffffff16906020019092919080359060200190929190505050610fd3565b005b3480156102b857600080fd5b5061030f600480360360608110156102cf57600080fd5b8101908080359060200190929190803573ffffffffffffffffffffffffffffffffffffffff16906020019092919080359060200190929190505050611118565b6040518082815260200191505060405180910390f35b34801561033157600080fd5b5061039e6004803603606081101561034857600080fd5b81019080803573ffffffffffffffffffffffffffffffffffffffff169060200190929190803573ffffffffffffffffffffffffffffffffffffffff16906020019092919080359060200190929190505050611130565b005b3480156103ac57600080fd5b506103f9600480360360408110156103c357600080fd5b8101908080359060200190929190803573ffffffffffffffffffffffffffffffffffffffff169060200190929190505050611155565b005b34801561040757600080fd5b50610410611381565b604051808273ffffffffffffffffffffffffffffffffffffffff1673ffffffffffffffffffffffffffffffffffffffff16815260200191505060405180910390f35b34801561045e57600080fd5b506104cb6004803603606081101561047557600080fd5b81019080803573ffffffffffffffffffffffffffffffffffffffff169060200190929190803573ffffffffffffffffffffffffffffffffffffffff169060200190929190803590602001909291905050506113a7565b005b3480156104d957600080fd5b5061051c600480360360208110156104f057600080fd5b81019080803573ffffffffffffffffffffffffffffffffffffffff1690602001909291905050506113c8565b005b34801561052a57600080fd5b506105576004803603602081101561054157600080fd5b81019080803590602001909291905050506114bd565b604051808273ffffffffffffffffffffffffffffffffffffffff1673ffffffffffffffffffffffffffffffffffffffff16815260200191505060405180910390f35b3480156105a557600080fd5b506105e8600480360360208110156105bc57600080fd5b81019080803573ffffffffffffffffffffffffffffffffffffffff1690602001909291905050506114f0565b6040518082815260200191505060405180910390f35b34801561060a57600080fd5b50610613611574565b005b34801561062157600080fd5b5061062a611648565b604051808273ffffffffffffffffffffffffffffffffffffffff1673ffffffffffffffffffffffffffffffffffffffff16815260200191505060405180910390f35b34801561067857600080fd5b50610681611672565b604051808215151515815260200191505060405180910390f35b3480156106a757600080fd5b506106d4600480360360208110156106be57600080fd5b81019080803590602001909291905050506116ca565b604051808215151515815260200191505060405180910390f35b3480156106fa57600080fd5b506107496004803603604081101561071157600080fd5b81019080803573ffffffffffffffffffffffffffffffffffffffff1690602001909291908035151590602001909291905050506116ee565b005b34801561075757600080fd5b5061079a6004803603602081101561076e57600080fd5b81019080803573ffffffffffffffffffffffffffffffffffffffff16906020019092919050505061182a565b005b3480156107a857600080fd5b506108ac600480360360808110156107bf57600080fd5b81019080803573ffffffffffffffffffffffffffffffffffffffff169060200190929190803573ffffffffffffffffffffffffffffffffffffffff169060200190929190803590602001909291908035906020019064010000000081111561082657600080fd5b82018360208201111561083857600080fd5b8035906020019184600183028401116401000000008311171561085a57600080fd5b91908080601f016020809104026020016040519081016040528093929190818152602001838380828437600081840152601f19601f8201169050808301925050505050505091929192905050506118db565b005b3480156108ba57600080fd5b506108c3611903565b6040518082815260200191505060405180910390f35b3480156108e557600080fd5b5061091c600480360360408110156108fc57600080fd5b81019080803590602001909291908035906020019092919050505061190a565b6040518082815260200191505060405180910390f35b34801561093e57600080fd5b5061096b6004803603602081101561095557600080fd5b8101908080359060200190929190505050611b45565b6040518082815260200191505060405180910390f35b34801561098d57600080fd5b506109d0600480360360208110156109a457600080fd5b81019080803573ffffffffffffffffffffffffffffffffffffffff169060200190929190505050611b62565b604051808215151515815260200191505060405180910390f35b3480156109f657600080fd5b506109ff611b82565b6040518082815260200191505060405180910390f35b348015610a2157600080fd5b50610a8460048036036040811015610a3857600080fd5b81019080803573ffffffffffffffffffffffffffffffffffffffff169060200190929190803573ffffffffffffffffffffffffffffffffffffffff169060200190929190505050611b88565b604051808215151515815260200191505060405180910390f35b348015610aaa57600080fd5b50610aed60048036036020811015610ac157600080fd5b81019080803573ffffffffffffffffffffffffffffffffffffffff169060200190929190505050611c1c565b005b348015610afb57600080fd5b50610b3e60048036036020811015610b1257600080fd5b81019080803573ffffffffffffffffffffffffffffffffffffffff169060200190929190505050611c3b565b005b348015610b4c57600080fd5b50610ba360048036036060811015610b6357600080fd5b8101908080359060200190929190803573ffffffffffffffffffffffffffffffffffffffff16906020019092919080359060200190929190505050611cec565b6040518082815260200191505060405180910390f35b600060405180807f737570706f727473496e74657266616365286279746573342900000000000000815250601901905060405180910390207bffffffffffffffffffffffffffffffffffffffffffffffffffffffff1916827bffffffffffffffffffffffffffffffffffffffffffffffffffffffff19161480610efe575060405180807f736166655472616e7366657246726f6d28616464726573732c6164647265737381526020017f2c75696e743235362c6279746573290000000000000000000000000000000000815250602f019050604051809103902060405180807f736166655472616e7366657246726f6d28616464726573732c6164647265737381526020017f2c75696e743235362900000000000000000000000000000000000000000000008152506029019050604051809103902060405180807f7472616e7366657246726f6d28616464726573732c616464726573732c75696e81526020017f74323536290000000000000000000000000000000000000000000000000000008152506025019050604051809103902060405180807f6973417070726f766564466f72416c6c28616464726573732c6164647265737381526020017f29000000000000000000000000000000000000000000000000000000000000008152506021019050604051809103902060405180807f736574417070726f76616c466f72416c6c28616464726573732c626f6f6c2900815250601f019050604051809103902060405180807f676574417070726f7665642875696e74323536290000000000000000000000008152506014019050604051809103902060405180807f617070726f766528616464726573732c75696e743235362900000000000000008152506018019050604051809103902060405180807f6f776e65724f662875696e7432353629000000000000000000000000000000008152506010019050604051809103902060405180807f62616c616e63654f6628616464726573732900000000000000000000000000008152506012019050604051809103902018181818181818187bffffffffffffffffffffffffffffffffffffffffffffffffffffffff1916827bffffffffffffffffffffffffffffffffffffffffffffffffffffffff1916145b80610f7b575060405180807f7265636c61696d2875696e743235362c61646472657373290000000000000000815250601801905060405180910390207bffffffffffffffffffffffffffffffffffffffffffffffffffffffff1916827bffffffffffffffffffffffffffffffffffffffffffffffffffffffff1916145b9050919050565b6000610f8d82611d04565b1515610f9857600080fd5b6006600083815260200190815260200160002060009054906101000a900473ffffffffffffffffffffffffffffffffffffffff169050919050565b6000610fde826114bd565b90508073ffffffffffffffffffffffffffffffffffffffff168373ffffffffffffffffffffffffffffffffffffffff161415151561101b57600080fd5b8073ffffffffffffffffffffffffffffffffffffffff163373ffffffffffffffffffffffffffffffffffffffff16148061105b575061105a8133611b88565b5b151561106657600080fd5b826006600084815260200190815260200160002060006101000a81548173ffffffffffffffffffffffffffffffffffffffff021916908373ffffffffffffffffffffffffffffffffffffffff160217905550818373ffffffffffffffffffffffffffffffffffffffff168273ffffffffffffffffffffffffffffffffffffffff167f8c5be1e5ebec7d5bd14f71427d1e84f3dd0314c0f7b2291e5b200ac8c7c3b92560405160405180910390a4505050565b60006111278484846000611d76565b90509392505050565b61113a33826120b2565b151561114557600080fd5b611150838383612147565b505050565b3073ffffffffffffffffffffffffffffffffffffffff16600260009054906101000a900473ffffffffffffffffffffffffffffffffffffffff1673ffffffffffffffffffffffffffffffffffffffff166302571be36003546040518263ffffffff167c01000000000000000000000000000000000000000000000000000000000281526004018082815260200191505060206040518083038186803b1580156111fd57600080fd5b505afa158015611211573d6000803e3d6000fd5b505050506040513d602081101561122757600080fd5b810190808051906020019092919050505073ffffffffffffffffffffffffffffffffffffffff1614151561125a57600080fd5b61126433836120b2565b151561126f57600080fd5b600260009054906101000a900473ffffffffffffffffffffffffffffffffffffffff1673ffffffffffffffffffffffffffffffffffffffff166306ab592360035484600102846040518463ffffffff167c0100000000000000000000000000000000000000000000000000000000028152600401808481526020018381526020018273ffffffffffffffffffffffffffffffffffffffff1673ffffffffffffffffffffffffffffffffffffffff1681526020019350505050602060405180830381600087803b15801561134157600080fd5b505af1158015611355573d6000803e3d6000fd5b505050506040513d602081101561136b57600080fd5b8101908080519060200190929190505050505050565b600260009054906101000a900473ffffffffffffffffffffffffffffffffffffffff1681565b6113c383838360206040519081016040528060008152506118db565b505050565b6113d0611672565b15156113db57600080fd5b600260009054906101000a900473ffffffffffffffffffffffffffffffffffffffff1673ffffffffffffffffffffffffffffffffffffffff16631896f70a600354836040518363ffffffff167c0100000000000000000000000000000000000000000000000000000000028152600401808381526020018273ffffffffffffffffffffffffffffffffffffffff1673ffffffffffffffffffffffffffffffffffffffff16815260200192505050600060405180830381600087803b1580156114a257600080fd5b505af11580156114b6573d6000803e3d6000fd5b5050505050565b60004260096000848152602001908152602001600020541115156114e057600080fd5b6114e9826123ac565b9050919050565b60008073ffffffffffffffffffffffffffffffffffffffff168273ffffffffffffffffffffffffffffffffffffffff161415151561152d57600080fd5b600760008373ffffffffffffffffffffffffffffffffffffffff1673ffffffffffffffffffffffffffffffffffffffff168152602001908152602001600020549050919050565b61157c611672565b151561158757600080fd5b600073ffffffffffffffffffffffffffffffffffffffff16600160009054906101000a900473ffffffffffffffffffffffffffffffffffffffff1673ffffffffffffffffffffffffffffffffffffffff167f8be0079c531659141344cd1fd0a4f28419497f9722a3daafe3b4186f6b6457e060405160405180910390a36000600160006101000a81548173ffffffffffffffffffffffffffffffffffffffff021916908373ffffffffffffffffffffffffffffffffffffffff160217905550565b6000600160009054906101000a900473ffffffffffffffffffffffffffffffffffffffff16905090565b6000600160009054906101000a900473ffffffffffffffffffffffffffffffffffffffff1673ffffffffffffffffffffffffffffffffffffffff163373ffffffffffffffffffffffffffffffffffffffff1614905090565b6000426276a700600960008581526020019081526020016000205401109050919050565b3373ffffffffffffffffffffffffffffffffffffffff168273ffffffffffffffffffffffffffffffffffffffff161415151561172957600080fd5b80600860003373ffffffffffffffffffffffffffffffffffffffff1673ffffffffffffffffffffffffffffffffffffffff16815260200190815260200160002060008473ffffffffffffffffffffffffffffffffffffffff1673ffffffffffffffffffffffffffffffffffffffff16815260200190815260200160002060006101000a81548160ff0219169083151502179055508173ffffffffffffffffffffffffffffffffffffffff163373ffffffffffffffffffffffffffffffffffffffff167f17307eab39ab6107e8899845ad3d59bd9653f200f220920489ca2b5937696c3183604051808215151515815260200191505060405180910390a35050565b611832611672565b151561183d57600080fd5b6001600460008373ffffffffffffffffffffffffffffffffffffffff1673ffffffffffffffffffffffffffffffffffffffff16815260200190815260200160002060006101000a81548160ff0219169083151502179055508073ffffffffffffffffffffffffffffffffffffffff167f0a8bb31534c0ed46f380cb867bd5c803a189ced9a764e30b3a4991a9901d747460405160405180910390a250565b6118e6848484611130565b6118f28484848461242a565b15156118fd57600080fd5b50505050565b6276a70081565b60003073ffffffffffffffffffffffffffffffffffffffff16600260009054906101000a900473ffffffffffffffffffffffffffffffffffffffff1673ffffffffffffffffffffffffffffffffffffffff166302571be36003546040518263ffffffff167c01000000000000000000000000000000000000000000000000000000000281526004018082815260200191505060206040518083038186803b1580156119b457600080fd5b505afa1580156119c8573d6000803e3d6000fd5b505050506040513d60208110156119de57600080fd5b810190808051906020019092919050505073ffffffffffffffffffffffffffffffffffffffff16141515611a1157600080fd5b600460003373ffffffffffffffffffffffffffffffffffffffff1673ffffffffffffffffffffffffffffffffffffffff16815260200190815260200160002060009054906101000a900460ff161515611a6957600080fd5b426276a70060096000868152602001908152602001600020540110151515611a9057600080fd5b6276a70082016276a7008360096000878152602001908152602001600020540101111515611abd57600080fd5b816009600085815260200190815260200160002060008282540192505081905550827f9b87a00e30f1ac65d898f070f8a3488fe60517182d0a2098e1b4b93a54aa9bd660096000868152602001908152602001600020546040518082815260200191505060405180910390a26009600084815260200190815260200160002054905092915050565b600060096000838152602001908152602001600020549050919050565b60046020528060005260406000206000915054906101000a900460ff1681565b60035481565b6000600860008473ffffffffffffffffffffffffffffffffffffffff1673ffffffffffffffffffffffffffffffffffffffff16815260200190815260200160002060008373ffffffffffffffffffffffffffffffffffffffff1673ffffffffffffffffffffffffffffffffffffffff16815260200190815260200160002060009054906101000a900460ff16905092915050565b611c24611672565b1515611c2f57600080fd5b611c388161264d565b50565b611c43611672565b1515611c4e57600080fd5b6000600460008373ffffffffffffffffffffffffffffffffffffffff1673ffffffffffffffffffffffffffffffffffffffff16815260200190815260200160002060006101000a81548160ff0219169083151502179055508073ffffffffffffffffffffffffffffffffffffffff167f33d83959be2573f5453b12eb9d43b3499bc57d96bd2f067ba44803c859e8111360405160405180910390a250565b6000611cfb8484846001611d76565b90509392505050565b6000806005600084815260200190815260200160002060009054906101000a900473ffffffffffffffffffffffffffffffffffffffff169050600073ffffffffffffffffffffffffffffffffffffffff168173ffffffffffffffffffffffffffffffffffffffff161415915050919050565b60003073ffffffffffffffffffffffffffffffffffffffff16600260009054906101000a900473ffffffffffffffffffffffffffffffffffffffff1673ffffffffffffffffffffffffffffffffffffffff166302571be36003546040518263ffffffff167c01000000000000000000000000000000000000000000000000000000000281526004018082815260200191505060206040518083038186803b158015611e2057600080fd5b505afa158015611e34573d6000803e3d6000fd5b505050506040513d6020811015611e4a57600080fd5b810190808051906020019092919050505073ffffffffffffffffffffffffffffffffffffffff16141515611e7d57600080fd5b600460003373ffffffffffffffffffffffffffffffffffffffff1673ffffffffffffffffffffffffffffffffffffffff16815260200190815260200160002060009054906101000a900460ff161515611ed557600080fd5b611ede856116ca565b1515611ee957600080fd5b6276a70042016276a70084420101111515611f0357600080fd5b8242016009600087815260200190815260200160002081905550611f2685611d04565b15611f3557611f3485612749565b5b611f3f848661275e565b811561205457600260009054906101000a900473ffffffffffffffffffffffffffffffffffffffff1673ffffffffffffffffffffffffffffffffffffffff166306ab592360035487600102876040518463ffffffff167c0100000000000000000000000000000000000000000000000000000000028152600401808481526020018381526020018273ffffffffffffffffffffffffffffffffffffffff1673ffffffffffffffffffffffffffffffffffffffff1681526020019350505050602060405180830381600087803b15801561201757600080fd5b505af115801561202b573d6000803e3d6000fd5b505050506040513d602081101561204157600080fd5b8101908080519060200190929190505050505b8373ffffffffffffffffffffffffffffffffffffffff16857fb3d987963d01b2f68493b4bdb130988f157ea43070d4ad840fee0466ed9370d98542016040518082815260200191505060405180910390a38242019050949350505050565b6000806120be836114bd565b90508073ffffffffffffffffffffffffffffffffffffffff168473ffffffffffffffffffffffffffffffffffffffff16148061212d57508373ffffffffffffffffffffffffffffffffffffffff1661211584610f82565b73ffffffffffffffffffffffffffffffffffffffff16145b8061213e575061213d8185611b88565b5b91505092915050565b8273ffffffffffffffffffffffffffffffffffffffff16612167826114bd565b73ffffffffffffffffffffffffffffffffffffffff1614151561218957600080fd5b600073ffffffffffffffffffffffffffffffffffffffff168273ffffffffffffffffffffffffffffffffffffffff16141515156121c557600080fd5b6121ce816128f7565b6122216001600760008673ffffffffffffffffffffffffffffffffffffffff1673ffffffffffffffffffffffffffffffffffffffff168152602001908152602001600020546129b790919063ffffffff16565b600760008573ffffffffffffffffffffffffffffffffffffffff1673ffffffffffffffffffffffffffffffffffffffff168152602001908152602001600020819055506122b76001600760008573ffffffffffffffffffffffffffffffffffffffff1673ffffffffffffffffffffffffffffffffffffffff168152602001908152602001600020546129d990919063ffffffff16565b600760008473ffffffffffffffffffffffffffffffffffffffff1673ffffffffffffffffffffffffffffffffffffffff16815260200190815260200160002081905550816005600083815260200190815260200160002060006101000a81548173ffffffffffffffffffffffffffffffffffffffff021916908373ffffffffffffffffffffffffffffffffffffffff160217905550808273ffffffffffffffffffffffffffffffffffffffff168473ffffffffffffffffffffffffffffffffffffffff167fddf252ad1be2c89b69c2b068fc378daa952ba7f163c4a11628f55a4df523b3ef60405160405180910390a4505050565b6000806005600084815260200190815260200160002060009054906101000a900473ffffffffffffffffffffffffffffffffffffffff169050600073ffffffffffffffffffffffffffffffffffffffff168173ffffffffffffffffffffffffffffffffffffffff161415151561242157600080fd5b80915050919050565b600061244b8473ffffffffffffffffffffffffffffffffffffffff166129fa565b151561245a5760019050612645565b60008473ffffffffffffffffffffffffffffffffffffffff1663150b7a02338887876040518563ffffffff167c0100000000000000000000000000000000000000000000000000000000028152600401808573ffffffffffffffffffffffffffffffffffffffff1673ffffffffffffffffffffffffffffffffffffffff1681526020018473ffffffffffffffffffffffffffffffffffffffff1673ffffffffffffffffffffffffffffffffffffffff16815260200183815260200180602001828103825283818151815260200191508051906020019080838360005b83811015612551578082015181840152602081019050612536565b50505050905090810190601f16801561257e5780820380516001836020036101000a031916815260200191505b5095505050505050602060405180830381600087803b1580156125a057600080fd5b505af11580156125b4573d6000803e3d6000fd5b505050506040513d60208110156125ca57600080fd5b8101908080519060200190929190505050905063150b7a027c0100000000000000000000000000000000000000000000000000000000027bffffffffffffffffffffffffffffffffffffffffffffffffffffffff1916817bffffffffffffffffffffffffffffffffffffffffffffffffffffffff1916149150505b949350505050565b600073ffffffffffffffffffffffffffffffffffffffff168173ffffffffffffffffffffffffffffffffffffffff161415151561268957600080fd5b8073ffffffffffffffffffffffffffffffffffffffff16600160009054906101000a900473ffffffffffffffffffffffffffffffffffffffff1673ffffffffffffffffffffffffffffffffffffffff167f8be0079c531659141344cd1fd0a4f28419497f9722a3daafe3b4186f6b6457e060405160405180910390a380600160006101000a81548173ffffffffffffffffffffffffffffffffffffffff021916908373ffffffffffffffffffffffffffffffffffffffff16021790555050565b61275b612755826114bd565b82612a0d565b50565b600073ffffffffffffffffffffffffffffffffffffffff168273ffffffffffffffffffffffffffffffffffffffff161415151561279a57600080fd5b6127a381611d04565b1515156127af57600080fd5b816005600083815260200190815260200160002060006101000a81548173ffffffffffffffffffffffffffffffffffffffff021916908373ffffffffffffffffffffffffffffffffffffffff1602179055506128546001600760008573ffffffffffffffffffffffffffffffffffffffff1673ffffffffffffffffffffffffffffffffffffffff168152602001908152602001600020546129d990919063ffffffff16565b600760008473ffffffffffffffffffffffffffffffffffffffff1673ffffffffffffffffffffffffffffffffffffffff16815260200190815260200160002081905550808273ffffffffffffffffffffffffffffffffffffffff16600073ffffffffffffffffffffffffffffffffffffffff167fddf252ad1be2c89b69c2b068fc378daa952ba7f163c4a11628f55a4df523b3ef60405160405180910390a45050565b600073ffffffffffffffffffffffffffffffffffffffff166006600083815260200190815260200160002060009054906101000a900473ffffffffffffffffffffffffffffffffffffffff1673ffffffffffffffffffffffffffffffffffffffff161415156129b45760006006600083815260200190815260200160002060006101000a81548173ffffffffffffffffffffffffffffffffffffffff021916908373ffffffffffffffffffffffffffffffffffffffff1602179055505b50565b60008282111515156129c857600080fd5b600082840390508091505092915050565b60008082840190508381101515156129f057600080fd5b8091505092915050565b600080823b905060008111915050919050565b8173ffffffffffffffffffffffffffffffffffffffff16612a2d826114bd565b73ffffffffffffffffffffffffffffffffffffffff16141515612a4f57600080fd5b612a58816128f7565b612aab6001600760008573ffffffffffffffffffffffffffffffffffffffff1673ffffffffffffffffffffffffffffffffffffffff168152602001908152602001600020546129b790919063ffffffff16565b600760008473ffffffffffffffffffffffffffffffffffffffff1673ffffffffffffffffffffffffffffffffffffffff1681526020019081526020016000208190555060006005600083815260200190815260200160002060006101000a81548173ffffffffffffffffffffffffffffffffffffffff021916908373ffffffffffffffffffffffffffffffffffffffff16021790555080600073ffffffffffffffffffffffffffffffffffffffff168373ffffffffffffffffffffffffffffffffffffffff167fddf252ad1be2c89b69c2b068fc378daa952ba7f163c4a11628f55a4df523b3ef60405160405180910390a4505056fea165627a7a7230582029e451f665c3e9a22b6ea79ad6b3555c7fb50f4ada9a2356eb60cc650b94fd8f0029",
					"opcodes": "PUSH1 0x80 PUSH1 0x40 MSTORE CALLVALUE DUP1 ISZERO PUSH3 0x11 JUMPI PUSH1 0x0 DUP1 REVERT JUMPDEST POP PUSH1 0x40 MLOAD PUSH1 0x40 DUP1 PUSH3 0x2E71 DUP4 CODECOPY DUP2 ADD DUP1 PUSH1 0x40 MSTORE PUSH1 0x40 DUP2 LT ISZERO PUSH3 0x33 JUMPI PUSH1 0x0 DUP1 REVERT JUMPDEST DUP2 ADD SWAP1 DUP1 DUP1 MLOAD SWAP1 PUSH1 0x20 ADD SWAP1 SWAP3 SWAP2 SWAP1 DUP1 MLOAD SWAP1 PUSH1 0x20 ADD SWAP1 SWAP3 SWAP2 SWAP1 POP POP POP PUSH3 0x8B PUSH4 0x1FFC9A7 PUSH29 0x100000000000000000000000000000000000000000000000000000000 MUL PUSH3 0x1D6 PUSH5 0x100000000 MUL PUSH5 0x100000000 SWAP1 DIV JUMP JUMPDEST CALLER PUSH1 0x1 PUSH1 0x0 PUSH2 0x100 EXP DUP2 SLOAD DUP2 PUSH20 0xFFFFFFFFFFFFFFFFFFFFFFFFFFFFFFFFFFFFFFFF MUL NOT AND SWAP1 DUP4 PUSH20 0xFFFFFFFFFFFFFFFFFFFFFFFFFFFFFFFFFFFFFFFF AND MUL OR SWAP1 SSTORE POP PUSH1 0x1 PUSH1 0x0 SWAP1 SLOAD SWAP1 PUSH2 0x100 EXP SWAP1 DIV PUSH20 0xFFFFFFFFFFFFFFFFFFFFFFFFFFFFFFFFFFFFFFFF AND PUSH20 0xFFFFFFFFFFFFFFFFFFFFFFFFFFFFFFFFFFFFFFFF AND PUSH1 0x0 PUSH20 0xFFFFFFFFFFFFFFFFFFFFFFFFFFFFFFFFFFFFFFFF AND PUSH32 0x8BE0079C531659141344CD1FD0A4F28419497F9722A3DAAFE3B4186F6B6457E0 PUSH1 0x40 MLOAD PUSH1 0x40 MLOAD DUP1 SWAP2 SUB SWAP1 LOG3 PUSH3 0x186 PUSH4 0x80AC58CD PUSH29 0x100000000000000000000000000000000000000000000000000000000 MUL PUSH3 0x1D6 PUSH5 0x100000000 MUL PUSH5 0x100000000 SWAP1 DIV JUMP JUMPDEST DUP2 PUSH1 0x2 PUSH1 0x0 PUSH2 0x100 EXP DUP2 SLOAD DUP2 PUSH20 0xFFFFFFFFFFFFFFFFFFFFFFFFFFFFFFFFFFFFFFFF MUL NOT AND SWAP1 DUP4 PUSH20 0xFFFFFFFFFFFFFFFFFFFFFFFFFFFFFFFFFFFFFFFF AND MUL OR SWAP1 SSTORE POP DUP1 PUSH1 0x3 DUP2 SWAP1 SSTORE POP POP POP PUSH3 0x294 JUMP JUMPDEST PUSH4 0xFFFFFFFF PUSH29 0x100000000000000000000000000000000000000000000000000000000 MUL DUP2 PUSH28 0xFFFFFFFFFFFFFFFFFFFFFFFFFFFFFFFFFFFFFFFFFFFFFFFFFFFFFFFF NOT AND EQ ISZERO ISZERO ISZERO PUSH3 0x228 JUMPI PUSH1 0x0 DUP1 REVERT JUMPDEST PUSH1 0x1 PUSH1 0x0 DUP1 DUP4 PUSH28 0xFFFFFFFFFFFFFFFFFFFFFFFFFFFFFFFFFFFFFFFFFFFFFFFFFFFFFFFF NOT AND PUSH28 0xFFFFFFFFFFFFFFFFFFFFFFFFFFFFFFFFFFFFFFFFFFFFFFFFFFFFFFFF NOT AND DUP2 MSTORE PUSH1 0x20 ADD SWAP1 DUP2 MSTORE PUSH1 0x20 ADD PUSH1 0x0 KECCAK256 PUSH1 0x0 PUSH2 0x100 EXP DUP2 SLOAD DUP2 PUSH1 0xFF MUL NOT AND SWAP1 DUP4 ISZERO ISZERO MUL OR SWAP1 SSTORE POP POP JUMP JUMPDEST PUSH2 0x2BCD DUP1 PUSH3 0x2A4 PUSH1 0x0 CODECOPY PUSH1 0x0 RETURN INVALID PUSH1 0x80 PUSH1 0x40 MSTORE PUSH1 0x4 CALLDATASIZE LT PUSH2 0x15F JUMPI PUSH1 0x0 CALLDATALOAD PUSH29 0x100000000000000000000000000000000000000000000000000000000 SWAP1 DIV PUSH4 0xFFFFFFFF AND DUP1 PUSH4 0x1FFC9A7 EQ PUSH2 0x164 JUMPI DUP1 PUSH4 0x81812FC EQ PUSH2 0x1D6 JUMPI DUP1 PUSH4 0x95EA7B3 EQ PUSH2 0x251 JUMPI DUP1 PUSH4 0xE297B45 EQ PUSH2 0x2AC JUMPI DUP1 PUSH4 0x23B872DD EQ PUSH2 0x325 JUMPI DUP1 PUSH4 0x28ED4F6C EQ PUSH2 0x3A0 JUMPI DUP1 PUSH4 0x3F15457F EQ PUSH2 0x3FB JUMPI DUP1 PUSH4 0x42842E0E EQ PUSH2 0x452 JUMPI DUP1 PUSH4 0x4E543B26 EQ PUSH2 0x4CD JUMPI DUP1 PUSH4 0x6352211E EQ PUSH2 0x51E JUMPI DUP1 PUSH4 0x70A08231 EQ PUSH2 0x599 JUMPI DUP1 PUSH4 0x715018A6 EQ PUSH2 0x5FE JUMPI DUP1 PUSH4 0x8DA5CB5B EQ PUSH2 0x615 JUMPI DUP1 PUSH4 0x8F32D59B EQ PUSH2 0x66C JUMPI DUP1 PUSH4 0x96E494E8 EQ PUSH2 0x69B JUMPI DUP1 PUSH4 0xA22CB465 EQ PUSH2 0x6EE JUMPI DUP1 PUSH4 0xA7FC7A07 EQ PUSH2 0x74B JUMPI DUP1 PUSH4 0xB88D4FDE EQ PUSH2 0x79C JUMPI DUP1 PUSH4 0xC1A287E2 EQ PUSH2 0x8AE JUMPI DUP1 PUSH4 0xC475ABFF EQ PUSH2 0x8D9 JUMPI DUP1 PUSH4 0xD6E4FA86 EQ PUSH2 0x932 JUMPI DUP1 PUSH4 0xDA8C229E EQ PUSH2 0x981 JUMPI DUP1 PUSH4 0xDDF7FCB0 EQ PUSH2 0x9EA JUMPI DUP1 PUSH4 0xE985E9C5 EQ PUSH2 0xA15 JUMPI DUP1 PUSH4 0xF2FDE38B EQ PUSH2 0xA9E JUMPI DUP1 PUSH4 0xF6A74ED7 EQ PUSH2 0xAEF JUMPI DUP1 PUSH4 0xFCA247AC EQ PUSH2 0xB40 JUMPI JUMPDEST PUSH1 0x0 DUP1 REVERT JUMPDEST CALLVALUE DUP1 ISZERO PUSH2 0x170 JUMPI PUSH1 0x0 DUP1 REVERT JUMPDEST POP PUSH2 0x1BC PUSH1 0x4 DUP1 CALLDATASIZE SUB PUSH1 0x20 DUP2 LT ISZERO PUSH2 0x187 JUMPI PUSH1 0x0 DUP1 REVERT JUMPDEST DUP2 ADD SWAP1 DUP1 DUP1 CALLDATALOAD PUSH28 0xFFFFFFFFFFFFFFFFFFFFFFFFFFFFFFFFFFFFFFFFFFFFFFFFFFFFFFFF NOT AND SWAP1 PUSH1 0x20 ADD SWAP1 SWAP3 SWAP2 SWAP1 POP POP POP PUSH2 0xBB9 JUMP JUMPDEST PUSH1 0x40 MLOAD DUP1 DUP3 ISZERO ISZERO ISZERO ISZERO DUP2 MSTORE PUSH1 0x20 ADD SWAP2 POP POP PUSH1 0x40 MLOAD DUP1 SWAP2 SUB SWAP1 RETURN JUMPDEST CALLVALUE DUP1 ISZERO PUSH2 0x1E2 JUMPI PUSH1 0x0 DUP1 REVERT JUMPDEST POP PUSH2 0x20F PUSH1 0x4 DUP1 CALLDATASIZE SUB PUSH1 0x20 DUP2 LT ISZERO PUSH2 0x1F9 JUMPI PUSH1 0x0 DUP1 REVERT JUMPDEST DUP2 ADD SWAP1 DUP1 DUP1 CALLDATALOAD SWAP1 PUSH1 0x20 ADD SWAP1 SWAP3 SWAP2 SWAP1 POP POP POP PUSH2 0xF82 JUMP JUMPDEST PUSH1 0x40 MLOAD DUP1 DUP3 PUSH20 0xFFFFFFFFFFFFFFFFFFFFFFFFFFFFFFFFFFFFFFFF AND PUSH20 0xFFFFFFFFFFFFFFFFFFFFFFFFFFFFFFFFFFFFFFFF AND DUP2 MSTORE PUSH1 0x20 ADD SWAP2 POP POP PUSH1 0x40 MLOAD DUP1 SWAP2 SUB SWAP1 RETURN JUMPDEST CALLVALUE DUP1 ISZERO PUSH2 0x25D JUMPI PUSH1 0x0 DUP1 REVERT JUMPDEST POP PUSH2 0x2AA PUSH1 0x4 DUP1 CALLDATASIZE SUB PUSH1 0x40 DUP2 LT ISZERO PUSH2 0x274 JUMPI PUSH1 0x0 DUP1 REVERT JUMPDEST DUP2 ADD SWAP1 DUP1 DUP1 CALLDATALOAD PUSH20 0xFFFFFFFFFFFFFFFFFFFFFFFFFFFFFFFFFFFFFFFF AND SWAP1 PUSH1 0x20 ADD SWAP1 SWAP3 SWAP2 SWAP1 DUP1 CALLDATALOAD SWAP1 PUSH1 0x20 ADD SWAP1 SWAP3 SWAP2 SWAP1 POP POP POP PUSH2 0xFD3 JUMP JUMPDEST STOP JUMPDEST CALLVALUE DUP1 ISZERO PUSH2 0x2B8 JUMPI PUSH1 0x0 DUP1 REVERT JUMPDEST POP PUSH2 0x30F PUSH1 0x4 DUP1 CALLDATASIZE SUB PUSH1 0x60 DUP2 LT ISZERO PUSH2 0x2CF JUMPI PUSH1 0x0 DUP1 REVERT JUMPDEST DUP2 ADD SWAP1 DUP1 DUP1 CALLDATALOAD SWAP1 PUSH1 0x20 ADD SWAP1 SWAP3 SWAP2 SWAP1 DUP1 CALLDATALOAD PUSH20 0xFFFFFFFFFFFFFFFFFFFFFFFFFFFFFFFFFFFFFFFF AND SWAP1 PUSH1 0x20 ADD SWAP1 SWAP3 SWAP2 SWAP1 DUP1 CALLDATALOAD SWAP1 PUSH1 0x20 ADD SWAP1 SWAP3 SWAP2 SWAP1 POP POP POP PUSH2 0x1118 JUMP JUMPDEST PUSH1 0x40 MLOAD DUP1 DUP3 DUP2 MSTORE PUSH1 0x20 ADD SWAP2 POP POP PUSH1 0x40 MLOAD DUP1 SWAP2 SUB SWAP1 RETURN JUMPDEST CALLVALUE DUP1 ISZERO PUSH2 0x331 JUMPI PUSH1 0x0 DUP1 REVERT JUMPDEST POP PUSH2 0x39E PUSH1 0x4 DUP1 CALLDATASIZE SUB PUSH1 0x60 DUP2 LT ISZERO PUSH2 0x348 JUMPI PUSH1 0x0 DUP1 REVERT JUMPDEST DUP2 ADD SWAP1 DUP1 DUP1 CALLDATALOAD PUSH20 0xFFFFFFFFFFFFFFFFFFFFFFFFFFFFFFFFFFFFFFFF AND SWAP1 PUSH1 0x20 ADD SWAP1 SWAP3 SWAP2 SWAP1 DUP1 CALLDATALOAD PUSH20 0xFFFFFFFFFFFFFFFFFFFFFFFFFFFFFFFFFFFFFFFF AND SWAP1 PUSH1 0x20 ADD SWAP1 SWAP3 SWAP2 SWAP1 DUP1 CALLDATALOAD SWAP1 PUSH1 0x20 ADD SWAP1 SWAP3 SWAP2 SWAP1 POP POP POP PUSH2 0x1130 JUMP JUMPDEST STOP JUMPDEST CALLVALUE DUP1 ISZERO PUSH2 0x3AC JUMPI PUSH1 0x0 DUP1 REVERT JUMPDEST POP PUSH2 0x3F9 PUSH1 0x4 DUP1 CALLDATASIZE SUB PUSH1 0x40 DUP2 LT ISZERO PUSH2 0x3C3 JUMPI PUSH1 0x0 DUP1 REVERT JUMPDEST DUP2 ADD SWAP1 DUP1 DUP1 CALLDATALOAD SWAP1 PUSH1 0x20 ADD SWAP1 SWAP3 SWAP2 SWAP1 DUP1 CALLDATALOAD PUSH20 0xFFFFFFFFFFFFFFFFFFFFFFFFFFFFFFFFFFFFFFFF AND SWAP1 PUSH1 0x20 ADD SWAP1 SWAP3 SWAP2 SWAP1 POP POP POP PUSH2 0x1155 JUMP JUMPDEST STOP JUMPDEST CALLVALUE DUP1 ISZERO PUSH2 0x407 JUMPI PUSH1 0x0 DUP1 REVERT JUMPDEST POP PUSH2 0x410 PUSH2 0x1381 JUMP JUMPDEST PUSH1 0x40 MLOAD DUP1 DUP3 PUSH20 0xFFFFFFFFFFFFFFFFFFFFFFFFFFFFFFFFFFFFFFFF AND PUSH20 0xFFFFFFFFFFFFFFFFFFFFFFFFFFFFFFFFFFFFFFFF AND DUP2 MSTORE PUSH1 0x20 ADD SWAP2 POP POP PUSH1 0x40 MLOAD DUP1 SWAP2 SUB SWAP1 RETURN JUMPDEST CALLVALUE DUP1 ISZERO PUSH2 0x45E JUMPI PUSH1 0x0 DUP1 REVERT JUMPDEST POP PUSH2 0x4CB PUSH1 0x4 DUP1 CALLDATASIZE SUB PUSH1 0x60 DUP2 LT ISZERO PUSH2 0x475 JUMPI PUSH1 0x0 DUP1 REVERT JUMPDEST DUP2 ADD SWAP1 DUP1 DUP1 CALLDATALOAD PUSH20 0xFFFFFFFFFFFFFFFFFFFFFFFFFFFFFFFFFFFFFFFF AND SWAP1 PUSH1 0x20 ADD SWAP1 SWAP3 SWAP2 SWAP1 DUP1 CALLDATALOAD PUSH20 0xFFFFFFFFFFFFFFFFFFFFFFFFFFFFFFFFFFFFFFFF AND SWAP1 PUSH1 0x20 ADD SWAP1 SWAP3 SWAP2 SWAP1 DUP1 CALLDATALOAD SWAP1 PUSH1 0x20 ADD SWAP1 SWAP3 SWAP2 SWAP1 POP POP POP PUSH2 0x13A7 JUMP JUMPDEST STOP JUMPDEST CALLVALUE DUP1 ISZERO PUSH2 0x4D9 JUMPI PUSH1 0x0 DUP1 REVERT JUMPDEST POP PUSH2 0x51C PUSH1 0x4 DUP1 CALLDATASIZE SUB PUSH1 0x20 DUP2 LT ISZERO PUSH2 0x4F0 JUMPI PUSH1 0x0 DUP1 REVERT JUMPDEST DUP2 ADD SWAP1 DUP1 DUP1 CALLDATALOAD PUSH20 0xFFFFFFFFFFFFFFFFFFFFFFFFFFFFFFFFFFFFFFFF AND SWAP1 PUSH1 0x20 ADD SWAP1 SWAP3 SWAP2 SWAP1 POP POP POP PUSH2 0x13C8 JUMP JUMPDEST STOP JUMPDEST CALLVALUE DUP1 ISZERO PUSH2 0x52A JUMPI PUSH1 0x0 DUP1 REVERT JUMPDEST POP PUSH2 0x557 PUSH1 0x4 DUP1 CALLDATASIZE SUB PUSH1 0x20 DUP2 LT ISZERO PUSH2 0x541 JUMPI PUSH1 0x0 DUP1 REVERT JUMPDEST DUP2 ADD SWAP1 DUP1 DUP1 CALLDATALOAD SWAP1 PUSH1 0x20 ADD SWAP1 SWAP3 SWAP2 SWAP1 POP POP POP PUSH2 0x14BD JUMP JUMPDEST PUSH1 0x40 MLOAD DUP1 DUP3 PUSH20 0xFFFFFFFFFFFFFFFFFFFFFFFFFFFFFFFFFFFFFFFF AND PUSH20 0xFFFFFFFFFFFFFFFFFFFFFFFFFFFFFFFFFFFFFFFF AND DUP2 MSTORE PUSH1 0x20 ADD SWAP2 POP POP PUSH1 0x40 MLOAD DUP1 SWAP2 SUB SWAP1 RETURN JUMPDEST CALLVALUE DUP1 ISZERO PUSH2 0x5A5 JUMPI PUSH1 0x0 DUP1 REVERT JUMPDEST POP PUSH2 0x5E8 PUSH1 0x4 DUP1 CALLDATASIZE SUB PUSH1 0x20 DUP2 LT ISZERO PUSH2 0x5BC JUMPI PUSH1 0x0 DUP1 REVERT JUMPDEST DUP2 ADD SWAP1 DUP1 DUP1 CALLDATALOAD PUSH20 0xFFFFFFFFFFFFFFFFFFFFFFFFFFFFFFFFFFFFFFFF AND SWAP1 PUSH1 0x20 ADD SWAP1 SWAP3 SWAP2 SWAP1 POP POP POP PUSH2 0x14F0 JUMP JUMPDEST PUSH1 0x40 MLOAD DUP1 DUP3 DUP2 MSTORE PUSH1 0x20 ADD SWAP2 POP POP PUSH1 0x40 MLOAD DUP1 SWAP2 SUB SWAP1 RETURN JUMPDEST CALLVALUE DUP1 ISZERO PUSH2 0x60A JUMPI PUSH1 0x0 DUP1 REVERT JUMPDEST POP PUSH2 0x613 PUSH2 0x1574 JUMP JUMPDEST STOP JUMPDEST CALLVALUE DUP1 ISZERO PUSH2 0x621 JUMPI PUSH1 0x0 DUP1 REVERT JUMPDEST POP PUSH2 0x62A PUSH2 0x1648 JUMP JUMPDEST PUSH1 0x40 MLOAD DUP1 DUP3 PUSH20 0xFFFFFFFFFFFFFFFFFFFFFFFFFFFFFFFFFFFFFFFF AND PUSH20 0xFFFFFFFFFFFFFFFFFFFFFFFFFFFFFFFFFFFFFFFF AND DUP2 MSTORE PUSH1 0x20 ADD SWAP2 POP POP PUSH1 0x40 MLOAD DUP1 SWAP2 SUB SWAP1 RETURN JUMPDEST CALLVALUE DUP1 ISZERO PUSH2 0x678 JUMPI PUSH1 0x0 DUP1 REVERT JUMPDEST POP PUSH2 0x681 PUSH2 0x1672 JUMP JUMPDEST PUSH1 0x40 MLOAD DUP1 DUP3 ISZERO ISZERO ISZERO ISZERO DUP2 MSTORE PUSH1 0x20 ADD SWAP2 POP POP PUSH1 0x40 MLOAD DUP1 SWAP2 SUB SWAP1 RETURN JUMPDEST CALLVALUE DUP1 ISZERO PUSH2 0x6A7 JUMPI PUSH1 0x0 DUP1 REVERT JUMPDEST POP PUSH2 0x6D4 PUSH1 0x4 DUP1 CALLDATASIZE SUB PUSH1 0x20 DUP2 LT ISZERO PUSH2 0x6BE JUMPI PUSH1 0x0 DUP1 REVERT JUMPDEST DUP2 ADD SWAP1 DUP1 DUP1 CALLDATALOAD SWAP1 PUSH1 0x20 ADD SWAP1 SWAP3 SWAP2 SWAP1 POP POP POP PUSH2 0x16CA JUMP JUMPDEST PUSH1 0x40 MLOAD DUP1 DUP3 ISZERO ISZERO ISZERO ISZERO DUP2 MSTORE PUSH1 0x20 ADD SWAP2 POP POP PUSH1 0x40 MLOAD DUP1 SWAP2 SUB SWAP1 RETURN JUMPDEST CALLVALUE DUP1 ISZERO PUSH2 0x6FA JUMPI PUSH1 0x0 DUP1 REVERT JUMPDEST POP PUSH2 0x749 PUSH1 0x4 DUP1 CALLDATASIZE SUB PUSH1 0x40 DUP2 LT ISZERO PUSH2 0x711 JUMPI PUSH1 0x0 DUP1 REVERT JUMPDEST DUP2 ADD SWAP1 DUP1 DUP1 CALLDATALOAD PUSH20 0xFFFFFFFFFFFFFFFFFFFFFFFFFFFFFFFFFFFFFFFF AND SWAP1 PUSH1 0x20 ADD SWAP1 SWAP3 SWAP2 SWAP1 DUP1 CALLDATALOAD ISZERO ISZERO SWAP1 PUSH1 0x20 ADD SWAP1 SWAP3 SWAP2 SWAP1 POP POP POP PUSH2 0x16EE JUMP JUMPDEST STOP JUMPDEST CALLVALUE DUP1 ISZERO PUSH2 0x757 JUMPI PUSH1 0x0 DUP1 REVERT JUMPDEST POP PUSH2 0x79A PUSH1 0x4 DUP1 CALLDATASIZE SUB PUSH1 0x20 DUP2 LT ISZERO PUSH2 0x76E JUMPI PUSH1 0x0 DUP1 REVERT JUMPDEST DUP2 ADD SWAP1 DUP1 DUP1 CALLDATALOAD PUSH20 0xFFFFFFFFFFFFFFFFFFFFFFFFFFFFFFFFFFFFFFFF AND SWAP1 PUSH1 0x20 ADD SWAP1 SWAP3 SWAP2 SWAP1 POP POP POP PUSH2 0x182A JUMP JUMPDEST STOP JUMPDEST CALLVALUE DUP1 ISZERO PUSH2 0x7A8 JUMPI PUSH1 0x0 DUP1 REVERT JUMPDEST POP PUSH2 0x8AC PUSH1 0x4 DUP1 CALLDATASIZE SUB PUSH1 0x80 DUP2 LT ISZERO PUSH2 0x7BF JUMPI PUSH1 0x0 DUP1 REVERT JUMPDEST DUP2 ADD SWAP1 DUP1 DUP1 CALLDATALOAD PUSH20 0xFFFFFFFFFFFFFFFFFFFFFFFFFFFFFFFFFFFFFFFF AND SWAP1 PUSH1 0x20 ADD SWAP1 SWAP3 SWAP2 SWAP1 DUP1 CALLDATALOAD PUSH20 0xFFFFFFFFFFFFFFFFFFFFFFFFFFFFFFFFFFFFFFFF AND SWAP1 PUSH1 0x20 ADD SWAP1 SWAP3 SWAP2 SWAP1 DUP1 CALLDATALOAD SWAP1 PUSH1 0x20 ADD SWAP1 SWAP3 SWAP2 SWAP1 DUP1 CALLDATALOAD SWAP1 PUSH1 0x20 ADD SWAP1 PUSH5 0x100000000 DUP2 GT ISZERO PUSH2 0x826 JUMPI PUSH1 0x0 DUP1 REVERT JUMPDEST DUP3 ADD DUP4 PUSH1 0x20 DUP3 ADD GT ISZERO PUSH2 0x838 JUMPI PUSH1 0x0 DUP1 REVERT JUMPDEST DUP1 CALLDATALOAD SWAP1 PUSH1 0x20 ADD SWAP2 DUP5 PUSH1 0x1 DUP4 MUL DUP5 ADD GT PUSH5 0x100000000 DUP4 GT OR ISZERO PUSH2 0x85A JUMPI PUSH1 0x0 DUP1 REVERT JUMPDEST SWAP2 SWAP1 DUP1 DUP1 PUSH1 0x1F ADD PUSH1 0x20 DUP1 SWAP2 DIV MUL PUSH1 0x20 ADD PUSH1 0x40 MLOAD SWAP1 DUP2 ADD PUSH1 0x40 MSTORE DUP1 SWAP4 SWAP3 SWAP2 SWAP1 DUP2 DUP2 MSTORE PUSH1 0x20 ADD DUP4 DUP4 DUP1 DUP3 DUP5 CALLDATACOPY PUSH1 0x0 DUP2 DUP5 ADD MSTORE PUSH1 0x1F NOT PUSH1 0x1F DUP3 ADD AND SWAP1 POP DUP1 DUP4 ADD SWAP3 POP POP POP POP POP POP POP SWAP2 SWAP3 SWAP2 SWAP3 SWAP1 POP POP POP PUSH2 0x18DB JUMP JUMPDEST STOP JUMPDEST CALLVALUE DUP1 ISZERO PUSH2 0x8BA JUMPI PUSH1 0x0 DUP1 REVERT JUMPDEST POP PUSH2 0x8C3 PUSH2 0x1903 JUMP JUMPDEST PUSH1 0x40 MLOAD DUP1 DUP3 DUP2 MSTORE PUSH1 0x20 ADD SWAP2 POP POP PUSH1 0x40 MLOAD DUP1 SWAP2 SUB SWAP1 RETURN JUMPDEST CALLVALUE DUP1 ISZERO PUSH2 0x8E5 JUMPI PUSH1 0x0 DUP1 REVERT JUMPDEST POP PUSH2 0x91C PUSH1 0x4 DUP1 CALLDATASIZE SUB PUSH1 0x40 DUP2 LT ISZERO PUSH2 0x8FC JUMPI PUSH1 0x0 DUP1 REVERT JUMPDEST DUP2 ADD SWAP1 DUP1 DUP1 CALLDATALOAD SWAP1 PUSH1 0x20 ADD SWAP1 SWAP3 SWAP2 SWAP1 DUP1 CALLDATALOAD SWAP1 PUSH1 0x20 ADD SWAP1 SWAP3 SWAP2 SWAP1 POP POP POP PUSH2 0x190A JUMP JUMPDEST PUSH1 0x40 MLOAD DUP1 DUP3 DUP2 MSTORE PUSH1 0x20 ADD SWAP2 POP POP PUSH1 0x40 MLOAD DUP1 SWAP2 SUB SWAP1 RETURN JUMPDEST CALLVALUE DUP1 ISZERO PUSH2 0x93E JUMPI PUSH1 0x0 DUP1 REVERT JUMPDEST POP PUSH2 0x96B PUSH1 0x4 DUP1 CALLDATASIZE SUB PUSH1 0x20 DUP2 LT ISZERO PUSH2 0x955 JUMPI PUSH1 0x0 DUP1 REVERT JUMPDEST DUP2 ADD SWAP1 DUP1 DUP1 CALLDATALOAD SWAP1 PUSH1 0x20 ADD SWAP1 SWAP3 SWAP2 SWAP1 POP POP POP PUSH2 0x1B45 JUMP JUMPDEST PUSH1 0x40 MLOAD DUP1 DUP3 DUP2 MSTORE PUSH1 0x20 ADD SWAP2 POP POP PUSH1 0x40 MLOAD DUP1 SWAP2 SUB SWAP1 RETURN JUMPDEST CALLVALUE DUP1 ISZERO PUSH2 0x98D JUMPI PUSH1 0x0 DUP1 REVERT JUMPDEST POP PUSH2 0x9D0 PUSH1 0x4 DUP1 CALLDATASIZE SUB PUSH1 0x20 DUP2 LT ISZERO PUSH2 0x9A4 JUMPI PUSH1 0x0 DUP1 REVERT JUMPDEST DUP2 ADD SWAP1 DUP1 DUP1 CALLDATALOAD PUSH20 0xFFFFFFFFFFFFFFFFFFFFFFFFFFFFFFFFFFFFFFFF AND SWAP1 PUSH1 0x20 ADD SWAP1 SWAP3 SWAP2 SWAP1 POP POP POP PUSH2 0x1B62 JUMP JUMPDEST PUSH1 0x40 MLOAD DUP1 DUP3 ISZERO ISZERO ISZERO ISZERO DUP2 MSTORE PUSH1 0x20 ADD SWAP2 POP POP PUSH1 0x40 MLOAD DUP1 SWAP2 SUB SWAP1 RETURN JUMPDEST CALLVALUE DUP1 ISZERO PUSH2 0x9F6 JUMPI PUSH1 0x0 DUP1 REVERT JUMPDEST POP PUSH2 0x9FF PUSH2 0x1B82 JUMP JUMPDEST PUSH1 0x40 MLOAD DUP1 DUP3 DUP2 MSTORE PUSH1 0x20 ADD SWAP2 POP POP PUSH1 0x40 MLOAD DUP1 SWAP2 SUB SWAP1 RETURN JUMPDEST CALLVALUE DUP1 ISZERO PUSH2 0xA21 JUMPI PUSH1 0x0 DUP1 REVERT JUMPDEST POP PUSH2 0xA84 PUSH1 0x4 DUP1 CALLDATASIZE SUB PUSH1 0x40 DUP2 LT ISZERO PUSH2 0xA38 JUMPI PUSH1 0x0 DUP1 REVERT JUMPDEST DUP2 ADD SWAP1 DUP1 DUP1 CALLDATALOAD PUSH20 0xFFFFFFFFFFFFFFFFFFFFFFFFFFFFFFFFFFFFFFFF AND SWAP1 PUSH1 0x20 ADD SWAP1 SWAP3 SWAP2 SWAP1 DUP1 CALLDATALOAD PUSH20 0xFFFFFFFFFFFFFFFFFFFFFFFFFFFFFFFFFFFFFFFF AND SWAP1 PUSH1 0x20 ADD SWAP1 SWAP3 SWAP2 SWAP1 POP POP POP PUSH2 0x1B88 JUMP JUMPDEST PUSH1 0x40 MLOAD DUP1 DUP3 ISZERO ISZERO ISZERO ISZERO DUP2 MSTORE PUSH1 0x20 ADD SWAP2 POP POP PUSH1 0x40 MLOAD DUP1 SWAP2 SUB SWAP1 RETURN JUMPDEST CALLVALUE DUP1 ISZERO PUSH2 0xAAA JUMPI PUSH1 0x0 DUP1 REVERT JUMPDEST POP PUSH2 0xAED PUSH1 0x4 DUP1 CALLDATASIZE SUB PUSH1 0x20 DUP2 LT ISZERO PUSH2 0xAC1 JUMPI PUSH1 0x0 DUP1 REVERT JUMPDEST DUP2 ADD SWAP1 DUP1 DUP1 CALLDATALOAD PUSH20 0xFFFFFFFFFFFFFFFFFFFFFFFFFFFFFFFFFFFFFFFF AND SWAP1 PUSH1 0x20 ADD SWAP1 SWAP3 SWAP2 SWAP1 POP POP POP PUSH2 0x1C1C JUMP JUMPDEST STOP JUMPDEST CALLVALUE DUP1 ISZERO PUSH2 0xAFB JUMPI PUSH1 0x0 DUP1 REVERT JUMPDEST POP PUSH2 0xB3E PUSH1 0x4 DUP1 CALLDATASIZE SUB PUSH1 0x20 DUP2 LT ISZERO PUSH2 0xB12 JUMPI PUSH1 0x0 DUP1 REVERT JUMPDEST DUP2 ADD SWAP1 DUP1 DUP1 CALLDATALOAD PUSH20 0xFFFFFFFFFFFFFFFFFFFFFFFFFFFFFFFFFFFFFFFF AND SWAP1 PUSH1 0x20 ADD SWAP1 SWAP3 SWAP2 SWAP1 POP POP POP PUSH2 0x1C3B JUMP JUMPDEST STOP JUMPDEST CALLVALUE DUP1 ISZERO PUSH2 0xB4C JUMPI PUSH1 0x0 DUP1 REVERT JUMPDEST POP PUSH2 0xBA3 PUSH1 0x4 DUP1 CALLDATASIZE SUB PUSH1 0x60 DUP2 LT ISZERO PUSH2 0xB63 JUMPI PUSH1 0x0 DUP1 REVERT JUMPDEST DUP2 ADD SWAP1 DUP1 DUP1 CALLDATALOAD SWAP1 PUSH1 0x20 ADD SWAP1 SWAP3 SWAP2 SWAP1 DUP1 CALLDATALOAD PUSH20 0xFFFFFFFFFFFFFFFFFFFFFFFFFFFFFFFFFFFFFFFF AND SWAP1 PUSH1 0x20 ADD SWAP1 SWAP3 SWAP2 SWAP1 DUP1 CALLDATALOAD SWAP1 PUSH1 0x20 ADD SWAP1 SWAP3 SWAP2 SWAP1 POP POP POP PUSH2 0x1CEC JUMP JUMPDEST PUSH1 0x40 MLOAD DUP1 DUP3 DUP2 MSTORE PUSH1 0x20 ADD SWAP2 POP POP PUSH1 0x40 MLOAD DUP1 SWAP2 SUB SWAP1 RETURN JUMPDEST PUSH1 0x0 PUSH1 0x40 MLOAD DUP1 DUP1 PUSH32 0x737570706F727473496E74657266616365286279746573342900000000000000 DUP2 MSTORE POP PUSH1 0x19 ADD SWAP1 POP PUSH1 0x40 MLOAD DUP1 SWAP2 SUB SWAP1 KECCAK256 PUSH28 0xFFFFFFFFFFFFFFFFFFFFFFFFFFFFFFFFFFFFFFFFFFFFFFFFFFFFFFFF NOT AND DUP3 PUSH28 0xFFFFFFFFFFFFFFFFFFFFFFFFFFFFFFFFFFFFFFFFFFFFFFFFFFFFFFFF NOT AND EQ DUP1 PUSH2 0xEFE JUMPI POP PUSH1 0x40 MLOAD DUP1 DUP1 PUSH32 0x736166655472616E7366657246726F6D28616464726573732C61646472657373 DUP2 MSTORE PUSH1 0x20 ADD PUSH32 0x2C75696E743235362C6279746573290000000000000000000000000000000000 DUP2 MSTORE POP PUSH1 0x2F ADD SWAP1 POP PUSH1 0x40 MLOAD DUP1 SWAP2 SUB SWAP1 KECCAK256 PUSH1 0x40 MLOAD DUP1 DUP1 PUSH32 0x736166655472616E7366657246726F6D28616464726573732C61646472657373 DUP2 MSTORE PUSH1 0x20 ADD PUSH32 0x2C75696E74323536290000000000000000000000000000000000000000000000 DUP2 MSTORE POP PUSH1 0x29 ADD SWAP1 POP PUSH1 0x40 MLOAD DUP1 SWAP2 SUB SWAP1 KECCAK256 PUSH1 0x40 MLOAD DUP1 DUP1 PUSH32 0x7472616E7366657246726F6D28616464726573732C616464726573732C75696E DUP2 MSTORE PUSH1 0x20 ADD PUSH32 0x7432353629000000000000000000000000000000000000000000000000000000 DUP2 MSTORE POP PUSH1 0x25 ADD SWAP1 POP PUSH1 0x40 MLOAD DUP1 SWAP2 SUB SWAP1 KECCAK256 PUSH1 0x40 MLOAD DUP1 DUP1 PUSH32 0x6973417070726F766564466F72416C6C28616464726573732C61646472657373 DUP2 MSTORE PUSH1 0x20 ADD PUSH32 0x2900000000000000000000000000000000000000000000000000000000000000 DUP2 MSTORE POP PUSH1 0x21 ADD SWAP1 POP PUSH1 0x40 MLOAD DUP1 SWAP2 SUB SWAP1 KECCAK256 PUSH1 0x40 MLOAD DUP1 DUP1 PUSH32 0x736574417070726F76616C466F72416C6C28616464726573732C626F6F6C2900 DUP2 MSTORE POP PUSH1 0x1F ADD SWAP1 POP PUSH1 0x40 MLOAD DUP1 SWAP2 SUB SWAP1 KECCAK256 PUSH1 0x40 MLOAD DUP1 DUP1 PUSH32 0x676574417070726F7665642875696E7432353629000000000000000000000000 DUP2 MSTORE POP PUSH1 0x14 ADD SWAP1 POP PUSH1 0x40 MLOAD DUP1 SWAP2 SUB SWAP1 KECCAK256 PUSH1 0x40 MLOAD DUP1 DUP1 PUSH32 0x617070726F766528616464726573732C75696E74323536290000000000000000 DUP2 MSTORE POP PUSH1 0x18 ADD SWAP1 POP PUSH1 0x40 MLOAD DUP1 SWAP2 SUB SWAP1 KECCAK256 PUSH1 0x40 MLOAD DUP1 DUP1 PUSH32 0x6F776E65724F662875696E743235362900000000000000000000000000000000 DUP2 MSTORE POP PUSH1 0x10 ADD SWAP1 POP PUSH1 0x40 MLOAD DUP1 SWAP2 SUB SWAP1 KECCAK256 PUSH1 0x40 MLOAD DUP1 DUP1 PUSH32 0x62616C616E63654F662861646472657373290000000000000000000000000000 DUP2 MSTORE POP PUSH1 0x12 ADD SWAP1 POP PUSH1 0x40 MLOAD DUP1 SWAP2 SUB SWAP1 KECCAK256 XOR XOR XOR XOR XOR XOR XOR XOR PUSH28 0xFFFFFFFFFFFFFFFFFFFFFFFFFFFFFFFFFFFFFFFFFFFFFFFFFFFFFFFF NOT AND DUP3 PUSH28 0xFFFFFFFFFFFFFFFFFFFFFFFFFFFFFFFFFFFFFFFFFFFFFFFFFFFFFFFF NOT AND EQ JUMPDEST DUP1 PUSH2 0xF7B JUMPI POP PUSH1 0x40 MLOAD DUP1 DUP1 PUSH32 0x7265636C61696D2875696E743235362C61646472657373290000000000000000 DUP2 MSTORE POP PUSH1 0x18 ADD SWAP1 POP PUSH1 0x40 MLOAD DUP1 SWAP2 SUB SWAP1 KECCAK256 PUSH28 0xFFFFFFFFFFFFFFFFFFFFFFFFFFFFFFFFFFFFFFFFFFFFFFFFFFFFFFFF NOT AND DUP3 PUSH28 0xFFFFFFFFFFFFFFFFFFFFFFFFFFFFFFFFFFFFFFFFFFFFFFFFFFFFFFFF NOT AND EQ JUMPDEST SWAP1 POP SWAP2 SWAP1 POP JUMP JUMPDEST PUSH1 0x0 PUSH2 0xF8D DUP3 PUSH2 0x1D04 JUMP JUMPDEST ISZERO ISZERO PUSH2 0xF98 JUMPI PUSH1 0x0 DUP1 REVERT JUMPDEST PUSH1 0x6 PUSH1 0x0 DUP4 DUP2 MSTORE PUSH1 0x20 ADD SWAP1 DUP2 MSTORE PUSH1 0x20 ADD PUSH1 0x0 KECCAK256 PUSH1 0x0 SWAP1 SLOAD SWAP1 PUSH2 0x100 EXP SWAP1 DIV PUSH20 0xFFFFFFFFFFFFFFFFFFFFFFFFFFFFFFFFFFFFFFFF AND SWAP1 POP SWAP2 SWAP1 POP JUMP JUMPDEST PUSH1 0x0 PUSH2 0xFDE DUP3 PUSH2 0x14BD JUMP JUMPDEST SWAP1 POP DUP1 PUSH20 0xFFFFFFFFFFFFFFFFFFFFFFFFFFFFFFFFFFFFFFFF AND DUP4 PUSH20 0xFFFFFFFFFFFFFFFFFFFFFFFFFFFFFFFFFFFFFFFF AND EQ ISZERO ISZERO ISZERO PUSH2 0x101B JUMPI PUSH1 0x0 DUP1 REVERT JUMPDEST DUP1 PUSH20 0xFFFFFFFFFFFFFFFFFFFFFFFFFFFFFFFFFFFFFFFF AND CALLER PUSH20 0xFFFFFFFFFFFFFFFFFFFFFFFFFFFFFFFFFFFFFFFF AND EQ DUP1 PUSH2 0x105B JUMPI POP PUSH2 0x105A DUP2 CALLER PUSH2 0x1B88 JUMP JUMPDEST JUMPDEST ISZERO ISZERO PUSH2 0x1066 JUMPI PUSH1 0x0 DUP1 REVERT JUMPDEST DUP3 PUSH1 0x6 PUSH1 0x0 DUP5 DUP2 MSTORE PUSH1 0x20 ADD SWAP1 DUP2 MSTORE PUSH1 0x20 ADD PUSH1 0x0 KECCAK256 PUSH1 0x0 PUSH2 0x100 EXP DUP2 SLOAD DUP2 PUSH20 0xFFFFFFFFFFFFFFFFFFFFFFFFFFFFFFFFFFFFFFFF MUL NOT AND SWAP1 DUP4 PUSH20 0xFFFFFFFFFFFFFFFFFFFFFFFFFFFFFFFFFFFFFFFF AND MUL OR SWAP1 SSTORE POP DUP2 DUP4 PUSH20 0xFFFFFFFFFFFFFFFFFFFFFFFFFFFFFFFFFFFFFFFF AND DUP3 PUSH20 0xFFFFFFFFFFFFFFFFFFFFFFFFFFFFFFFFFFFFFFFF AND PUSH32 0x8C5BE1E5EBEC7D5BD14F71427D1E84F3DD0314C0F7B2291E5B200AC8C7C3B925 PUSH1 0x40 MLOAD PUSH1 0x40 MLOAD DUP1 SWAP2 SUB SWAP1 LOG4 POP POP POP JUMP JUMPDEST PUSH1 0x0 PUSH2 0x1127 DUP5 DUP5 DUP5 PUSH1 0x0 PUSH2 0x1D76 JUMP JUMPDEST SWAP1 POP SWAP4 SWAP3 POP POP POP JUMP JUMPDEST PUSH2 0x113A CALLER DUP3 PUSH2 0x20B2 JUMP JUMPDEST ISZERO ISZERO PUSH2 0x1145 JUMPI PUSH1 0x0 DUP1 REVERT JUMPDEST PUSH2 0x1150 DUP4 DUP4 DUP4 PUSH2 0x2147 JUMP JUMPDEST POP POP POP JUMP JUMPDEST ADDRESS PUSH20 0xFFFFFFFFFFFFFFFFFFFFFFFFFFFFFFFFFFFFFFFF AND PUSH1 0x2 PUSH1 0x0 SWAP1 SLOAD SWAP1 PUSH2 0x100 EXP SWAP1 DIV PUSH20 0xFFFFFFFFFFFFFFFFFFFFFFFFFFFFFFFFFFFFFFFF AND PUSH20 0xFFFFFFFFFFFFFFFFFFFFFFFFFFFFFFFFFFFFFFFF AND PUSH4 0x2571BE3 PUSH1 0x3 SLOAD PUSH1 0x40 MLOAD DUP3 PUSH4 0xFFFFFFFF AND PUSH29 0x100000000000000000000000000000000000000000000000000000000 MUL DUP2 MSTORE PUSH1 0x4 ADD DUP1 DUP3 DUP2 MSTORE PUSH1 0x20 ADD SWAP2 POP POP PUSH1 0x20 PUSH1 0x40 MLOAD DUP1 DUP4 SUB DUP2 DUP7 DUP1 EXTCODESIZE ISZERO DUP1 ISZERO PUSH2 0x11FD JUMPI PUSH1 0x0 DUP1 REVERT JUMPDEST POP GAS STATICCALL ISZERO DUP1 ISZERO PUSH2 0x1211 JUMPI RETURNDATASIZE PUSH1 0x0 DUP1 RETURNDATACOPY RETURNDATASIZE PUSH1 0x0 REVERT JUMPDEST POP POP POP POP PUSH1 0x40 MLOAD RETURNDATASIZE PUSH1 0x20 DUP2 LT ISZERO PUSH2 0x1227 JUMPI PUSH1 0x0 DUP1 REVERT JUMPDEST DUP2 ADD SWAP1 DUP1 DUP1 MLOAD SWAP1 PUSH1 0x20 ADD SWAP1 SWAP3 SWAP2 SWAP1 POP POP POP PUSH20 0xFFFFFFFFFFFFFFFFFFFFFFFFFFFFFFFFFFFFFFFF AND EQ ISZERO ISZERO PUSH2 0x125A JUMPI PUSH1 0x0 DUP1 REVERT JUMPDEST PUSH2 0x1264 CALLER DUP4 PUSH2 0x20B2 JUMP JUMPDEST ISZERO ISZERO PUSH2 0x126F JUMPI PUSH1 0x0 DUP1 REVERT JUMPDEST PUSH1 0x2 PUSH1 0x0 SWAP1 SLOAD SWAP1 PUSH2 0x100 EXP SWAP1 DIV PUSH20 0xFFFFFFFFFFFFFFFFFFFFFFFFFFFFFFFFFFFFFFFF AND PUSH20 0xFFFFFFFFFFFFFFFFFFFFFFFFFFFFFFFFFFFFFFFF AND PUSH4 0x6AB5923 PUSH1 0x3 SLOAD DUP5 PUSH1 0x1 MUL DUP5 PUSH1 0x40 MLOAD DUP5 PUSH4 0xFFFFFFFF AND PUSH29 0x100000000000000000000000000000000000000000000000000000000 MUL DUP2 MSTORE PUSH1 0x4 ADD DUP1 DUP5 DUP2 MSTORE PUSH1 0x20 ADD DUP4 DUP2 MSTORE PUSH1 0x20 ADD DUP3 PUSH20 0xFFFFFFFFFFFFFFFFFFFFFFFFFFFFFFFFFFFFFFFF AND PUSH20 0xFFFFFFFFFFFFFFFFFFFFFFFFFFFFFFFFFFFFFFFF AND DUP2 MSTORE PUSH1 0x20 ADD SWAP4 POP POP POP POP PUSH1 0x20 PUSH1 0x40 MLOAD DUP1 DUP4 SUB DUP2 PUSH1 0x0 DUP8 DUP1 EXTCODESIZE ISZERO DUP1 ISZERO PUSH2 0x1341 JUMPI PUSH1 0x0 DUP1 REVERT JUMPDEST POP GAS CALL ISZERO DUP1 ISZERO PUSH2 0x1355 JUMPI RETURNDATASIZE PUSH1 0x0 DUP1 RETURNDATACOPY RETURNDATASIZE PUSH1 0x0 REVERT JUMPDEST POP POP POP POP PUSH1 0x40 MLOAD RETURNDATASIZE PUSH1 0x20 DUP2 LT ISZERO PUSH2 0x136B JUMPI PUSH1 0x0 DUP1 REVERT JUMPDEST DUP2 ADD SWAP1 DUP1 DUP1 MLOAD SWAP1 PUSH1 0x20 ADD SWAP1 SWAP3 SWAP2 SWAP1 POP POP POP POP POP POP JUMP JUMPDEST PUSH1 0x2 PUSH1 0x0 SWAP1 SLOAD SWAP1 PUSH2 0x100 EXP SWAP1 DIV PUSH20 0xFFFFFFFFFFFFFFFFFFFFFFFFFFFFFFFFFFFFFFFF AND DUP2 JUMP JUMPDEST PUSH2 0x13C3 DUP4 DUP4 DUP4 PUSH1 0x20 PUSH1 0x40 MLOAD SWAP1 DUP2 ADD PUSH1 0x40 MSTORE DUP1 PUSH1 0x0 DUP2 MSTORE POP PUSH2 0x18DB JUMP JUMPDEST POP POP POP JUMP JUMPDEST PUSH2 0x13D0 PUSH2 0x1672 JUMP JUMPDEST ISZERO ISZERO PUSH2 0x13DB JUMPI PUSH1 0x0 DUP1 REVERT JUMPDEST PUSH1 0x2 PUSH1 0x0 SWAP1 SLOAD SWAP1 PUSH2 0x100 EXP SWAP1 DIV PUSH20 0xFFFFFFFFFFFFFFFFFFFFFFFFFFFFFFFFFFFFFFFF AND PUSH20 0xFFFFFFFFFFFFFFFFFFFFFFFFFFFFFFFFFFFFFFFF AND PUSH4 0x1896F70A PUSH1 0x3 SLOAD DUP4 PUSH1 0x40 MLOAD DUP4 PUSH4 0xFFFFFFFF AND PUSH29 0x100000000000000000000000000000000000000000000000000000000 MUL DUP2 MSTORE PUSH1 0x4 ADD DUP1 DUP4 DUP2 MSTORE PUSH1 0x20 ADD DUP3 PUSH20 0xFFFFFFFFFFFFFFFFFFFFFFFFFFFFFFFFFFFFFFFF AND PUSH20 0xFFFFFFFFFFFFFFFFFFFFFFFFFFFFFFFFFFFFFFFF AND DUP2 MSTORE PUSH1 0x20 ADD SWAP3 POP POP POP PUSH1 0x0 PUSH1 0x40 MLOAD DUP1 DUP4 SUB DUP2 PUSH1 0x0 DUP8 DUP1 EXTCODESIZE ISZERO DUP1 ISZERO PUSH2 0x14A2 JUMPI PUSH1 0x0 DUP1 REVERT JUMPDEST POP GAS CALL ISZERO DUP1 ISZERO PUSH2 0x14B6 JUMPI RETURNDATASIZE PUSH1 0x0 DUP1 RETURNDATACOPY RETURNDATASIZE PUSH1 0x0 REVERT JUMPDEST POP POP POP POP POP JUMP JUMPDEST PUSH1 0x0 TIMESTAMP PUSH1 0x9 PUSH1 0x0 DUP5 DUP2 MSTORE PUSH1 0x20 ADD SWAP1 DUP2 MSTORE PUSH1 0x20 ADD PUSH1 0x0 KECCAK256 SLOAD GT ISZERO ISZERO PUSH2 0x14E0 JUMPI PUSH1 0x0 DUP1 REVERT JUMPDEST PUSH2 0x14E9 DUP3 PUSH2 0x23AC JUMP JUMPDEST SWAP1 POP SWAP2 SWAP1 POP JUMP JUMPDEST PUSH1 0x0 DUP1 PUSH20 0xFFFFFFFFFFFFFFFFFFFFFFFFFFFFFFFFFFFFFFFF AND DUP3 PUSH20 0xFFFFFFFFFFFFFFFFFFFFFFFFFFFFFFFFFFFFFFFF AND EQ ISZERO ISZERO ISZERO PUSH2 0x152D JUMPI PUSH1 0x0 DUP1 REVERT JUMPDEST PUSH1 0x7 PUSH1 0x0 DUP4 PUSH20 0xFFFFFFFFFFFFFFFFFFFFFFFFFFFFFFFFFFFFFFFF AND PUSH20 0xFFFFFFFFFFFFFFFFFFFFFFFFFFFFFFFFFFFFFFFF AND DUP2 MSTORE PUSH1 0x20 ADD SWAP1 DUP2 MSTORE PUSH1 0x20 ADD PUSH1 0x0 KECCAK256 SLOAD SWAP1 POP SWAP2 SWAP1 POP JUMP JUMPDEST PUSH2 0x157C PUSH2 0x1672 JUMP JUMPDEST ISZERO ISZERO PUSH2 0x1587 JUMPI PUSH1 0x0 DUP1 REVERT JUMPDEST PUSH1 0x0 PUSH20 0xFFFFFFFFFFFFFFFFFFFFFFFFFFFFFFFFFFFFFFFF AND PUSH1 0x1 PUSH1 0x0 SWAP1 SLOAD SWAP1 PUSH2 0x100 EXP SWAP1 DIV PUSH20 0xFFFFFFFFFFFFFFFFFFFFFFFFFFFFFFFFFFFFFFFF AND PUSH20 0xFFFFFFFFFFFFFFFFFFFFFFFFFFFFFFFFFFFFFFFF AND PUSH32 0x8BE0079C531659141344CD1FD0A4F28419497F9722A3DAAFE3B4186F6B6457E0 PUSH1 0x40 MLOAD PUSH1 0x40 MLOAD DUP1 SWAP2 SUB SWAP1 LOG3 PUSH1 0x0 PUSH1 0x1 PUSH1 0x0 PUSH2 0x100 EXP DUP2 SLOAD DUP2 PUSH20 0xFFFFFFFFFFFFFFFFFFFFFFFFFFFFFFFFFFFFFFFF MUL NOT AND SWAP1 DUP4 PUSH20 0xFFFFFFFFFFFFFFFFFFFFFFFFFFFFFFFFFFFFFFFF AND MUL OR SWAP1 SSTORE POP JUMP JUMPDEST PUSH1 0x0 PUSH1 0x1 PUSH1 0x0 SWAP1 SLOAD SWAP1 PUSH2 0x100 EXP SWAP1 DIV PUSH20 0xFFFFFFFFFFFFFFFFFFFFFFFFFFFFFFFFFFFFFFFF AND SWAP1 POP SWAP1 JUMP JUMPDEST PUSH1 0x0 PUSH1 0x1 PUSH1 0x0 SWAP1 SLOAD SWAP1 PUSH2 0x100 EXP SWAP1 DIV PUSH20 0xFFFFFFFFFFFFFFFFFFFFFFFFFFFFFFFFFFFFFFFF AND PUSH20 0xFFFFFFFFFFFFFFFFFFFFFFFFFFFFFFFFFFFFFFFF AND CALLER PUSH20 0xFFFFFFFFFFFFFFFFFFFFFFFFFFFFFFFFFFFFFFFF AND EQ SWAP1 POP SWAP1 JUMP JUMPDEST PUSH1 0x0 TIMESTAMP PUSH3 0x76A700 PUSH1 0x9 PUSH1 0x0 DUP6 DUP2 MSTORE PUSH1 0x20 ADD SWAP1 DUP2 MSTORE PUSH1 0x20 ADD PUSH1 0x0 KECCAK256 SLOAD ADD LT SWAP1 POP SWAP2 SWAP1 POP JUMP JUMPDEST CALLER PUSH20 0xFFFFFFFFFFFFFFFFFFFFFFFFFFFFFFFFFFFFFFFF AND DUP3 PUSH20 0xFFFFFFFFFFFFFFFFFFFFFFFFFFFFFFFFFFFFFFFF AND EQ ISZERO ISZERO ISZERO PUSH2 0x1729 JUMPI PUSH1 0x0 DUP1 REVERT JUMPDEST DUP1 PUSH1 0x8 PUSH1 0x0 CALLER PUSH20 0xFFFFFFFFFFFFFFFFFFFFFFFFFFFFFFFFFFFFFFFF AND PUSH20 0xFFFFFFFFFFFFFFFFFFFFFFFFFFFFFFFFFFFFFFFF AND DUP2 MSTORE PUSH1 0x20 ADD SWAP1 DUP2 MSTORE PUSH1 0x20 ADD PUSH1 0x0 KECCAK256 PUSH1 0x0 DUP5 PUSH20 0xFFFFFFFFFFFFFFFFFFFFFFFFFFFFFFFFFFFFFFFF AND PUSH20 0xFFFFFFFFFFFFFFFFFFFFFFFFFFFFFFFFFFFFFFFF AND DUP2 MSTORE PUSH1 0x20 ADD SWAP1 DUP2 MSTORE PUSH1 0x20 ADD PUSH1 0x0 KECCAK256 PUSH1 0x0 PUSH2 0x100 EXP DUP2 SLOAD DUP2 PUSH1 0xFF MUL NOT AND SWAP1 DUP4 ISZERO ISZERO MUL OR SWAP1 SSTORE POP DUP2 PUSH20 0xFFFFFFFFFFFFFFFFFFFFFFFFFFFFFFFFFFFFFFFF AND CALLER PUSH20 0xFFFFFFFFFFFFFFFFFFFFFFFFFFFFFFFFFFFFFFFF AND PUSH32 0x17307EAB39AB6107E8899845AD3D59BD9653F200F220920489CA2B5937696C31 DUP4 PUSH1 0x40 MLOAD DUP1 DUP3 ISZERO ISZERO ISZERO ISZERO DUP2 MSTORE PUSH1 0x20 ADD SWAP2 POP POP PUSH1 0x40 MLOAD DUP1 SWAP2 SUB SWAP1 LOG3 POP POP JUMP JUMPDEST PUSH2 0x1832 PUSH2 0x1672 JUMP JUMPDEST ISZERO ISZERO PUSH2 0x183D JUMPI PUSH1 0x0 DUP1 REVERT JUMPDEST PUSH1 0x1 PUSH1 0x4 PUSH1 0x0 DUP4 PUSH20 0xFFFFFFFFFFFFFFFFFFFFFFFFFFFFFFFFFFFFFFFF AND PUSH20 0xFFFFFFFFFFFFFFFFFFFFFFFFFFFFFFFFFFFFFFFF AND DUP2 MSTORE PUSH1 0x20 ADD SWAP1 DUP2 MSTORE PUSH1 0x20 ADD PUSH1 0x0 KECCAK256 PUSH1 0x0 PUSH2 0x100 EXP DUP2 SLOAD DUP2 PUSH1 0xFF MUL NOT AND SWAP1 DUP4 ISZERO ISZERO MUL OR SWAP1 SSTORE POP DUP1 PUSH20 0xFFFFFFFFFFFFFFFFFFFFFFFFFFFFFFFFFFFFFFFF AND PUSH32 0xA8BB31534C0ED46F380CB867BD5C803A189CED9A764E30B3A4991A9901D7474 PUSH1 0x40 MLOAD PUSH1 0x40 MLOAD DUP1 SWAP2 SUB SWAP1 LOG2 POP JUMP JUMPDEST PUSH2 0x18E6 DUP5 DUP5 DUP5 PUSH2 0x1130 JUMP JUMPDEST PUSH2 0x18F2 DUP5 DUP5 DUP5 DUP5 PUSH2 0x242A JUMP JUMPDEST ISZERO ISZERO PUSH2 0x18FD JUMPI PUSH1 0x0 DUP1 REVERT JUMPDEST POP POP POP POP JUMP JUMPDEST PUSH3 0x76A700 DUP2 JUMP JUMPDEST PUSH1 0x0 ADDRESS PUSH20 0xFFFFFFFFFFFFFFFFFFFFFFFFFFFFFFFFFFFFFFFF AND PUSH1 0x2 PUSH1 0x0 SWAP1 SLOAD SWAP1 PUSH2 0x100 EXP SWAP1 DIV PUSH20 0xFFFFFFFFFFFFFFFFFFFFFFFFFFFFFFFFFFFFFFFF AND PUSH20 0xFFFFFFFFFFFFFFFFFFFFFFFFFFFFFFFFFFFFFFFF AND PUSH4 0x2571BE3 PUSH1 0x3 SLOAD PUSH1 0x40 MLOAD DUP3 PUSH4 0xFFFFFFFF AND PUSH29 0x100000000000000000000000000000000000000000000000000000000 MUL DUP2 MSTORE PUSH1 0x4 ADD DUP1 DUP3 DUP2 MSTORE PUSH1 0x20 ADD SWAP2 POP POP PUSH1 0x20 PUSH1 0x40 MLOAD DUP1 DUP4 SUB DUP2 DUP7 DUP1 EXTCODESIZE ISZERO DUP1 ISZERO PUSH2 0x19B4 JUMPI PUSH1 0x0 DUP1 REVERT JUMPDEST POP GAS STATICCALL ISZERO DUP1 ISZERO PUSH2 0x19C8 JUMPI RETURNDATASIZE PUSH1 0x0 DUP1 RETURNDATACOPY RETURNDATASIZE PUSH1 0x0 REVERT JUMPDEST POP POP POP POP PUSH1 0x40 MLOAD RETURNDATASIZE PUSH1 0x20 DUP2 LT ISZERO PUSH2 0x19DE JUMPI PUSH1 0x0 DUP1 REVERT JUMPDEST DUP2 ADD SWAP1 DUP1 DUP1 MLOAD SWAP1 PUSH1 0x20 ADD SWAP1 SWAP3 SWAP2 SWAP1 POP POP POP PUSH20 0xFFFFFFFFFFFFFFFFFFFFFFFFFFFFFFFFFFFFFFFF AND EQ ISZERO ISZERO PUSH2 0x1A11 JUMPI PUSH1 0x0 DUP1 REVERT JUMPDEST PUSH1 0x4 PUSH1 0x0 CALLER PUSH20 0xFFFFFFFFFFFFFFFFFFFFFFFFFFFFFFFFFFFFFFFF AND PUSH20 0xFFFFFFFFFFFFFFFFFFFFFFFFFFFFFFFFFFFFFFFF AND DUP2 MSTORE PUSH1 0x20 ADD SWAP1 DUP2 MSTORE PUSH1 0x20 ADD PUSH1 0x0 KECCAK256 PUSH1 0x0 SWAP1 SLOAD SWAP1 PUSH2 0x100 EXP SWAP1 DIV PUSH1 0xFF AND ISZERO ISZERO PUSH2 0x1A69 JUMPI PUSH1 0x0 DUP1 REVERT JUMPDEST TIMESTAMP PUSH3 0x76A700 PUSH1 0x9 PUSH1 0x0 DUP7 DUP2 MSTORE PUSH1 0x20 ADD SWAP1 DUP2 MSTORE PUSH1 0x20 ADD PUSH1 0x0 KECCAK256 SLOAD ADD LT ISZERO ISZERO ISZERO PUSH2 0x1A90 JUMPI PUSH1 0x0 DUP1 REVERT JUMPDEST PUSH3 0x76A700 DUP3 ADD PUSH3 0x76A700 DUP4 PUSH1 0x9 PUSH1 0x0 DUP8 DUP2 MSTORE PUSH1 0x20 ADD SWAP1 DUP2 MSTORE PUSH1 0x20 ADD PUSH1 0x0 KECCAK256 SLOAD ADD ADD GT ISZERO ISZERO PUSH2 0x1ABD JUMPI PUSH1 0x0 DUP1 REVERT JUMPDEST DUP2 PUSH1 0x9 PUSH1 0x0 DUP6 DUP2 MSTORE PUSH1 0x20 ADD SWAP1 DUP2 MSTORE PUSH1 0x20 ADD PUSH1 0x0 KECCAK256 PUSH1 0x0 DUP3 DUP3 SLOAD ADD SWAP3 POP POP DUP2 SWAP1 SSTORE POP DUP3 PUSH32 0x9B87A00E30F1AC65D898F070F8A3488FE60517182D0A2098E1B4B93A54AA9BD6 PUSH1 0x9 PUSH1 0x0 DUP7 DUP2 MSTORE PUSH1 0x20 ADD SWAP1 DUP2 MSTORE PUSH1 0x20 ADD PUSH1 0x0 KECCAK256 SLOAD PUSH1 0x40 MLOAD DUP1 DUP3 DUP2 MSTORE PUSH1 0x20 ADD SWAP2 POP POP PUSH1 0x40 MLOAD DUP1 SWAP2 SUB SWAP1 LOG2 PUSH1 0x9 PUSH1 0x0 DUP5 DUP2 MSTORE PUSH1 0x20 ADD SWAP1 DUP2 MSTORE PUSH1 0x20 ADD PUSH1 0x0 KECCAK256 SLOAD SWAP1 POP SWAP3 SWAP2 POP POP JUMP JUMPDEST PUSH1 0x0 PUSH1 0x9 PUSH1 0x0 DUP4 DUP2 MSTORE PUSH1 0x20 ADD SWAP1 DUP2 MSTORE PUSH1 0x20 ADD PUSH1 0x0 KECCAK256 SLOAD SWAP1 POP SWAP2 SWAP1 POP JUMP JUMPDEST PUSH1 0x4 PUSH1 0x20 MSTORE DUP1 PUSH1 0x0 MSTORE PUSH1 0x40 PUSH1 0x0 KECCAK256 PUSH1 0x0 SWAP2 POP SLOAD SWAP1 PUSH2 0x100 EXP SWAP1 DIV PUSH1 0xFF AND DUP2 JUMP JUMPDEST PUSH1 0x3 SLOAD DUP2 JUMP JUMPDEST PUSH1 0x0 PUSH1 0x8 PUSH1 0x0 DUP5 PUSH20 0xFFFFFFFFFFFFFFFFFFFFFFFFFFFFFFFFFFFFFFFF AND PUSH20 0xFFFFFFFFFFFFFFFFFFFFFFFFFFFFFFFFFFFFFFFF AND DUP2 MSTORE PUSH1 0x20 ADD SWAP1 DUP2 MSTORE PUSH1 0x20 ADD PUSH1 0x0 KECCAK256 PUSH1 0x0 DUP4 PUSH20 0xFFFFFFFFFFFFFFFFFFFFFFFFFFFFFFFFFFFFFFFF AND PUSH20 0xFFFFFFFFFFFFFFFFFFFFFFFFFFFFFFFFFFFFFFFF AND DUP2 MSTORE PUSH1 0x20 ADD SWAP1 DUP2 MSTORE PUSH1 0x20 ADD PUSH1 0x0 KECCAK256 PUSH1 0x0 SWAP1 SLOAD SWAP1 PUSH2 0x100 EXP SWAP1 DIV PUSH1 0xFF AND SWAP1 POP SWAP3 SWAP2 POP POP JUMP JUMPDEST PUSH2 0x1C24 PUSH2 0x1672 JUMP JUMPDEST ISZERO ISZERO PUSH2 0x1C2F JUMPI PUSH1 0x0 DUP1 REVERT JUMPDEST PUSH2 0x1C38 DUP2 PUSH2 0x264D JUMP JUMPDEST POP JUMP JUMPDEST PUSH2 0x1C43 PUSH2 0x1672 JUMP JUMPDEST ISZERO ISZERO PUSH2 0x1C4E JUMPI PUSH1 0x0 DUP1 REVERT JUMPDEST PUSH1 0x0 PUSH1 0x4 PUSH1 0x0 DUP4 PUSH20 0xFFFFFFFFFFFFFFFFFFFFFFFFFFFFFFFFFFFFFFFF AND PUSH20 0xFFFFFFFFFFFFFFFFFFFFFFFFFFFFFFFFFFFFFFFF AND DUP2 MSTORE PUSH1 0x20 ADD SWAP1 DUP2 MSTORE PUSH1 0x20 ADD PUSH1 0x0 KECCAK256 PUSH1 0x0 PUSH2 0x100 EXP DUP2 SLOAD DUP2 PUSH1 0xFF MUL NOT AND SWAP1 DUP4 ISZERO ISZERO MUL OR SWAP1 SSTORE POP DUP1 PUSH20 0xFFFFFFFFFFFFFFFFFFFFFFFFFFFFFFFFFFFFFFFF AND PUSH32 0x33D83959BE2573F5453B12EB9D43B3499BC57D96BD2F067BA44803C859E81113 PUSH1 0x40 MLOAD PUSH1 0x40 MLOAD DUP1 SWAP2 SUB SWAP1 LOG2 POP JUMP JUMPDEST PUSH1 0x0 PUSH2 0x1CFB DUP5 DUP5 DUP5 PUSH1 0x1 PUSH2 0x1D76 JUMP JUMPDEST SWAP1 POP SWAP4 SWAP3 POP POP POP JUMP JUMPDEST PUSH1 0x0 DUP1 PUSH1 0x5 PUSH1 0x0 DUP5 DUP2 MSTORE PUSH1 0x20 ADD SWAP1 DUP2 MSTORE PUSH1 0x20 ADD PUSH1 0x0 KECCAK256 PUSH1 0x0 SWAP1 SLOAD SWAP1 PUSH2 0x100 EXP SWAP1 DIV PUSH20 0xFFFFFFFFFFFFFFFFFFFFFFFFFFFFFFFFFFFFFFFF AND SWAP1 POP PUSH1 0x0 PUSH20 0xFFFFFFFFFFFFFFFFFFFFFFFFFFFFFFFFFFFFFFFF AND DUP2 PUSH20 0xFFFFFFFFFFFFFFFFFFFFFFFFFFFFFFFFFFFFFFFF AND EQ ISZERO SWAP2 POP POP SWAP2 SWAP1 POP JUMP JUMPDEST PUSH1 0x0 ADDRESS PUSH20 0xFFFFFFFFFFFFFFFFFFFFFFFFFFFFFFFFFFFFFFFF AND PUSH1 0x2 PUSH1 0x0 SWAP1 SLOAD SWAP1 PUSH2 0x100 EXP SWAP1 DIV PUSH20 0xFFFFFFFFFFFFFFFFFFFFFFFFFFFFFFFFFFFFFFFF AND PUSH20 0xFFFFFFFFFFFFFFFFFFFFFFFFFFFFFFFFFFFFFFFF AND PUSH4 0x2571BE3 PUSH1 0x3 SLOAD PUSH1 0x40 MLOAD DUP3 PUSH4 0xFFFFFFFF AND PUSH29 0x100000000000000000000000000000000000000000000000000000000 MUL DUP2 MSTORE PUSH1 0x4 ADD DUP1 DUP3 DUP2 MSTORE PUSH1 0x20 ADD SWAP2 POP POP PUSH1 0x20 PUSH1 0x40 MLOAD DUP1 DUP4 SUB DUP2 DUP7 DUP1 EXTCODESIZE ISZERO DUP1 ISZERO PUSH2 0x1E20 JUMPI PUSH1 0x0 DUP1 REVERT JUMPDEST POP GAS STATICCALL ISZERO DUP1 ISZERO PUSH2 0x1E34 JUMPI RETURNDATASIZE PUSH1 0x0 DUP1 RETURNDATACOPY RETURNDATASIZE PUSH1 0x0 REVERT JUMPDEST POP POP POP POP PUSH1 0x40 MLOAD RETURNDATASIZE PUSH1 0x20 DUP2 LT ISZERO PUSH2 0x1E4A JUMPI PUSH1 0x0 DUP1 REVERT JUMPDEST DUP2 ADD SWAP1 DUP1 DUP1 MLOAD SWAP1 PUSH1 0x20 ADD SWAP1 SWAP3 SWAP2 SWAP1 POP POP POP PUSH20 0xFFFFFFFFFFFFFFFFFFFFFFFFFFFFFFFFFFFFFFFF AND EQ ISZERO ISZERO PUSH2 0x1E7D JUMPI PUSH1 0x0 DUP1 REVERT JUMPDEST PUSH1 0x4 PUSH1 0x0 CALLER PUSH20 0xFFFFFFFFFFFFFFFFFFFFFFFFFFFFFFFFFFFFFFFF AND PUSH20 0xFFFFFFFFFFFFFFFFFFFFFFFFFFFFFFFFFFFFFFFF AND DUP2 MSTORE PUSH1 0x20 ADD SWAP1 DUP2 MSTORE PUSH1 0x20 ADD PUSH1 0x0 KECCAK256 PUSH1 0x0 SWAP1 SLOAD SWAP1 PUSH2 0x100 EXP SWAP1 DIV PUSH1 0xFF AND ISZERO ISZERO PUSH2 0x1ED5 JUMPI PUSH1 0x0 DUP1 REVERT JUMPDEST PUSH2 0x1EDE DUP6 PUSH2 0x16CA JUMP JUMPDEST ISZERO ISZERO PUSH2 0x1EE9 JUMPI PUSH1 0x0 DUP1 REVERT JUMPDEST PUSH3 0x76A700 TIMESTAMP ADD PUSH3 0x76A700 DUP5 TIMESTAMP ADD ADD GT ISZERO ISZERO PUSH2 0x1F03 JUMPI PUSH1 0x0 DUP1 REVERT JUMPDEST DUP3 TIMESTAMP ADD PUSH1 0x9 PUSH1 0x0 DUP8 DUP2 MSTORE PUSH1 0x20 ADD SWAP1 DUP2 MSTORE PUSH1 0x20 ADD PUSH1 0x0 KECCAK256 DUP2 SWAP1 SSTORE POP PUSH2 0x1F26 DUP6 PUSH2 0x1D04 JUMP JUMPDEST ISZERO PUSH2 0x1F35 JUMPI PUSH2 0x1F34 DUP6 PUSH2 0x2749 JUMP JUMPDEST JUMPDEST PUSH2 0x1F3F DUP5 DUP7 PUSH2 0x275E JUMP JUMPDEST DUP2 ISZERO PUSH2 0x2054 JUMPI PUSH1 0x2 PUSH1 0x0 SWAP1 SLOAD SWAP1 PUSH2 0x100 EXP SWAP1 DIV PUSH20 0xFFFFFFFFFFFFFFFFFFFFFFFFFFFFFFFFFFFFFFFF AND PUSH20 0xFFFFFFFFFFFFFFFFFFFFFFFFFFFFFFFFFFFFFFFF AND PUSH4 0x6AB5923 PUSH1 0x3 SLOAD DUP8 PUSH1 0x1 MUL DUP8 PUSH1 0x40 MLOAD DUP5 PUSH4 0xFFFFFFFF AND PUSH29 0x100000000000000000000000000000000000000000000000000000000 MUL DUP2 MSTORE PUSH1 0x4 ADD DUP1 DUP5 DUP2 MSTORE PUSH1 0x20 ADD DUP4 DUP2 MSTORE PUSH1 0x20 ADD DUP3 PUSH20 0xFFFFFFFFFFFFFFFFFFFFFFFFFFFFFFFFFFFFFFFF AND PUSH20 0xFFFFFFFFFFFFFFFFFFFFFFFFFFFFFFFFFFFFFFFF AND DUP2 MSTORE PUSH1 0x20 ADD SWAP4 POP POP POP POP PUSH1 0x20 PUSH1 0x40 MLOAD DUP1 DUP4 SUB DUP2 PUSH1 0x0 DUP8 DUP1 EXTCODESIZE ISZERO DUP1 ISZERO PUSH2 0x2017 JUMPI PUSH1 0x0 DUP1 REVERT JUMPDEST POP GAS CALL ISZERO DUP1 ISZERO PUSH2 0x202B JUMPI RETURNDATASIZE PUSH1 0x0 DUP1 RETURNDATACOPY RETURNDATASIZE PUSH1 0x0 REVERT JUMPDEST POP POP POP POP PUSH1 0x40 MLOAD RETURNDATASIZE PUSH1 0x20 DUP2 LT ISZERO PUSH2 0x2041 JUMPI PUSH1 0x0 DUP1 REVERT JUMPDEST DUP2 ADD SWAP1 DUP1 DUP1 MLOAD SWAP1 PUSH1 0x20 ADD SWAP1 SWAP3 SWAP2 SWAP1 POP POP POP POP JUMPDEST DUP4 PUSH20 0xFFFFFFFFFFFFFFFFFFFFFFFFFFFFFFFFFFFFFFFF AND DUP6 PUSH32 0xB3D987963D01B2F68493B4BDB130988F157EA43070D4AD840FEE0466ED9370D9 DUP6 TIMESTAMP ADD PUSH1 0x40 MLOAD DUP1 DUP3 DUP2 MSTORE PUSH1 0x20 ADD SWAP2 POP POP PUSH1 0x40 MLOAD DUP1 SWAP2 SUB SWAP1 LOG3 DUP3 TIMESTAMP ADD SWAP1 POP SWAP5 SWAP4 POP POP POP POP JUMP JUMPDEST PUSH1 0x0 DUP1 PUSH2 0x20BE DUP4 PUSH2 0x14BD JUMP JUMPDEST SWAP1 POP DUP1 PUSH20 0xFFFFFFFFFFFFFFFFFFFFFFFFFFFFFFFFFFFFFFFF AND DUP5 PUSH20 0xFFFFFFFFFFFFFFFFFFFFFFFFFFFFFFFFFFFFFFFF AND EQ DUP1 PUSH2 0x212D JUMPI POP DUP4 PUSH20 0xFFFFFFFFFFFFFFFFFFFFFFFFFFFFFFFFFFFFFFFF AND PUSH2 0x2115 DUP5 PUSH2 0xF82 JUMP JUMPDEST PUSH20 0xFFFFFFFFFFFFFFFFFFFFFFFFFFFFFFFFFFFFFFFF AND EQ JUMPDEST DUP1 PUSH2 0x213E JUMPI POP PUSH2 0x213D DUP2 DUP6 PUSH2 0x1B88 JUMP JUMPDEST JUMPDEST SWAP2 POP POP SWAP3 SWAP2 POP POP JUMP JUMPDEST DUP3 PUSH20 0xFFFFFFFFFFFFFFFFFFFFFFFFFFFFFFFFFFFFFFFF AND PUSH2 0x2167 DUP3 PUSH2 0x14BD JUMP JUMPDEST PUSH20 0xFFFFFFFFFFFFFFFFFFFFFFFFFFFFFFFFFFFFFFFF AND EQ ISZERO ISZERO PUSH2 0x2189 JUMPI PUSH1 0x0 DUP1 REVERT JUMPDEST PUSH1 0x0 PUSH20 0xFFFFFFFFFFFFFFFFFFFFFFFFFFFFFFFFFFFFFFFF AND DUP3 PUSH20 0xFFFFFFFFFFFFFFFFFFFFFFFFFFFFFFFFFFFFFFFF AND EQ ISZERO ISZERO ISZERO PUSH2 0x21C5 JUMPI PUSH1 0x0 DUP1 REVERT JUMPDEST PUSH2 0x21CE DUP2 PUSH2 0x28F7 JUMP JUMPDEST PUSH2 0x2221 PUSH1 0x1 PUSH1 0x7 PUSH1 0x0 DUP7 PUSH20 0xFFFFFFFFFFFFFFFFFFFFFFFFFFFFFFFFFFFFFFFF AND PUSH20 0xFFFFFFFFFFFFFFFFFFFFFFFFFFFFFFFFFFFFFFFF AND DUP2 MSTORE PUSH1 0x20 ADD SWAP1 DUP2 MSTORE PUSH1 0x20 ADD PUSH1 0x0 KECCAK256 SLOAD PUSH2 0x29B7 SWAP1 SWAP2 SWAP1 PUSH4 0xFFFFFFFF AND JUMP JUMPDEST PUSH1 0x7 PUSH1 0x0 DUP6 PUSH20 0xFFFFFFFFFFFFFFFFFFFFFFFFFFFFFFFFFFFFFFFF AND PUSH20 0xFFFFFFFFFFFFFFFFFFFFFFFFFFFFFFFFFFFFFFFF AND DUP2 MSTORE PUSH1 0x20 ADD SWAP1 DUP2 MSTORE PUSH1 0x20 ADD PUSH1 0x0 KECCAK256 DUP2 SWAP1 SSTORE POP PUSH2 0x22B7 PUSH1 0x1 PUSH1 0x7 PUSH1 0x0 DUP6 PUSH20 0xFFFFFFFFFFFFFFFFFFFFFFFFFFFFFFFFFFFFFFFF AND PUSH20 0xFFFFFFFFFFFFFFFFFFFFFFFFFFFFFFFFFFFFFFFF AND DUP2 MSTORE PUSH1 0x20 ADD SWAP1 DUP2 MSTORE PUSH1 0x20 ADD PUSH1 0x0 KECCAK256 SLOAD PUSH2 0x29D9 SWAP1 SWAP2 SWAP1 PUSH4 0xFFFFFFFF AND JUMP JUMPDEST PUSH1 0x7 PUSH1 0x0 DUP5 PUSH20 0xFFFFFFFFFFFFFFFFFFFFFFFFFFFFFFFFFFFFFFFF AND PUSH20 0xFFFFFFFFFFFFFFFFFFFFFFFFFFFFFFFFFFFFFFFF AND DUP2 MSTORE PUSH1 0x20 ADD SWAP1 DUP2 MSTORE PUSH1 0x20 ADD PUSH1 0x0 KECCAK256 DUP2 SWAP1 SSTORE POP DUP2 PUSH1 0x5 PUSH1 0x0 DUP4 DUP2 MSTORE PUSH1 0x20 ADD SWAP1 DUP2 MSTORE PUSH1 0x20 ADD PUSH1 0x0 KECCAK256 PUSH1 0x0 PUSH2 0x100 EXP DUP2 SLOAD DUP2 PUSH20 0xFFFFFFFFFFFFFFFFFFFFFFFFFFFFFFFFFFFFFFFF MUL NOT AND SWAP1 DUP4 PUSH20 0xFFFFFFFFFFFFFFFFFFFFFFFFFFFFFFFFFFFFFFFF AND MUL OR SWAP1 SSTORE POP DUP1 DUP3 PUSH20 0xFFFFFFFFFFFFFFFFFFFFFFFFFFFFFFFFFFFFFFFF AND DUP5 PUSH20 0xFFFFFFFFFFFFFFFFFFFFFFFFFFFFFFFFFFFFFFFF AND PUSH32 0xDDF252AD1BE2C89B69C2B068FC378DAA952BA7F163C4A11628F55A4DF523B3EF PUSH1 0x40 MLOAD PUSH1 0x40 MLOAD DUP1 SWAP2 SUB SWAP1 LOG4 POP POP POP JUMP JUMPDEST PUSH1 0x0 DUP1 PUSH1 0x5 PUSH1 0x0 DUP5 DUP2 MSTORE PUSH1 0x20 ADD SWAP1 DUP2 MSTORE PUSH1 0x20 ADD PUSH1 0x0 KECCAK256 PUSH1 0x0 SWAP1 SLOAD SWAP1 PUSH2 0x100 EXP SWAP1 DIV PUSH20 0xFFFFFFFFFFFFFFFFFFFFFFFFFFFFFFFFFFFFFFFF AND SWAP1 POP PUSH1 0x0 PUSH20 0xFFFFFFFFFFFFFFFFFFFFFFFFFFFFFFFFFFFFFFFF AND DUP2 PUSH20 0xFFFFFFFFFFFFFFFFFFFFFFFFFFFFFFFFFFFFFFFF AND EQ ISZERO ISZERO ISZERO PUSH2 0x2421 JUMPI PUSH1 0x0 DUP1 REVERT JUMPDEST DUP1 SWAP2 POP POP SWAP2 SWAP1 POP JUMP JUMPDEST PUSH1 0x0 PUSH2 0x244B DUP5 PUSH20 0xFFFFFFFFFFFFFFFFFFFFFFFFFFFFFFFFFFFFFFFF AND PUSH2 0x29FA JUMP JUMPDEST ISZERO ISZERO PUSH2 0x245A JUMPI PUSH1 0x1 SWAP1 POP PUSH2 0x2645 JUMP JUMPDEST PUSH1 0x0 DUP5 PUSH20 0xFFFFFFFFFFFFFFFFFFFFFFFFFFFFFFFFFFFFFFFF AND PUSH4 0x150B7A02 CALLER DUP9 DUP8 DUP8 PUSH1 0x40 MLOAD DUP6 PUSH4 0xFFFFFFFF AND PUSH29 0x100000000000000000000000000000000000000000000000000000000 MUL DUP2 MSTORE PUSH1 0x4 ADD DUP1 DUP6 PUSH20 0xFFFFFFFFFFFFFFFFFFFFFFFFFFFFFFFFFFFFFFFF AND PUSH20 0xFFFFFFFFFFFFFFFFFFFFFFFFFFFFFFFFFFFFFFFF AND DUP2 MSTORE PUSH1 0x20 ADD DUP5 PUSH20 0xFFFFFFFFFFFFFFFFFFFFFFFFFFFFFFFFFFFFFFFF AND PUSH20 0xFFFFFFFFFFFFFFFFFFFFFFFFFFFFFFFFFFFFFFFF AND DUP2 MSTORE PUSH1 0x20 ADD DUP4 DUP2 MSTORE PUSH1 0x20 ADD DUP1 PUSH1 0x20 ADD DUP3 DUP2 SUB DUP3 MSTORE DUP4 DUP2 DUP2 MLOAD DUP2 MSTORE PUSH1 0x20 ADD SWAP2 POP DUP1 MLOAD SWAP1 PUSH1 0x20 ADD SWAP1 DUP1 DUP4 DUP4 PUSH1 0x0 JUMPDEST DUP4 DUP2 LT ISZERO PUSH2 0x2551 JUMPI DUP1 DUP3 ADD MLOAD DUP2 DUP5 ADD MSTORE PUSH1 0x20 DUP2 ADD SWAP1 POP PUSH2 0x2536 JUMP JUMPDEST POP POP POP POP SWAP1 POP SWAP1 DUP2 ADD SWAP1 PUSH1 0x1F AND DUP1 ISZERO PUSH2 0x257E JUMPI DUP1 DUP3 SUB DUP1 MLOAD PUSH1 0x1 DUP4 PUSH1 0x20 SUB PUSH2 0x100 EXP SUB NOT AND DUP2 MSTORE PUSH1 0x20 ADD SWAP2 POP JUMPDEST POP SWAP6 POP POP POP POP POP POP PUSH1 0x20 PUSH1 0x40 MLOAD DUP1 DUP4 SUB DUP2 PUSH1 0x0 DUP8 DUP1 EXTCODESIZE ISZERO DUP1 ISZERO PUSH2 0x25A0 JUMPI PUSH1 0x0 DUP1 REVERT JUMPDEST POP GAS CALL ISZERO DUP1 ISZERO PUSH2 0x25B4 JUMPI RETURNDATASIZE PUSH1 0x0 DUP1 RETURNDATACOPY RETURNDATASIZE PUSH1 0x0 REVERT JUMPDEST POP POP POP POP PUSH1 0x40 MLOAD RETURNDATASIZE PUSH1 0x20 DUP2 LT ISZERO PUSH2 0x25CA JUMPI PUSH1 0x0 DUP1 REVERT JUMPDEST DUP2 ADD SWAP1 DUP1 DUP1 MLOAD SWAP1 PUSH1 0x20 ADD SWAP1 SWAP3 SWAP2 SWAP1 POP POP POP SWAP1 POP PUSH4 0x150B7A02 PUSH29 0x100000000000000000000000000000000000000000000000000000000 MUL PUSH28 0xFFFFFFFFFFFFFFFFFFFFFFFFFFFFFFFFFFFFFFFFFFFFFFFFFFFFFFFF NOT AND DUP2 PUSH28 0xFFFFFFFFFFFFFFFFFFFFFFFFFFFFFFFFFFFFFFFFFFFFFFFFFFFFFFFF NOT AND EQ SWAP2 POP POP JUMPDEST SWAP5 SWAP4 POP POP POP POP JUMP JUMPDEST PUSH1 0x0 PUSH20 0xFFFFFFFFFFFFFFFFFFFFFFFFFFFFFFFFFFFFFFFF AND DUP2 PUSH20 0xFFFFFFFFFFFFFFFFFFFFFFFFFFFFFFFFFFFFFFFF AND EQ ISZERO ISZERO ISZERO PUSH2 0x2689 JUMPI PUSH1 0x0 DUP1 REVERT JUMPDEST DUP1 PUSH20 0xFFFFFFFFFFFFFFFFFFFFFFFFFFFFFFFFFFFFFFFF AND PUSH1 0x1 PUSH1 0x0 SWAP1 SLOAD SWAP1 PUSH2 0x100 EXP SWAP1 DIV PUSH20 0xFFFFFFFFFFFFFFFFFFFFFFFFFFFFFFFFFFFFFFFF AND PUSH20 0xFFFFFFFFFFFFFFFFFFFFFFFFFFFFFFFFFFFFFFFF AND PUSH32 0x8BE0079C531659141344CD1FD0A4F28419497F9722A3DAAFE3B4186F6B6457E0 PUSH1 0x40 MLOAD PUSH1 0x40 MLOAD DUP1 SWAP2 SUB SWAP1 LOG3 DUP1 PUSH1 0x1 PUSH1 0x0 PUSH2 0x100 EXP DUP2 SLOAD DUP2 PUSH20 0xFFFFFFFFFFFFFFFFFFFFFFFFFFFFFFFFFFFFFFFF MUL NOT AND SWAP1 DUP4 PUSH20 0xFFFFFFFFFFFFFFFFFFFFFFFFFFFFFFFFFFFFFFFF AND MUL OR SWAP1 SSTORE POP POP JUMP JUMPDEST PUSH2 0x275B PUSH2 0x2755 DUP3 PUSH2 0x14BD JUMP JUMPDEST DUP3 PUSH2 0x2A0D JUMP JUMPDEST POP JUMP JUMPDEST PUSH1 0x0 PUSH20 0xFFFFFFFFFFFFFFFFFFFFFFFFFFFFFFFFFFFFFFFF AND DUP3 PUSH20 0xFFFFFFFFFFFFFFFFFFFFFFFFFFFFFFFFFFFFFFFF AND EQ ISZERO ISZERO ISZERO PUSH2 0x279A JUMPI PUSH1 0x0 DUP1 REVERT JUMPDEST PUSH2 0x27A3 DUP2 PUSH2 0x1D04 JUMP JUMPDEST ISZERO ISZERO ISZERO PUSH2 0x27AF JUMPI PUSH1 0x0 DUP1 REVERT JUMPDEST DUP2 PUSH1 0x5 PUSH1 0x0 DUP4 DUP2 MSTORE PUSH1 0x20 ADD SWAP1 DUP2 MSTORE PUSH1 0x20 ADD PUSH1 0x0 KECCAK256 PUSH1 0x0 PUSH2 0x100 EXP DUP2 SLOAD DUP2 PUSH20 0xFFFFFFFFFFFFFFFFFFFFFFFFFFFFFFFFFFFFFFFF MUL NOT AND SWAP1 DUP4 PUSH20 0xFFFFFFFFFFFFFFFFFFFFFFFFFFFFFFFFFFFFFFFF AND MUL OR SWAP1 SSTORE POP PUSH2 0x2854 PUSH1 0x1 PUSH1 0x7 PUSH1 0x0 DUP6 PUSH20 0xFFFFFFFFFFFFFFFFFFFFFFFFFFFFFFFFFFFFFFFF AND PUSH20 0xFFFFFFFFFFFFFFFFFFFFFFFFFFFFFFFFFFFFFFFF AND DUP2 MSTORE PUSH1 0x20 ADD SWAP1 DUP2 MSTORE PUSH1 0x20 ADD PUSH1 0x0 KECCAK256 SLOAD PUSH2 0x29D9 SWAP1 SWAP2 SWAP1 PUSH4 0xFFFFFFFF AND JUMP JUMPDEST PUSH1 0x7 PUSH1 0x0 DUP5 PUSH20 0xFFFFFFFFFFFFFFFFFFFFFFFFFFFFFFFFFFFFFFFF AND PUSH20 0xFFFFFFFFFFFFFFFFFFFFFFFFFFFFFFFFFFFFFFFF AND DUP2 MSTORE PUSH1 0x20 ADD SWAP1 DUP2 MSTORE PUSH1 0x20 ADD PUSH1 0x0 KECCAK256 DUP2 SWAP1 SSTORE POP DUP1 DUP3 PUSH20 0xFFFFFFFFFFFFFFFFFFFFFFFFFFFFFFFFFFFFFFFF AND PUSH1 0x0 PUSH20 0xFFFFFFFFFFFFFFFFFFFFFFFFFFFFFFFFFFFFFFFF AND PUSH32 0xDDF252AD1BE2C89B69C2B068FC378DAA952BA7F163C4A11628F55A4DF523B3EF PUSH1 0x40 MLOAD PUSH1 0x40 MLOAD DUP1 SWAP2 SUB SWAP1 LOG4 POP POP JUMP JUMPDEST PUSH1 0x0 PUSH20 0xFFFFFFFFFFFFFFFFFFFFFFFFFFFFFFFFFFFFFFFF AND PUSH1 0x6 PUSH1 0x0 DUP4 DUP2 MSTORE PUSH1 0x20 ADD SWAP1 DUP2 MSTORE PUSH1 0x20 ADD PUSH1 0x0 KECCAK256 PUSH1 0x0 SWAP1 SLOAD SWAP1 PUSH2 0x100 EXP SWAP1 DIV PUSH20 0xFFFFFFFFFFFFFFFFFFFFFFFFFFFFFFFFFFFFFFFF AND PUSH20 0xFFFFFFFFFFFFFFFFFFFFFFFFFFFFFFFFFFFFFFFF AND EQ ISZERO ISZERO PUSH2 0x29B4 JUMPI PUSH1 0x0 PUSH1 0x6 PUSH1 0x0 DUP4 DUP2 MSTORE PUSH1 0x20 ADD SWAP1 DUP2 MSTORE PUSH1 0x20 ADD PUSH1 0x0 KECCAK256 PUSH1 0x0 PUSH2 0x100 EXP DUP2 SLOAD DUP2 PUSH20 0xFFFFFFFFFFFFFFFFFFFFFFFFFFFFFFFFFFFFFFFF MUL NOT AND SWAP1 DUP4 PUSH20 0xFFFFFFFFFFFFFFFFFFFFFFFFFFFFFFFFFFFFFFFF AND MUL OR SWAP1 SSTORE POP JUMPDEST POP JUMP JUMPDEST PUSH1 0x0 DUP3 DUP3 GT ISZERO ISZERO ISZERO PUSH2 0x29C8 JUMPI PUSH1 0x0 DUP1 REVERT JUMPDEST PUSH1 0x0 DUP3 DUP5 SUB SWAP1 POP DUP1 SWAP2 POP POP SWAP3 SWAP2 POP POP JUMP JUMPDEST PUSH1 0x0 DUP1 DUP3 DUP5 ADD SWAP1 POP DUP4 DUP2 LT ISZERO ISZERO ISZERO PUSH2 0x29F0 JUMPI PUSH1 0x0 DUP1 REVERT JUMPDEST DUP1 SWAP2 POP POP SWAP3 SWAP2 POP POP JUMP JUMPDEST PUSH1 0x0 DUP1 DUP3 EXTCODESIZE SWAP1 POP PUSH1 0x0 DUP2 GT SWAP2 POP POP SWAP2 SWAP1 POP JUMP JUMPDEST DUP2 PUSH20 0xFFFFFFFFFFFFFFFFFFFFFFFFFFFFFFFFFFFFFFFF AND PUSH2 0x2A2D DUP3 PUSH2 0x14BD JUMP JUMPDEST PUSH20 0xFFFFFFFFFFFFFFFFFFFFFFFFFFFFFFFFFFFFFFFF AND EQ ISZERO ISZERO PUSH2 0x2A4F JUMPI PUSH1 0x0 DUP1 REVERT JUMPDEST PUSH2 0x2A58 DUP2 PUSH2 0x28F7 JUMP JUMPDEST PUSH2 0x2AAB PUSH1 0x1 PUSH1 0x7 PUSH1 0x0 DUP6 PUSH20 0xFFFFFFFFFFFFFFFFFFFFFFFFFFFFFFFFFFFFFFFF AND PUSH20 0xFFFFFFFFFFFFFFFFFFFFFFFFFFFFFFFFFFFFFFFF AND DUP2 MSTORE PUSH1 0x20 ADD SWAP1 DUP2 MSTORE PUSH1 0x20 ADD PUSH1 0x0 KECCAK256 SLOAD PUSH2 0x29B7 SWAP1 SWAP2 SWAP1 PUSH4 0xFFFFFFFF AND JUMP JUMPDEST PUSH1 0x7 PUSH1 0x0 DUP5 PUSH20 0xFFFFFFFFFFFFFFFFFFFFFFFFFFFFFFFFFFFFFFFF AND PUSH20 0xFFFFFFFFFFFFFFFFFFFFFFFFFFFFFFFFFFFFFFFF AND DUP2 MSTORE PUSH1 0x20 ADD SWAP1 DUP2 MSTORE PUSH1 0x20 ADD PUSH1 0x0 KECCAK256 DUP2 SWAP1 SSTORE POP PUSH1 0x0 PUSH1 0x5 PUSH1 0x0 DUP4 DUP2 MSTORE PUSH1 0x20 ADD SWAP1 DUP2 MSTORE PUSH1 0x20 ADD PUSH1 0x0 KECCAK256 PUSH1 0x0 PUSH2 0x100 EXP DUP2 SLOAD DUP2 PUSH20 0xFFFFFFFFFFFFFFFFFFFFFFFFFFFFFFFFFFFFFFFF MUL NOT AND SWAP1 DUP4 PUSH20 0xFFFFFFFFFFFFFFFFFFFFFFFFFFFFFFFFFFFFFFFF AND MUL OR SWAP1 SSTORE POP DUP1 PUSH1 0x0 PUSH20 0xFFFFFFFFFFFFFFFFFFFFFFFFFFFFFFFFFFFFFFFF AND DUP4 PUSH20 0xFFFFFFFFFFFFFFFFFFFFFFFFFFFFFFFFFFFFFFFF AND PUSH32 0xDDF252AD1BE2C89B69C2B068FC378DAA952BA7F163C4A11628F55A4DF523B3EF PUSH1 0x40 MLOAD PUSH1 0x40 MLOAD DUP1 SWAP2 SUB SWAP1 LOG4 POP POP JUMP INVALID LOG1 PUSH6 0x627A7A723058 KECCAK256 0x29 0xe4 MLOAD 0xf6 PUSH6 0xC3E9A22B6EA7 SWAP11 0xd6 0xb3 SSTORE 0x5c PUSH32 0xB50F4ADA9A2356EB60CC650B94FD8F0029000000000000000000000000000000 "
				},
				"gasEstimates": {
					"creation": {
						"codeDepositCost": "2242600",
						"executionCost": "infinite",
						"totalCost": "infinite"
					},
					"external": {
						"GRACE_PERIOD()": "590",
						"addController(address)": "22404",
						"approve(address,uint256)": "23909",
						"available(uint256)": "898",
						"balanceOf(address)": "849",
						"baseNode()": "878",
						"controllers(address)": "1057",
						"ens()": "574",
						"getApproved(uint256)": "1051",
						"isApprovedForAll(address,address)": "1264",
						"isOwner()": "753",
						"nameExpires(uint256)": "1007",
						"owner()": "714",
						"ownerOf(uint256)": "1219",
						"reclaim(uint256,address)": "infinite",
						"register(uint256,address,uint256)": "infinite",
						"registerOnly(uint256,address,uint256)": "infinite",
						"removeController(address)": "22602",
						"renew(uint256,uint256)": "infinite",
						"renounceOwnership()": "22734",
						"safeTransferFrom(address,address,uint256)": "infinite",
						"safeTransferFrom(address,address,uint256,bytes)": "infinite",
						"setApprovalForAll(address,bool)": "22923",
						"setResolver(address)": "infinite",
						"supportsInterface(bytes4)": "1496",
						"transferFrom(address,address,uint256)": "infinite",
						"transferOwnership(address)": "23183"
					},
					"internal": {
						"_register(uint256,address,uint256,bool)": "infinite"
					}
				},
				"methodIdentifiers": {
					"GRACE_PERIOD()": "c1a287e2",
					"addController(address)": "a7fc7a07",
					"approve(address,uint256)": "095ea7b3",
					"available(uint256)": "96e494e8",
					"balanceOf(address)": "70a08231",
					"baseNode()": "ddf7fcb0",
					"controllers(address)": "da8c229e",
					"ens()": "3f15457f",
					"getApproved(uint256)": "081812fc",
					"isApprovedForAll(address,address)": "e985e9c5",
					"isOwner()": "8f32d59b",
					"nameExpires(uint256)": "d6e4fa86",
					"owner()": "8da5cb5b",
					"ownerOf(uint256)": "6352211e",
					"reclaim(uint256,address)": "28ed4f6c",
					"register(uint256,address,uint256)": "fca247ac",
					"registerOnly(uint256,address,uint256)": "0e297b45",
					"removeController(address)": "f6a74ed7",
					"renew(uint256,uint256)": "c475abff",
					"renounceOwnership()": "715018a6",
					"safeTransferFrom(address,address,uint256)": "42842e0e",
					"safeTransferFrom(address,address,uint256,bytes)": "b88d4fde",
					"setApprovalForAll(address,bool)": "a22cb465",
					"setResolver(address)": "4e543b26",
					"supportsInterface(bytes4)": "01ffc9a7",
					"transferFrom(address,address,uint256)": "23b872dd",
					"transferOwnership(address)": "f2fde38b"
				}
			},
			"userdoc": {
				"methods": {
					"renounceOwnership()": {
						"notice": "Renouncing to ownership will leave the contract without an owner.\r It will not be possible to call the functions with the `onlyOwner`\r modifier anymore.\r"
					}
				}
			}
		}
	}
}