{
	"src\\ENSRegistryWithFallback.sol": {
		"ENSRegistry": {
			"abi": [
				{
					"constant": true,
					"inputs": [
						{
							"name": "node",
							"type": "bytes32"
						}
					],
					"name": "resolver",
					"outputs": [
						{
							"name": "",
							"type": "address"
						}
					],
					"payable": false,
					"stateMutability": "view",
					"type": "function"
				},
				{
					"constant": true,
					"inputs": [
						{
							"name": "node",
							"type": "bytes32"
						}
					],
					"name": "owner",
					"outputs": [
						{
							"name": "",
							"type": "address"
						}
					],
					"payable": false,
					"stateMutability": "view",
					"type": "function"
				},
				{
					"constant": false,
					"inputs": [
						{
							"name": "node",
							"type": "bytes32"
						},
						{
							"name": "label",
							"type": "bytes32"
						},
						{
							"name": "owner",
							"type": "address"
						}
					],
					"name": "setSubnodeOwner",
					"outputs": [
						{
							"name": "",
							"type": "bytes32"
						}
					],
					"payable": false,
					"stateMutability": "nonpayable",
					"type": "function"
				},
				{
					"constant": false,
					"inputs": [
						{
							"name": "node",
							"type": "bytes32"
						},
						{
							"name": "ttl",
							"type": "uint64"
						}
					],
					"name": "setTTL",
					"outputs": [],
					"payable": false,
					"stateMutability": "nonpayable",
					"type": "function"
				},
				{
					"constant": true,
					"inputs": [
						{
							"name": "node",
							"type": "bytes32"
						}
					],
					"name": "ttl",
					"outputs": [
						{
							"name": "",
							"type": "uint64"
						}
					],
					"payable": false,
					"stateMutability": "view",
					"type": "function"
				},
				{
					"constant": false,
					"inputs": [
						{
							"name": "node",
							"type": "bytes32"
						},
						{
							"name": "resolver",
							"type": "address"
						}
					],
					"name": "setResolver",
					"outputs": [],
					"payable": false,
					"stateMutability": "nonpayable",
					"type": "function"
				},
				{
					"constant": false,
					"inputs": [
						{
							"name": "node",
							"type": "bytes32"
						},
						{
							"name": "owner",
							"type": "address"
						}
					],
					"name": "setOwner",
					"outputs": [],
					"payable": false,
					"stateMutability": "nonpayable",
					"type": "function"
				},
				{
					"constant": false,
					"inputs": [
						{
							"name": "node",
							"type": "bytes32"
						},
						{
							"name": "label",
							"type": "bytes32"
						},
						{
							"name": "owner",
							"type": "address"
						},
						{
							"name": "resolver",
							"type": "address"
						},
						{
							"name": "ttl",
							"type": "uint64"
						}
					],
					"name": "setSubnodeRecord",
					"outputs": [],
					"payable": false,
					"stateMutability": "nonpayable",
					"type": "function"
				},
				{
					"constant": false,
					"inputs": [
						{
							"name": "operator",
							"type": "address"
						},
						{
							"name": "approved",
							"type": "bool"
						}
					],
					"name": "setApprovalForAll",
					"outputs": [],
					"payable": false,
					"stateMutability": "nonpayable",
					"type": "function"
				},
				{
					"constant": false,
					"inputs": [
						{
							"name": "node",
							"type": "bytes32"
						},
						{
							"name": "owner",
							"type": "address"
						},
						{
							"name": "resolver",
							"type": "address"
						},
						{
							"name": "ttl",
							"type": "uint64"
						}
					],
					"name": "setRecord",
					"outputs": [],
					"payable": false,
					"stateMutability": "nonpayable",
					"type": "function"
				},
				{
					"constant": true,
					"inputs": [
						{
							"name": "owner",
							"type": "address"
						},
						{
							"name": "operator",
							"type": "address"
						}
					],
					"name": "isApprovedForAll",
					"outputs": [
						{
							"name": "",
							"type": "bool"
						}
					],
					"payable": false,
					"stateMutability": "view",
					"type": "function"
				},
				{
					"constant": true,
					"inputs": [
						{
							"name": "node",
							"type": "bytes32"
						}
					],
					"name": "recordExists",
					"outputs": [
						{
							"name": "",
							"type": "bool"
						}
					],
					"payable": false,
					"stateMutability": "view",
					"type": "function"
				},
				{
					"inputs": [],
					"payable": false,
					"stateMutability": "nonpayable",
					"type": "constructor"
				},
				{
					"anonymous": false,
					"inputs": [
						{
							"indexed": true,
							"name": "node",
							"type": "bytes32"
						},
						{
							"indexed": true,
							"name": "label",
							"type": "bytes32"
						},
						{
							"indexed": false,
							"name": "owner",
							"type": "address"
						}
					],
					"name": "NewOwner",
					"type": "event"
				},
				{
					"anonymous": false,
					"inputs": [
						{
							"indexed": true,
							"name": "node",
							"type": "bytes32"
						},
						{
							"indexed": false,
							"name": "owner",
							"type": "address"
						}
					],
					"name": "Transfer",
					"type": "event"
				},
				{
					"anonymous": false,
					"inputs": [
						{
							"indexed": true,
							"name": "node",
							"type": "bytes32"
						},
						{
							"indexed": false,
							"name": "resolver",
							"type": "address"
						}
					],
					"name": "NewResolver",
					"type": "event"
				},
				{
					"anonymous": false,
					"inputs": [
						{
							"indexed": true,
							"name": "node",
							"type": "bytes32"
						},
						{
							"indexed": false,
							"name": "ttl",
							"type": "uint64"
						}
					],
					"name": "NewTTL",
					"type": "event"
				},
				{
					"anonymous": false,
					"inputs": [
						{
							"indexed": true,
							"name": "owner",
							"type": "address"
						},
						{
							"indexed": true,
							"name": "operator",
							"type": "address"
						},
						{
							"indexed": false,
							"name": "approved",
							"type": "bool"
						}
					],
					"name": "ApprovalForAll",
					"type": "event"
				}
			],
			"devdoc": {
				"methods": {
					"constructor": {
						"details": "Constructs a new ENS registrar.\r"
					},
					"isApprovedForAll(address,address)": {
						"details": "Query if an address is an authorized operator for another address.\r",
						"params": {
							"operator": "The address that acts on behalf of the owner.\r",
							"owner": "The address that owns the records.\r"
						},
						"return": "True if `operator` is an approved operator for `owner`, false otherwise.\r"
					},
					"owner(bytes32)": {
						"details": "Returns the address that owns the specified node.\r",
						"params": {
							"node": "The specified node.\r"
						},
						"return": "address of the owner.\r"
					},
					"recordExists(bytes32)": {
						"details": "Returns whether a record has been imported to the registry.\r",
						"params": {
							"node": "The specified node.\r"
						},
						"return": "Bool if record exists\r"
					},
					"resolver(bytes32)": {
						"details": "Returns the address of the resolver for the specified node.\r",
						"params": {
							"node": "The specified node.\r"
						},
						"return": "address of the resolver.\r"
					},
					"setApprovalForAll(address,bool)": {
						"details": "Enable or disable approval for a third party (\"operator\") to manage\r all of `msg.sender`'s ENS records. Emits the ApprovalForAll event.\r",
						"params": {
							"approved": "True if the operator is approved, false to revoke approval.\r",
							"operator": "Address to add to the set of authorized operators.\r"
						}
					},
					"setOwner(bytes32,address)": {
						"details": "Transfers ownership of a node to a new address. May only be called by the current owner of the node.\r",
						"params": {
							"node": "The node to transfer ownership of.\r",
							"owner": "The address of the new owner.\r"
						}
					},
					"setRecord(bytes32,address,address,uint64)": {
						"details": "Sets the record for a node.\r",
						"params": {
							"node": "The node to update.\r",
							"owner": "The address of the new owner.\r",
							"resolver": "The address of the resolver.\r",
							"ttl": "The TTL in seconds.\r"
						}
					},
					"setResolver(bytes32,address)": {
						"details": "Sets the resolver address for the specified node.\r",
						"params": {
							"node": "The node to update.\r",
							"resolver": "The address of the resolver.\r"
						}
					},
					"setSubnodeOwner(bytes32,bytes32,address)": {
						"details": "Transfers ownership of a subnode keccak256(node, label) to a new address. May only be called by the owner of the parent node.\r",
						"params": {
							"label": "The hash of the label specifying the subnode.\r",
							"node": "The parent node.\r",
							"owner": "The address of the new owner.\r"
						}
					},
					"setSubnodeRecord(bytes32,bytes32,address,address,uint64)": {
						"details": "Sets the record for a subnode.\r",
						"params": {
							"label": "The hash of the label specifying the subnode.\r",
							"node": "The parent node.\r",
							"owner": "The address of the new owner.\r",
							"resolver": "The address of the resolver.\r",
							"ttl": "The TTL in seconds.\r"
						}
					},
					"setTTL(bytes32,uint64)": {
						"details": "Sets the TTL for the specified node.\r",
						"params": {
							"node": "The node to update.\r",
							"ttl": "The TTL in seconds.\r"
						}
					},
					"ttl(bytes32)": {
						"details": "Returns the TTL of a node, and any records associated with it.\r",
						"params": {
							"node": "The specified node.\r"
						},
						"return": "ttl of the node.\r"
					}
				}
			},
			"evm": {
				"assembly": "    /* \"src\\ENSRegistryWithFallback.sol\":1892:7897  contract ENSRegistry is ENS {\r... */\n  mstore(0x40, 0x80)\n    /* \"src\\ENSRegistryWithFallback.sol\":2450:2521  constructor() public {\r... */\n  callvalue\n    /* \"--CODEGEN--\":8:17   */\n  dup1\n    /* \"--CODEGEN--\":5:7   */\n  iszero\n  tag_1\n  jumpi\n    /* \"--CODEGEN--\":30:31   */\n  0x0\n    /* \"--CODEGEN--\":27:28   */\n  dup1\n    /* \"--CODEGEN--\":20:32   */\n  revert\n    /* \"--CODEGEN--\":5:7   */\ntag_1:\n    /* \"src\\ENSRegistryWithFallback.sol\":2450:2521  constructor() public {\r... */\n  pop\n    /* \"src\\ENSRegistryWithFallback.sol\":2503:2513  msg.sender */\n  caller\n    /* \"src\\ENSRegistryWithFallback.sol\":2482:2489  records */\n  0x0\n    /* \"src\\ENSRegistryWithFallback.sol\":2482:2494  records[0x0] */\n  dup1\n    /* \"src\\ENSRegistryWithFallback.sol\":2490:2493  0x0 */\n  dup1\n    /* \"src\\ENSRegistryWithFallback.sol\":2482:2494  records[0x0] */\n  0x1\n  mul\n  dup2\n  mstore\n  0x20\n  add\n  swap1\n  dup2\n  mstore\n  0x20\n  add\n  0x0\n  keccak256\n    /* \"src\\ENSRegistryWithFallback.sol\":2482:2500  records[0x0].owner */\n  0x0\n  add\n  0x0\n    /* \"src\\ENSRegistryWithFallback.sol\":2482:2513  records[0x0].owner = msg.sender */\n  0x100\n  exp\n  dup2\n  sload\n  dup2\n  0xffffffffffffffffffffffffffffffffffffffff\n  mul\n  not\n  and\n  swap1\n  dup4\n  0xffffffffffffffffffffffffffffffffffffffff\n  and\n  mul\n  or\n  swap1\n  sstore\n  pop\n    /* \"src\\ENSRegistryWithFallback.sol\":1892:7897  contract ENSRegistry is ENS {\r... */\n  dataSize(sub_0)\n  dup1\n  dataOffset(sub_0)\n  0x0\n  codecopy\n  0x0\n  return\nstop\n\nsub_0: assembly {\n        /* \"src\\ENSRegistryWithFallback.sol\":1892:7897  contract ENSRegistry is ENS {\r... */\n      mstore(0x40, 0x80)\n      jumpi(tag_1, lt(calldatasize, 0x4))\n      calldataload(0x0)\n      0x100000000000000000000000000000000000000000000000000000000\n      swap1\n      div\n      0xffffffff\n      and\n      dup1\n      0x178b8bf\n      eq\n      tag_2\n      jumpi\n      dup1\n      0x2571be3\n      eq\n      tag_3\n      jumpi\n      dup1\n      0x6ab5923\n      eq\n      tag_4\n      jumpi\n      dup1\n      0x14ab9038\n      eq\n      tag_5\n      jumpi\n      dup1\n      0x16a25cbd\n      eq\n      tag_6\n      jumpi\n      dup1\n      0x1896f70a\n      eq\n      tag_7\n      jumpi\n      dup1\n      0x5b0fc9c3\n      eq\n      tag_8\n      jumpi\n      dup1\n      0x5ef2c7f0\n      eq\n      tag_9\n      jumpi\n      dup1\n      0xa22cb465\n      eq\n      tag_10\n      jumpi\n      dup1\n      0xcf408823\n      eq\n      tag_11\n      jumpi\n      dup1\n      0xe985e9c5\n      eq\n      tag_12\n      jumpi\n      dup1\n      0xf79fe538\n      eq\n      tag_13\n      jumpi\n    tag_1:\n      0x0\n      dup1\n      revert\n        /* \"src\\ENSRegistryWithFallback.sol\":6256:6366  function resolver(bytes32 node) public view returns (address) {\r... */\n    tag_2:\n      callvalue\n        /* \"--CODEGEN--\":8:17   */\n      dup1\n        /* \"--CODEGEN--\":5:7   */\n      iszero\n      tag_14\n      jumpi\n        /* \"--CODEGEN--\":30:31   */\n      0x0\n        /* \"--CODEGEN--\":27:28   */\n      dup1\n        /* \"--CODEGEN--\":20:32   */\n      revert\n        /* \"--CODEGEN--\":5:7   */\n    tag_14:\n        /* \"src\\ENSRegistryWithFallback.sol\":6256:6366  function resolver(bytes32 node) public view returns (address) {\r... */\n      pop\n      tag_15\n      0x4\n      dup1\n      calldatasize\n      sub\n        /* \"--CODEGEN--\":13:15   */\n      0x20\n        /* \"--CODEGEN--\":8:11   */\n      dup2\n        /* \"--CODEGEN--\":5:16   */\n      lt\n        /* \"--CODEGEN--\":2:4   */\n      iszero\n      tag_16\n      jumpi\n        /* \"--CODEGEN--\":29:30   */\n      0x0\n        /* \"--CODEGEN--\":26:27   */\n      dup1\n        /* \"--CODEGEN--\":19:31   */\n      revert\n        /* \"--CODEGEN--\":2:4   */\n    tag_16:\n        /* \"src\\ENSRegistryWithFallback.sol\":6256:6366  function resolver(bytes32 node) public view returns (address) {\r... */\n      dup2\n      add\n      swap1\n      dup1\n      dup1\n      calldataload\n      swap1\n      0x20\n      add\n      swap1\n      swap3\n      swap2\n      swap1\n      pop\n      pop\n      pop\n      jump(tag_17)\n    tag_15:\n      mload(0x40)\n      dup1\n      dup3\n      0xffffffffffffffffffffffffffffffffffffffff\n      and\n      0xffffffffffffffffffffffffffffffffffffffff\n      and\n      dup2\n      mstore\n      0x20\n      add\n      swap2\n      pop\n      pop\n      mload(0x40)\n      dup1\n      swap2\n      sub\n      swap1\n      return\n        /* \"src\\ENSRegistryWithFallback.sol\":5857:6076  function owner(bytes32 node) public view returns (address) {\r... */\n    tag_3:\n      callvalue\n        /* \"--CODEGEN--\":8:17   */\n      dup1\n        /* \"--CODEGEN--\":5:7   */\n      iszero\n      tag_18\n      jumpi\n        /* \"--CODEGEN--\":30:31   */\n      0x0\n        /* \"--CODEGEN--\":27:28   */\n      dup1\n        /* \"--CODEGEN--\":20:32   */\n      revert\n        /* \"--CODEGEN--\":5:7   */\n    tag_18:\n        /* \"src\\ENSRegistryWithFallback.sol\":5857:6076  function owner(bytes32 node) public view returns (address) {\r... */\n      pop\n      tag_19\n      0x4\n      dup1\n      calldatasize\n      sub\n        /* \"--CODEGEN--\":13:15   */\n      0x20\n        /* \"--CODEGEN--\":8:11   */\n      dup2\n        /* \"--CODEGEN--\":5:16   */\n      lt\n        /* \"--CODEGEN--\":2:4   */\n      iszero\n      tag_20\n      jumpi\n        /* \"--CODEGEN--\":29:30   */\n      0x0\n        /* \"--CODEGEN--\":26:27   */\n      dup1\n        /* \"--CODEGEN--\":19:31   */\n      revert\n        /* \"--CODEGEN--\":2:4   */\n    tag_20:\n        /* \"src\\ENSRegistryWithFallback.sol\":5857:6076  function owner(bytes32 node) public view returns (address) {\r... */\n      dup2\n      add\n      swap1\n      dup1\n      dup1\n      calldataload\n      swap1\n      0x20\n      add\n      swap1\n      swap3\n      swap2\n      swap1\n      pop\n      pop\n      pop\n      jump(tag_21)\n    tag_19:\n      mload(0x40)\n      dup1\n      dup3\n      0xffffffffffffffffffffffffffffffffffffffff\n      and\n      0xffffffffffffffffffffffffffffffffffffffff\n      and\n      dup2\n      mstore\n      0x20\n      add\n      swap2\n      pop\n      pop\n      mload(0x40)\n      dup1\n      swap2\n      sub\n      swap1\n      return\n        /* \"src\\ENSRegistryWithFallback.sol\":4214:4506  function setSubnodeOwner(bytes32 node, bytes32 label, address owner) public authorised(node) returns(bytes32) {\r... */\n    tag_4:\n      callvalue\n        /* \"--CODEGEN--\":8:17   */\n      dup1\n        /* \"--CODEGEN--\":5:7   */\n      iszero\n      tag_22\n      jumpi\n        /* \"--CODEGEN--\":30:31   */\n      0x0\n        /* \"--CODEGEN--\":27:28   */\n      dup1\n        /* \"--CODEGEN--\":20:32   */\n      revert\n        /* \"--CODEGEN--\":5:7   */\n    tag_22:\n        /* \"src\\ENSRegistryWithFallback.sol\":4214:4506  function setSubnodeOwner(bytes32 node, bytes32 label, address owner) public authorised(node) returns(bytes32) {\r... */\n      pop\n      tag_23\n      0x4\n      dup1\n      calldatasize\n      sub\n        /* \"--CODEGEN--\":13:15   */\n      0x60\n        /* \"--CODEGEN--\":8:11   */\n      dup2\n        /* \"--CODEGEN--\":5:16   */\n      lt\n        /* \"--CODEGEN--\":2:4   */\n      iszero\n      tag_24\n      jumpi\n        /* \"--CODEGEN--\":29:30   */\n      0x0\n        /* \"--CODEGEN--\":26:27   */\n      dup1\n        /* \"--CODEGEN--\":19:31   */\n      revert\n        /* \"--CODEGEN--\":2:4   */\n    tag_24:\n        /* \"src\\ENSRegistryWithFallback.sol\":4214:4506  function setSubnodeOwner(bytes32 node, bytes32 label, address owner) public authorised(node) returns(bytes32) {\r... */\n      dup2\n      add\n      swap1\n      dup1\n      dup1\n      calldataload\n      swap1\n      0x20\n      add\n      swap1\n      swap3\n      swap2\n      swap1\n      dup1\n      calldataload\n      swap1\n      0x20\n      add\n      swap1\n      swap3\n      swap2\n      swap1\n      dup1\n      calldataload\n      0xffffffffffffffffffffffffffffffffffffffff\n      and\n      swap1\n      0x20\n      add\n      swap1\n      swap3\n      swap2\n      swap1\n      pop\n      pop\n      pop\n      jump(tag_25)\n    tag_23:\n      mload(0x40)\n      dup1\n      dup3\n      dup2\n      mstore\n      0x20\n      add\n      swap2\n      pop\n      pop\n      mload(0x40)\n      dup1\n      swap2\n      sub\n      swap1\n      return\n        /* \"src\\ENSRegistryWithFallback.sol\":5015:5156  function setTTL(bytes32 node, uint64 ttl) public authorised(node) {\r... */\n    tag_5:\n      callvalue\n        /* \"--CODEGEN--\":8:17   */\n      dup1\n        /* \"--CODEGEN--\":5:7   */\n      iszero\n      tag_26\n      jumpi\n        /* \"--CODEGEN--\":30:31   */\n      0x0\n        /* \"--CODEGEN--\":27:28   */\n      dup1\n        /* \"--CODEGEN--\":20:32   */\n      revert\n        /* \"--CODEGEN--\":5:7   */\n    tag_26:\n        /* \"src\\ENSRegistryWithFallback.sol\":5015:5156  function setTTL(bytes32 node, uint64 ttl) public authorised(node) {\r... */\n      pop\n      tag_27\n      0x4\n      dup1\n      calldatasize\n      sub\n        /* \"--CODEGEN--\":13:15   */\n      0x40\n        /* \"--CODEGEN--\":8:11   */\n      dup2\n        /* \"--CODEGEN--\":5:16   */\n      lt\n        /* \"--CODEGEN--\":2:4   */\n      iszero\n      tag_28\n      jumpi\n        /* \"--CODEGEN--\":29:30   */\n      0x0\n        /* \"--CODEGEN--\":26:27   */\n      dup1\n        /* \"--CODEGEN--\":19:31   */\n      revert\n        /* \"--CODEGEN--\":2:4   */\n    tag_28:\n        /* \"src\\ENSRegistryWithFallback.sol\":5015:5156  function setTTL(bytes32 node, uint64 ttl) public authorised(node) {\r... */\n      dup2\n      add\n      swap1\n      dup1\n      dup1\n      calldataload\n      swap1\n      0x20\n      add\n      swap1\n      swap3\n      swap2\n      swap1\n      dup1\n      calldataload\n      0xffffffffffffffff\n      and\n      swap1\n      0x20\n      add\n      swap1\n      swap3\n      swap2\n      swap1\n      pop\n      pop\n      pop\n      jump(tag_29)\n    tag_27:\n      stop\n        /* \"src\\ENSRegistryWithFallback.sol\":6541:6640  function ttl(bytes32 node) public view returns (uint64) {\r... */\n    tag_6:\n      callvalue\n        /* \"--CODEGEN--\":8:17   */\n      dup1\n        /* \"--CODEGEN--\":5:7   */\n      iszero\n      tag_30\n      jumpi\n        /* \"--CODEGEN--\":30:31   */\n      0x0\n        /* \"--CODEGEN--\":27:28   */\n      dup1\n        /* \"--CODEGEN--\":20:32   */\n      revert\n        /* \"--CODEGEN--\":5:7   */\n    tag_30:\n        /* \"src\\ENSRegistryWithFallback.sol\":6541:6640  function ttl(bytes32 node) public view returns (uint64) {\r... */\n      pop\n      tag_31\n      0x4\n      dup1\n      calldatasize\n      sub\n        /* \"--CODEGEN--\":13:15   */\n      0x20\n        /* \"--CODEGEN--\":8:11   */\n      dup2\n        /* \"--CODEGEN--\":5:16   */\n      lt\n        /* \"--CODEGEN--\":2:4   */\n      iszero\n      tag_32\n      jumpi\n        /* \"--CODEGEN--\":29:30   */\n      0x0\n        /* \"--CODEGEN--\":26:27   */\n      dup1\n        /* \"--CODEGEN--\":19:31   */\n      revert\n        /* \"--CODEGEN--\":2:4   */\n    tag_32:\n        /* \"src\\ENSRegistryWithFallback.sol\":6541:6640  function ttl(bytes32 node) public view returns (uint64) {\r... */\n      dup2\n      add\n      swap1\n      dup1\n      dup1\n      calldataload\n      swap1\n      0x20\n      add\n      swap1\n      swap3\n      swap2\n      swap1\n      pop\n      pop\n      pop\n      jump(tag_33)\n    tag_31:\n      mload(0x40)\n      dup1\n      dup3\n      0xffffffffffffffff\n      and\n      0xffffffffffffffff\n      and\n      dup2\n      mstore\n      0x20\n      add\n      swap2\n      pop\n      pop\n      mload(0x40)\n      dup1\n      swap2\n      sub\n      swap1\n      return\n        /* \"src\\ENSRegistryWithFallback.sol\":4688:4860  function setResolver(bytes32 node, address resolver) public authorised(node) {\r... */\n    tag_7:\n      callvalue\n        /* \"--CODEGEN--\":8:17   */\n      dup1\n        /* \"--CODEGEN--\":5:7   */\n      iszero\n      tag_34\n      jumpi\n        /* \"--CODEGEN--\":30:31   */\n      0x0\n        /* \"--CODEGEN--\":27:28   */\n      dup1\n        /* \"--CODEGEN--\":20:32   */\n      revert\n        /* \"--CODEGEN--\":5:7   */\n    tag_34:\n        /* \"src\\ENSRegistryWithFallback.sol\":4688:4860  function setResolver(bytes32 node, address resolver) public authorised(node) {\r... */\n      pop\n      tag_35\n      0x4\n      dup1\n      calldatasize\n      sub\n        /* \"--CODEGEN--\":13:15   */\n      0x40\n        /* \"--CODEGEN--\":8:11   */\n      dup2\n        /* \"--CODEGEN--\":5:16   */\n      lt\n        /* \"--CODEGEN--\":2:4   */\n      iszero\n      tag_36\n      jumpi\n        /* \"--CODEGEN--\":29:30   */\n      0x0\n        /* \"--CODEGEN--\":26:27   */\n      dup1\n        /* \"--CODEGEN--\":19:31   */\n      revert\n        /* \"--CODEGEN--\":2:4   */\n    tag_36:\n        /* \"src\\ENSRegistryWithFallback.sol\":4688:4860  function setResolver(bytes32 node, address resolver) public authorised(node) {\r... */\n      dup2\n      add\n      swap1\n      dup1\n      dup1\n      calldataload\n      swap1\n      0x20\n      add\n      swap1\n      swap3\n      swap2\n      swap1\n      dup1\n      calldataload\n      0xffffffffffffffffffffffffffffffffffffffff\n      and\n      swap1\n      0x20\n      add\n      swap1\n      swap3\n      swap2\n      swap1\n      pop\n      pop\n      pop\n      jump(tag_37)\n    tag_35:\n      stop\n        /* \"src\\ENSRegistryWithFallback.sol\":3745:3894  function setOwner(bytes32 node, address owner) public authorised(node) {\r... */\n    tag_8:\n      callvalue\n        /* \"--CODEGEN--\":8:17   */\n      dup1\n        /* \"--CODEGEN--\":5:7   */\n      iszero\n      tag_38\n      jumpi\n        /* \"--CODEGEN--\":30:31   */\n      0x0\n        /* \"--CODEGEN--\":27:28   */\n      dup1\n        /* \"--CODEGEN--\":20:32   */\n      revert\n        /* \"--CODEGEN--\":5:7   */\n    tag_38:\n        /* \"src\\ENSRegistryWithFallback.sol\":3745:3894  function setOwner(bytes32 node, address owner) public authorised(node) {\r... */\n      pop\n      tag_39\n      0x4\n      dup1\n      calldatasize\n      sub\n        /* \"--CODEGEN--\":13:15   */\n      0x40\n        /* \"--CODEGEN--\":8:11   */\n      dup2\n        /* \"--CODEGEN--\":5:16   */\n      lt\n        /* \"--CODEGEN--\":2:4   */\n      iszero\n      tag_40\n      jumpi\n        /* \"--CODEGEN--\":29:30   */\n      0x0\n        /* \"--CODEGEN--\":26:27   */\n      dup1\n        /* \"--CODEGEN--\":19:31   */\n      revert\n        /* \"--CODEGEN--\":2:4   */\n    tag_40:\n        /* \"src\\ENSRegistryWithFallback.sol\":3745:3894  function setOwner(bytes32 node, address owner) public authorised(node) {\r... */\n      dup2\n      add\n      swap1\n      dup1\n      dup1\n      calldataload\n      swap1\n      0x20\n      add\n      swap1\n      swap3\n      swap2\n      swap1\n      dup1\n      calldataload\n      0xffffffffffffffffffffffffffffffffffffffff\n      and\n      swap1\n      0x20\n      add\n      swap1\n      swap3\n      swap2\n      swap1\n      pop\n      pop\n      pop\n      jump(tag_41)\n    tag_39:\n      stop\n        /* \"src\\ENSRegistryWithFallback.sol\":3265:3499  function setSubnodeRecord(bytes32 node, bytes32 label, address owner, address resolver, uint64 ttl) external {\r... */\n    tag_9:\n      callvalue\n        /* \"--CODEGEN--\":8:17   */\n      dup1\n        /* \"--CODEGEN--\":5:7   */\n      iszero\n      tag_42\n      jumpi\n        /* \"--CODEGEN--\":30:31   */\n      0x0\n        /* \"--CODEGEN--\":27:28   */\n      dup1\n        /* \"--CODEGEN--\":20:32   */\n      revert\n        /* \"--CODEGEN--\":5:7   */\n    tag_42:\n        /* \"src\\ENSRegistryWithFallback.sol\":3265:3499  function setSubnodeRecord(bytes32 node, bytes32 label, address owner, address resolver, uint64 ttl) external {\r... */\n      pop\n      tag_43\n      0x4\n      dup1\n      calldatasize\n      sub\n        /* \"--CODEGEN--\":13:16   */\n      0xa0\n        /* \"--CODEGEN--\":8:11   */\n      dup2\n        /* \"--CODEGEN--\":5:17   */\n      lt\n        /* \"--CODEGEN--\":2:4   */\n      iszero\n      tag_44\n      jumpi\n        /* \"--CODEGEN--\":30:31   */\n      0x0\n        /* \"--CODEGEN--\":27:28   */\n      dup1\n        /* \"--CODEGEN--\":20:32   */\n      revert\n        /* \"--CODEGEN--\":2:4   */\n    tag_44:\n        /* \"src\\ENSRegistryWithFallback.sol\":3265:3499  function setSubnodeRecord(bytes32 node, bytes32 label, address owner, address resolver, uint64 ttl) external {\r... */\n      dup2\n      add\n      swap1\n      dup1\n      dup1\n      calldataload\n      swap1\n      0x20\n      add\n      swap1\n      swap3\n      swap2\n      swap1\n      dup1\n      calldataload\n      swap1\n      0x20\n      add\n      swap1\n      swap3\n      swap2\n      swap1\n      dup1\n      calldataload\n      0xffffffffffffffffffffffffffffffffffffffff\n      and\n      swap1\n      0x20\n      add\n      swap1\n      swap3\n      swap2\n      swap1\n      dup1\n      calldataload\n      0xffffffffffffffffffffffffffffffffffffffff\n      and\n      swap1\n      0x20\n      add\n      swap1\n      swap3\n      swap2\n      swap1\n      dup1\n      calldataload\n      0xffffffffffffffff\n      and\n      swap1\n      0x20\n      add\n      swap1\n      swap3\n      swap2\n      swap1\n      pop\n      pop\n      pop\n      jump(tag_45)\n    tag_43:\n      stop\n        /* \"src\\ENSRegistryWithFallback.sol\":5498:5690  function setApprovalForAll(address operator, bool approved) external {\r... */\n    tag_10:\n      callvalue\n        /* \"--CODEGEN--\":8:17   */\n      dup1\n        /* \"--CODEGEN--\":5:7   */\n      iszero\n      tag_46\n      jumpi\n        /* \"--CODEGEN--\":30:31   */\n      0x0\n        /* \"--CODEGEN--\":27:28   */\n      dup1\n        /* \"--CODEGEN--\":20:32   */\n      revert\n        /* \"--CODEGEN--\":5:7   */\n    tag_46:\n        /* \"src\\ENSRegistryWithFallback.sol\":5498:5690  function setApprovalForAll(address operator, bool approved) external {\r... */\n      pop\n      tag_47\n      0x4\n      dup1\n      calldatasize\n      sub\n        /* \"--CODEGEN--\":13:15   */\n      0x40\n        /* \"--CODEGEN--\":8:11   */\n      dup2\n        /* \"--CODEGEN--\":5:16   */\n      lt\n        /* \"--CODEGEN--\":2:4   */\n      iszero\n      tag_48\n      jumpi\n        /* \"--CODEGEN--\":29:30   */\n      0x0\n        /* \"--CODEGEN--\":26:27   */\n      dup1\n        /* \"--CODEGEN--\":19:31   */\n      revert\n        /* \"--CODEGEN--\":2:4   */\n    tag_48:\n        /* \"src\\ENSRegistryWithFallback.sol\":5498:5690  function setApprovalForAll(address operator, bool approved) external {\r... */\n      dup2\n      add\n      swap1\n      dup1\n      dup1\n      calldataload\n      0xffffffffffffffffffffffffffffffffffffffff\n      and\n      swap1\n      0x20\n      add\n      swap1\n      swap3\n      swap2\n      swap1\n      dup1\n      calldataload\n      iszero\n      iszero\n      swap1\n      0x20\n      add\n      swap1\n      swap3\n      swap2\n      swap1\n      pop\n      pop\n      pop\n      jump(tag_49)\n    tag_47:\n      stop\n        /* \"src\\ENSRegistryWithFallback.sol\":2771:2948  function setRecord(bytes32 node, address owner, address resolver, uint64 ttl) external {\r... */\n    tag_11:\n      callvalue\n        /* \"--CODEGEN--\":8:17   */\n      dup1\n        /* \"--CODEGEN--\":5:7   */\n      iszero\n      tag_50\n      jumpi\n        /* \"--CODEGEN--\":30:31   */\n      0x0\n        /* \"--CODEGEN--\":27:28   */\n      dup1\n        /* \"--CODEGEN--\":20:32   */\n      revert\n        /* \"--CODEGEN--\":5:7   */\n    tag_50:\n        /* \"src\\ENSRegistryWithFallback.sol\":2771:2948  function setRecord(bytes32 node, address owner, address resolver, uint64 ttl) external {\r... */\n      pop\n      tag_51\n      0x4\n      dup1\n      calldatasize\n      sub\n        /* \"--CODEGEN--\":13:16   */\n      0x80\n        /* \"--CODEGEN--\":8:11   */\n      dup2\n        /* \"--CODEGEN--\":5:17   */\n      lt\n        /* \"--CODEGEN--\":2:4   */\n      iszero\n      tag_52\n      jumpi\n        /* \"--CODEGEN--\":30:31   */\n      0x0\n        /* \"--CODEGEN--\":27:28   */\n      dup1\n        /* \"--CODEGEN--\":20:32   */\n      revert\n        /* \"--CODEGEN--\":2:4   */\n    tag_52:\n        /* \"src\\ENSRegistryWithFallback.sol\":2771:2948  function setRecord(bytes32 node, address owner, address resolver, uint64 ttl) external {\r... */\n      dup2\n      add\n      swap1\n      dup1\n      dup1\n      calldataload\n      swap1\n      0x20\n      add\n      swap1\n      swap3\n      swap2\n      swap1\n      dup1\n      calldataload\n      0xffffffffffffffffffffffffffffffffffffffff\n      and\n      swap1\n      0x20\n      add\n      swap1\n      swap3\n      swap2\n      swap1\n      dup1\n      calldataload\n      0xffffffffffffffffffffffffffffffffffffffff\n      and\n      swap1\n      0x20\n      add\n      swap1\n      swap3\n      swap2\n      swap1\n      dup1\n      calldataload\n      0xffffffffffffffff\n      and\n      swap1\n      0x20\n      add\n      swap1\n      swap3\n      swap2\n      swap1\n      pop\n      pop\n      pop\n      jump(tag_53)\n    tag_51:\n      stop\n        /* \"src\\ENSRegistryWithFallback.sol\":7262:7402  function isApprovedForAll(address owner, address operator) external view returns (bool) {\r... */\n    tag_12:\n      callvalue\n        /* \"--CODEGEN--\":8:17   */\n      dup1\n        /* \"--CODEGEN--\":5:7   */\n      iszero\n      tag_54\n      jumpi\n        /* \"--CODEGEN--\":30:31   */\n      0x0\n        /* \"--CODEGEN--\":27:28   */\n      dup1\n        /* \"--CODEGEN--\":20:32   */\n      revert\n        /* \"--CODEGEN--\":5:7   */\n    tag_54:\n        /* \"src\\ENSRegistryWithFallback.sol\":7262:7402  function isApprovedForAll(address owner, address operator) external view returns (bool) {\r... */\n      pop\n      tag_55\n      0x4\n      dup1\n      calldatasize\n      sub\n        /* \"--CODEGEN--\":13:15   */\n      0x40\n        /* \"--CODEGEN--\":8:11   */\n      dup2\n        /* \"--CODEGEN--\":5:16   */\n      lt\n        /* \"--CODEGEN--\":2:4   */\n      iszero\n      tag_56\n      jumpi\n        /* \"--CODEGEN--\":29:30   */\n      0x0\n        /* \"--CODEGEN--\":26:27   */\n      dup1\n        /* \"--CODEGEN--\":19:31   */\n      revert\n        /* \"--CODEGEN--\":2:4   */\n    tag_56:\n        /* \"src\\ENSRegistryWithFallback.sol\":7262:7402  function isApprovedForAll(address owner, address operator) external view returns (bool) {\r... */\n      dup2\n      add\n      swap1\n      dup1\n      dup1\n      calldataload\n      0xffffffffffffffffffffffffffffffffffffffff\n      and\n      swap1\n      0x20\n      add\n      swap1\n      swap3\n      swap2\n      swap1\n      dup1\n      calldataload\n      0xffffffffffffffffffffffffffffffffffffffff\n      and\n      swap1\n      0x20\n      add\n      swap1\n      swap3\n      swap2\n      swap1\n      pop\n      pop\n      pop\n      jump(tag_57)\n    tag_55:\n      mload(0x40)\n      dup1\n      dup3\n      iszero\n      iszero\n      iszero\n      iszero\n      dup2\n      mstore\n      0x20\n      add\n      swap2\n      pop\n      pop\n      mload(0x40)\n      dup1\n      swap2\n      sub\n      swap1\n      return\n        /* \"src\\ENSRegistryWithFallback.sol\":6817:6941  function recordExists(bytes32 node) public view returns (bool) {\r... */\n    tag_13:\n      callvalue\n        /* \"--CODEGEN--\":8:17   */\n      dup1\n        /* \"--CODEGEN--\":5:7   */\n      iszero\n      tag_58\n      jumpi\n        /* \"--CODEGEN--\":30:31   */\n      0x0\n        /* \"--CODEGEN--\":27:28   */\n      dup1\n        /* \"--CODEGEN--\":20:32   */\n      revert\n        /* \"--CODEGEN--\":5:7   */\n    tag_58:\n        /* \"src\\ENSRegistryWithFallback.sol\":6817:6941  function recordExists(bytes32 node) public view returns (bool) {\r... */\n      pop\n      tag_59\n      0x4\n      dup1\n      calldatasize\n      sub\n        /* \"--CODEGEN--\":13:15   */\n      0x20\n        /* \"--CODEGEN--\":8:11   */\n      dup2\n        /* \"--CODEGEN--\":5:16   */\n      lt\n        /* \"--CODEGEN--\":2:4   */\n      iszero\n      tag_60\n      jumpi\n        /* \"--CODEGEN--\":29:30   */\n      0x0\n        /* \"--CODEGEN--\":26:27   */\n      dup1\n        /* \"--CODEGEN--\":19:31   */\n      revert\n        /* \"--CODEGEN--\":2:4   */\n    tag_60:\n        /* \"src\\ENSRegistryWithFallback.sol\":6817:6941  function recordExists(bytes32 node) public view returns (bool) {\r... */\n      dup2\n      add\n      swap1\n      dup1\n      dup1\n      calldataload\n      swap1\n      0x20\n      add\n      swap1\n      swap3\n      swap2\n      swap1\n      pop\n      pop\n      pop\n      jump(tag_61)\n    tag_59:\n      mload(0x40)\n      dup1\n      dup3\n      iszero\n      iszero\n      iszero\n      iszero\n      dup2\n      mstore\n      0x20\n      add\n      swap2\n      pop\n      pop\n      mload(0x40)\n      dup1\n      swap2\n      sub\n      swap1\n      return\n        /* \"src\\ENSRegistryWithFallback.sol\":6256:6366  function resolver(bytes32 node) public view returns (address) {\r... */\n    tag_17:\n        /* \"src\\ENSRegistryWithFallback.sol\":6309:6316  address */\n      0x0\n        /* \"src\\ENSRegistryWithFallback.sol\":6336:6343  records */\n      dup1\n        /* \"src\\ENSRegistryWithFallback.sol\":6336:6349  records[node] */\n      0x0\n        /* \"src\\ENSRegistryWithFallback.sol\":6344:6348  node */\n      dup4\n        /* \"src\\ENSRegistryWithFallback.sol\":6336:6349  records[node] */\n      dup2\n      mstore\n      0x20\n      add\n      swap1\n      dup2\n      mstore\n      0x20\n      add\n      0x0\n      keccak256\n        /* \"src\\ENSRegistryWithFallback.sol\":6336:6358  records[node].resolver */\n      0x1\n      add\n      0x0\n      swap1\n      sload\n      swap1\n      0x100\n      exp\n      swap1\n      div\n      0xffffffffffffffffffffffffffffffffffffffff\n      and\n        /* \"src\\ENSRegistryWithFallback.sol\":6329:6358  return records[node].resolver */\n      swap1\n      pop\n        /* \"src\\ENSRegistryWithFallback.sol\":6256:6366  function resolver(bytes32 node) public view returns (address) {\r... */\n      swap2\n      swap1\n      pop\n      jump\t// out\n        /* \"src\\ENSRegistryWithFallback.sol\":5857:6076  function owner(bytes32 node) public view returns (address) {\r... */\n    tag_21:\n        /* \"src\\ENSRegistryWithFallback.sol\":5907:5914  address */\n      0x0\n        /* \"src\\ENSRegistryWithFallback.sol\":5927:5939  address addr */\n      dup1\n        /* \"src\\ENSRegistryWithFallback.sol\":5942:5949  records */\n      0x0\n        /* \"src\\ENSRegistryWithFallback.sol\":5942:5955  records[node] */\n      dup1\n        /* \"src\\ENSRegistryWithFallback.sol\":5950:5954  node */\n      dup5\n        /* \"src\\ENSRegistryWithFallback.sol\":5942:5955  records[node] */\n      dup2\n      mstore\n      0x20\n      add\n      swap1\n      dup2\n      mstore\n      0x20\n      add\n      0x0\n      keccak256\n        /* \"src\\ENSRegistryWithFallback.sol\":5942:5961  records[node].owner */\n      0x0\n      add\n      0x0\n      swap1\n      sload\n      swap1\n      0x100\n      exp\n      swap1\n      div\n      0xffffffffffffffffffffffffffffffffffffffff\n      and\n        /* \"src\\ENSRegistryWithFallback.sol\":5927:5961  address addr = records[node].owner */\n      swap1\n      pop\n        /* \"src\\ENSRegistryWithFallback.sol\":5992:5996  this */\n      address\n        /* \"src\\ENSRegistryWithFallback.sol\":5976:5997  addr == address(this) */\n      0xffffffffffffffffffffffffffffffffffffffff\n      and\n        /* \"src\\ENSRegistryWithFallback.sol\":5976:5980  addr */\n      dup2\n        /* \"src\\ENSRegistryWithFallback.sol\":5976:5997  addr == address(this) */\n      0xffffffffffffffffffffffffffffffffffffffff\n      and\n      eq\n        /* \"src\\ENSRegistryWithFallback.sol\":5972:6045  if (addr == address(this)) {\r... */\n      iszero\n      tag_64\n      jumpi\n        /* \"src\\ENSRegistryWithFallback.sol\":6029:6032  0x0 */\n      0x0\n        /* \"src\\ENSRegistryWithFallback.sol\":6014:6033  return address(0x0) */\n      swap2\n      pop\n      pop\n      jump(tag_63)\n        /* \"src\\ENSRegistryWithFallback.sol\":5972:6045  if (addr == address(this)) {\r... */\n    tag_64:\n        /* \"src\\ENSRegistryWithFallback.sol\":6064:6068  addr */\n      dup1\n        /* \"src\\ENSRegistryWithFallback.sol\":6057:6068  return addr */\n      swap2\n      pop\n      pop\n        /* \"src\\ENSRegistryWithFallback.sol\":5857:6076  function owner(bytes32 node) public view returns (address) {\r... */\n    tag_63:\n      swap2\n      swap1\n      pop\n      jump\t// out\n        /* \"src\\ENSRegistryWithFallback.sol\":4214:4506  function setSubnodeOwner(bytes32 node, bytes32 label, address owner) public authorised(node) returns(bytes32) {\r... */\n    tag_25:\n        /* \"src\\ENSRegistryWithFallback.sol\":4315:4322  bytes32 */\n      0x0\n        /* \"src\\ENSRegistryWithFallback.sol\":4301:4305  node */\n      dup4\n        /* \"src\\ENSRegistryWithFallback.sol\":2253:2266  address owner */\n      0x0\n        /* \"src\\ENSRegistryWithFallback.sol\":2269:2276  records */\n      dup1\n        /* \"src\\ENSRegistryWithFallback.sol\":2269:2282  records[node] */\n      0x0\n        /* \"src\\ENSRegistryWithFallback.sol\":2277:2281  node */\n      dup4\n        /* \"src\\ENSRegistryWithFallback.sol\":2269:2282  records[node] */\n      dup2\n      mstore\n      0x20\n      add\n      swap1\n      dup2\n      mstore\n      0x20\n      add\n      0x0\n      keccak256\n        /* \"src\\ENSRegistryWithFallback.sol\":2269:2288  records[node].owner */\n      0x0\n      add\n      0x0\n      swap1\n      sload\n      swap1\n      0x100\n      exp\n      swap1\n      div\n      0xffffffffffffffffffffffffffffffffffffffff\n      and\n        /* \"src\\ENSRegistryWithFallback.sol\":2253:2288  address owner = records[node].owner */\n      swap1\n      pop\n        /* \"src\\ENSRegistryWithFallback.sol\":2316:2326  msg.sender */\n      caller\n        /* \"src\\ENSRegistryWithFallback.sol\":2307:2326  owner == msg.sender */\n      0xffffffffffffffffffffffffffffffffffffffff\n      and\n        /* \"src\\ENSRegistryWithFallback.sol\":2307:2312  owner */\n      dup2\n        /* \"src\\ENSRegistryWithFallback.sol\":2307:2326  owner == msg.sender */\n      0xffffffffffffffffffffffffffffffffffffffff\n      and\n      eq\n        /* \"src\\ENSRegistryWithFallback.sol\":2307:2358  owner == msg.sender || operators[owner][msg.sender] */\n      dup1\n      tag_66\n      jumpi\n      pop\n        /* \"src\\ENSRegistryWithFallback.sol\":2330:2339  operators */\n      0x1\n        /* \"src\\ENSRegistryWithFallback.sol\":2330:2346  operators[owner] */\n      0x0\n        /* \"src\\ENSRegistryWithFallback.sol\":2340:2345  owner */\n      dup3\n        /* \"src\\ENSRegistryWithFallback.sol\":2330:2346  operators[owner] */\n      0xffffffffffffffffffffffffffffffffffffffff\n      and\n      0xffffffffffffffffffffffffffffffffffffffff\n      and\n      dup2\n      mstore\n      0x20\n      add\n      swap1\n      dup2\n      mstore\n      0x20\n      add\n      0x0\n      keccak256\n        /* \"src\\ENSRegistryWithFallback.sol\":2330:2358  operators[owner][msg.sender] */\n      0x0\n        /* \"src\\ENSRegistryWithFallback.sol\":2347:2357  msg.sender */\n      caller\n        /* \"src\\ENSRegistryWithFallback.sol\":2330:2358  operators[owner][msg.sender] */\n      0xffffffffffffffffffffffffffffffffffffffff\n      and\n      0xffffffffffffffffffffffffffffffffffffffff\n      and\n      dup2\n      mstore\n      0x20\n      add\n      swap1\n      dup2\n      mstore\n      0x20\n      add\n      0x0\n      keccak256\n      0x0\n      swap1\n      sload\n      swap1\n      0x100\n      exp\n      swap1\n      div\n      0xff\n      and\n        /* \"src\\ENSRegistryWithFallback.sol\":2307:2358  owner == msg.sender || operators[owner][msg.sender] */\n    tag_66:\n        /* \"src\\ENSRegistryWithFallback.sol\":2299:2359  require(owner == msg.sender || operators[owner][msg.sender]) */\n      iszero\n      iszero\n      tag_67\n      jumpi\n      0x0\n      dup1\n      revert\n    tag_67:\n        /* \"src\\ENSRegistryWithFallback.sol\":4335:4350  bytes32 subnode */\n      0x0\n        /* \"src\\ENSRegistryWithFallback.sol\":4380:4384  node */\n      dup7\n        /* \"src\\ENSRegistryWithFallback.sol\":4386:4391  label */\n      dup7\n        /* \"src\\ENSRegistryWithFallback.sol\":4363:4392  abi.encodePacked(node, label) */\n      add(0x20, mload(0x40))\n      dup1\n      dup4\n      dup2\n      mstore\n      0x20\n      add\n      dup3\n      dup2\n      mstore\n      0x20\n      add\n      swap3\n      pop\n      pop\n      pop\n      mload(0x40)\n        /* \"--CODEGEN--\":49:53   */\n      0x20\n        /* \"--CODEGEN--\":39:46   */\n      dup2\n        /* \"--CODEGEN--\":30:37   */\n      dup4\n        /* \"--CODEGEN--\":26:47   */\n      sub\n        /* \"--CODEGEN--\":22:54   */\n      sub\n        /* \"--CODEGEN--\":13:20   */\n      dup2\n        /* \"--CODEGEN--\":6:55   */\n      mstore\n        /* \"src\\ENSRegistryWithFallback.sol\":4363:4392  abi.encodePacked(node, label) */\n      swap1\n      0x40\n      mstore\n        /* \"src\\ENSRegistryWithFallback.sol\":4353:4393  keccak256(abi.encodePacked(node, label)) */\n      dup1\n      mload\n      swap1\n      0x20\n      add\n      keccak256\n        /* \"src\\ENSRegistryWithFallback.sol\":4335:4393  bytes32 subnode = keccak256(abi.encodePacked(node, label)) */\n      swap1\n      pop\n        /* \"src\\ENSRegistryWithFallback.sol\":4404:4429  _setOwner(subnode, owner) */\n      tag_69\n        /* \"src\\ENSRegistryWithFallback.sol\":4414:4421  subnode */\n      dup2\n        /* \"src\\ENSRegistryWithFallback.sol\":4423:4428  owner */\n      dup7\n        /* \"src\\ENSRegistryWithFallback.sol\":4404:4413  _setOwner */\n      tag_70\n        /* \"src\\ENSRegistryWithFallback.sol\":4404:4429  _setOwner(subnode, owner) */\n      jump\t// in\n    tag_69:\n        /* \"src\\ENSRegistryWithFallback.sol\":4460:4465  label */\n      dup6\n        /* \"src\\ENSRegistryWithFallback.sol\":4454:4458  node */\n      dup8\n        /* \"src\\ENSRegistryWithFallback.sol\":4445:4473  NewOwner(node, label, owner) */\n      0xce0457fe73731f824cc272376169235128c118b49d344817417c6d108d155e82\n        /* \"src\\ENSRegistryWithFallback.sol\":4467:4472  owner */\n      dup8\n        /* \"src\\ENSRegistryWithFallback.sol\":4445:4473  NewOwner(node, label, owner) */\n      mload(0x40)\n      dup1\n      dup3\n      0xffffffffffffffffffffffffffffffffffffffff\n      and\n      0xffffffffffffffffffffffffffffffffffffffff\n      and\n      dup2\n      mstore\n      0x20\n      add\n      swap2\n      pop\n      pop\n      mload(0x40)\n      dup1\n      swap2\n      sub\n      swap1\n      log3\n        /* \"src\\ENSRegistryWithFallback.sol\":4491:4498  subnode */\n      dup1\n        /* \"src\\ENSRegistryWithFallback.sol\":4484:4498  return subnode */\n      swap4\n      pop\n      pop\n        /* \"src\\ENSRegistryWithFallback.sol\":4214:4506  function setSubnodeOwner(bytes32 node, bytes32 label, address owner) public authorised(node) returns(bytes32) {\r... */\n      pop\n      pop\n      swap4\n      swap3\n      pop\n      pop\n      pop\n      jump\t// out\n        /* \"src\\ENSRegistryWithFallback.sol\":5015:5156  function setTTL(bytes32 node, uint64 ttl) public authorised(node) {\r... */\n    tag_29:\n        /* \"src\\ENSRegistryWithFallback.sol\":5075:5079  node */\n      dup2\n        /* \"src\\ENSRegistryWithFallback.sol\":2253:2266  address owner */\n      0x0\n        /* \"src\\ENSRegistryWithFallback.sol\":2269:2276  records */\n      dup1\n        /* \"src\\ENSRegistryWithFallback.sol\":2269:2282  records[node] */\n      0x0\n        /* \"src\\ENSRegistryWithFallback.sol\":2277:2281  node */\n      dup4\n        /* \"src\\ENSRegistryWithFallback.sol\":2269:2282  records[node] */\n      dup2\n      mstore\n      0x20\n      add\n      swap1\n      dup2\n      mstore\n      0x20\n      add\n      0x0\n      keccak256\n        /* \"src\\ENSRegistryWithFallback.sol\":2269:2288  records[node].owner */\n      0x0\n      add\n      0x0\n      swap1\n      sload\n      swap1\n      0x100\n      exp\n      swap1\n      div\n      0xffffffffffffffffffffffffffffffffffffffff\n      and\n        /* \"src\\ENSRegistryWithFallback.sol\":2253:2288  address owner = records[node].owner */\n      swap1\n      pop\n        /* \"src\\ENSRegistryWithFallback.sol\":2316:2326  msg.sender */\n      caller\n        /* \"src\\ENSRegistryWithFallback.sol\":2307:2326  owner == msg.sender */\n      0xffffffffffffffffffffffffffffffffffffffff\n      and\n        /* \"src\\ENSRegistryWithFallback.sol\":2307:2312  owner */\n      dup2\n        /* \"src\\ENSRegistryWithFallback.sol\":2307:2326  owner == msg.sender */\n      0xffffffffffffffffffffffffffffffffffffffff\n      and\n      eq\n        /* \"src\\ENSRegistryWithFallback.sol\":2307:2358  owner == msg.sender || operators[owner][msg.sender] */\n      dup1\n      tag_72\n      jumpi\n      pop\n        /* \"src\\ENSRegistryWithFallback.sol\":2330:2339  operators */\n      0x1\n        /* \"src\\ENSRegistryWithFallback.sol\":2330:2346  operators[owner] */\n      0x0\n        /* \"src\\ENSRegistryWithFallback.sol\":2340:2345  owner */\n      dup3\n        /* \"src\\ENSRegistryWithFallback.sol\":2330:2346  operators[owner] */\n      0xffffffffffffffffffffffffffffffffffffffff\n      and\n      0xffffffffffffffffffffffffffffffffffffffff\n      and\n      dup2\n      mstore\n      0x20\n      add\n      swap1\n      dup2\n      mstore\n      0x20\n      add\n      0x0\n      keccak256\n        /* \"src\\ENSRegistryWithFallback.sol\":2330:2358  operators[owner][msg.sender] */\n      0x0\n        /* \"src\\ENSRegistryWithFallback.sol\":2347:2357  msg.sender */\n      caller\n        /* \"src\\ENSRegistryWithFallback.sol\":2330:2358  operators[owner][msg.sender] */\n      0xffffffffffffffffffffffffffffffffffffffff\n      and\n      0xffffffffffffffffffffffffffffffffffffffff\n      and\n      dup2\n      mstore\n      0x20\n      add\n      swap1\n      dup2\n      mstore\n      0x20\n      add\n      0x0\n      keccak256\n      0x0\n      swap1\n      sload\n      swap1\n      0x100\n      exp\n      swap1\n      div\n      0xff\n      and\n        /* \"src\\ENSRegistryWithFallback.sol\":2307:2358  owner == msg.sender || operators[owner][msg.sender] */\n    tag_72:\n        /* \"src\\ENSRegistryWithFallback.sol\":2299:2359  require(owner == msg.sender || operators[owner][msg.sender]) */\n      iszero\n      iszero\n      tag_73\n      jumpi\n      0x0\n      dup1\n      revert\n    tag_73:\n        /* \"src\\ENSRegistryWithFallback.sol\":5104:5108  node */\n      dup4\n        /* \"src\\ENSRegistryWithFallback.sol\":5097:5114  NewTTL(node, ttl) */\n      0x1d4f9bbfc9cab89d66e1a1562f2233ccbf1308cb4f63de2ead5787adddb8fa68\n        /* \"src\\ENSRegistryWithFallback.sol\":5110:5113  ttl */\n      dup5\n        /* \"src\\ENSRegistryWithFallback.sol\":5097:5114  NewTTL(node, ttl) */\n      mload(0x40)\n      dup1\n      dup3\n      0xffffffffffffffff\n      and\n      0xffffffffffffffff\n      and\n      dup2\n      mstore\n      0x20\n      add\n      swap2\n      pop\n      pop\n      mload(0x40)\n      dup1\n      swap2\n      sub\n      swap1\n      log2\n        /* \"src\\ENSRegistryWithFallback.sol\":5145:5148  ttl */\n      dup3\n        /* \"src\\ENSRegistryWithFallback.sol\":5125:5132  records */\n      0x0\n        /* \"src\\ENSRegistryWithFallback.sol\":5125:5138  records[node] */\n      dup1\n        /* \"src\\ENSRegistryWithFallback.sol\":5133:5137  node */\n      dup7\n        /* \"src\\ENSRegistryWithFallback.sol\":5125:5138  records[node] */\n      dup2\n      mstore\n      0x20\n      add\n      swap1\n      dup2\n      mstore\n      0x20\n      add\n      0x0\n      keccak256\n        /* \"src\\ENSRegistryWithFallback.sol\":5125:5142  records[node].ttl */\n      0x1\n      add\n      0x14\n        /* \"src\\ENSRegistryWithFallback.sol\":5125:5148  records[node].ttl = ttl */\n      0x100\n      exp\n      dup2\n      sload\n      dup2\n      0xffffffffffffffff\n      mul\n      not\n      and\n      swap1\n      dup4\n      0xffffffffffffffff\n      and\n      mul\n      or\n      swap1\n      sstore\n      pop\n        /* \"src\\ENSRegistryWithFallback.sol\":5015:5156  function setTTL(bytes32 node, uint64 ttl) public authorised(node) {\r... */\n      pop\n      pop\n      pop\n      pop\n      jump\t// out\n        /* \"src\\ENSRegistryWithFallback.sol\":6541:6640  function ttl(bytes32 node) public view returns (uint64) {\r... */\n    tag_33:\n        /* \"src\\ENSRegistryWithFallback.sol\":6589:6595  uint64 */\n      0x0\n        /* \"src\\ENSRegistryWithFallback.sol\":6615:6622  records */\n      dup1\n        /* \"src\\ENSRegistryWithFallback.sol\":6615:6628  records[node] */\n      0x0\n        /* \"src\\ENSRegistryWithFallback.sol\":6623:6627  node */\n      dup4\n        /* \"src\\ENSRegistryWithFallback.sol\":6615:6628  records[node] */\n      dup2\n      mstore\n      0x20\n      add\n      swap1\n      dup2\n      mstore\n      0x20\n      add\n      0x0\n      keccak256\n        /* \"src\\ENSRegistryWithFallback.sol\":6615:6632  records[node].ttl */\n      0x1\n      add\n      0x14\n      swap1\n      sload\n      swap1\n      0x100\n      exp\n      swap1\n      div\n      0xffffffffffffffff\n      and\n        /* \"src\\ENSRegistryWithFallback.sol\":6608:6632  return records[node].ttl */\n      swap1\n      pop\n        /* \"src\\ENSRegistryWithFallback.sol\":6541:6640  function ttl(bytes32 node) public view returns (uint64) {\r... */\n      swap2\n      swap1\n      pop\n      jump\t// out\n        /* \"src\\ENSRegistryWithFallback.sol\":4688:4860  function setResolver(bytes32 node, address resolver) public authorised(node) {\r... */\n    tag_37:\n        /* \"src\\ENSRegistryWithFallback.sol\":4759:4763  node */\n      dup2\n        /* \"src\\ENSRegistryWithFallback.sol\":2253:2266  address owner */\n      0x0\n        /* \"src\\ENSRegistryWithFallback.sol\":2269:2276  records */\n      dup1\n        /* \"src\\ENSRegistryWithFallback.sol\":2269:2282  records[node] */\n      0x0\n        /* \"src\\ENSRegistryWithFallback.sol\":2277:2281  node */\n      dup4\n        /* \"src\\ENSRegistryWithFallback.sol\":2269:2282  records[node] */\n      dup2\n      mstore\n      0x20\n      add\n      swap1\n      dup2\n      mstore\n      0x20\n      add\n      0x0\n      keccak256\n        /* \"src\\ENSRegistryWithFallback.sol\":2269:2288  records[node].owner */\n      0x0\n      add\n      0x0\n      swap1\n      sload\n      swap1\n      0x100\n      exp\n      swap1\n      div\n      0xffffffffffffffffffffffffffffffffffffffff\n      and\n        /* \"src\\ENSRegistryWithFallback.sol\":2253:2288  address owner = records[node].owner */\n      swap1\n      pop\n        /* \"src\\ENSRegistryWithFallback.sol\":2316:2326  msg.sender */\n      caller\n        /* \"src\\ENSRegistryWithFallback.sol\":2307:2326  owner == msg.sender */\n      0xffffffffffffffffffffffffffffffffffffffff\n      and\n        /* \"src\\ENSRegistryWithFallback.sol\":2307:2312  owner */\n      dup2\n        /* \"src\\ENSRegistryWithFallback.sol\":2307:2326  owner == msg.sender */\n      0xffffffffffffffffffffffffffffffffffffffff\n      and\n      eq\n        /* \"src\\ENSRegistryWithFallback.sol\":2307:2358  owner == msg.sender || operators[owner][msg.sender] */\n      dup1\n      tag_77\n      jumpi\n      pop\n        /* \"src\\ENSRegistryWithFallback.sol\":2330:2339  operators */\n      0x1\n        /* \"src\\ENSRegistryWithFallback.sol\":2330:2346  operators[owner] */\n      0x0\n        /* \"src\\ENSRegistryWithFallback.sol\":2340:2345  owner */\n      dup3\n        /* \"src\\ENSRegistryWithFallback.sol\":2330:2346  operators[owner] */\n      0xffffffffffffffffffffffffffffffffffffffff\n      and\n      0xffffffffffffffffffffffffffffffffffffffff\n      and\n      dup2\n      mstore\n      0x20\n      add\n      swap1\n      dup2\n      mstore\n      0x20\n      add\n      0x0\n      keccak256\n        /* \"src\\ENSRegistryWithFallback.sol\":2330:2358  operators[owner][msg.sender] */\n      0x0\n        /* \"src\\ENSRegistryWithFallback.sol\":2347:2357  msg.sender */\n      caller\n        /* \"src\\ENSRegistryWithFallback.sol\":2330:2358  operators[owner][msg.sender] */\n      0xffffffffffffffffffffffffffffffffffffffff\n      and\n      0xffffffffffffffffffffffffffffffffffffffff\n      and\n      dup2\n      mstore\n      0x20\n      add\n      swap1\n      dup2\n      mstore\n      0x20\n      add\n      0x0\n      keccak256\n      0x0\n      swap1\n      sload\n      swap1\n      0x100\n      exp\n      swap1\n      div\n      0xff\n      and\n        /* \"src\\ENSRegistryWithFallback.sol\":2307:2358  owner == msg.sender || operators[owner][msg.sender] */\n    tag_77:\n        /* \"src\\ENSRegistryWithFallback.sol\":2299:2359  require(owner == msg.sender || operators[owner][msg.sender]) */\n      iszero\n      iszero\n      tag_78\n      jumpi\n      0x0\n      dup1\n      revert\n    tag_78:\n        /* \"src\\ENSRegistryWithFallback.sol\":4793:4797  node */\n      dup4\n        /* \"src\\ENSRegistryWithFallback.sol\":4781:4808  NewResolver(node, resolver) */\n      0x335721b01866dc23fbee8b6b2c7b1e14d6f05c28cd35a2c934239f94095602a0\n        /* \"src\\ENSRegistryWithFallback.sol\":4799:4807  resolver */\n      dup5\n        /* \"src\\ENSRegistryWithFallback.sol\":4781:4808  NewResolver(node, resolver) */\n      mload(0x40)\n      dup1\n      dup3\n      0xffffffffffffffffffffffffffffffffffffffff\n      and\n      0xffffffffffffffffffffffffffffffffffffffff\n      and\n      dup2\n      mstore\n      0x20\n      add\n      swap2\n      pop\n      pop\n      mload(0x40)\n      dup1\n      swap2\n      sub\n      swap1\n      log2\n        /* \"src\\ENSRegistryWithFallback.sol\":4844:4852  resolver */\n      dup3\n        /* \"src\\ENSRegistryWithFallback.sol\":4819:4826  records */\n      0x0\n        /* \"src\\ENSRegistryWithFallback.sol\":4819:4832  records[node] */\n      dup1\n        /* \"src\\ENSRegistryWithFallback.sol\":4827:4831  node */\n      dup7\n        /* \"src\\ENSRegistryWithFallback.sol\":4819:4832  records[node] */\n      dup2\n      mstore\n      0x20\n      add\n      swap1\n      dup2\n      mstore\n      0x20\n      add\n      0x0\n      keccak256\n        /* \"src\\ENSRegistryWithFallback.sol\":4819:4841  records[node].resolver */\n      0x1\n      add\n      0x0\n        /* \"src\\ENSRegistryWithFallback.sol\":4819:4852  records[node].resolver = resolver */\n      0x100\n      exp\n      dup2\n      sload\n      dup2\n      0xffffffffffffffffffffffffffffffffffffffff\n      mul\n      not\n      and\n      swap1\n      dup4\n      0xffffffffffffffffffffffffffffffffffffffff\n      and\n      mul\n      or\n      swap1\n      sstore\n      pop\n        /* \"src\\ENSRegistryWithFallback.sol\":4688:4860  function setResolver(bytes32 node, address resolver) public authorised(node) {\r... */\n      pop\n      pop\n      pop\n      pop\n      jump\t// out\n        /* \"src\\ENSRegistryWithFallback.sol\":3745:3894  function setOwner(bytes32 node, address owner) public authorised(node) {\r... */\n    tag_41:\n        /* \"src\\ENSRegistryWithFallback.sol\":3810:3814  node */\n      dup2\n        /* \"src\\ENSRegistryWithFallback.sol\":2253:2266  address owner */\n      0x0\n        /* \"src\\ENSRegistryWithFallback.sol\":2269:2276  records */\n      dup1\n        /* \"src\\ENSRegistryWithFallback.sol\":2269:2282  records[node] */\n      0x0\n        /* \"src\\ENSRegistryWithFallback.sol\":2277:2281  node */\n      dup4\n        /* \"src\\ENSRegistryWithFallback.sol\":2269:2282  records[node] */\n      dup2\n      mstore\n      0x20\n      add\n      swap1\n      dup2\n      mstore\n      0x20\n      add\n      0x0\n      keccak256\n        /* \"src\\ENSRegistryWithFallback.sol\":2269:2288  records[node].owner */\n      0x0\n      add\n      0x0\n      swap1\n      sload\n      swap1\n      0x100\n      exp\n      swap1\n      div\n      0xffffffffffffffffffffffffffffffffffffffff\n      and\n        /* \"src\\ENSRegistryWithFallback.sol\":2253:2288  address owner = records[node].owner */\n      swap1\n      pop\n        /* \"src\\ENSRegistryWithFallback.sol\":2316:2326  msg.sender */\n      caller\n        /* \"src\\ENSRegistryWithFallback.sol\":2307:2326  owner == msg.sender */\n      0xffffffffffffffffffffffffffffffffffffffff\n      and\n        /* \"src\\ENSRegistryWithFallback.sol\":2307:2312  owner */\n      dup2\n        /* \"src\\ENSRegistryWithFallback.sol\":2307:2326  owner == msg.sender */\n      0xffffffffffffffffffffffffffffffffffffffff\n      and\n      eq\n        /* \"src\\ENSRegistryWithFallback.sol\":2307:2358  owner == msg.sender || operators[owner][msg.sender] */\n      dup1\n      tag_81\n      jumpi\n      pop\n        /* \"src\\ENSRegistryWithFallback.sol\":2330:2339  operators */\n      0x1\n        /* \"src\\ENSRegistryWithFallback.sol\":2330:2346  operators[owner] */\n      0x0\n        /* \"src\\ENSRegistryWithFallback.sol\":2340:2345  owner */\n      dup3\n        /* \"src\\ENSRegistryWithFallback.sol\":2330:2346  operators[owner] */\n      0xffffffffffffffffffffffffffffffffffffffff\n      and\n      0xffffffffffffffffffffffffffffffffffffffff\n      and\n      dup2\n      mstore\n      0x20\n      add\n      swap1\n      dup2\n      mstore\n      0x20\n      add\n      0x0\n      keccak256\n        /* \"src\\ENSRegistryWithFallback.sol\":2330:2358  operators[owner][msg.sender] */\n      0x0\n        /* \"src\\ENSRegistryWithFallback.sol\":2347:2357  msg.sender */\n      caller\n        /* \"src\\ENSRegistryWithFallback.sol\":2330:2358  operators[owner][msg.sender] */\n      0xffffffffffffffffffffffffffffffffffffffff\n      and\n      0xffffffffffffffffffffffffffffffffffffffff\n      and\n      dup2\n      mstore\n      0x20\n      add\n      swap1\n      dup2\n      mstore\n      0x20\n      add\n      0x0\n      keccak256\n      0x0\n      swap1\n      sload\n      swap1\n      0x100\n      exp\n      swap1\n      div\n      0xff\n      and\n        /* \"src\\ENSRegistryWithFallback.sol\":2307:2358  owner == msg.sender || operators[owner][msg.sender] */\n    tag_81:\n        /* \"src\\ENSRegistryWithFallback.sol\":2299:2359  require(owner == msg.sender || operators[owner][msg.sender]) */\n      iszero\n      iszero\n      tag_82\n      jumpi\n      0x0\n      dup1\n      revert\n    tag_82:\n        /* \"src\\ENSRegistryWithFallback.sol\":3827:3849  _setOwner(node, owner) */\n      tag_84\n        /* \"src\\ENSRegistryWithFallback.sol\":3837:3841  node */\n      dup5\n        /* \"src\\ENSRegistryWithFallback.sol\":3843:3848  owner */\n      dup5\n        /* \"src\\ENSRegistryWithFallback.sol\":3827:3836  _setOwner */\n      tag_70\n        /* \"src\\ENSRegistryWithFallback.sol\":3827:3849  _setOwner(node, owner) */\n      jump\t// in\n    tag_84:\n        /* \"src\\ENSRegistryWithFallback.sol\":3874:3878  node */\n      dup4\n        /* \"src\\ENSRegistryWithFallback.sol\":3865:3886  Transfer(node, owner) */\n      0xd4735d920b0f87494915f556dd9b54c8f309026070caea5c737245152564d266\n        /* \"src\\ENSRegistryWithFallback.sol\":3880:3885  owner */\n      dup5\n        /* \"src\\ENSRegistryWithFallback.sol\":3865:3886  Transfer(node, owner) */\n      mload(0x40)\n      dup1\n      dup3\n      0xffffffffffffffffffffffffffffffffffffffff\n      and\n      0xffffffffffffffffffffffffffffffffffffffff\n      and\n      dup2\n      mstore\n      0x20\n      add\n      swap2\n      pop\n      pop\n      mload(0x40)\n      dup1\n      swap2\n      sub\n      swap1\n      log2\n        /* \"src\\ENSRegistryWithFallback.sol\":3745:3894  function setOwner(bytes32 node, address owner) public authorised(node) {\r... */\n      pop\n      pop\n      pop\n      pop\n      jump\t// out\n        /* \"src\\ENSRegistryWithFallback.sol\":3265:3499  function setSubnodeRecord(bytes32 node, bytes32 label, address owner, address resolver, uint64 ttl) external {\r... */\n    tag_45:\n        /* \"src\\ENSRegistryWithFallback.sol\":3385:3400  bytes32 subnode */\n      0x0\n        /* \"src\\ENSRegistryWithFallback.sol\":3403:3438  setSubnodeOwner(node, label, owner) */\n      tag_86\n        /* \"src\\ENSRegistryWithFallback.sol\":3419:3423  node */\n      dup7\n        /* \"src\\ENSRegistryWithFallback.sol\":3425:3430  label */\n      dup7\n        /* \"src\\ENSRegistryWithFallback.sol\":3432:3437  owner */\n      dup7\n        /* \"src\\ENSRegistryWithFallback.sol\":3403:3418  setSubnodeOwner */\n      tag_25\n        /* \"src\\ENSRegistryWithFallback.sol\":3403:3438  setSubnodeOwner(node, label, owner) */\n      jump\t// in\n    tag_86:\n        /* \"src\\ENSRegistryWithFallback.sol\":3385:3438  bytes32 subnode = setSubnodeOwner(node, label, owner) */\n      swap1\n      pop\n        /* \"src\\ENSRegistryWithFallback.sol\":3449:3491  _setResolverAndTTL(subnode, resolver, ttl) */\n      tag_87\n        /* \"src\\ENSRegistryWithFallback.sol\":3468:3475  subnode */\n      dup2\n        /* \"src\\ENSRegistryWithFallback.sol\":3477:3485  resolver */\n      dup5\n        /* \"src\\ENSRegistryWithFallback.sol\":3487:3490  ttl */\n      dup5\n        /* \"src\\ENSRegistryWithFallback.sol\":3449:3467  _setResolverAndTTL */\n      tag_88\n        /* \"src\\ENSRegistryWithFallback.sol\":3449:3491  _setResolverAndTTL(subnode, resolver, ttl) */\n      jump\t// in\n    tag_87:\n        /* \"src\\ENSRegistryWithFallback.sol\":3265:3499  function setSubnodeRecord(bytes32 node, bytes32 label, address owner, address resolver, uint64 ttl) external {\r... */\n      pop\n      pop\n      pop\n      pop\n      pop\n      pop\n      jump\t// out\n        /* \"src\\ENSRegistryWithFallback.sol\":5498:5690  function setApprovalForAll(address operator, bool approved) external {\r... */\n    tag_49:\n        /* \"src\\ENSRegistryWithFallback.sol\":5612:5620  approved */\n      dup1\n        /* \"src\\ENSRegistryWithFallback.sol\":5578:5587  operators */\n      0x1\n        /* \"src\\ENSRegistryWithFallback.sol\":5578:5599  operators[msg.sender] */\n      0x0\n        /* \"src\\ENSRegistryWithFallback.sol\":5588:5598  msg.sender */\n      caller\n        /* \"src\\ENSRegistryWithFallback.sol\":5578:5599  operators[msg.sender] */\n      0xffffffffffffffffffffffffffffffffffffffff\n      and\n      0xffffffffffffffffffffffffffffffffffffffff\n      and\n      dup2\n      mstore\n      0x20\n      add\n      swap1\n      dup2\n      mstore\n      0x20\n      add\n      0x0\n      keccak256\n        /* \"src\\ENSRegistryWithFallback.sol\":5578:5609  operators[msg.sender][operator] */\n      0x0\n        /* \"src\\ENSRegistryWithFallback.sol\":5600:5608  operator */\n      dup5\n        /* \"src\\ENSRegistryWithFallback.sol\":5578:5609  operators[msg.sender][operator] */\n      0xffffffffffffffffffffffffffffffffffffffff\n      and\n      0xffffffffffffffffffffffffffffffffffffffff\n      and\n      dup2\n      mstore\n      0x20\n      add\n      swap1\n      dup2\n      mstore\n      0x20\n      add\n      0x0\n      keccak256\n      0x0\n        /* \"src\\ENSRegistryWithFallback.sol\":5578:5620  operators[msg.sender][operator] = approved */\n      0x100\n      exp\n      dup2\n      sload\n      dup2\n      0xff\n      mul\n      not\n      and\n      swap1\n      dup4\n      iszero\n      iszero\n      mul\n      or\n      swap1\n      sstore\n      pop\n        /* \"src\\ENSRegistryWithFallback.sol\":5663:5671  operator */\n      dup2\n        /* \"src\\ENSRegistryWithFallback.sol\":5636:5682  ApprovalForAll(msg.sender, operator, approved) */\n      0xffffffffffffffffffffffffffffffffffffffff\n      and\n        /* \"src\\ENSRegistryWithFallback.sol\":5651:5661  msg.sender */\n      caller\n        /* \"src\\ENSRegistryWithFallback.sol\":5636:5682  ApprovalForAll(msg.sender, operator, approved) */\n      0xffffffffffffffffffffffffffffffffffffffff\n      and\n      0x17307eab39ab6107e8899845ad3d59bd9653f200f220920489ca2b5937696c31\n        /* \"src\\ENSRegistryWithFallback.sol\":5673:5681  approved */\n      dup4\n        /* \"src\\ENSRegistryWithFallback.sol\":5636:5682  ApprovalForAll(msg.sender, operator, approved) */\n      mload(0x40)\n      dup1\n      dup3\n      iszero\n      iszero\n      iszero\n      iszero\n      dup2\n      mstore\n      0x20\n      add\n      swap2\n      pop\n      pop\n      mload(0x40)\n      dup1\n      swap2\n      sub\n      swap1\n      log3\n        /* \"src\\ENSRegistryWithFallback.sol\":5498:5690  function setApprovalForAll(address operator, bool approved) external {\r... */\n      pop\n      pop\n      jump\t// out\n        /* \"src\\ENSRegistryWithFallback.sol\":2771:2948  function setRecord(bytes32 node, address owner, address resolver, uint64 ttl) external {\r... */\n    tag_53:\n        /* \"src\\ENSRegistryWithFallback.sol\":2869:2890  setOwner(node, owner) */\n      tag_91\n        /* \"src\\ENSRegistryWithFallback.sol\":2878:2882  node */\n      dup5\n        /* \"src\\ENSRegistryWithFallback.sol\":2884:2889  owner */\n      dup5\n        /* \"src\\ENSRegistryWithFallback.sol\":2869:2877  setOwner */\n      tag_41\n        /* \"src\\ENSRegistryWithFallback.sol\":2869:2890  setOwner(node, owner) */\n      jump\t// in\n    tag_91:\n        /* \"src\\ENSRegistryWithFallback.sol\":2901:2940  _setResolverAndTTL(node, resolver, ttl) */\n      tag_92\n        /* \"src\\ENSRegistryWithFallback.sol\":2920:2924  node */\n      dup5\n        /* \"src\\ENSRegistryWithFallback.sol\":2926:2934  resolver */\n      dup4\n        /* \"src\\ENSRegistryWithFallback.sol\":2936:2939  ttl */\n      dup4\n        /* \"src\\ENSRegistryWithFallback.sol\":2901:2919  _setResolverAndTTL */\n      tag_88\n        /* \"src\\ENSRegistryWithFallback.sol\":2901:2940  _setResolverAndTTL(node, resolver, ttl) */\n      jump\t// in\n    tag_92:\n        /* \"src\\ENSRegistryWithFallback.sol\":2771:2948  function setRecord(bytes32 node, address owner, address resolver, uint64 ttl) external {\r... */\n      pop\n      pop\n      pop\n      pop\n      jump\t// out\n        /* \"src\\ENSRegistryWithFallback.sol\":7262:7402  function isApprovedForAll(address owner, address operator) external view returns (bool) {\r... */\n    tag_57:\n        /* \"src\\ENSRegistryWithFallback.sol\":7344:7348  bool */\n      0x0\n        /* \"src\\ENSRegistryWithFallback.sol\":7368:7377  operators */\n      0x1\n        /* \"src\\ENSRegistryWithFallback.sol\":7368:7384  operators[owner] */\n      0x0\n        /* \"src\\ENSRegistryWithFallback.sol\":7378:7383  owner */\n      dup5\n        /* \"src\\ENSRegistryWithFallback.sol\":7368:7384  operators[owner] */\n      0xffffffffffffffffffffffffffffffffffffffff\n      and\n      0xffffffffffffffffffffffffffffffffffffffff\n      and\n      dup2\n      mstore\n      0x20\n      add\n      swap1\n      dup2\n      mstore\n      0x20\n      add\n      0x0\n      keccak256\n        /* \"src\\ENSRegistryWithFallback.sol\":7368:7394  operators[owner][operator] */\n      0x0\n        /* \"src\\ENSRegistryWithFallback.sol\":7385:7393  operator */\n      dup4\n        /* \"src\\ENSRegistryWithFallback.sol\":7368:7394  operators[owner][operator] */\n      0xffffffffffffffffffffffffffffffffffffffff\n      and\n      0xffffffffffffffffffffffffffffffffffffffff\n      and\n      dup2\n      mstore\n      0x20\n      add\n      swap1\n      dup2\n      mstore\n      0x20\n      add\n      0x0\n      keccak256\n      0x0\n      swap1\n      sload\n      swap1\n      0x100\n      exp\n      swap1\n      div\n      0xff\n      and\n        /* \"src\\ENSRegistryWithFallback.sol\":7361:7394  return operators[owner][operator] */\n      swap1\n      pop\n        /* \"src\\ENSRegistryWithFallback.sol\":7262:7402  function isApprovedForAll(address owner, address operator) external view returns (bool) {\r... */\n      swap3\n      swap2\n      pop\n      pop\n      jump\t// out\n        /* \"src\\ENSRegistryWithFallback.sol\":6817:6941  function recordExists(bytes32 node) public view returns (bool) {\r... */\n    tag_61:\n        /* \"src\\ENSRegistryWithFallback.sol\":6874:6878  bool */\n      0x0\n        /* \"src\\ENSRegistryWithFallback.sol\":6929:6932  0x0 */\n      dup1\n        /* \"src\\ENSRegistryWithFallback.sol\":6898:6933  records[node].owner != address(0x0) */\n      0xffffffffffffffffffffffffffffffffffffffff\n      and\n        /* \"src\\ENSRegistryWithFallback.sol\":6898:6905  records */\n      0x0\n        /* \"src\\ENSRegistryWithFallback.sol\":6898:6911  records[node] */\n      dup1\n        /* \"src\\ENSRegistryWithFallback.sol\":6906:6910  node */\n      dup5\n        /* \"src\\ENSRegistryWithFallback.sol\":6898:6911  records[node] */\n      dup2\n      mstore\n      0x20\n      add\n      swap1\n      dup2\n      mstore\n      0x20\n      add\n      0x0\n      keccak256\n        /* \"src\\ENSRegistryWithFallback.sol\":6898:6917  records[node].owner */\n      0x0\n      add\n      0x0\n      swap1\n      sload\n      swap1\n      0x100\n      exp\n      swap1\n      div\n      0xffffffffffffffffffffffffffffffffffffffff\n      and\n        /* \"src\\ENSRegistryWithFallback.sol\":6898:6933  records[node].owner != address(0x0) */\n      0xffffffffffffffffffffffffffffffffffffffff\n      and\n      eq\n      iszero\n        /* \"src\\ENSRegistryWithFallback.sol\":6891:6933  return records[node].owner != address(0x0) */\n      swap1\n      pop\n        /* \"src\\ENSRegistryWithFallback.sol\":6817:6941  function recordExists(bytes32 node) public view returns (bool) {\r... */\n      swap2\n      swap1\n      pop\n      jump\t// out\n        /* \"src\\ENSRegistryWithFallback.sol\":7410:7513  function _setOwner(bytes32 node, address owner) internal {\r... */\n    tag_70:\n        /* \"src\\ENSRegistryWithFallback.sol\":7500:7505  owner */\n      dup1\n        /* \"src\\ENSRegistryWithFallback.sol\":7478:7485  records */\n      0x0\n        /* \"src\\ENSRegistryWithFallback.sol\":7478:7491  records[node] */\n      dup1\n        /* \"src\\ENSRegistryWithFallback.sol\":7486:7490  node */\n      dup5\n        /* \"src\\ENSRegistryWithFallback.sol\":7478:7491  records[node] */\n      dup2\n      mstore\n      0x20\n      add\n      swap1\n      dup2\n      mstore\n      0x20\n      add\n      0x0\n      keccak256\n        /* \"src\\ENSRegistryWithFallback.sol\":7478:7497  records[node].owner */\n      0x0\n      add\n      0x0\n        /* \"src\\ENSRegistryWithFallback.sol\":7478:7505  records[node].owner = owner */\n      0x100\n      exp\n      dup2\n      sload\n      dup2\n      0xffffffffffffffffffffffffffffffffffffffff\n      mul\n      not\n      and\n      swap1\n      dup4\n      0xffffffffffffffffffffffffffffffffffffffff\n      and\n      mul\n      or\n      swap1\n      sstore\n      pop\n        /* \"src\\ENSRegistryWithFallback.sol\":7410:7513  function _setOwner(bytes32 node, address owner) internal {\r... */\n      pop\n      pop\n      jump\t// out\n        /* \"src\\ENSRegistryWithFallback.sol\":7521:7894  function _setResolverAndTTL(bytes32 node, address resolver, uint64 ttl) internal {\r... */\n    tag_88:\n        /* \"src\\ENSRegistryWithFallback.sol\":7628:7635  records */\n      0x0\n        /* \"src\\ENSRegistryWithFallback.sol\":7628:7641  records[node] */\n      dup1\n        /* \"src\\ENSRegistryWithFallback.sol\":7636:7640  node */\n      dup5\n        /* \"src\\ENSRegistryWithFallback.sol\":7628:7641  records[node] */\n      dup2\n      mstore\n      0x20\n      add\n      swap1\n      dup2\n      mstore\n      0x20\n      add\n      0x0\n      keccak256\n        /* \"src\\ENSRegistryWithFallback.sol\":7628:7650  records[node].resolver */\n      0x1\n      add\n      0x0\n      swap1\n      sload\n      swap1\n      0x100\n      exp\n      swap1\n      div\n      0xffffffffffffffffffffffffffffffffffffffff\n      and\n        /* \"src\\ENSRegistryWithFallback.sol\":7616:7650  resolver != records[node].resolver */\n      0xffffffffffffffffffffffffffffffffffffffff\n      and\n        /* \"src\\ENSRegistryWithFallback.sol\":7616:7624  resolver */\n      dup3\n        /* \"src\\ENSRegistryWithFallback.sol\":7616:7650  resolver != records[node].resolver */\n      0xffffffffffffffffffffffffffffffffffffffff\n      and\n      eq\n      iszero\n        /* \"src\\ENSRegistryWithFallback.sol\":7613:7759  if(resolver != records[node].resolver) {\r... */\n      iszero\n      tag_97\n      jumpi\n        /* \"src\\ENSRegistryWithFallback.sol\":7692:7700  resolver */\n      dup2\n        /* \"src\\ENSRegistryWithFallback.sol\":7667:7674  records */\n      0x0\n        /* \"src\\ENSRegistryWithFallback.sol\":7667:7680  records[node] */\n      dup1\n        /* \"src\\ENSRegistryWithFallback.sol\":7675:7679  node */\n      dup6\n        /* \"src\\ENSRegistryWithFallback.sol\":7667:7680  records[node] */\n      dup2\n      mstore\n      0x20\n      add\n      swap1\n      dup2\n      mstore\n      0x20\n      add\n      0x0\n      keccak256\n        /* \"src\\ENSRegistryWithFallback.sol\":7667:7689  records[node].resolver */\n      0x1\n      add\n      0x0\n        /* \"src\\ENSRegistryWithFallback.sol\":7667:7700  records[node].resolver = resolver */\n      0x100\n      exp\n      dup2\n      sload\n      dup2\n      0xffffffffffffffffffffffffffffffffffffffff\n      mul\n      not\n      and\n      swap1\n      dup4\n      0xffffffffffffffffffffffffffffffffffffffff\n      and\n      mul\n      or\n      swap1\n      sstore\n      pop\n        /* \"src\\ENSRegistryWithFallback.sol\":7732:7736  node */\n      dup3\n        /* \"src\\ENSRegistryWithFallback.sol\":7720:7747  NewResolver(node, resolver) */\n      0x335721b01866dc23fbee8b6b2c7b1e14d6f05c28cd35a2c934239f94095602a0\n        /* \"src\\ENSRegistryWithFallback.sol\":7738:7746  resolver */\n      dup4\n        /* \"src\\ENSRegistryWithFallback.sol\":7720:7747  NewResolver(node, resolver) */\n      mload(0x40)\n      dup1\n      dup3\n      0xffffffffffffffffffffffffffffffffffffffff\n      and\n      0xffffffffffffffffffffffffffffffffffffffff\n      and\n      dup2\n      mstore\n      0x20\n      add\n      swap2\n      pop\n      pop\n      mload(0x40)\n      dup1\n      swap2\n      sub\n      swap1\n      log2\n        /* \"src\\ENSRegistryWithFallback.sol\":7613:7759  if(resolver != records[node].resolver) {\r... */\n    tag_97:\n        /* \"src\\ENSRegistryWithFallback.sol\":7781:7788  records */\n      0x0\n        /* \"src\\ENSRegistryWithFallback.sol\":7781:7794  records[node] */\n      dup1\n        /* \"src\\ENSRegistryWithFallback.sol\":7789:7793  node */\n      dup5\n        /* \"src\\ENSRegistryWithFallback.sol\":7781:7794  records[node] */\n      dup2\n      mstore\n      0x20\n      add\n      swap1\n      dup2\n      mstore\n      0x20\n      add\n      0x0\n      keccak256\n        /* \"src\\ENSRegistryWithFallback.sol\":7781:7798  records[node].ttl */\n      0x1\n      add\n      0x14\n      swap1\n      sload\n      swap1\n      0x100\n      exp\n      swap1\n      div\n      0xffffffffffffffff\n      and\n        /* \"src\\ENSRegistryWithFallback.sol\":7774:7798  ttl != records[node].ttl */\n      0xffffffffffffffff\n      and\n        /* \"src\\ENSRegistryWithFallback.sol\":7774:7777  ttl */\n      dup2\n        /* \"src\\ENSRegistryWithFallback.sol\":7774:7798  ttl != records[node].ttl */\n      0xffffffffffffffff\n      and\n      eq\n      iszero\n        /* \"src\\ENSRegistryWithFallback.sol\":7771:7887  if(ttl != records[node].ttl) {\r... */\n      iszero\n      tag_98\n      jumpi\n        /* \"src\\ENSRegistryWithFallback.sol\":7835:7838  ttl */\n      dup1\n        /* \"src\\ENSRegistryWithFallback.sol\":7815:7822  records */\n      0x0\n        /* \"src\\ENSRegistryWithFallback.sol\":7815:7828  records[node] */\n      dup1\n        /* \"src\\ENSRegistryWithFallback.sol\":7823:7827  node */\n      dup6\n        /* \"src\\ENSRegistryWithFallback.sol\":7815:7828  records[node] */\n      dup2\n      mstore\n      0x20\n      add\n      swap1\n      dup2\n      mstore\n      0x20\n      add\n      0x0\n      keccak256\n        /* \"src\\ENSRegistryWithFallback.sol\":7815:7832  records[node].ttl */\n      0x1\n      add\n      0x14\n        /* \"src\\ENSRegistryWithFallback.sol\":7815:7838  records[node].ttl = ttl */\n      0x100\n      exp\n      dup2\n      sload\n      dup2\n      0xffffffffffffffff\n      mul\n      not\n      and\n      swap1\n      dup4\n      0xffffffffffffffff\n      and\n      mul\n      or\n      swap1\n      sstore\n      pop\n        /* \"src\\ENSRegistryWithFallback.sol\":7865:7869  node */\n      dup3\n        /* \"src\\ENSRegistryWithFallback.sol\":7858:7875  NewTTL(node, ttl) */\n      0x1d4f9bbfc9cab89d66e1a1562f2233ccbf1308cb4f63de2ead5787adddb8fa68\n        /* \"src\\ENSRegistryWithFallback.sol\":7871:7874  ttl */\n      dup3\n        /* \"src\\ENSRegistryWithFallback.sol\":7858:7875  NewTTL(node, ttl) */\n      mload(0x40)\n      dup1\n      dup3\n      0xffffffffffffffff\n      and\n      0xffffffffffffffff\n      and\n      dup2\n      mstore\n      0x20\n      add\n      swap2\n      pop\n      pop\n      mload(0x40)\n      dup1\n      swap2\n      sub\n      swap1\n      log2\n        /* \"src\\ENSRegistryWithFallback.sol\":7771:7887  if(ttl != records[node].ttl) {\r... */\n    tag_98:\n        /* \"src\\ENSRegistryWithFallback.sol\":7521:7894  function _setResolverAndTTL(bytes32 node, address resolver, uint64 ttl) internal {\r... */\n      pop\n      pop\n      pop\n      jump\t// out\n\n    auxdata: 0xa165627a7a7230582002e3b02d758187232239b36c239c7cb28ce1ea0cee424edcde3edcb2fc2be0b70029\n}\n",
				"bytecode": {
					"linkReferences": {},
					"object": "608060405234801561001057600080fd5b503360008080600102815260200190815260200160002060000160006101000a81548173ffffffffffffffffffffffffffffffffffffffff021916908373ffffffffffffffffffffffffffffffffffffffff160217905550611230806100776000396000f3fe6080604052600436106100ba576000357c0100000000000000000000000000000000000000000000000000000000900463ffffffff1680630178b8bf146100bf57806302571be31461013a57806306ab5923146101b557806314ab90381461022e57806316a25cbd1461027d5780631896f70a146102e05780635b0fc9c31461033b5780635ef2c7f014610396578063a22cb4651461042f578063cf4088231461048c578063e985e9c51461051b578063f79fe538146105a4575b600080fd5b3480156100cb57600080fd5b506100f8600480360360208110156100e257600080fd5b81019080803590602001909291905050506105f7565b604051808273ffffffffffffffffffffffffffffffffffffffff1673ffffffffffffffffffffffffffffffffffffffff16815260200191505060405180910390f35b34801561014657600080fd5b506101736004803603602081101561015d57600080fd5b8101908080359060200190929190505050610636565b604051808273ffffffffffffffffffffffffffffffffffffffff1673ffffffffffffffffffffffffffffffffffffffff16815260200191505060405180910390f35b3480156101c157600080fd5b50610218600480360360608110156101d857600080fd5b810190808035906020019092919080359060200190929190803573ffffffffffffffffffffffffffffffffffffffff1690602001909291905050506106b9565b6040518082815260200191505060405180910390f35b34801561023a57600080fd5b5061027b6004803603604081101561025157600080fd5b8101908080359060200190929190803567ffffffffffffffff169060200190929190505050610870565b005b34801561028957600080fd5b506102b6600480360360208110156102a057600080fd5b8101908080359060200190929190505050610a04565b604051808267ffffffffffffffff1667ffffffffffffffff16815260200191505060405180910390f35b3480156102ec57600080fd5b506103396004803603604081101561030357600080fd5b8101908080359060200190929190803573ffffffffffffffffffffffffffffffffffffffff169060200190929190505050610a37565b005b34801561034757600080fd5b506103946004803603604081101561035e57600080fd5b8101908080359060200190929190803573ffffffffffffffffffffffffffffffffffffffff169060200190929190505050610bfb565b005b3480156103a257600080fd5b5061042d600480360360a08110156103b957600080fd5b810190808035906020019092919080359060200190929190803573ffffffffffffffffffffffffffffffffffffffff169060200190929190803573ffffffffffffffffffffffffffffffffffffffff169060200190929190803567ffffffffffffffff169060200190929190505050610d75565b005b34801561043b57600080fd5b5061048a6004803603604081101561045257600080fd5b81019080803573ffffffffffffffffffffffffffffffffffffffff169060200190929190803515159060200190929190505050610d97565b005b34801561049857600080fd5b50610519600480360360808110156104af57600080fd5b8101908080359060200190929190803573ffffffffffffffffffffffffffffffffffffffff169060200190929190803573ffffffffffffffffffffffffffffffffffffffff169060200190929190803567ffffffffffffffff169060200190929190505050610e98565b005b34801561052757600080fd5b5061058a6004803603604081101561053e57600080fd5b81019080803573ffffffffffffffffffffffffffffffffffffffff169060200190929190803573ffffffffffffffffffffffffffffffffffffffff169060200190929190505050610eb3565b604051808215151515815260200191505060405180910390f35b3480156105b057600080fd5b506105dd600480360360208110156105c757600080fd5b8101908080359060200190929190505050610f47565b604051808215151515815260200191505060405180910390f35b600080600083815260200190815260200160002060010160009054906101000a900473ffffffffffffffffffffffffffffffffffffffff169050919050565b60008060008084815260200190815260200160002060000160009054906101000a900473ffffffffffffffffffffffffffffffffffffffff1690503073ffffffffffffffffffffffffffffffffffffffff168173ffffffffffffffffffffffffffffffffffffffff1614156106af5760009150506106b4565b809150505b919050565b600083600080600083815260200190815260200160002060000160009054906101000a900473ffffffffffffffffffffffffffffffffffffffff1690503373ffffffffffffffffffffffffffffffffffffffff168173ffffffffffffffffffffffffffffffffffffffff1614806107b65750600160008273ffffffffffffffffffffffffffffffffffffffff1673ffffffffffffffffffffffffffffffffffffffff16815260200190815260200160002060003373ffffffffffffffffffffffffffffffffffffffff1673ffffffffffffffffffffffffffffffffffffffff16815260200190815260200160002060009054906101000a900460ff165b15156107c157600080fd5b6000868660405160200180838152602001828152602001925050506040516020818303038152906040528051906020012090506107fe8186610fb5565b85877fce0457fe73731f824cc272376169235128c118b49d344817417c6d108d155e8287604051808273ffffffffffffffffffffffffffffffffffffffff1673ffffffffffffffffffffffffffffffffffffffff16815260200191505060405180910390a38093505050509392505050565b81600080600083815260200190815260200160002060000160009054906101000a900473ffffffffffffffffffffffffffffffffffffffff1690503373ffffffffffffffffffffffffffffffffffffffff168173ffffffffffffffffffffffffffffffffffffffff16148061096b5750600160008273ffffffffffffffffffffffffffffffffffffffff1673ffffffffffffffffffffffffffffffffffffffff16815260200190815260200160002060003373ffffffffffffffffffffffffffffffffffffffff1673ffffffffffffffffffffffffffffffffffffffff16815260200190815260200160002060009054906101000a900460ff165b151561097657600080fd5b837f1d4f9bbfc9cab89d66e1a1562f2233ccbf1308cb4f63de2ead5787adddb8fa6884604051808267ffffffffffffffff1667ffffffffffffffff16815260200191505060405180910390a28260008086815260200190815260200160002060010160146101000a81548167ffffffffffffffff021916908367ffffffffffffffff16021790555050505050565b600080600083815260200190815260200160002060010160149054906101000a900467ffffffffffffffff169050919050565b81600080600083815260200190815260200160002060000160009054906101000a900473ffffffffffffffffffffffffffffffffffffffff1690503373ffffffffffffffffffffffffffffffffffffffff168173ffffffffffffffffffffffffffffffffffffffff161480610b325750600160008273ffffffffffffffffffffffffffffffffffffffff1673ffffffffffffffffffffffffffffffffffffffff16815260200190815260200160002060003373ffffffffffffffffffffffffffffffffffffffff1673ffffffffffffffffffffffffffffffffffffffff16815260200190815260200160002060009054906101000a900460ff165b1515610b3d57600080fd5b837f335721b01866dc23fbee8b6b2c7b1e14d6f05c28cd35a2c934239f94095602a084604051808273ffffffffffffffffffffffffffffffffffffffff1673ffffffffffffffffffffffffffffffffffffffff16815260200191505060405180910390a28260008086815260200190815260200160002060010160006101000a81548173ffffffffffffffffffffffffffffffffffffffff021916908373ffffffffffffffffffffffffffffffffffffffff16021790555050505050565b81600080600083815260200190815260200160002060000160009054906101000a900473ffffffffffffffffffffffffffffffffffffffff1690503373ffffffffffffffffffffffffffffffffffffffff168173ffffffffffffffffffffffffffffffffffffffff161480610cf65750600160008273ffffffffffffffffffffffffffffffffffffffff1673ffffffffffffffffffffffffffffffffffffffff16815260200190815260200160002060003373ffffffffffffffffffffffffffffffffffffffff1673ffffffffffffffffffffffffffffffffffffffff16815260200190815260200160002060009054906101000a900460ff165b1515610d0157600080fd5b610d0b8484610fb5565b837fd4735d920b0f87494915f556dd9b54c8f309026070caea5c737245152564d26684604051808273ffffffffffffffffffffffffffffffffffffffff1673ffffffffffffffffffffffffffffffffffffffff16815260200191505060405180910390a250505050565b6000610d828686866106b9565b9050610d8f81848461100d565b505050505050565b80600160003373ffffffffffffffffffffffffffffffffffffffff1673ffffffffffffffffffffffffffffffffffffffff16815260200190815260200160002060008473ffffffffffffffffffffffffffffffffffffffff1673ffffffffffffffffffffffffffffffffffffffff16815260200190815260200160002060006101000a81548160ff0219169083151502179055508173ffffffffffffffffffffffffffffffffffffffff163373ffffffffffffffffffffffffffffffffffffffff167f17307eab39ab6107e8899845ad3d59bd9653f200f220920489ca2b5937696c3183604051808215151515815260200191505060405180910390a35050565b610ea28484610bfb565b610ead84838361100d565b50505050565b6000600160008473ffffffffffffffffffffffffffffffffffffffff1673ffffffffffffffffffffffffffffffffffffffff16815260200190815260200160002060008373ffffffffffffffffffffffffffffffffffffffff1673ffffffffffffffffffffffffffffffffffffffff16815260200190815260200160002060009054906101000a900460ff16905092915050565b60008073ffffffffffffffffffffffffffffffffffffffff1660008084815260200190815260200160002060000160009054906101000a900473ffffffffffffffffffffffffffffffffffffffff1673ffffffffffffffffffffffffffffffffffffffff1614159050919050565b8060008084815260200190815260200160002060000160006101000a81548173ffffffffffffffffffffffffffffffffffffffff021916908373ffffffffffffffffffffffffffffffffffffffff1602179055505050565b60008084815260200190815260200160002060010160009054906101000a900473ffffffffffffffffffffffffffffffffffffffff1673ffffffffffffffffffffffffffffffffffffffff168273ffffffffffffffffffffffffffffffffffffffff16141515611130578160008085815260200190815260200160002060010160006101000a81548173ffffffffffffffffffffffffffffffffffffffff021916908373ffffffffffffffffffffffffffffffffffffffff160217905550827f335721b01866dc23fbee8b6b2c7b1e14d6f05c28cd35a2c934239f94095602a083604051808273ffffffffffffffffffffffffffffffffffffffff1673ffffffffffffffffffffffffffffffffffffffff16815260200191505060405180910390a25b60008084815260200190815260200160002060010160149054906101000a900467ffffffffffffffff1667ffffffffffffffff168167ffffffffffffffff161415156111ff578060008085815260200190815260200160002060010160146101000a81548167ffffffffffffffff021916908367ffffffffffffffff160217905550827f1d4f9bbfc9cab89d66e1a1562f2233ccbf1308cb4f63de2ead5787adddb8fa6882604051808267ffffffffffffffff1667ffffffffffffffff16815260200191505060405180910390a25b50505056fea165627a7a7230582002e3b02d758187232239b36c239c7cb28ce1ea0cee424edcde3edcb2fc2be0b70029",
					"opcodes": "PUSH1 0x80 PUSH1 0x40 MSTORE CALLVALUE DUP1 ISZERO PUSH2 0x10 JUMPI PUSH1 0x0 DUP1 REVERT JUMPDEST POP CALLER PUSH1 0x0 DUP1 DUP1 PUSH1 0x1 MUL DUP2 MSTORE PUSH1 0x20 ADD SWAP1 DUP2 MSTORE PUSH1 0x20 ADD PUSH1 0x0 KECCAK256 PUSH1 0x0 ADD PUSH1 0x0 PUSH2 0x100 EXP DUP2 SLOAD DUP2 PUSH20 0xFFFFFFFFFFFFFFFFFFFFFFFFFFFFFFFFFFFFFFFF MUL NOT AND SWAP1 DUP4 PUSH20 0xFFFFFFFFFFFFFFFFFFFFFFFFFFFFFFFFFFFFFFFF AND MUL OR SWAP1 SSTORE POP PUSH2 0x1230 DUP1 PUSH2 0x77 PUSH1 0x0 CODECOPY PUSH1 0x0 RETURN INVALID PUSH1 0x80 PUSH1 0x40 MSTORE PUSH1 0x4 CALLDATASIZE LT PUSH2 0xBA JUMPI PUSH1 0x0 CALLDATALOAD PUSH29 0x100000000000000000000000000000000000000000000000000000000 SWAP1 DIV PUSH4 0xFFFFFFFF AND DUP1 PUSH4 0x178B8BF EQ PUSH2 0xBF JUMPI DUP1 PUSH4 0x2571BE3 EQ PUSH2 0x13A JUMPI DUP1 PUSH4 0x6AB5923 EQ PUSH2 0x1B5 JUMPI DUP1 PUSH4 0x14AB9038 EQ PUSH2 0x22E JUMPI DUP1 PUSH4 0x16A25CBD EQ PUSH2 0x27D JUMPI DUP1 PUSH4 0x1896F70A EQ PUSH2 0x2E0 JUMPI DUP1 PUSH4 0x5B0FC9C3 EQ PUSH2 0x33B JUMPI DUP1 PUSH4 0x5EF2C7F0 EQ PUSH2 0x396 JUMPI DUP1 PUSH4 0xA22CB465 EQ PUSH2 0x42F JUMPI DUP1 PUSH4 0xCF408823 EQ PUSH2 0x48C JUMPI DUP1 PUSH4 0xE985E9C5 EQ PUSH2 0x51B JUMPI DUP1 PUSH4 0xF79FE538 EQ PUSH2 0x5A4 JUMPI JUMPDEST PUSH1 0x0 DUP1 REVERT JUMPDEST CALLVALUE DUP1 ISZERO PUSH2 0xCB JUMPI PUSH1 0x0 DUP1 REVERT JUMPDEST POP PUSH2 0xF8 PUSH1 0x4 DUP1 CALLDATASIZE SUB PUSH1 0x20 DUP2 LT ISZERO PUSH2 0xE2 JUMPI PUSH1 0x0 DUP1 REVERT JUMPDEST DUP2 ADD SWAP1 DUP1 DUP1 CALLDATALOAD SWAP1 PUSH1 0x20 ADD SWAP1 SWAP3 SWAP2 SWAP1 POP POP POP PUSH2 0x5F7 JUMP JUMPDEST PUSH1 0x40 MLOAD DUP1 DUP3 PUSH20 0xFFFFFFFFFFFFFFFFFFFFFFFFFFFFFFFFFFFFFFFF AND PUSH20 0xFFFFFFFFFFFFFFFFFFFFFFFFFFFFFFFFFFFFFFFF AND DUP2 MSTORE PUSH1 0x20 ADD SWAP2 POP POP PUSH1 0x40 MLOAD DUP1 SWAP2 SUB SWAP1 RETURN JUMPDEST CALLVALUE DUP1 ISZERO PUSH2 0x146 JUMPI PUSH1 0x0 DUP1 REVERT JUMPDEST POP PUSH2 0x173 PUSH1 0x4 DUP1 CALLDATASIZE SUB PUSH1 0x20 DUP2 LT ISZERO PUSH2 0x15D JUMPI PUSH1 0x0 DUP1 REVERT JUMPDEST DUP2 ADD SWAP1 DUP1 DUP1 CALLDATALOAD SWAP1 PUSH1 0x20 ADD SWAP1 SWAP3 SWAP2 SWAP1 POP POP POP PUSH2 0x636 JUMP JUMPDEST PUSH1 0x40 MLOAD DUP1 DUP3 PUSH20 0xFFFFFFFFFFFFFFFFFFFFFFFFFFFFFFFFFFFFFFFF AND PUSH20 0xFFFFFFFFFFFFFFFFFFFFFFFFFFFFFFFFFFFFFFFF AND DUP2 MSTORE PUSH1 0x20 ADD SWAP2 POP POP PUSH1 0x40 MLOAD DUP1 SWAP2 SUB SWAP1 RETURN JUMPDEST CALLVALUE DUP1 ISZERO PUSH2 0x1C1 JUMPI PUSH1 0x0 DUP1 REVERT JUMPDEST POP PUSH2 0x218 PUSH1 0x4 DUP1 CALLDATASIZE SUB PUSH1 0x60 DUP2 LT ISZERO PUSH2 0x1D8 JUMPI PUSH1 0x0 DUP1 REVERT JUMPDEST DUP2 ADD SWAP1 DUP1 DUP1 CALLDATALOAD SWAP1 PUSH1 0x20 ADD SWAP1 SWAP3 SWAP2 SWAP1 DUP1 CALLDATALOAD SWAP1 PUSH1 0x20 ADD SWAP1 SWAP3 SWAP2 SWAP1 DUP1 CALLDATALOAD PUSH20 0xFFFFFFFFFFFFFFFFFFFFFFFFFFFFFFFFFFFFFFFF AND SWAP1 PUSH1 0x20 ADD SWAP1 SWAP3 SWAP2 SWAP1 POP POP POP PUSH2 0x6B9 JUMP JUMPDEST PUSH1 0x40 MLOAD DUP1 DUP3 DUP2 MSTORE PUSH1 0x20 ADD SWAP2 POP POP PUSH1 0x40 MLOAD DUP1 SWAP2 SUB SWAP1 RETURN JUMPDEST CALLVALUE DUP1 ISZERO PUSH2 0x23A JUMPI PUSH1 0x0 DUP1 REVERT JUMPDEST POP PUSH2 0x27B PUSH1 0x4 DUP1 CALLDATASIZE SUB PUSH1 0x40 DUP2 LT ISZERO PUSH2 0x251 JUMPI PUSH1 0x0 DUP1 REVERT JUMPDEST DUP2 ADD SWAP1 DUP1 DUP1 CALLDATALOAD SWAP1 PUSH1 0x20 ADD SWAP1 SWAP3 SWAP2 SWAP1 DUP1 CALLDATALOAD PUSH8 0xFFFFFFFFFFFFFFFF AND SWAP1 PUSH1 0x20 ADD SWAP1 SWAP3 SWAP2 SWAP1 POP POP POP PUSH2 0x870 JUMP JUMPDEST STOP JUMPDEST CALLVALUE DUP1 ISZERO PUSH2 0x289 JUMPI PUSH1 0x0 DUP1 REVERT JUMPDEST POP PUSH2 0x2B6 PUSH1 0x4 DUP1 CALLDATASIZE SUB PUSH1 0x20 DUP2 LT ISZERO PUSH2 0x2A0 JUMPI PUSH1 0x0 DUP1 REVERT JUMPDEST DUP2 ADD SWAP1 DUP1 DUP1 CALLDATALOAD SWAP1 PUSH1 0x20 ADD SWAP1 SWAP3 SWAP2 SWAP1 POP POP POP PUSH2 0xA04 JUMP JUMPDEST PUSH1 0x40 MLOAD DUP1 DUP3 PUSH8 0xFFFFFFFFFFFFFFFF AND PUSH8 0xFFFFFFFFFFFFFFFF AND DUP2 MSTORE PUSH1 0x20 ADD SWAP2 POP POP PUSH1 0x40 MLOAD DUP1 SWAP2 SUB SWAP1 RETURN JUMPDEST CALLVALUE DUP1 ISZERO PUSH2 0x2EC JUMPI PUSH1 0x0 DUP1 REVERT JUMPDEST POP PUSH2 0x339 PUSH1 0x4 DUP1 CALLDATASIZE SUB PUSH1 0x40 DUP2 LT ISZERO PUSH2 0x303 JUMPI PUSH1 0x0 DUP1 REVERT JUMPDEST DUP2 ADD SWAP1 DUP1 DUP1 CALLDATALOAD SWAP1 PUSH1 0x20 ADD SWAP1 SWAP3 SWAP2 SWAP1 DUP1 CALLDATALOAD PUSH20 0xFFFFFFFFFFFFFFFFFFFFFFFFFFFFFFFFFFFFFFFF AND SWAP1 PUSH1 0x20 ADD SWAP1 SWAP3 SWAP2 SWAP1 POP POP POP PUSH2 0xA37 JUMP JUMPDEST STOP JUMPDEST CALLVALUE DUP1 ISZERO PUSH2 0x347 JUMPI PUSH1 0x0 DUP1 REVERT JUMPDEST POP PUSH2 0x394 PUSH1 0x4 DUP1 CALLDATASIZE SUB PUSH1 0x40 DUP2 LT ISZERO PUSH2 0x35E JUMPI PUSH1 0x0 DUP1 REVERT JUMPDEST DUP2 ADD SWAP1 DUP1 DUP1 CALLDATALOAD SWAP1 PUSH1 0x20 ADD SWAP1 SWAP3 SWAP2 SWAP1 DUP1 CALLDATALOAD PUSH20 0xFFFFFFFFFFFFFFFFFFFFFFFFFFFFFFFFFFFFFFFF AND SWAP1 PUSH1 0x20 ADD SWAP1 SWAP3 SWAP2 SWAP1 POP POP POP PUSH2 0xBFB JUMP JUMPDEST STOP JUMPDEST CALLVALUE DUP1 ISZERO PUSH2 0x3A2 JUMPI PUSH1 0x0 DUP1 REVERT JUMPDEST POP PUSH2 0x42D PUSH1 0x4 DUP1 CALLDATASIZE SUB PUSH1 0xA0 DUP2 LT ISZERO PUSH2 0x3B9 JUMPI PUSH1 0x0 DUP1 REVERT JUMPDEST DUP2 ADD SWAP1 DUP1 DUP1 CALLDATALOAD SWAP1 PUSH1 0x20 ADD SWAP1 SWAP3 SWAP2 SWAP1 DUP1 CALLDATALOAD SWAP1 PUSH1 0x20 ADD SWAP1 SWAP3 SWAP2 SWAP1 DUP1 CALLDATALOAD PUSH20 0xFFFFFFFFFFFFFFFFFFFFFFFFFFFFFFFFFFFFFFFF AND SWAP1 PUSH1 0x20 ADD SWAP1 SWAP3 SWAP2 SWAP1 DUP1 CALLDATALOAD PUSH20 0xFFFFFFFFFFFFFFFFFFFFFFFFFFFFFFFFFFFFFFFF AND SWAP1 PUSH1 0x20 ADD SWAP1 SWAP3 SWAP2 SWAP1 DUP1 CALLDATALOAD PUSH8 0xFFFFFFFFFFFFFFFF AND SWAP1 PUSH1 0x20 ADD SWAP1 SWAP3 SWAP2 SWAP1 POP POP POP PUSH2 0xD75 JUMP JUMPDEST STOP JUMPDEST CALLVALUE DUP1 ISZERO PUSH2 0x43B JUMPI PUSH1 0x0 DUP1 REVERT JUMPDEST POP PUSH2 0x48A PUSH1 0x4 DUP1 CALLDATASIZE SUB PUSH1 0x40 DUP2 LT ISZERO PUSH2 0x452 JUMPI PUSH1 0x0 DUP1 REVERT JUMPDEST DUP2 ADD SWAP1 DUP1 DUP1 CALLDATALOAD PUSH20 0xFFFFFFFFFFFFFFFFFFFFFFFFFFFFFFFFFFFFFFFF AND SWAP1 PUSH1 0x20 ADD SWAP1 SWAP3 SWAP2 SWAP1 DUP1 CALLDATALOAD ISZERO ISZERO SWAP1 PUSH1 0x20 ADD SWAP1 SWAP3 SWAP2 SWAP1 POP POP POP PUSH2 0xD97 JUMP JUMPDEST STOP JUMPDEST CALLVALUE DUP1 ISZERO PUSH2 0x498 JUMPI PUSH1 0x0 DUP1 REVERT JUMPDEST POP PUSH2 0x519 PUSH1 0x4 DUP1 CALLDATASIZE SUB PUSH1 0x80 DUP2 LT ISZERO PUSH2 0x4AF JUMPI PUSH1 0x0 DUP1 REVERT JUMPDEST DUP2 ADD SWAP1 DUP1 DUP1 CALLDATALOAD SWAP1 PUSH1 0x20 ADD SWAP1 SWAP3 SWAP2 SWAP1 DUP1 CALLDATALOAD PUSH20 0xFFFFFFFFFFFFFFFFFFFFFFFFFFFFFFFFFFFFFFFF AND SWAP1 PUSH1 0x20 ADD SWAP1 SWAP3 SWAP2 SWAP1 DUP1 CALLDATALOAD PUSH20 0xFFFFFFFFFFFFFFFFFFFFFFFFFFFFFFFFFFFFFFFF AND SWAP1 PUSH1 0x20 ADD SWAP1 SWAP3 SWAP2 SWAP1 DUP1 CALLDATALOAD PUSH8 0xFFFFFFFFFFFFFFFF AND SWAP1 PUSH1 0x20 ADD SWAP1 SWAP3 SWAP2 SWAP1 POP POP POP PUSH2 0xE98 JUMP JUMPDEST STOP JUMPDEST CALLVALUE DUP1 ISZERO PUSH2 0x527 JUMPI PUSH1 0x0 DUP1 REVERT JUMPDEST POP PUSH2 0x58A PUSH1 0x4 DUP1 CALLDATASIZE SUB PUSH1 0x40 DUP2 LT ISZERO PUSH2 0x53E JUMPI PUSH1 0x0 DUP1 REVERT JUMPDEST DUP2 ADD SWAP1 DUP1 DUP1 CALLDATALOAD PUSH20 0xFFFFFFFFFFFFFFFFFFFFFFFFFFFFFFFFFFFFFFFF AND SWAP1 PUSH1 0x20 ADD SWAP1 SWAP3 SWAP2 SWAP1 DUP1 CALLDATALOAD PUSH20 0xFFFFFFFFFFFFFFFFFFFFFFFFFFFFFFFFFFFFFFFF AND SWAP1 PUSH1 0x20 ADD SWAP1 SWAP3 SWAP2 SWAP1 POP POP POP PUSH2 0xEB3 JUMP JUMPDEST PUSH1 0x40 MLOAD DUP1 DUP3 ISZERO ISZERO ISZERO ISZERO DUP2 MSTORE PUSH1 0x20 ADD SWAP2 POP POP PUSH1 0x40 MLOAD DUP1 SWAP2 SUB SWAP1 RETURN JUMPDEST CALLVALUE DUP1 ISZERO PUSH2 0x5B0 JUMPI PUSH1 0x0 DUP1 REVERT JUMPDEST POP PUSH2 0x5DD PUSH1 0x4 DUP1 CALLDATASIZE SUB PUSH1 0x20 DUP2 LT ISZERO PUSH2 0x5C7 JUMPI PUSH1 0x0 DUP1 REVERT JUMPDEST DUP2 ADD SWAP1 DUP1 DUP1 CALLDATALOAD SWAP1 PUSH1 0x20 ADD SWAP1 SWAP3 SWAP2 SWAP1 POP POP POP PUSH2 0xF47 JUMP JUMPDEST PUSH1 0x40 MLOAD DUP1 DUP3 ISZERO ISZERO ISZERO ISZERO DUP2 MSTORE PUSH1 0x20 ADD SWAP2 POP POP PUSH1 0x40 MLOAD DUP1 SWAP2 SUB SWAP1 RETURN JUMPDEST PUSH1 0x0 DUP1 PUSH1 0x0 DUP4 DUP2 MSTORE PUSH1 0x20 ADD SWAP1 DUP2 MSTORE PUSH1 0x20 ADD PUSH1 0x0 KECCAK256 PUSH1 0x1 ADD PUSH1 0x0 SWAP1 SLOAD SWAP1 PUSH2 0x100 EXP SWAP1 DIV PUSH20 0xFFFFFFFFFFFFFFFFFFFFFFFFFFFFFFFFFFFFFFFF AND SWAP1 POP SWAP2 SWAP1 POP JUMP JUMPDEST PUSH1 0x0 DUP1 PUSH1 0x0 DUP1 DUP5 DUP2 MSTORE PUSH1 0x20 ADD SWAP1 DUP2 MSTORE PUSH1 0x20 ADD PUSH1 0x0 KECCAK256 PUSH1 0x0 ADD PUSH1 0x0 SWAP1 SLOAD SWAP1 PUSH2 0x100 EXP SWAP1 DIV PUSH20 0xFFFFFFFFFFFFFFFFFFFFFFFFFFFFFFFFFFFFFFFF AND SWAP1 POP ADDRESS PUSH20 0xFFFFFFFFFFFFFFFFFFFFFFFFFFFFFFFFFFFFFFFF AND DUP2 PUSH20 0xFFFFFFFFFFFFFFFFFFFFFFFFFFFFFFFFFFFFFFFF AND EQ ISZERO PUSH2 0x6AF JUMPI PUSH1 0x0 SWAP2 POP POP PUSH2 0x6B4 JUMP JUMPDEST DUP1 SWAP2 POP POP JUMPDEST SWAP2 SWAP1 POP JUMP JUMPDEST PUSH1 0x0 DUP4 PUSH1 0x0 DUP1 PUSH1 0x0 DUP4 DUP2 MSTORE PUSH1 0x20 ADD SWAP1 DUP2 MSTORE PUSH1 0x20 ADD PUSH1 0x0 KECCAK256 PUSH1 0x0 ADD PUSH1 0x0 SWAP1 SLOAD SWAP1 PUSH2 0x100 EXP SWAP1 DIV PUSH20 0xFFFFFFFFFFFFFFFFFFFFFFFFFFFFFFFFFFFFFFFF AND SWAP1 POP CALLER PUSH20 0xFFFFFFFFFFFFFFFFFFFFFFFFFFFFFFFFFFFFFFFF AND DUP2 PUSH20 0xFFFFFFFFFFFFFFFFFFFFFFFFFFFFFFFFFFFFFFFF AND EQ DUP1 PUSH2 0x7B6 JUMPI POP PUSH1 0x1 PUSH1 0x0 DUP3 PUSH20 0xFFFFFFFFFFFFFFFFFFFFFFFFFFFFFFFFFFFFFFFF AND PUSH20 0xFFFFFFFFFFFFFFFFFFFFFFFFFFFFFFFFFFFFFFFF AND DUP2 MSTORE PUSH1 0x20 ADD SWAP1 DUP2 MSTORE PUSH1 0x20 ADD PUSH1 0x0 KECCAK256 PUSH1 0x0 CALLER PUSH20 0xFFFFFFFFFFFFFFFFFFFFFFFFFFFFFFFFFFFFFFFF AND PUSH20 0xFFFFFFFFFFFFFFFFFFFFFFFFFFFFFFFFFFFFFFFF AND DUP2 MSTORE PUSH1 0x20 ADD SWAP1 DUP2 MSTORE PUSH1 0x20 ADD PUSH1 0x0 KECCAK256 PUSH1 0x0 SWAP1 SLOAD SWAP1 PUSH2 0x100 EXP SWAP1 DIV PUSH1 0xFF AND JUMPDEST ISZERO ISZERO PUSH2 0x7C1 JUMPI PUSH1 0x0 DUP1 REVERT JUMPDEST PUSH1 0x0 DUP7 DUP7 PUSH1 0x40 MLOAD PUSH1 0x20 ADD DUP1 DUP4 DUP2 MSTORE PUSH1 0x20 ADD DUP3 DUP2 MSTORE PUSH1 0x20 ADD SWAP3 POP POP POP PUSH1 0x40 MLOAD PUSH1 0x20 DUP2 DUP4 SUB SUB DUP2 MSTORE SWAP1 PUSH1 0x40 MSTORE DUP1 MLOAD SWAP1 PUSH1 0x20 ADD KECCAK256 SWAP1 POP PUSH2 0x7FE DUP2 DUP7 PUSH2 0xFB5 JUMP JUMPDEST DUP6 DUP8 PUSH32 0xCE0457FE73731F824CC272376169235128C118B49D344817417C6D108D155E82 DUP8 PUSH1 0x40 MLOAD DUP1 DUP3 PUSH20 0xFFFFFFFFFFFFFFFFFFFFFFFFFFFFFFFFFFFFFFFF AND PUSH20 0xFFFFFFFFFFFFFFFFFFFFFFFFFFFFFFFFFFFFFFFF AND DUP2 MSTORE PUSH1 0x20 ADD SWAP2 POP POP PUSH1 0x40 MLOAD DUP1 SWAP2 SUB SWAP1 LOG3 DUP1 SWAP4 POP POP POP POP SWAP4 SWAP3 POP POP POP JUMP JUMPDEST DUP2 PUSH1 0x0 DUP1 PUSH1 0x0 DUP4 DUP2 MSTORE PUSH1 0x20 ADD SWAP1 DUP2 MSTORE PUSH1 0x20 ADD PUSH1 0x0 KECCAK256 PUSH1 0x0 ADD PUSH1 0x0 SWAP1 SLOAD SWAP1 PUSH2 0x100 EXP SWAP1 DIV PUSH20 0xFFFFFFFFFFFFFFFFFFFFFFFFFFFFFFFFFFFFFFFF AND SWAP1 POP CALLER PUSH20 0xFFFFFFFFFFFFFFFFFFFFFFFFFFFFFFFFFFFFFFFF AND DUP2 PUSH20 0xFFFFFFFFFFFFFFFFFFFFFFFFFFFFFFFFFFFFFFFF AND EQ DUP1 PUSH2 0x96B JUMPI POP PUSH1 0x1 PUSH1 0x0 DUP3 PUSH20 0xFFFFFFFFFFFFFFFFFFFFFFFFFFFFFFFFFFFFFFFF AND PUSH20 0xFFFFFFFFFFFFFFFFFFFFFFFFFFFFFFFFFFFFFFFF AND DUP2 MSTORE PUSH1 0x20 ADD SWAP1 DUP2 MSTORE PUSH1 0x20 ADD PUSH1 0x0 KECCAK256 PUSH1 0x0 CALLER PUSH20 0xFFFFFFFFFFFFFFFFFFFFFFFFFFFFFFFFFFFFFFFF AND PUSH20 0xFFFFFFFFFFFFFFFFFFFFFFFFFFFFFFFFFFFFFFFF AND DUP2 MSTORE PUSH1 0x20 ADD SWAP1 DUP2 MSTORE PUSH1 0x20 ADD PUSH1 0x0 KECCAK256 PUSH1 0x0 SWAP1 SLOAD SWAP1 PUSH2 0x100 EXP SWAP1 DIV PUSH1 0xFF AND JUMPDEST ISZERO ISZERO PUSH2 0x976 JUMPI PUSH1 0x0 DUP1 REVERT JUMPDEST DUP4 PUSH32 0x1D4F9BBFC9CAB89D66E1A1562F2233CCBF1308CB4F63DE2EAD5787ADDDB8FA68 DUP5 PUSH1 0x40 MLOAD DUP1 DUP3 PUSH8 0xFFFFFFFFFFFFFFFF AND PUSH8 0xFFFFFFFFFFFFFFFF AND DUP2 MSTORE PUSH1 0x20 ADD SWAP2 POP POP PUSH1 0x40 MLOAD DUP1 SWAP2 SUB SWAP1 LOG2 DUP3 PUSH1 0x0 DUP1 DUP7 DUP2 MSTORE PUSH1 0x20 ADD SWAP1 DUP2 MSTORE PUSH1 0x20 ADD PUSH1 0x0 KECCAK256 PUSH1 0x1 ADD PUSH1 0x14 PUSH2 0x100 EXP DUP2 SLOAD DUP2 PUSH8 0xFFFFFFFFFFFFFFFF MUL NOT AND SWAP1 DUP4 PUSH8 0xFFFFFFFFFFFFFFFF AND MUL OR SWAP1 SSTORE POP POP POP POP POP JUMP JUMPDEST PUSH1 0x0 DUP1 PUSH1 0x0 DUP4 DUP2 MSTORE PUSH1 0x20 ADD SWAP1 DUP2 MSTORE PUSH1 0x20 ADD PUSH1 0x0 KECCAK256 PUSH1 0x1 ADD PUSH1 0x14 SWAP1 SLOAD SWAP1 PUSH2 0x100 EXP SWAP1 DIV PUSH8 0xFFFFFFFFFFFFFFFF AND SWAP1 POP SWAP2 SWAP1 POP JUMP JUMPDEST DUP2 PUSH1 0x0 DUP1 PUSH1 0x0 DUP4 DUP2 MSTORE PUSH1 0x20 ADD SWAP1 DUP2 MSTORE PUSH1 0x20 ADD PUSH1 0x0 KECCAK256 PUSH1 0x0 ADD PUSH1 0x0 SWAP1 SLOAD SWAP1 PUSH2 0x100 EXP SWAP1 DIV PUSH20 0xFFFFFFFFFFFFFFFFFFFFFFFFFFFFFFFFFFFFFFFF AND SWAP1 POP CALLER PUSH20 0xFFFFFFFFFFFFFFFFFFFFFFFFFFFFFFFFFFFFFFFF AND DUP2 PUSH20 0xFFFFFFFFFFFFFFFFFFFFFFFFFFFFFFFFFFFFFFFF AND EQ DUP1 PUSH2 0xB32 JUMPI POP PUSH1 0x1 PUSH1 0x0 DUP3 PUSH20 0xFFFFFFFFFFFFFFFFFFFFFFFFFFFFFFFFFFFFFFFF AND PUSH20 0xFFFFFFFFFFFFFFFFFFFFFFFFFFFFFFFFFFFFFFFF AND DUP2 MSTORE PUSH1 0x20 ADD SWAP1 DUP2 MSTORE PUSH1 0x20 ADD PUSH1 0x0 KECCAK256 PUSH1 0x0 CALLER PUSH20 0xFFFFFFFFFFFFFFFFFFFFFFFFFFFFFFFFFFFFFFFF AND PUSH20 0xFFFFFFFFFFFFFFFFFFFFFFFFFFFFFFFFFFFFFFFF AND DUP2 MSTORE PUSH1 0x20 ADD SWAP1 DUP2 MSTORE PUSH1 0x20 ADD PUSH1 0x0 KECCAK256 PUSH1 0x0 SWAP1 SLOAD SWAP1 PUSH2 0x100 EXP SWAP1 DIV PUSH1 0xFF AND JUMPDEST ISZERO ISZERO PUSH2 0xB3D JUMPI PUSH1 0x0 DUP1 REVERT JUMPDEST DUP4 PUSH32 0x335721B01866DC23FBEE8B6B2C7B1E14D6F05C28CD35A2C934239F94095602A0 DUP5 PUSH1 0x40 MLOAD DUP1 DUP3 PUSH20 0xFFFFFFFFFFFFFFFFFFFFFFFFFFFFFFFFFFFFFFFF AND PUSH20 0xFFFFFFFFFFFFFFFFFFFFFFFFFFFFFFFFFFFFFFFF AND DUP2 MSTORE PUSH1 0x20 ADD SWAP2 POP POP PUSH1 0x40 MLOAD DUP1 SWAP2 SUB SWAP1 LOG2 DUP3 PUSH1 0x0 DUP1 DUP7 DUP2 MSTORE PUSH1 0x20 ADD SWAP1 DUP2 MSTORE PUSH1 0x20 ADD PUSH1 0x0 KECCAK256 PUSH1 0x1 ADD PUSH1 0x0 PUSH2 0x100 EXP DUP2 SLOAD DUP2 PUSH20 0xFFFFFFFFFFFFFFFFFFFFFFFFFFFFFFFFFFFFFFFF MUL NOT AND SWAP1 DUP4 PUSH20 0xFFFFFFFFFFFFFFFFFFFFFFFFFFFFFFFFFFFFFFFF AND MUL OR SWAP1 SSTORE POP POP POP POP POP JUMP JUMPDEST DUP2 PUSH1 0x0 DUP1 PUSH1 0x0 DUP4 DUP2 MSTORE PUSH1 0x20 ADD SWAP1 DUP2 MSTORE PUSH1 0x20 ADD PUSH1 0x0 KECCAK256 PUSH1 0x0 ADD PUSH1 0x0 SWAP1 SLOAD SWAP1 PUSH2 0x100 EXP SWAP1 DIV PUSH20 0xFFFFFFFFFFFFFFFFFFFFFFFFFFFFFFFFFFFFFFFF AND SWAP1 POP CALLER PUSH20 0xFFFFFFFFFFFFFFFFFFFFFFFFFFFFFFFFFFFFFFFF AND DUP2 PUSH20 0xFFFFFFFFFFFFFFFFFFFFFFFFFFFFFFFFFFFFFFFF AND EQ DUP1 PUSH2 0xCF6 JUMPI POP PUSH1 0x1 PUSH1 0x0 DUP3 PUSH20 0xFFFFFFFFFFFFFFFFFFFFFFFFFFFFFFFFFFFFFFFF AND PUSH20 0xFFFFFFFFFFFFFFFFFFFFFFFFFFFFFFFFFFFFFFFF AND DUP2 MSTORE PUSH1 0x20 ADD SWAP1 DUP2 MSTORE PUSH1 0x20 ADD PUSH1 0x0 KECCAK256 PUSH1 0x0 CALLER PUSH20 0xFFFFFFFFFFFFFFFFFFFFFFFFFFFFFFFFFFFFFFFF AND PUSH20 0xFFFFFFFFFFFFFFFFFFFFFFFFFFFFFFFFFFFFFFFF AND DUP2 MSTORE PUSH1 0x20 ADD SWAP1 DUP2 MSTORE PUSH1 0x20 ADD PUSH1 0x0 KECCAK256 PUSH1 0x0 SWAP1 SLOAD SWAP1 PUSH2 0x100 EXP SWAP1 DIV PUSH1 0xFF AND JUMPDEST ISZERO ISZERO PUSH2 0xD01 JUMPI PUSH1 0x0 DUP1 REVERT JUMPDEST PUSH2 0xD0B DUP5 DUP5 PUSH2 0xFB5 JUMP JUMPDEST DUP4 PUSH32 0xD4735D920B0F87494915F556DD9B54C8F309026070CAEA5C737245152564D266 DUP5 PUSH1 0x40 MLOAD DUP1 DUP3 PUSH20 0xFFFFFFFFFFFFFFFFFFFFFFFFFFFFFFFFFFFFFFFF AND PUSH20 0xFFFFFFFFFFFFFFFFFFFFFFFFFFFFFFFFFFFFFFFF AND DUP2 MSTORE PUSH1 0x20 ADD SWAP2 POP POP PUSH1 0x40 MLOAD DUP1 SWAP2 SUB SWAP1 LOG2 POP POP POP POP JUMP JUMPDEST PUSH1 0x0 PUSH2 0xD82 DUP7 DUP7 DUP7 PUSH2 0x6B9 JUMP JUMPDEST SWAP1 POP PUSH2 0xD8F DUP2 DUP5 DUP5 PUSH2 0x100D JUMP JUMPDEST POP POP POP POP POP POP JUMP JUMPDEST DUP1 PUSH1 0x1 PUSH1 0x0 CALLER PUSH20 0xFFFFFFFFFFFFFFFFFFFFFFFFFFFFFFFFFFFFFFFF AND PUSH20 0xFFFFFFFFFFFFFFFFFFFFFFFFFFFFFFFFFFFFFFFF AND DUP2 MSTORE PUSH1 0x20 ADD SWAP1 DUP2 MSTORE PUSH1 0x20 ADD PUSH1 0x0 KECCAK256 PUSH1 0x0 DUP5 PUSH20 0xFFFFFFFFFFFFFFFFFFFFFFFFFFFFFFFFFFFFFFFF AND PUSH20 0xFFFFFFFFFFFFFFFFFFFFFFFFFFFFFFFFFFFFFFFF AND DUP2 MSTORE PUSH1 0x20 ADD SWAP1 DUP2 MSTORE PUSH1 0x20 ADD PUSH1 0x0 KECCAK256 PUSH1 0x0 PUSH2 0x100 EXP DUP2 SLOAD DUP2 PUSH1 0xFF MUL NOT AND SWAP1 DUP4 ISZERO ISZERO MUL OR SWAP1 SSTORE POP DUP2 PUSH20 0xFFFFFFFFFFFFFFFFFFFFFFFFFFFFFFFFFFFFFFFF AND CALLER PUSH20 0xFFFFFFFFFFFFFFFFFFFFFFFFFFFFFFFFFFFFFFFF AND PUSH32 0x17307EAB39AB6107E8899845AD3D59BD9653F200F220920489CA2B5937696C31 DUP4 PUSH1 0x40 MLOAD DUP1 DUP3 ISZERO ISZERO ISZERO ISZERO DUP2 MSTORE PUSH1 0x20 ADD SWAP2 POP POP PUSH1 0x40 MLOAD DUP1 SWAP2 SUB SWAP1 LOG3 POP POP JUMP JUMPDEST PUSH2 0xEA2 DUP5 DUP5 PUSH2 0xBFB JUMP JUMPDEST PUSH2 0xEAD DUP5 DUP4 DUP4 PUSH2 0x100D JUMP JUMPDEST POP POP POP POP JUMP JUMPDEST PUSH1 0x0 PUSH1 0x1 PUSH1 0x0 DUP5 PUSH20 0xFFFFFFFFFFFFFFFFFFFFFFFFFFFFFFFFFFFFFFFF AND PUSH20 0xFFFFFFFFFFFFFFFFFFFFFFFFFFFFFFFFFFFFFFFF AND DUP2 MSTORE PUSH1 0x20 ADD SWAP1 DUP2 MSTORE PUSH1 0x20 ADD PUSH1 0x0 KECCAK256 PUSH1 0x0 DUP4 PUSH20 0xFFFFFFFFFFFFFFFFFFFFFFFFFFFFFFFFFFFFFFFF AND PUSH20 0xFFFFFFFFFFFFFFFFFFFFFFFFFFFFFFFFFFFFFFFF AND DUP2 MSTORE PUSH1 0x20 ADD SWAP1 DUP2 MSTORE PUSH1 0x20 ADD PUSH1 0x0 KECCAK256 PUSH1 0x0 SWAP1 SLOAD SWAP1 PUSH2 0x100 EXP SWAP1 DIV PUSH1 0xFF AND SWAP1 POP SWAP3 SWAP2 POP POP JUMP JUMPDEST PUSH1 0x0 DUP1 PUSH20 0xFFFFFFFFFFFFFFFFFFFFFFFFFFFFFFFFFFFFFFFF AND PUSH1 0x0 DUP1 DUP5 DUP2 MSTORE PUSH1 0x20 ADD SWAP1 DUP2 MSTORE PUSH1 0x20 ADD PUSH1 0x0 KECCAK256 PUSH1 0x0 ADD PUSH1 0x0 SWAP1 SLOAD SWAP1 PUSH2 0x100 EXP SWAP1 DIV PUSH20 0xFFFFFFFFFFFFFFFFFFFFFFFFFFFFFFFFFFFFFFFF AND PUSH20 0xFFFFFFFFFFFFFFFFFFFFFFFFFFFFFFFFFFFFFFFF AND EQ ISZERO SWAP1 POP SWAP2 SWAP1 POP JUMP JUMPDEST DUP1 PUSH1 0x0 DUP1 DUP5 DUP2 MSTORE PUSH1 0x20 ADD SWAP1 DUP2 MSTORE PUSH1 0x20 ADD PUSH1 0x0 KECCAK256 PUSH1 0x0 ADD PUSH1 0x0 PUSH2 0x100 EXP DUP2 SLOAD DUP2 PUSH20 0xFFFFFFFFFFFFFFFFFFFFFFFFFFFFFFFFFFFFFFFF MUL NOT AND SWAP1 DUP4 PUSH20 0xFFFFFFFFFFFFFFFFFFFFFFFFFFFFFFFFFFFFFFFF AND MUL OR SWAP1 SSTORE POP POP POP JUMP JUMPDEST PUSH1 0x0 DUP1 DUP5 DUP2 MSTORE PUSH1 0x20 ADD SWAP1 DUP2 MSTORE PUSH1 0x20 ADD PUSH1 0x0 KECCAK256 PUSH1 0x1 ADD PUSH1 0x0 SWAP1 SLOAD SWAP1 PUSH2 0x100 EXP SWAP1 DIV PUSH20 0xFFFFFFFFFFFFFFFFFFFFFFFFFFFFFFFFFFFFFFFF AND PUSH20 0xFFFFFFFFFFFFFFFFFFFFFFFFFFFFFFFFFFFFFFFF AND DUP3 PUSH20 0xFFFFFFFFFFFFFFFFFFFFFFFFFFFFFFFFFFFFFFFF AND EQ ISZERO ISZERO PUSH2 0x1130 JUMPI DUP2 PUSH1 0x0 DUP1 DUP6 DUP2 MSTORE PUSH1 0x20 ADD SWAP1 DUP2 MSTORE PUSH1 0x20 ADD PUSH1 0x0 KECCAK256 PUSH1 0x1 ADD PUSH1 0x0 PUSH2 0x100 EXP DUP2 SLOAD DUP2 PUSH20 0xFFFFFFFFFFFFFFFFFFFFFFFFFFFFFFFFFFFFFFFF MUL NOT AND SWAP1 DUP4 PUSH20 0xFFFFFFFFFFFFFFFFFFFFFFFFFFFFFFFFFFFFFFFF AND MUL OR SWAP1 SSTORE POP DUP3 PUSH32 0x335721B01866DC23FBEE8B6B2C7B1E14D6F05C28CD35A2C934239F94095602A0 DUP4 PUSH1 0x40 MLOAD DUP1 DUP3 PUSH20 0xFFFFFFFFFFFFFFFFFFFFFFFFFFFFFFFFFFFFFFFF AND PUSH20 0xFFFFFFFFFFFFFFFFFFFFFFFFFFFFFFFFFFFFFFFF AND DUP2 MSTORE PUSH1 0x20 ADD SWAP2 POP POP PUSH1 0x40 MLOAD DUP1 SWAP2 SUB SWAP1 LOG2 JUMPDEST PUSH1 0x0 DUP1 DUP5 DUP2 MSTORE PUSH1 0x20 ADD SWAP1 DUP2 MSTORE PUSH1 0x20 ADD PUSH1 0x0 KECCAK256 PUSH1 0x1 ADD PUSH1 0x14 SWAP1 SLOAD SWAP1 PUSH2 0x100 EXP SWAP1 DIV PUSH8 0xFFFFFFFFFFFFFFFF AND PUSH8 0xFFFFFFFFFFFFFFFF AND DUP2 PUSH8 0xFFFFFFFFFFFFFFFF AND EQ ISZERO ISZERO PUSH2 0x11FF JUMPI DUP1 PUSH1 0x0 DUP1 DUP6 DUP2 MSTORE PUSH1 0x20 ADD SWAP1 DUP2 MSTORE PUSH1 0x20 ADD PUSH1 0x0 KECCAK256 PUSH1 0x1 ADD PUSH1 0x14 PUSH2 0x100 EXP DUP2 SLOAD DUP2 PUSH8 0xFFFFFFFFFFFFFFFF MUL NOT AND SWAP1 DUP4 PUSH8 0xFFFFFFFFFFFFFFFF AND MUL OR SWAP1 SSTORE POP DUP3 PUSH32 0x1D4F9BBFC9CAB89D66E1A1562F2233CCBF1308CB4F63DE2EAD5787ADDDB8FA68 DUP3 PUSH1 0x40 MLOAD DUP1 DUP3 PUSH8 0xFFFFFFFFFFFFFFFF AND PUSH8 0xFFFFFFFFFFFFFFFF AND DUP2 MSTORE PUSH1 0x20 ADD SWAP2 POP POP PUSH1 0x40 MLOAD DUP1 SWAP2 SUB SWAP1 LOG2 JUMPDEST POP POP POP JUMP INVALID LOG1 PUSH6 0x627A7A723058 KECCAK256 MUL 0xe3 0xb0 0x2d PUSH22 0x8187232239B36C239C7CB28CE1EA0CEE424EDCDE3EDC 0xb2 0xfc 0x2b 0xe0 0xb7 STOP 0x29 "
				},
				"gasEstimates": {
					"creation": {
						"codeDepositCost": "931200",
						"executionCost": "21326",
						"totalCost": "952526"
					},
					"external": {
						"isApprovedForAll(address,address)": "978",
						"owner(bytes32)": "704",
						"recordExists(bytes32)": "884",
						"resolver(bytes32)": "621",
						"setApprovalForAll(address,bool)": "22726",
						"setOwner(bytes32,address)": "23041",
						"setRecord(bytes32,address,address,uint64)": "67676",
						"setResolver(bytes32,address)": "22985",
						"setSubnodeOwner(bytes32,bytes32,address)": "23598",
						"setSubnodeRecord(bytes32,bytes32,address,address,uint64)": "68243",
						"setTTL(bytes32,uint64)": "22991",
						"ttl(bytes32)": "759"
					},
					"internal": {
						"_setOwner(bytes32,address)": "20370",
						"_setResolverAndTTL(bytes32,address,uint64)": "infinite"
					}
				},
				"methodIdentifiers": {
					"isApprovedForAll(address,address)": "e985e9c5",
					"owner(bytes32)": "02571be3",
					"recordExists(bytes32)": "f79fe538",
					"resolver(bytes32)": "0178b8bf",
					"setApprovalForAll(address,bool)": "a22cb465",
					"setOwner(bytes32,address)": "5b0fc9c3",
					"setRecord(bytes32,address,address,uint64)": "cf408823",
					"setResolver(bytes32,address)": "1896f70a",
					"setSubnodeOwner(bytes32,bytes32,address)": "06ab5923",
					"setSubnodeRecord(bytes32,bytes32,address,address,uint64)": "5ef2c7f0",
					"setTTL(bytes32,uint64)": "14ab9038",
					"ttl(bytes32)": "16a25cbd"
				}
			},
			"userdoc": {
				"methods": {},
				"notice": "The ENS registry contract.\r"
			}
		}
	}
}